{
  "_format": "hh-sol-artifact-1",
  "contractName": "GuildBankTimeLock",
  "sourceName": "contracts/GuildBankTimeLock.sol",
  "abi": [
    {
      "inputs": [
        {
          "internalType": "address",
          "name": "initialAuthority",
          "type": "address"
        },
        {
          "internalType": "uint256",
          "name": "minDelay",
          "type": "uint256"
        },
        {
          "internalType": "address[]",
          "name": "proposers",
          "type": "address[]"
        },
        {
          "internalType": "address[]",
          "name": "executors",
          "type": "address[]"
        },
        {
          "internalType": "address",
          "name": "admin",
          "type": "address"
        }
      ],
      "stateMutability": "nonpayable",
      "type": "constructor"
    },
    {
      "inputs": [],
      "name": "AccessControlBadConfirmation",
      "type": "error"
    },
    {
      "inputs": [
        {
          "internalType": "address",
          "name": "account",
          "type": "address"
        },
        {
          "internalType": "bytes32",
          "name": "neededRole",
          "type": "bytes32"
        }
      ],
      "name": "AccessControlUnauthorizedAccount",
      "type": "error"
    },
    {
      "inputs": [
        {
          "internalType": "address",
          "name": "authority",
          "type": "address"
        }
      ],
      "name": "AccessManagedInvalidAuthority",
      "type": "error"
    },
    {
      "inputs": [
        {
          "internalType": "address",
          "name": "caller",
          "type": "address"
        },
        {
          "internalType": "uint32",
          "name": "delay",
          "type": "uint32"
        }
      ],
      "name": "AccessManagedRequiredDelay",
      "type": "error"
    },
    {
      "inputs": [
        {
          "internalType": "address",
          "name": "caller",
          "type": "address"
        }
      ],
      "name": "AccessManagedUnauthorized",
      "type": "error"
    },
    {
      "inputs": [],
      "name": "FailedCall",
      "type": "error"
    },
    {
      "inputs": [
        {
          "internalType": "uint256",
          "name": "delay",
          "type": "uint256"
        },
        {
          "internalType": "uint256",
          "name": "minDelay",
          "type": "uint256"
        }
      ],
      "name": "TimelockInsufficientDelay",
      "type": "error"
    },
    {
      "inputs": [
        {
          "internalType": "uint256",
          "name": "targets",
          "type": "uint256"
        },
        {
          "internalType": "uint256",
          "name": "payloads",
          "type": "uint256"
        },
        {
          "internalType": "uint256",
          "name": "values",
          "type": "uint256"
        }
      ],
      "name": "TimelockInvalidOperationLength",
      "type": "error"
    },
    {
      "inputs": [
        {
          "internalType": "address",
          "name": "caller",
          "type": "address"
        }
      ],
      "name": "TimelockUnauthorizedCaller",
      "type": "error"
    },
    {
      "inputs": [
        {
          "internalType": "bytes32",
          "name": "predecessorId",
          "type": "bytes32"
        }
      ],
      "name": "TimelockUnexecutedPredecessor",
      "type": "error"
    },
    {
      "inputs": [
        {
          "internalType": "bytes32",
          "name": "operationId",
          "type": "bytes32"
        },
        {
          "internalType": "bytes32",
          "name": "expectedStates",
          "type": "bytes32"
        }
      ],
      "name": "TimelockUnexpectedOperationState",
      "type": "error"
    },
    {
      "anonymous": false,
      "inputs": [
        {
          "indexed": false,
          "internalType": "address",
          "name": "authority",
          "type": "address"
        }
      ],
      "name": "AuthorityUpdated",
      "type": "event"
    },
    {
      "anonymous": false,
      "inputs": [
        {
          "indexed": true,
          "internalType": "bytes32",
          "name": "id",
          "type": "bytes32"
        },
        {
          "indexed": true,
          "internalType": "uint256",
          "name": "index",
          "type": "uint256"
        },
        {
          "indexed": false,
          "internalType": "address",
          "name": "target",
          "type": "address"
        },
        {
          "indexed": false,
          "internalType": "uint256",
          "name": "value",
          "type": "uint256"
        },
        {
          "indexed": false,
          "internalType": "bytes",
          "name": "data",
          "type": "bytes"
        }
      ],
      "name": "CallExecuted",
      "type": "event"
    },
    {
      "anonymous": false,
      "inputs": [
        {
          "indexed": true,
          "internalType": "bytes32",
          "name": "id",
          "type": "bytes32"
        },
        {
          "indexed": false,
          "internalType": "bytes32",
          "name": "salt",
          "type": "bytes32"
        }
      ],
      "name": "CallSalt",
      "type": "event"
    },
    {
      "anonymous": false,
      "inputs": [
        {
          "indexed": true,
          "internalType": "bytes32",
          "name": "id",
          "type": "bytes32"
        },
        {
          "indexed": true,
          "internalType": "uint256",
          "name": "index",
          "type": "uint256"
        },
        {
          "indexed": false,
          "internalType": "address",
          "name": "target",
          "type": "address"
        },
        {
          "indexed": false,
          "internalType": "uint256",
          "name": "value",
          "type": "uint256"
        },
        {
          "indexed": false,
          "internalType": "bytes",
          "name": "data",
          "type": "bytes"
        },
        {
          "indexed": false,
          "internalType": "bytes32",
          "name": "predecessor",
          "type": "bytes32"
        },
        {
          "indexed": false,
          "internalType": "uint256",
          "name": "delay",
          "type": "uint256"
        }
      ],
      "name": "CallScheduled",
      "type": "event"
    },
    {
      "anonymous": false,
      "inputs": [
        {
          "indexed": true,
          "internalType": "bytes32",
          "name": "id",
          "type": "bytes32"
        }
      ],
      "name": "Cancelled",
      "type": "event"
    },
    {
      "anonymous": false,
      "inputs": [
        {
          "indexed": false,
          "internalType": "uint256",
          "name": "oldDuration",
          "type": "uint256"
        },
        {
          "indexed": false,
          "internalType": "uint256",
          "name": "newDuration",
          "type": "uint256"
        }
      ],
      "name": "MinDelayChange",
      "type": "event"
    },
    {
      "anonymous": false,
      "inputs": [
        {
          "indexed": true,
          "internalType": "bytes32",
          "name": "role",
          "type": "bytes32"
        },
        {
          "indexed": true,
          "internalType": "bytes32",
          "name": "previousAdminRole",
          "type": "bytes32"
        },
        {
          "indexed": true,
          "internalType": "bytes32",
          "name": "newAdminRole",
          "type": "bytes32"
        }
      ],
      "name": "RoleAdminChanged",
      "type": "event"
    },
    {
      "anonymous": false,
      "inputs": [
        {
          "indexed": true,
          "internalType": "bytes32",
          "name": "role",
          "type": "bytes32"
        },
        {
          "indexed": true,
          "internalType": "address",
          "name": "account",
          "type": "address"
        },
        {
          "indexed": true,
          "internalType": "address",
          "name": "sender",
          "type": "address"
        }
      ],
      "name": "RoleGranted",
      "type": "event"
    },
    {
      "anonymous": false,
      "inputs": [
        {
          "indexed": true,
          "internalType": "bytes32",
          "name": "role",
          "type": "bytes32"
        },
        {
          "indexed": true,
          "internalType": "address",
          "name": "account",
          "type": "address"
        },
        {
          "indexed": true,
          "internalType": "address",
          "name": "sender",
          "type": "address"
        }
      ],
      "name": "RoleRevoked",
      "type": "event"
    },
    {
      "inputs": [],
      "name": "CANCELLER_ROLE",
      "outputs": [
        {
          "internalType": "bytes32",
          "name": "",
          "type": "bytes32"
        }
      ],
      "stateMutability": "view",
      "type": "function"
    },
    {
      "inputs": [],
      "name": "DEFAULT_ADMIN_ROLE",
      "outputs": [
        {
          "internalType": "bytes32",
          "name": "",
          "type": "bytes32"
        }
      ],
      "stateMutability": "view",
      "type": "function"
    },
    {
      "inputs": [],
      "name": "EXECUTOR_ROLE",
      "outputs": [
        {
          "internalType": "bytes32",
          "name": "",
          "type": "bytes32"
        }
      ],
      "stateMutability": "view",
      "type": "function"
    },
    {
      "inputs": [],
      "name": "PROPOSER_ROLE",
      "outputs": [
        {
          "internalType": "bytes32",
          "name": "",
          "type": "bytes32"
        }
      ],
      "stateMutability": "view",
      "type": "function"
    },
    {
      "inputs": [],
      "name": "authority",
      "outputs": [
        {
          "internalType": "address",
          "name": "",
          "type": "address"
        }
      ],
      "stateMutability": "view",
      "type": "function"
    },
    {
      "inputs": [
        {
          "internalType": "bytes32",
          "name": "id",
          "type": "bytes32"
        }
      ],
      "name": "cancel",
      "outputs": [],
      "stateMutability": "nonpayable",
      "type": "function"
    },
    {
      "inputs": [
        {
          "internalType": "address",
          "name": "target",
          "type": "address"
        },
        {
          "internalType": "uint256",
          "name": "value",
          "type": "uint256"
        },
        {
          "internalType": "bytes",
          "name": "payload",
          "type": "bytes"
        },
        {
          "internalType": "bytes32",
          "name": "predecessor",
          "type": "bytes32"
        },
        {
          "internalType": "bytes32",
          "name": "salt",
          "type": "bytes32"
        }
      ],
      "name": "execute",
      "outputs": [],
      "stateMutability": "payable",
      "type": "function"
    },
    {
      "inputs": [
        {
          "internalType": "address[]",
          "name": "targets",
          "type": "address[]"
        },
        {
          "internalType": "uint256[]",
          "name": "values",
          "type": "uint256[]"
        },
        {
          "internalType": "bytes[]",
          "name": "payloads",
          "type": "bytes[]"
        },
        {
          "internalType": "bytes32",
          "name": "predecessor",
          "type": "bytes32"
        },
        {
          "internalType": "bytes32",
          "name": "salt",
          "type": "bytes32"
        }
      ],
      "name": "executeBatch",
      "outputs": [],
      "stateMutability": "payable",
      "type": "function"
    },
    {
      "inputs": [],
      "name": "getMinDelay",
      "outputs": [
        {
          "internalType": "uint256",
          "name": "",
          "type": "uint256"
        }
      ],
      "stateMutability": "view",
      "type": "function"
    },
    {
      "inputs": [
        {
          "internalType": "bytes32",
          "name": "id",
          "type": "bytes32"
        }
      ],
      "name": "getOperationState",
      "outputs": [
        {
          "internalType": "enum TimelockController.OperationState",
          "name": "",
          "type": "uint8"
        }
      ],
      "stateMutability": "view",
      "type": "function"
    },
    {
      "inputs": [
        {
          "internalType": "bytes32",
          "name": "role",
          "type": "bytes32"
        }
      ],
      "name": "getRoleAdmin",
      "outputs": [
        {
          "internalType": "bytes32",
          "name": "",
          "type": "bytes32"
        }
      ],
      "stateMutability": "view",
      "type": "function"
    },
    {
      "inputs": [
        {
          "internalType": "bytes32",
          "name": "id",
          "type": "bytes32"
        }
      ],
      "name": "getTimestamp",
      "outputs": [
        {
          "internalType": "uint256",
          "name": "",
          "type": "uint256"
        }
      ],
      "stateMutability": "view",
      "type": "function"
    },
    {
      "inputs": [
        {
          "internalType": "bytes32",
          "name": "role",
          "type": "bytes32"
        },
        {
          "internalType": "address",
          "name": "account",
          "type": "address"
        }
      ],
      "name": "grantRole",
      "outputs": [],
      "stateMutability": "nonpayable",
      "type": "function"
    },
    {
      "inputs": [
        {
          "internalType": "bytes32",
          "name": "role",
          "type": "bytes32"
        },
        {
          "internalType": "address",
          "name": "account",
          "type": "address"
        }
      ],
      "name": "hasRole",
      "outputs": [
        {
          "internalType": "bool",
          "name": "",
          "type": "bool"
        }
      ],
      "stateMutability": "view",
      "type": "function"
    },
    {
      "inputs": [
        {
          "internalType": "address",
          "name": "target",
          "type": "address"
        },
        {
          "internalType": "uint256",
          "name": "value",
          "type": "uint256"
        },
        {
          "internalType": "bytes",
          "name": "data",
          "type": "bytes"
        },
        {
          "internalType": "bytes32",
          "name": "predecessor",
          "type": "bytes32"
        },
        {
          "internalType": "bytes32",
          "name": "salt",
          "type": "bytes32"
        }
      ],
      "name": "hashOperation",
      "outputs": [
        {
          "internalType": "bytes32",
          "name": "",
          "type": "bytes32"
        }
      ],
      "stateMutability": "pure",
      "type": "function"
    },
    {
      "inputs": [
        {
          "internalType": "address[]",
          "name": "targets",
          "type": "address[]"
        },
        {
          "internalType": "uint256[]",
          "name": "values",
          "type": "uint256[]"
        },
        {
          "internalType": "bytes[]",
          "name": "payloads",
          "type": "bytes[]"
        },
        {
          "internalType": "bytes32",
          "name": "predecessor",
          "type": "bytes32"
        },
        {
          "internalType": "bytes32",
          "name": "salt",
          "type": "bytes32"
        }
      ],
      "name": "hashOperationBatch",
      "outputs": [
        {
          "internalType": "bytes32",
          "name": "",
          "type": "bytes32"
        }
      ],
      "stateMutability": "pure",
      "type": "function"
    },
    {
      "inputs": [],
      "name": "isConsumingScheduledOp",
      "outputs": [
        {
          "internalType": "bytes4",
          "name": "",
          "type": "bytes4"
        }
      ],
      "stateMutability": "view",
      "type": "function"
    },
    {
      "inputs": [
        {
          "internalType": "bytes32",
          "name": "id",
          "type": "bytes32"
        }
      ],
      "name": "isOperation",
      "outputs": [
        {
          "internalType": "bool",
          "name": "",
          "type": "bool"
        }
      ],
      "stateMutability": "view",
      "type": "function"
    },
    {
      "inputs": [
        {
          "internalType": "bytes32",
          "name": "id",
          "type": "bytes32"
        }
      ],
      "name": "isOperationDone",
      "outputs": [
        {
          "internalType": "bool",
          "name": "",
          "type": "bool"
        }
      ],
      "stateMutability": "view",
      "type": "function"
    },
    {
      "inputs": [
        {
          "internalType": "bytes32",
          "name": "id",
          "type": "bytes32"
        }
      ],
      "name": "isOperationPending",
      "outputs": [
        {
          "internalType": "bool",
          "name": "",
          "type": "bool"
        }
      ],
      "stateMutability": "view",
      "type": "function"
    },
    {
      "inputs": [
        {
          "internalType": "bytes32",
          "name": "id",
          "type": "bytes32"
        }
      ],
      "name": "isOperationReady",
      "outputs": [
        {
          "internalType": "bool",
          "name": "",
          "type": "bool"
        }
      ],
      "stateMutability": "view",
      "type": "function"
    },
    {
      "inputs": [
        {
          "internalType": "address",
          "name": "",
          "type": "address"
        },
        {
          "internalType": "address",
          "name": "",
          "type": "address"
        },
        {
          "internalType": "uint256[]",
          "name": "",
          "type": "uint256[]"
        },
        {
          "internalType": "uint256[]",
          "name": "",
          "type": "uint256[]"
        },
        {
          "internalType": "bytes",
          "name": "",
          "type": "bytes"
        }
      ],
      "name": "onERC1155BatchReceived",
      "outputs": [
        {
          "internalType": "bytes4",
          "name": "",
          "type": "bytes4"
        }
      ],
      "stateMutability": "nonpayable",
      "type": "function"
    },
    {
      "inputs": [
        {
          "internalType": "address",
          "name": "",
          "type": "address"
        },
        {
          "internalType": "address",
          "name": "",
          "type": "address"
        },
        {
          "internalType": "uint256",
          "name": "",
          "type": "uint256"
        },
        {
          "internalType": "uint256",
          "name": "",
          "type": "uint256"
        },
        {
          "internalType": "bytes",
          "name": "",
          "type": "bytes"
        }
      ],
      "name": "onERC1155Received",
      "outputs": [
        {
          "internalType": "bytes4",
          "name": "",
          "type": "bytes4"
        }
      ],
      "stateMutability": "nonpayable",
      "type": "function"
    },
    {
      "inputs": [
        {
          "internalType": "address",
          "name": "",
          "type": "address"
        },
        {
          "internalType": "address",
          "name": "",
          "type": "address"
        },
        {
          "internalType": "uint256",
          "name": "",
          "type": "uint256"
        },
        {
          "internalType": "bytes",
          "name": "",
          "type": "bytes"
        }
      ],
      "name": "onERC721Received",
      "outputs": [
        {
          "internalType": "bytes4",
          "name": "",
          "type": "bytes4"
        }
      ],
      "stateMutability": "nonpayable",
      "type": "function"
    },
    {
      "inputs": [
        {
          "internalType": "bytes32",
          "name": "role",
          "type": "bytes32"
        },
        {
          "internalType": "address",
          "name": "callerConfirmation",
          "type": "address"
        }
      ],
      "name": "renounceRole",
      "outputs": [],
      "stateMutability": "nonpayable",
      "type": "function"
    },
    {
      "inputs": [
        {
          "internalType": "bytes32",
          "name": "role",
          "type": "bytes32"
        },
        {
          "internalType": "address",
          "name": "account",
          "type": "address"
        }
      ],
      "name": "revokeRole",
      "outputs": [],
      "stateMutability": "nonpayable",
      "type": "function"
    },
    {
      "inputs": [
        {
          "internalType": "address",
          "name": "target",
          "type": "address"
        },
        {
          "internalType": "uint256",
          "name": "value",
          "type": "uint256"
        },
        {
          "internalType": "bytes",
          "name": "data",
          "type": "bytes"
        },
        {
          "internalType": "bytes32",
          "name": "predecessor",
          "type": "bytes32"
        },
        {
          "internalType": "bytes32",
          "name": "salt",
          "type": "bytes32"
        },
        {
          "internalType": "uint256",
          "name": "delay",
          "type": "uint256"
        }
      ],
      "name": "schedule",
      "outputs": [],
      "stateMutability": "nonpayable",
      "type": "function"
    },
    {
      "inputs": [
        {
          "internalType": "address[]",
          "name": "targets",
          "type": "address[]"
        },
        {
          "internalType": "uint256[]",
          "name": "values",
          "type": "uint256[]"
        },
        {
          "internalType": "bytes[]",
          "name": "payloads",
          "type": "bytes[]"
        },
        {
          "internalType": "bytes32",
          "name": "predecessor",
          "type": "bytes32"
        },
        {
          "internalType": "bytes32",
          "name": "salt",
          "type": "bytes32"
        },
        {
          "internalType": "uint256",
          "name": "delay",
          "type": "uint256"
        }
      ],
      "name": "scheduleBatch",
      "outputs": [],
      "stateMutability": "nonpayable",
      "type": "function"
    },
    {
      "inputs": [
        {
          "internalType": "address",
          "name": "newAuthority",
          "type": "address"
        }
      ],
      "name": "setAuthority",
      "outputs": [],
      "stateMutability": "nonpayable",
      "type": "function"
    },
    {
      "inputs": [
        {
          "internalType": "bytes4",
          "name": "interfaceId",
          "type": "bytes4"
        }
      ],
      "name": "supportsInterface",
      "outputs": [
        {
          "internalType": "bool",
          "name": "",
          "type": "bool"
        }
      ],
      "stateMutability": "view",
      "type": "function"
    },
    {
      "inputs": [
        {
          "internalType": "uint256",
          "name": "newDelay",
          "type": "uint256"
        }
      ],
      "name": "updateDelay",
      "outputs": [],
      "stateMutability": "nonpayable",
      "type": "function"
    },
    {
      "stateMutability": "payable",
      "type": "receive"
    }
  ],
  "bytecode": "0x60806040523480156200001157600080fd5b5060405162001f9638038062001f9683398101604081905262000034916200039f565b848484848462000046600030620001b9565b506001600160a01b03811615620000665762000064600082620001b9565b505b60005b83518110156200010657620000c17fb09aa5aeb3702cfd50b6b62bc4532604938f21248a27a1d5ca736082b6819cc1858381518110620000ad57620000ad62000439565b6020026020010151620001b960201b60201c565b50620000fc7ffd643c72710c63c0180259aba6b2d05451e3591a24e58b62239378085726f783858381518110620000ad57620000ad62000439565b5060010162000069565b5060005b825181101562000158576200014e7fd8aa0f3194971a2a116679f7c2090f6939c8d4e01a2a8d7e41d55e5351469e63848381518110620000ad57620000ad62000439565b506001016200010a565b5060028490556040805160008152602081018690527f11c24f4ead16507c69ac467fbd5e4eed5fb5c699626d2cc6d66421df253886d5910160405180910390a150505050620001ad816200026860201b60201c565b5050505050506200044f565b6000828152602081815260408083206001600160a01b038516845290915281205460ff166200025e576000838152602081815260408083206001600160a01b03861684529091529020805460ff19166001179055620002153390565b6001600160a01b0316826001600160a01b0316847f2f8788117e7eff1d82e926ec794901d17c78024a50270940304540a733656f0d60405160405180910390a450600162000262565b5060005b92915050565b600380546001600160a01b0319166001600160a01b0383169081179091556040519081527f2f658b440c35314f52658ea8a740e05b284cdc84dc9ae01e891f21b8933e7cad9060200160405180910390a150565b80516001600160a01b0381168114620002d457600080fd5b919050565b634e487b7160e01b600052604160045260246000fd5b600082601f8301126200030157600080fd5b815160206001600160401b0380831115620003205762000320620002d9565b8260051b604051601f19603f83011681018181108482111715620003485762000348620002d9565b60405293845260208187018101949081019250878511156200036957600080fd5b6020870191505b8482101562000394576200038482620002bc565b8352918301919083019062000370565b979650505050505050565b600080600080600060a08688031215620003b857600080fd5b620003c386620002bc565b6020870151604088015191965094506001600160401b0380821115620003e857600080fd5b620003f689838a01620002ef565b945060608801519150808211156200040d57600080fd5b506200041c88828901620002ef565b9250506200042d60808701620002bc565b90509295509295909350565b634e487b7160e01b600052603260045260246000fd5b611b37806200045f6000396000f3fe60806040526004361061019c5760003560e01c80638065657f116100e2578063bc197c8111610085578063bc197c81146104e3578063bf7e214f1461050f578063c4d252f514610535578063d45c443514610555578063d547741f14610582578063e38335e5146105a2578063f23a6e61146105b5578063f27a0c92146105e157600080fd5b80638065657f146103e35780638f2a0bb0146104035780638f61f4f5146104235780638fb360371461044557806391d148541461045a578063a217fddf1461047a578063b08e51c01461048f578063b1c5f427146104c357600080fd5b80632ab0f5291161014a5780632ab0f529146102d65780632f2ff15d146102f657806331d507501461031657806336568abe14610336578063584b153e1461035657806364d62353146103765780637958004c146103965780637a9e5e4b146103c357600080fd5b806301d5062a146101a857806301ffc9a7146101ca57806307bd0265146101ff578063134008d31461022f57806313bc9f2014610242578063150b7a0214610262578063248a9ca3146102a657600080fd5b366101a357005b600080fd5b3480156101b457600080fd5b506101c86101c3366004611265565b6105f6565b005b3480156101d657600080fd5b506101ea6101e53660046112d9565b6106ba565b60405190151581526020015b60405180910390f35b34801561020b57600080fd5b50610221600080516020611ae283398151915281565b6040519081526020016101f6565b6101c861023d366004611303565b6106cb565b34801561024e57600080fd5b506101ea61025d36600461136e565b61076e565b34801561026e57600080fd5b5061028d61027d36600461143c565b630a85bd0160e11b949350505050565b6040516001600160e01b031990911681526020016101f6565b3480156102b257600080fd5b506102216102c136600461136e565b60009081526020819052604090206001015490565b3480156102e257600080fd5b506101ea6102f136600461136e565b610794565b34801561030257600080fd5b506101c86103113660046114a3565b61079d565b34801561032257600080fd5b506101ea61033136600461136e565b6107c8565b34801561034257600080fd5b506101c86103513660046114a3565b6107ed565b34801561036257600080fd5b506101ea61037136600461136e565b610825565b34801561038257600080fd5b506101c861039136600461136e565b61086b565b3480156103a257600080fd5b506103b66103b136600461136e565b6108d9565b6040516101f691906114e5565b3480156103cf57600080fd5b506101c86103de36600461150d565b610924565b3480156103ef57600080fd5b506102216103fe366004611303565b61098c565b34801561040f57600080fd5b506101c861041e36600461156c565b6109cb565b34801561042f57600080fd5b50610221600080516020611ac283398151915281565b34801561045157600080fd5b5061028d610b47565b34801561046657600080fd5b506101ea6104753660046114a3565b610b6d565b34801561048657600080fd5b50610221600081565b34801561049b57600080fd5b506102217ffd643c72710c63c0180259aba6b2d05451e3591a24e58b62239378085726f78381565b3480156104cf57600080fd5b506102216104de36600461161d565b610b96565b3480156104ef57600080fd5b5061028d6104fe366004611744565b63bc197c8160e01b95945050505050565b34801561051b57600080fd5b506003546001600160a01b03166040516101f691906117ed565b34801561054157600080fd5b506101c861055036600461136e565b610bdb565b34801561056157600080fd5b5061022161057036600461136e565b60009081526001602052604090205490565b34801561058e57600080fd5b506101c861059d3660046114a3565b610c86565b6101c86105b036600461161d565b610cab565b3480156105c157600080fd5b5061028d6105d0366004611801565b63f23a6e6160e01b95945050505050565b3480156105ed57600080fd5b50600254610221565b600080516020611ac283398151915261060e81610e20565b600061061e89898989898961098c565b905061062a8184610e2d565b6000817f4cf4410cc57040e44862ef0f45f3dd5a5e02db8eb8add648d4b0e236f1d07dca8b8b8b8b8b8a6040516106669695949392919061188e565b60405180910390a383156106af57807f20fda5fd27a1ea7bf5b9567f143ac5470bb059374a27e8f67cb44f946f6d0387856040516106a691815260200190565b60405180910390a25b505050505050505050565b60006106c582610ec1565b92915050565b600080516020611ae28339815191526106e5816000610b6d565b6106f3576106f38133610ee6565b600061070388888888888861098c565b905061070f8185610f1f565b61071b88888888610f6d565b6000817fc2617efa69bab66782fa219543714338489c4e9e178271560a91b82c3f612b588a8a8a8a60405161075394939291906118cb565b60405180910390a361076481610fe5565b5050505050505050565b600060025b61077c836108d9565b600381111561078d5761078d6114cf565b1492915050565b60006003610773565b6000828152602081905260409020600101546107b881610e20565b6107c28383611011565b50505050565b6000806107d4836108d9565b60038111156107e5576107e56114cf565b141592915050565b6001600160a01b03811633146108165760405163334bd91960e11b815260040160405180910390fd5b61082082826110a3565b505050565b600080610831836108d9565b90506001816003811115610847576108476114cf565b148061086457506002816003811115610862576108626114cf565b145b9392505050565b33308114610897578060405163e2850c5960e01b815260040161088e91906117ed565b60405180910390fd5b60025460408051918252602082018490527f11c24f4ead16507c69ac467fbd5e4eed5fb5c699626d2cc6d66421df253886d5910160405180910390a150600255565b600081815260016020526040812054806000036108f95750600092915050565b6001810361090a5750600392915050565b4281111561091b5750600192915050565b50600292915050565b60035433906001600160a01b03168114610952578060405162d1953b60e31b815260040161088e91906117ed565b816001600160a01b03163b60000361097f57816040516361798f2f60e11b815260040161088e91906117ed565b6109888261110e565b5050565b60008686868686866040516020016109a99695949392919061188e565b6040516020818303038152906040528051906020012090509695505050505050565b600080516020611ac28339815191526109e381610e20565b88871415806109f25750888514155b15610a24576040516001624fcdef60e01b03198152600481018a9052602481018690526044810188905260640161088e565b6000610a368b8b8b8b8b8b8b8b610b96565b9050610a428184610e2d565b60005b8a811015610af85780827f4cf4410cc57040e44862ef0f45f3dd5a5e02db8eb8add648d4b0e236f1d07dca8e8e85818110610a8257610a826118fd565b9050602002016020810190610a97919061150d565b8d8d86818110610aa957610aa96118fd565b905060200201358c8c87818110610ac257610ac26118fd565b9050602002810190610ad49190611913565b8c8b604051610ae89695949392919061188e565b60405180910390a3600101610a45565b508315610b3a57807f20fda5fd27a1ea7bf5b9567f143ac5470bb059374a27e8f67cb44f946f6d038785604051610b3191815260200190565b60405180910390a25b5050505050505050505050565b600354600090600160a01b900460ff16610b615750600090565b50638fb3603760e01b90565b6000918252602082815260408084206001600160a01b0393909316845291905290205460ff1690565b60008888888888888888604051602001610bb79897969594939291906119ef565b60405160208183030381529060405280519060200120905098975050505050505050565b7ffd643c72710c63c0180259aba6b2d05451e3591a24e58b62239378085726f783610c0581610e20565b610c0e82610825565b610c4a5781610c1d6002611164565b610c276001611164565b604051635ead8eb560e01b8152600481019390935217602482015260440161088e565b6000828152600160205260408082208290555183917fbaa1eb22f2a492ba1a5fea61b8df4d27c6c8b5f3971e63bb58fa14ff72eedb7091a25050565b600082815260208190526040902060010154610ca181610e20565b6107c283836110a3565b600080516020611ae2833981519152610cc5816000610b6d565b610cd357610cd38133610ee6565b8786141580610ce25750878414155b15610d14576040516001624fcdef60e01b0319815260048101899052602481018590526044810187905260640161088e565b6000610d268a8a8a8a8a8a8a8a610b96565b9050610d328185610f1f565b60005b89811015610e0a5760008b8b83818110610d5157610d516118fd565b9050602002016020810190610d66919061150d565b905060008a8a84818110610d7c57610d7c6118fd565b9050602002013590503660008a8a86818110610d9a57610d9a6118fd565b9050602002810190610dac9190611913565b91509150610dbc84848484610f6d565b84867fc2617efa69bab66782fa219543714338489c4e9e178271560a91b82c3f612b5886868686604051610df394939291906118cb565b60405180910390a350505050806001019050610d35565b50610e1481610fe5565b50505050505050505050565b610e2a8133610ee6565b50565b610e36826107c8565b15610e685781610e466000611164565b604051635ead8eb560e01b81526004810192909252602482015260440161088e565b6000610e7360025490565b905080821015610ea057604051635433660960e01b8152600481018390526024810182905260440161088e565b610eaa8242611a90565b600093845260016020526040909320929092555050565b60006001600160e01b03198216630271189760e51b14806106c557506106c582611187565b610ef08282610b6d565b6109885760405163e2517d3f60e01b81526001600160a01b03821660048201526024810183905260440161088e565b610f288261076e565b610f375781610e466002611164565b8015801590610f4c5750610f4a81610794565b155b156109885760405163121534c360e31b81526004810182905260240161088e565b600080856001600160a01b0316858585604051610f8b929190611ab1565b60006040518083038185875af1925050503d8060008114610fc8576040519150601f19603f3d011682016040523d82523d6000602084013e610fcd565b606091505b5091509150610fdc82826111bc565b50505050505050565b610fee8161076e565b610ffd5780610e466002611164565b600090815260016020819052604090912055565b600061101d8383610b6d565b61109b576000838152602081815260408083206001600160a01b03861684529091529020805460ff191660011790556110533390565b6001600160a01b0316826001600160a01b0316847f2f8788117e7eff1d82e926ec794901d17c78024a50270940304540a733656f0d60405160405180910390a45060016106c5565b5060006106c5565b60006110af8383610b6d565b1561109b576000838152602081815260408083206001600160a01b0386168085529252808320805460ff1916905551339286917ff6391f5c32d9c69d2a47ea670b442974b53935d1edc7fd64eb21e047a839171b9190a45060016106c5565b600380546001600160a01b0319166001600160a01b0383161790556040517f2f658b440c35314f52658ea8a740e05b284cdc84dc9ae01e891f21b8933e7cad906111599083906117ed565b60405180910390a150565b6000816003811115611178576111786114cf565b600160ff919091161b92915050565b60006001600160e01b03198216637965db0b60e01b14806106c557506301ffc9a760e01b6001600160e01b03198316146106c5565b6060826111d1576111cc826111d8565b6106c5565b50806106c5565b8051156111e85780518082602001fd5b60405163d6bda27560e01b815260040160405180910390fd5b80356001600160a01b038116811461121857600080fd5b919050565b60008083601f84011261122f57600080fd5b5081356001600160401b0381111561124657600080fd5b60208301915083602082850101111561125e57600080fd5b9250929050565b600080600080600080600060c0888a03121561128057600080fd5b61128988611201565b96506020880135955060408801356001600160401b038111156112ab57600080fd5b6112b78a828b0161121d565b989b979a50986060810135976080820135975060a09091013595509350505050565b6000602082840312156112eb57600080fd5b81356001600160e01b03198116811461086457600080fd5b60008060008060008060a0878903121561131c57600080fd5b61132587611201565b95506020870135945060408701356001600160401b0381111561134757600080fd5b61135389828a0161121d565b979a9699509760608101359660809091013595509350505050565b60006020828403121561138057600080fd5b5035919050565b634e487b7160e01b600052604160045260246000fd5b604051601f8201601f191681016001600160401b03811182821017156113c5576113c5611387565b604052919050565b600082601f8301126113de57600080fd5b81356001600160401b038111156113f7576113f7611387565b61140a601f8201601f191660200161139d565b81815284602083860101111561141f57600080fd5b816020850160208301376000918101602001919091529392505050565b6000806000806080858703121561145257600080fd5b61145b85611201565b935061146960208601611201565b92506040850135915060608501356001600160401b0381111561148b57600080fd5b611497878288016113cd565b91505092959194509250565b600080604083850312156114b657600080fd5b823591506114c660208401611201565b90509250929050565b634e487b7160e01b600052602160045260246000fd5b602081016004831061150757634e487b7160e01b600052602160045260246000fd5b91905290565b60006020828403121561151f57600080fd5b61086482611201565b60008083601f84011261153a57600080fd5b5081356001600160401b0381111561155157600080fd5b6020830191508360208260051b850101111561125e57600080fd5b600080600080600080600080600060c08a8c03121561158a57600080fd5b89356001600160401b03808211156115a157600080fd5b6115ad8d838e01611528565b909b50995060208c01359150808211156115c657600080fd5b6115d28d838e01611528565b909950975060408c01359150808211156115eb57600080fd5b506115f88c828d01611528565b9a9d999c50979a969997986060880135976080810135975060a0013595509350505050565b60008060008060008060008060a0898b03121561163957600080fd5b88356001600160401b038082111561165057600080fd5b61165c8c838d01611528565b909a50985060208b013591508082111561167557600080fd5b6116818c838d01611528565b909850965060408b013591508082111561169a57600080fd5b506116a78b828c01611528565b999c989b509699959896976060870135966080013595509350505050565b600082601f8301126116d657600080fd5b813560206001600160401b038211156116f1576116f1611387565b8160051b61170082820161139d565b928352848101820192828101908785111561171a57600080fd5b83870192505b8483101561173957823582529183019190830190611720565b979650505050505050565b600080600080600060a0868803121561175c57600080fd5b61176586611201565b945061177360208701611201565b935060408601356001600160401b038082111561178f57600080fd5b61179b89838a016116c5565b945060608801359150808211156117b157600080fd5b6117bd89838a016116c5565b935060808801359150808211156117d357600080fd5b506117e0888289016113cd565b9150509295509295909350565b6001600160a01b0391909116815260200190565b600080600080600060a0868803121561181957600080fd5b61182286611201565b945061183060208701611201565b9350604086013592506060860135915060808601356001600160401b0381111561185957600080fd5b6117e0888289016113cd565b81835281816020850137506000828201602090810191909152601f909101601f19169091010190565b60018060a01b038716815285602082015260a0604082015260006118b660a083018688611865565b60608301949094525060800152949350505050565b60018060a01b03851681528360208201526060604082015260006118f3606083018486611865565b9695505050505050565b634e487b7160e01b600052603260045260246000fd5b6000808335601e1984360301811261192a57600080fd5b8301803591506001600160401b0382111561194457600080fd5b60200191503681900382131561125e57600080fd5b6000838385526020808601955060208560051b8301018460005b878110156119e257848303601f19018952813536889003601e1901811261199957600080fd5b870184810190356001600160401b038111156119b457600080fd5b8036038213156119c357600080fd5b6119ce858284611865565b9a86019a9450505090830190600101611973565b5090979650505050505050565b60a0808252810188905260008960c08301825b8b811015611a30576001600160a01b03611a1b84611201565b16825260209283019290910190600101611a02565b5083810360208501528881526001600160fb1b03891115611a5057600080fd5b8860051b9150818a60208301370182810360209081016040850152611a789082018789611959565b60608401959095525050608001529695505050505050565b808201808211156106c557634e487b7160e01b600052601160045260246000fd5b818382376000910190815291905056feb09aa5aeb3702cfd50b6b62bc4532604938f21248a27a1d5ca736082b6819cc1d8aa0f3194971a2a116679f7c2090f6939c8d4e01a2a8d7e41d55e5351469e63a26469706673582212208d5ef5fdc31d5b9c230e8586e6ab210a0b4427985a65db9d8fd2b4f4a2bcb95064736f6c63430008180033",
  "linkReferences": {},
  "deployedLinkReferences": {}
}