{
  "_format": "hh-sol-artifact-1",
  "contractName": "GuildBankGovernorElection",
  "sourceName": "contracts/GuildBankGovernorElection.sol",
  "abi": [
    {
      "inputs": [
        {
          "internalType": "address",
          "name": "_me",
          "type": "address"
        }
      ],
      "stateMutability": "nonpayable",
      "type": "constructor"
    },
    {
      "inputs": [
        {
          "internalType": "address",
          "name": "owner",
          "type": "address"
        }
      ],
      "name": "OwnableInvalidOwner",
      "type": "error"
    },
    {
      "inputs": [
        {
          "internalType": "address",
          "name": "account",
          "type": "address"
        }
      ],
      "name": "OwnableUnauthorizedAccount",
      "type": "error"
    },
    {
      "inputs": [],
      "name": "ReentrancyGuardReentrantCall",
      "type": "error"
    },
    {
      "anonymous": false,
      "inputs": [
        {
          "indexed": false,
          "internalType": "address",
          "name": "person",
          "type": "address"
        },
        {
          "indexed": false,
          "internalType": "uint256",
          "name": "month",
          "type": "uint256"
        },
        {
          "indexed": false,
          "internalType": "uint256",
          "name": "day",
          "type": "uint256"
        },
        {
          "indexed": false,
          "internalType": "uint256",
          "name": "year",
          "type": "uint256"
        },
        {
          "indexed": false,
          "internalType": "uint256",
          "name": "ElectionCounter",
          "type": "uint256"
        }
      ],
      "name": "ElectionSeasonEnded",
      "type": "event"
    },
    {
      "anonymous": false,
      "inputs": [
        {
          "indexed": false,
          "internalType": "address",
          "name": "person",
          "type": "address"
        },
        {
          "indexed": false,
          "internalType": "uint256",
          "name": "month",
          "type": "uint256"
        },
        {
          "indexed": false,
          "internalType": "uint256",
          "name": "day",
          "type": "uint256"
        },
        {
          "indexed": false,
          "internalType": "uint256",
          "name": "year",
          "type": "uint256"
        },
        {
          "indexed": false,
          "internalType": "uint256",
          "name": "ElectionCounter",
          "type": "uint256"
        }
      ],
      "name": "ElectionSeasonStarted",
      "type": "event"
    },
    {
      "anonymous": false,
      "inputs": [
        {
          "indexed": true,
          "internalType": "address",
          "name": "previousOwner",
          "type": "address"
        },
        {
          "indexed": true,
          "internalType": "address",
          "name": "newOwner",
          "type": "address"
        }
      ],
      "name": "OwnershipTransferred",
      "type": "event"
    },
    {
      "inputs": [],
      "name": "Ballot",
      "outputs": [
        {
          "internalType": "contract IBallot",
          "name": "",
          "type": "address"
        }
      ],
      "stateMutability": "view",
      "type": "function"
    },
    {
      "inputs": [],
      "name": "CCO",
      "outputs": [
        {
          "internalType": "address",
          "name": "",
          "type": "address"
        }
      ],
      "stateMutability": "view",
      "type": "function"
    },
    {
      "inputs": [],
      "name": "CEO",
      "outputs": [
        {
          "internalType": "address",
          "name": "",
          "type": "address"
        }
      ],
      "stateMutability": "view",
      "type": "function"
    },
    {
      "inputs": [],
      "name": "CFO",
      "outputs": [
        {
          "internalType": "address",
          "name": "",
          "type": "address"
        }
      ],
      "stateMutability": "view",
      "type": "function"
    },
    {
      "inputs": [],
      "name": "COO",
      "outputs": [
        {
          "internalType": "address",
          "name": "",
          "type": "address"
        }
      ],
      "stateMutability": "view",
      "type": "function"
    },
    {
      "inputs": [],
      "name": "CTO",
      "outputs": [
        {
          "internalType": "address",
          "name": "",
          "type": "address"
        }
      ],
      "stateMutability": "view",
      "type": "function"
    },
    {
      "inputs": [],
      "name": "ElectionCounter",
      "outputs": [
        {
          "internalType": "uint256",
          "name": "",
          "type": "uint256"
        }
      ],
      "stateMutability": "view",
      "type": "function"
    },
    {
      "inputs": [],
      "name": "ElectionSeason",
      "outputs": [
        {
          "internalType": "bool",
          "name": "",
          "type": "bool"
        }
      ],
      "stateMutability": "view",
      "type": "function"
    },
    {
      "inputs": [],
      "name": "GovernorTreasury",
      "outputs": [
        {
          "internalType": "contract IGovernorTreasury",
          "name": "",
          "type": "address"
        }
      ],
      "stateMutability": "view",
      "type": "function"
    },
    {
      "inputs": [],
      "name": "LocalBoDAddress",
      "outputs": [
        {
          "internalType": "contract ILocalBoDAddress",
          "name": "",
          "type": "address"
        }
      ],
      "stateMutability": "view",
      "type": "function"
    },
    {
      "inputs": [
        {
          "internalType": "uint256",
          "name": "",
          "type": "uint256"
        }
      ],
      "name": "SummerElectionEnd",
      "outputs": [
        {
          "internalType": "uint256",
          "name": "",
          "type": "uint256"
        }
      ],
      "stateMutability": "view",
      "type": "function"
    },
    {
      "inputs": [
        {
          "internalType": "uint256",
          "name": "",
          "type": "uint256"
        }
      ],
      "name": "SummerElectionStart",
      "outputs": [
        {
          "internalType": "uint256",
          "name": "",
          "type": "uint256"
        }
      ],
      "stateMutability": "view",
      "type": "function"
    },
    {
      "inputs": [
        {
          "internalType": "uint256",
          "name": "",
          "type": "uint256"
        }
      ],
      "name": "WinterElectionEnd",
      "outputs": [
        {
          "internalType": "uint256",
          "name": "",
          "type": "uint256"
        }
      ],
      "stateMutability": "view",
      "type": "function"
    },
    {
      "inputs": [
        {
          "internalType": "uint256",
          "name": "",
          "type": "uint256"
        }
      ],
      "name": "WinterElectionStart",
      "outputs": [
        {
          "internalType": "uint256",
          "name": "",
          "type": "uint256"
        }
      ],
      "stateMutability": "view",
      "type": "function"
    },
    {
      "inputs": [],
      "name": "activationCCO",
      "outputs": [],
      "stateMutability": "nonpayable",
      "type": "function"
    },
    {
      "inputs": [],
      "name": "activationCEO",
      "outputs": [],
      "stateMutability": "nonpayable",
      "type": "function"
    },
    {
      "inputs": [],
      "name": "activationCFO",
      "outputs": [],
      "stateMutability": "nonpayable",
      "type": "function"
    },
    {
      "inputs": [],
      "name": "activationCOO",
      "outputs": [],
      "stateMutability": "nonpayable",
      "type": "function"
    },
    {
      "inputs": [],
      "name": "activationCTO",
      "outputs": [],
      "stateMutability": "nonpayable",
      "type": "function"
    },
    {
      "inputs": [],
      "name": "electionEndedTimer",
      "outputs": [
        {
          "internalType": "uint256",
          "name": "",
          "type": "uint256"
        }
      ],
      "stateMutability": "view",
      "type": "function"
    },
    {
      "inputs": [],
      "name": "endElection",
      "outputs": [],
      "stateMutability": "nonpayable",
      "type": "function"
    },
    {
      "inputs": [],
      "name": "getElectionSeason",
      "outputs": [
        {
          "internalType": "bool",
          "name": "",
          "type": "bool"
        }
      ],
      "stateMutability": "view",
      "type": "function"
    },
    {
      "inputs": [],
      "name": "owner",
      "outputs": [
        {
          "internalType": "address",
          "name": "",
          "type": "address"
        }
      ],
      "stateMutability": "view",
      "type": "function"
    },
    {
      "inputs": [],
      "name": "renounceOwnership",
      "outputs": [],
      "stateMutability": "nonpayable",
      "type": "function"
    },
    {
      "inputs": [
        {
          "internalType": "address",
          "name": "_localBallot",
          "type": "address"
        }
      ],
      "name": "setBallot",
      "outputs": [],
      "stateMutability": "nonpayable",
      "type": "function"
    },
    {
      "inputs": [
        {
          "internalType": "address",
          "name": "_BoD",
          "type": "address"
        }
      ],
      "name": "setBoD",
      "outputs": [],
      "stateMutability": "nonpayable",
      "type": "function"
    },
    {
      "inputs": [
        {
          "internalType": "address",
          "name": "_GovernorTreasury",
          "type": "address"
        }
      ],
      "name": "setGovernorTreasury",
      "outputs": [],
      "stateMutability": "nonpayable",
      "type": "function"
    },
    {
      "inputs": [],
      "name": "startElection",
      "outputs": [],
      "stateMutability": "nonpayable",
      "type": "function"
    },
    {
      "inputs": [],
      "name": "todayDate",
      "outputs": [
        {
          "internalType": "uint256",
          "name": "_year",
          "type": "uint256"
        },
        {
          "internalType": "uint256",
          "name": "_month",
          "type": "uint256"
        },
        {
          "internalType": "uint256",
          "name": "_day",
          "type": "uint256"
        }
      ],
      "stateMutability": "view",
      "type": "function"
    },
    {
      "inputs": [
        {
          "internalType": "uint256",
          "name": "",
          "type": "uint256"
        }
      ],
      "name": "topCandidatesCCO",
      "outputs": [
        {
          "internalType": "address",
          "name": "",
          "type": "address"
        }
      ],
      "stateMutability": "view",
      "type": "function"
    },
    {
      "inputs": [
        {
          "internalType": "uint256",
          "name": "",
          "type": "uint256"
        }
      ],
      "name": "topCandidatesCEO",
      "outputs": [
        {
          "internalType": "address",
          "name": "",
          "type": "address"
        }
      ],
      "stateMutability": "view",
      "type": "function"
    },
    {
      "inputs": [
        {
          "internalType": "uint256",
          "name": "",
          "type": "uint256"
        }
      ],
      "name": "topCandidatesCFO",
      "outputs": [
        {
          "internalType": "address",
          "name": "",
          "type": "address"
        }
      ],
      "stateMutability": "view",
      "type": "function"
    },
    {
      "inputs": [
        {
          "internalType": "uint256",
          "name": "",
          "type": "uint256"
        }
      ],
      "name": "topCandidatesCOO",
      "outputs": [
        {
          "internalType": "address",
          "name": "",
          "type": "address"
        }
      ],
      "stateMutability": "view",
      "type": "function"
    },
    {
      "inputs": [
        {
          "internalType": "uint256",
          "name": "",
          "type": "uint256"
        }
      ],
      "name": "topCandidatesCTO",
      "outputs": [
        {
          "internalType": "address",
          "name": "",
          "type": "address"
        }
      ],
      "stateMutability": "view",
      "type": "function"
    },
    {
      "inputs": [
        {
          "internalType": "address",
          "name": "newOwner",
          "type": "address"
        }
      ],
      "name": "transferOwnership",
      "outputs": [],
      "stateMutability": "nonpayable",
      "type": "function"
    }
  ],
  "bytecode": "0x60c0604052600c6080908152600160a052620000209060079060026200015f565b5060408051808201909152600c815260146020820152620000469060099060026200015f565b506040805180820190915260068152600160208201526200006c90600b9060026200015f565b506040805180820190915260068152601460208201526200009290600d9060026200015f565b50348015620000a057600080fd5b506040516200170238038062001702833981016040819052620000c391620001be565b806001600160a01b038116620000f357604051631e4fbdf760e01b81526000600482015260240160405180910390fd5b620000fe816200010f565b5050600180556000600555620001f0565b600080546001600160a01b038381166001600160a01b0319831681178455604051919092169283917f8be0079c531659141344cd1fd0a4f28419497f9722a3daafe3b4186f6b6457e09190a35050565b826002810192821562000195579160200282015b8281111562000195578251829060ff1690559160200191906001019062000173565b50620001a3929150620001a7565b5090565b5b80821115620001a35760008155600101620001a8565b600060208284031215620001d157600080fd5b81516001600160a01b0381168114620001e957600080fd5b9392505050565b61150280620002006000396000f3fe608060405234801561001057600080fd5b50600436106101d15760003560e01c8063a108857111610105578063c86067151161009d578063c86067151461039b578063cdb2b404146103ae578063ce504caa146103c1578063d051bfa3146103d4578063e1b27e6b146103e7578063ef169d48146103fa578063f2fde38b14610402578063fc26f8cf14610415578063fef1fa151461042857600080fd5b8063a1088571146102e0578063a3d6feec146102f3578063a47a928a14610306578063ab36a40714610319578063b655f8221461032c578063be9d502f1461033f578063c01f539b14610362578063c28ba12614610375578063c44ca4e81461038857600080fd5b80635c534ca9116101785780635c534ca91461025e5780635db174df1461027157806362d73eb8146102885780636b357d0914610290578063715018a6146102a35780637437ef02146102ab57806388233654146102b35780638da5cb5b146102c65780639190ad51146102d757600080fd5b806302756e32146101d65780630988c72b146101eb57806312a0be84146101f357806330d500bf146101fb57806332908037146102245780633d01bdec1461022c5780633dbc2cde1461023f57806359f7846814610256575b600080fd5b6101e96101e43660046112d4565b610435565b005b6101e9610475565b6101e961058b565b602b5461020e906001600160a01b031681565b60405161021b91906112f8565b60405180910390f35b6101e961069c565b602a5461020e906001600160a01b031681565b610248600f5481565b60405190815260200161021b565b6101e96107ac565b61020e61026c36600461130c565b61093f565b60065460ff165b604051901515815260200161021b565b6101e961095f565b60035461020e906001600160a01b031681565b6101e9610a8b565b6101e9610a9d565b61020e6102c136600461130c565b610bae565b6000546001600160a01b031661020e565b61024860055481565b60295461020e906001600160a01b031681565b602c5461020e906001600160a01b031681565b61020e61031436600461130c565b610bbe565b61024861032736600461130c565b610bce565b60025461020e906001600160a01b031681565b610347610be5565b6040805193845260208401929092529082015260600161021b565b61020e61037036600461130c565b610c06565b61020e61038336600461130c565b610c16565b60045461020e906001600160a01b031681565b6102486103a936600461130c565b610c26565b6102486103bc36600461130c565b610c36565b6101e96103cf3660046112d4565b610c46565b6101e96103e23660046112d4565b610c86565b602d5461020e906001600160a01b031681565b6101e9610cc6565b6101e96104103660046112d4565b610dd9565b61024861042336600461130c565b610e20565b6006546102789060ff1681565b61043d610e30565b6004546001600160a01b03161561045357600080fd5b600480546001600160a01b0319166001600160a01b0392909216919091179055565b600f5460000361048457600080fd5b60006203f480600f5442610498919061133b565b6104a2919061136a565b905060005b60058160ff1610156105755733602460ff8316600581106104ca576104ca61138c565b01546001600160a01b03160361057957818160ff1611156104ea57600080fd5b602d80546001600160a01b03191633908117909155600354600580546040516309bba51160e31b81526001600160a01b039390931693634ddd288893610535939192906004016113a2565b600060405180830381600087803b15801561054f57600080fd5b505af1158015610563573d6000803e3d6000fd5b5050505060246000610575919061122f565b5050565b80610583816113c3565b9150506104a7565b600f5460000361059a57600080fd5b60006203f480600f54426105ae919061133b565b6105b8919061136a565b905060005b60058160ff1610156105755733601560ff8316600581106105e0576105e061138c565b01546001600160a01b03160361068a57818160ff16111561060057600080fd5b602a80546001600160a01b031916339081179091556003546005546040516309bba51160e31b81526001600160a01b039290921692634ddd28889261064a926002916004016113a2565b600060405180830381600087803b15801561066457600080fd5b505af1158015610678573d6000803e3d6000fd5b5050505060156000610575919061122f565b80610694816113c3565b9150506105bd565b600f546000036106ab57600080fd5b60006203f480600f54426106bf919061133b565b6106c9919061136a565b905060005b60058160ff1610156105755733601f60ff8316600581106106f1576106f161138c565b01546001600160a01b03160361079a57818160ff16111561071157600080fd5b602c80546001600160a01b031916339081179091556003546005546040516309bba51160e31b81526001600160a01b039290921692634ddd28889261075a9260049182016113a2565b600060405180830381600087803b15801561077457600080fd5b505af1158015610788573d6000803e3d6000fd5b50505050601f6000610575919061122f565b806107a4816113c3565b9150506106ce565b6107b4610e5d565b60065460ff166107c357600080fd5b60008060006107d0610be5565b6009549295509093509150821480156107ea5750600a5481145b806108025750600d54821480156108025750600e5481145b61080b57600080fd5b6006805460ff1916905560048054604051633623b4f160e01b8152602092810192909252600060248301526001600160a01b031690633623b4f190604401600060405180830381600087803b15801561086357600080fd5b505af1158015610877573d6000803e3d6000fd5b505042600f55506108889050610e87565b600260009054906101000a90046001600160a01b03166001600160a01b03166359f784686040518163ffffffff1660e01b8152600401600060405180830381600087803b1580156108d857600080fd5b505af11580156108ec573d6000803e3d6000fd5b505050507f93f007ad2ff1aa4039f68ada92414012ba1798ee059054a27b86f91b73f28232338383866005546040516109299594939291906113e2565b60405180910390a150505061093d60018055565b565b6010816005811061094f57600080fd5b01546001600160a01b0316905081565b60065460ff161561096f57600080fd5b600080600061097c610be5565b600754929550909350915082148015610996575060085481145b806109ae5750600b54821480156109ae5750600c5481145b6109b757600080fd5b6006805460ff191660011790556000600f81905560058054916109d983611410565b9091555050600254600554604051636d32dc4b60e01b81526001600160a01b0390921691636d32dc4b91610a139160040190815260200190565b600060405180830381600087803b158015610a2d57600080fd5b505af1158015610a41573d6000803e3d6000fd5b505050507f4e12834fcf390386996a1f66d28e936fc3b41925f855c28d0562c8b98f7ec80633838386600554604051610a7e9594939291906113e2565b60405180910390a1505050565b610a93610e30565b61093d6000611124565b600f54600003610aac57600080fd5b60006203f480600f5442610ac0919061133b565b610aca919061136a565b905060005b60058160ff1610156105755733601060ff831660058110610af257610af261138c565b01546001600160a01b031603610b9c57818160ff161115610b1257600080fd5b602980546001600160a01b031916339081179091556003546005546040516309bba51160e31b81526001600160a01b039290921692634ddd288892610b5c926001916004016113a2565b600060405180830381600087803b158015610b7657600080fd5b505af1158015610b8a573d6000803e3d6000fd5b5050505060106000610575919061122f565b80610ba6816113c3565b915050610acf565b6015816005811061094f57600080fd5b6024816005811061094f57600080fd5b600b8160028110610bde57600080fd5b0154905081565b600080600080600080610bf742611174565b91989097509095509350505050565b601a816005811061094f57600080fd5b601f816005811061094f57600080fd5b600d8160028110610bde57600080fd5b60098160028110610bde57600080fd5b610c4e610e30565b6003546001600160a01b031615610c6457600080fd5b600380546001600160a01b0319166001600160a01b0392909216919091179055565b610c8e610e30565b6002546001600160a01b031615610ca457600080fd5b600280546001600160a01b0319166001600160a01b0392909216919091179055565b600f54600003610cd557600080fd5b60006203f480600f5442610ce9919061133b565b610cf3919061136a565b905060005b60058160ff1610156105755733601a60ff831660058110610d1b57610d1b61138c565b01546001600160a01b031603610dc757818160ff161115610d3b57600080fd5b602b80546001600160a01b03191633908117909155600380546005546040516309bba51160e31b81526001600160a01b039290921693634ddd288893610d8793919290916004016113a2565b600060405180830381600087803b158015610da157600080fd5b505af1158015610db5573d6000803e3d6000fd5b50505050601a6000610575919061122f565b80610dd1816113c3565b915050610cf8565b610de1610e30565b6001600160a01b038116610e14576000604051631e4fbdf760e01b8152600401610e0b91906112f8565b60405180910390fd5b610e1d81611124565b50565b60078160028110610bde57600080fd5b6000546001600160a01b0316331461093d573360405163118cdaa760e01b8152600401610e0b91906112f8565b600260015403610e8057604051633ee5aeb560e01b815260040160405180910390fd5b6002600155565b600260009054906101000a90046001600160a01b03166001600160a01b0316636c374a826040518163ffffffff1660e01b815260040160a060405180830381865afa158015610eda573d6000803e3d6000fd5b505050506040513d601f19601f82011682018060405250810190610efe9190611439565b610f0c906010906005611252565b50600260009054906101000a90046001600160a01b03166001600160a01b0316634ff21f996040518163ffffffff1660e01b815260040160a060405180830381865afa158015610f60573d6000803e3d6000fd5b505050506040513d601f19601f82011682018060405250810190610f849190611439565b610f92906015906005611252565b50600260009054906101000a90046001600160a01b03166001600160a01b03166361233ee36040518163ffffffff1660e01b815260040160a060405180830381865afa158015610fe6573d6000803e3d6000fd5b505050506040513d601f19601f8201168201806040525081019061100a9190611439565b61101890601a906005611252565b50600260009054906101000a90046001600160a01b03166001600160a01b031663af91a82d6040518163ffffffff1660e01b815260040160a060405180830381865afa15801561106c573d6000803e3d6000fd5b505050506040513d601f19601f820116820180604052508101906110909190611439565b61109e90601f906005611252565b50600260009054906101000a90046001600160a01b03166001600160a01b031663bbf6d4916040518163ffffffff1660e01b815260040160a060405180830381865afa1580156110f2573d6000803e3d6000fd5b505050506040513d601f19601f820116820180604052508101906111169190611439565b610e1d906024906005611252565b600080546001600160a01b038381166001600160a01b0319831681178455604051919092169283917f8be0079c531659141344cd1fd0a4f28419497f9722a3daafe3b4186f6b6457e09190a35050565b60008080611186620151808504611193565b9196909550909350915050565b60008080836226496581018262023ab1600483020590506004600362023ab18302010590910390600062164b09610fa0600185010205905060046105b58202058303601f019250600061098f84605002816111f0576111f0611354565b0590506000605061098f83020585039050600b820560301994909401606402929092018301996002600c90940290910392909201975095509350505050565b506000815560010160008155600101600081556001016000815560010160009055565b826005810192821561129a579160200282015b8281111561129a57825182546001600160a01b0319166001600160a01b03909116178255602090920191600190910190611265565b506112a69291506112aa565b5090565b5b808211156112a657600081556001016112ab565b6001600160a01b0381168114610e1d57600080fd5b6000602082840312156112e657600080fd5b81356112f1816112bf565b9392505050565b6001600160a01b0391909116815260200190565b60006020828403121561131e57600080fd5b5035919050565b634e487b7160e01b600052601160045260246000fd5b8181038181111561134e5761134e611325565b92915050565b634e487b7160e01b600052601260045260246000fd5b60008261138757634e487b7160e01b600052601260045260246000fd5b500490565b634e487b7160e01b600052603260045260246000fd5b6001600160a01b039390931683526020830191909152604082015260600190565b600060ff821660ff81036113d9576113d9611325565b60010192915050565b6001600160a01b03959095168552602085019390935260408401919091526060830152608082015260a00190565b60006001820161142257611422611325565b5060010190565b8051611434816112bf565b919050565b600060a0828403121561144b57600080fd5b82601f83011261145a57600080fd5b60405160a0810181811067ffffffffffffffff8211171561148b57634e487b7160e01b600052604160045260246000fd5b6040528060a08401858111156114a057600080fd5b845b818110156114c1576114b381611429565b8352602092830192016114a2565b50919594505050505056fea26469706673582212204a47975664c8e2b645e8ae6c00cb396e81f9ee3e4369d6091320f26d362fae3864736f6c63430008180033",
  "linkReferences": {},
  "deployedLinkReferences": {}
}