{
  "_format": "hh-sol-artifact-1",
  "contractName": "GuildBankGovernorBallot",
  "sourceName": "contracts/GuildBankGovernorBallot.sol",
  "abi": [
    {
      "inputs": [
        {
          "internalType": "address",
          "name": "_me",
          "type": "address"
        },
        {
          "internalType": "address",
          "name": "_DAOcoinAddress",
          "type": "address"
        },
        {
          "internalType": "address",
          "name": "_GuildBankPassportAddress",
          "type": "address"
        }
      ],
      "stateMutability": "nonpayable",
      "type": "constructor"
    },
    {
      "inputs": [
        {
          "internalType": "address",
          "name": "owner",
          "type": "address"
        }
      ],
      "name": "OwnableInvalidOwner",
      "type": "error"
    },
    {
      "inputs": [
        {
          "internalType": "address",
          "name": "account",
          "type": "address"
        }
      ],
      "name": "OwnableUnauthorizedAccount",
      "type": "error"
    },
    {
      "inputs": [],
      "name": "ReentrancyGuardReentrantCall",
      "type": "error"
    },
    {
      "anonymous": false,
      "inputs": [
        {
          "indexed": false,
          "internalType": "uint256",
          "name": "ElectionCount",
          "type": "uint256"
        },
        {
          "components": [
            {
              "internalType": "address",
              "name": "candidateAddress",
              "type": "address"
            },
            {
              "internalType": "string",
              "name": "ipfsLink",
              "type": "string"
            },
            {
              "internalType": "uint256",
              "name": "votingScore",
              "type": "uint256"
            },
            {
              "internalType": "enum GuildBankGovernorBallot.roleStatus",
              "name": "role",
              "type": "uint8"
            },
            {
              "internalType": "uint256",
              "name": "ElectionSeasonCount",
              "type": "uint256"
            }
          ],
          "indexed": false,
          "internalType": "struct GuildBankGovernorBallot.structCandidate",
          "name": "Struct",
          "type": "tuple"
        },
        {
          "indexed": false,
          "internalType": "address",
          "name": "CanditateWallet",
          "type": "address"
        }
      ],
      "name": "NewCanditateInTheBallot",
      "type": "event"
    },
    {
      "anonymous": false,
      "inputs": [
        {
          "indexed": true,
          "internalType": "address",
          "name": "previousOwner",
          "type": "address"
        },
        {
          "indexed": true,
          "internalType": "address",
          "name": "newOwner",
          "type": "address"
        }
      ],
      "name": "OwnershipTransferred",
      "type": "event"
    },
    {
      "inputs": [
        {
          "internalType": "address",
          "name": "",
          "type": "address"
        }
      ],
      "name": "Candidates",
      "outputs": [
        {
          "internalType": "address",
          "name": "candidateAddress",
          "type": "address"
        },
        {
          "internalType": "string",
          "name": "ipfsLink",
          "type": "string"
        },
        {
          "internalType": "uint256",
          "name": "votingScore",
          "type": "uint256"
        },
        {
          "internalType": "enum GuildBankGovernorBallot.roleStatus",
          "name": "role",
          "type": "uint8"
        },
        {
          "internalType": "uint256",
          "name": "ElectionSeasonCount",
          "type": "uint256"
        }
      ],
      "stateMutability": "view",
      "type": "function"
    },
    {
      "inputs": [],
      "name": "DAOcoinAddress",
      "outputs": [
        {
          "internalType": "contract IDAOcoinAddress",
          "name": "",
          "type": "address"
        }
      ],
      "stateMutability": "view",
      "type": "function"
    },
    {
      "inputs": [],
      "name": "ElectionAddress",
      "outputs": [
        {
          "internalType": "address",
          "name": "",
          "type": "address"
        }
      ],
      "stateMutability": "view",
      "type": "function"
    },
    {
      "inputs": [],
      "name": "ElectionCounter",
      "outputs": [
        {
          "internalType": "uint256",
          "name": "",
          "type": "uint256"
        }
      ],
      "stateMutability": "view",
      "type": "function"
    },
    {
      "inputs": [],
      "name": "ElectionSeason",
      "outputs": [
        {
          "internalType": "bool",
          "name": "",
          "type": "bool"
        }
      ],
      "stateMutability": "view",
      "type": "function"
    },
    {
      "inputs": [],
      "name": "GuildBankPassportAddress",
      "outputs": [
        {
          "internalType": "address",
          "name": "",
          "type": "address"
        }
      ],
      "stateMutability": "view",
      "type": "function"
    },
    {
      "inputs": [],
      "name": "endElection",
      "outputs": [],
      "stateMutability": "nonpayable",
      "type": "function"
    },
    {
      "inputs": [
        {
          "internalType": "string",
          "name": "_ipfsLink",
          "type": "string"
        },
        {
          "internalType": "enum GuildBankGovernorBallot.roleStatus",
          "name": "_role",
          "type": "uint8"
        }
      ],
      "name": "joinAsCandidate",
      "outputs": [],
      "stateMutability": "nonpayable",
      "type": "function"
    },
    {
      "inputs": [],
      "name": "owner",
      "outputs": [
        {
          "internalType": "address",
          "name": "",
          "type": "address"
        }
      ],
      "stateMutability": "view",
      "type": "function"
    },
    {
      "inputs": [],
      "name": "renounceOwnership",
      "outputs": [],
      "stateMutability": "nonpayable",
      "type": "function"
    },
    {
      "inputs": [
        {
          "internalType": "address",
          "name": "_Address",
          "type": "address"
        }
      ],
      "name": "setElection",
      "outputs": [],
      "stateMutability": "nonpayable",
      "type": "function"
    },
    {
      "inputs": [
        {
          "internalType": "uint256",
          "name": "_Counter",
          "type": "uint256"
        }
      ],
      "name": "startElection",
      "outputs": [],
      "stateMutability": "nonpayable",
      "type": "function"
    },
    {
      "inputs": [
        {
          "internalType": "uint256",
          "name": "",
          "type": "uint256"
        }
      ],
      "name": "topCandidatesCCO",
      "outputs": [
        {
          "internalType": "address",
          "name": "",
          "type": "address"
        }
      ],
      "stateMutability": "view",
      "type": "function"
    },
    {
      "inputs": [
        {
          "internalType": "uint256",
          "name": "",
          "type": "uint256"
        }
      ],
      "name": "topCandidatesCEO",
      "outputs": [
        {
          "internalType": "address",
          "name": "",
          "type": "address"
        }
      ],
      "stateMutability": "view",
      "type": "function"
    },
    {
      "inputs": [
        {
          "internalType": "uint256",
          "name": "",
          "type": "uint256"
        }
      ],
      "name": "topCandidatesCFO",
      "outputs": [
        {
          "internalType": "address",
          "name": "",
          "type": "address"
        }
      ],
      "stateMutability": "view",
      "type": "function"
    },
    {
      "inputs": [
        {
          "internalType": "uint256",
          "name": "",
          "type": "uint256"
        }
      ],
      "name": "topCandidatesCOO",
      "outputs": [
        {
          "internalType": "address",
          "name": "",
          "type": "address"
        }
      ],
      "stateMutability": "view",
      "type": "function"
    },
    {
      "inputs": [
        {
          "internalType": "uint256",
          "name": "",
          "type": "uint256"
        }
      ],
      "name": "topCandidatesCTO",
      "outputs": [
        {
          "internalType": "address",
          "name": "",
          "type": "address"
        }
      ],
      "stateMutability": "view",
      "type": "function"
    },
    {
      "inputs": [
        {
          "internalType": "address",
          "name": "newOwner",
          "type": "address"
        }
      ],
      "name": "transferOwnership",
      "outputs": [],
      "stateMutability": "nonpayable",
      "type": "function"
    },
    {
      "inputs": [],
      "name": "viewTopCandidatesCCOArray",
      "outputs": [
        {
          "internalType": "address[5]",
          "name": "",
          "type": "address[5]"
        }
      ],
      "stateMutability": "view",
      "type": "function"
    },
    {
      "inputs": [],
      "name": "viewTopCandidatesCEOArray",
      "outputs": [
        {
          "internalType": "address[5]",
          "name": "",
          "type": "address[5]"
        }
      ],
      "stateMutability": "view",
      "type": "function"
    },
    {
      "inputs": [],
      "name": "viewTopCandidatesCFOArray",
      "outputs": [
        {
          "internalType": "address[5]",
          "name": "",
          "type": "address[5]"
        }
      ],
      "stateMutability": "view",
      "type": "function"
    },
    {
      "inputs": [],
      "name": "viewTopCandidatesCOOArray",
      "outputs": [
        {
          "internalType": "address[5]",
          "name": "",
          "type": "address[5]"
        }
      ],
      "stateMutability": "view",
      "type": "function"
    },
    {
      "inputs": [],
      "name": "viewTopCandidatesCTOArray",
      "outputs": [
        {
          "internalType": "address[5]",
          "name": "",
          "type": "address[5]"
        }
      ],
      "stateMutability": "view",
      "type": "function"
    },
    {
      "inputs": [
        {
          "internalType": "address",
          "name": "_candidate",
          "type": "address"
        }
      ],
      "name": "voteCCO",
      "outputs": [],
      "stateMutability": "nonpayable",
      "type": "function"
    },
    {
      "inputs": [
        {
          "internalType": "address",
          "name": "_candidate",
          "type": "address"
        }
      ],
      "name": "voteCEO",
      "outputs": [],
      "stateMutability": "nonpayable",
      "type": "function"
    },
    {
      "inputs": [
        {
          "internalType": "address",
          "name": "_candidate",
          "type": "address"
        }
      ],
      "name": "voteCFO",
      "outputs": [],
      "stateMutability": "nonpayable",
      "type": "function"
    },
    {
      "inputs": [
        {
          "internalType": "address",
          "name": "_candidate",
          "type": "address"
        }
      ],
      "name": "voteCOO",
      "outputs": [],
      "stateMutability": "nonpayable",
      "type": "function"
    },
    {
      "inputs": [
        {
          "internalType": "address",
          "name": "_candidate",
          "type": "address"
        }
      ],
      "name": "voteCTO",
      "outputs": [],
      "stateMutability": "nonpayable",
      "type": "function"
    },
    {
      "inputs": [
        {
          "internalType": "address",
          "name": "",
          "type": "address"
        },
        {
          "internalType": "uint256",
          "name": "",
          "type": "uint256"
        }
      ],
      "name": "votedCCO",
      "outputs": [
        {
          "internalType": "bool",
          "name": "",
          "type": "bool"
        }
      ],
      "stateMutability": "view",
      "type": "function"
    },
    {
      "inputs": [
        {
          "internalType": "address",
          "name": "",
          "type": "address"
        },
        {
          "internalType": "uint256",
          "name": "",
          "type": "uint256"
        }
      ],
      "name": "votedCEO",
      "outputs": [
        {
          "internalType": "bool",
          "name": "",
          "type": "bool"
        }
      ],
      "stateMutability": "view",
      "type": "function"
    },
    {
      "inputs": [
        {
          "internalType": "address",
          "name": "",
          "type": "address"
        },
        {
          "internalType": "uint256",
          "name": "",
          "type": "uint256"
        }
      ],
      "name": "votedCFO",
      "outputs": [
        {
          "internalType": "bool",
          "name": "",
          "type": "bool"
        }
      ],
      "stateMutability": "view",
      "type": "function"
    },
    {
      "inputs": [
        {
          "internalType": "address",
          "name": "",
          "type": "address"
        },
        {
          "internalType": "uint256",
          "name": "",
          "type": "uint256"
        }
      ],
      "name": "votedCOO",
      "outputs": [
        {
          "internalType": "bool",
          "name": "",
          "type": "bool"
        }
      ],
      "stateMutability": "view",
      "type": "function"
    },
    {
      "inputs": [
        {
          "internalType": "address",
          "name": "",
          "type": "address"
        },
        {
          "internalType": "uint256",
          "name": "",
          "type": "uint256"
        }
      ],
      "name": "votedCTO",
      "outputs": [
        {
          "internalType": "bool",
          "name": "",
          "type": "bool"
        }
      ],
      "stateMutability": "view",
      "type": "function"
    }
  ],
  "bytecode": "0x60806040523480156200001157600080fd5b506040516200277838038062002778833981016040819052620000349162000119565b826001600160a01b0381166200006457604051631e4fbdf760e01b81526000600482015260240160405180910390fd5b6200006f81620000ac565b5060018055600380546001600160a01b039384166001600160a01b0319918216179091556004805492909316911617905550600060055562000163565b600080546001600160a01b038381166001600160a01b0319831681178455604051919092169283917f8be0079c531659141344cd1fd0a4f28419497f9722a3daafe3b4186f6b6457e09190a35050565b80516001600160a01b03811681146200011457600080fd5b919050565b6000806000606084860312156200012f57600080fd5b6200013a84620000fc565b92506200014a60208501620000fc565b91506200015a60408501620000fc565b90509250925092565b61260580620001736000396000f3fe608060405234801561001057600080fd5b50600436106101bb5760003560e01c8063802d7b3c116100fa578063b976533f1161009d578063b976533f146103e5578063bbf6d49114610413578063c01f539b1461041b578063c28ba1261461042e578063d87cbaec14610441578063f2fde38b14610454578063f39f05f714610467578063f45436801461048b578063fef1fa151461049e57600080fd5b8063802d7b3c1461033b578063839b97981461034e578063882336541461037c5780638da5cb5b1461038f5780639190ad51146103a0578063a47a928a146103b7578063af91a82d146103ca578063b6199bfc146103d257600080fd5b80634ff21f99116101625780634ff21f99146102cd57806359f78468146102e25780635c534ca9146102ea57806361233ee3146102fd5780636c374a82146103055780636d32dc4b1461030d5780636f875ef814610320578063715018a61461033357600080fd5b806312976004146101c057806313a2ab8d1461020357806316cfd5171461023157806320450bc41461024657806336d735d614610259578063390e58cc146102795780634ac89d8c1461028c5780634fbe3836146102ba575b600080fd5b6101ee6101ce366004611ffa565b600860209081526000928352604080842090915290825290205460ff1681565b60405190151581526020015b60405180910390f35b6101ee610211366004611ffa565b600c60209081526000928352604080842090915290825290205460ff1681565b61024461023f366004612049565b6104ab565b005b61024461025436600461210b565b610645565b60035461026c906001600160a01b031681565b6040516101fa919061212d565b61024461028736600461210b565b610857565b6101ee61029a366004611ffa565b600a60209081526000928352604080842090915290825290205460ff1681565b60045461026c906001600160a01b031681565b6102d5610a5c565b6040516101fa9190612141565b610244610aa1565b61026c6102f836600461217b565b610b00565b6102d5610b20565b6102d5610b5f565b61024461031b36600461217b565b610b9e565b61024461032e36600461210b565b610bc7565b610244610dca565b60025461026c906001600160a01b031681565b6101ee61035c366004611ffa565b600b60209081526000928352604080842090915290825290205460ff1681565b61026c61038a36600461217b565b610ddc565b6000546001600160a01b031661026c565b6103a960055481565b6040519081526020016101fa565b61026c6103c536600461217b565b610dec565b6102d5610dfc565b6102446103e036600461210b565b610e3b565b6101ee6103f3366004611ffa565b600960209081526000928352604080842090915290825290205460ff1681565b6102d5611040565b61026c61042936600461217b565b61107f565b61026c61043c36600461217b565b61108f565b61024461044f36600461210b565b61109f565b61024461046236600461210b565b6112a4565b61047a61047536600461210b565b6112df565b6040516101fa9594939291906121cc565b61024461049936600461210b565b6113a6565b6006546101ee9060ff1681565b60065460ff166104ba57600080fd5b6104c26113e6565b60048054604051627eeac760e11b81526001600160a01b039091169162fdd58e916104f291339160009101612247565b602060405180830381865afa15801561050f573d6000803e3d6000fd5b505050506040513d601f19601f820116820180604052508101906105339190612260565b60011461055b5760405162461bcd60e51b815260040161055290612279565b60405180910390fd5b600554336000908152600760205260409020600401540361057b57600080fd5b33600081815260076020526040902080546001600160a01b03191690911781556001016105a88382612328565b503360009081526007602052604081206002810191909155600301805482919060ff191660018360048111156105e0576105e0612194565b021790555060055433600081815260076020526040908190206004810184905590517f0f567ae53826cf397b92797a1ca9d798121e31cd834666840f550cbc38be4a4193610630939092916123e8565b60405180910390a161064160018055565b5050565b60065460ff1661065457600080fd5b60048054604051627eeac760e11b81526001600160a01b039091169162fdd58e9161068491339160009101612247565b602060405180830381865afa1580156106a1573d6000803e3d6000fd5b505050506040513d601f19601f820116820180604052508101906106c59190612260565b6001146106e45760405162461bcd60e51b815260040161055290612279565b6106ec6113e6565b60046001600160a01b03821660009081526007602052604090206003015460ff16600481111561071e5761071e612194565b146107615760405162461bcd60e51b81526020600482015260136024820152724e6f74206120434f4f2063616e64696461746560681b6044820152606401610552565b6005546001600160a01b0382166000908152600760205260409020600401541461079d5760405162461bcd60e51b8152600401610552906124db565b336000908152600c60209081526040808320600554845290915290205460ff16156107da5760405162461bcd60e51b81526004016105529061250a565b336000818152600c6020908152604080832060055484529091528120805460ff191660011790559061080b90611410565b6001600160a01b03831660009081526007602052604081206002018054929350839290919061083b908490612557565b9091555061084a905082611488565b5061085460018055565b50565b60065460ff1661086657600080fd5b60048054604051627eeac760e11b81526001600160a01b039091169162fdd58e9161089691339160009101612247565b602060405180830381865afa1580156108b3573d6000803e3d6000fd5b505050506040513d601f19601f820116820180604052508101906108d79190612260565b6001146108f65760405162461bcd60e51b815260040161055290612279565b6108fe6113e6565b60016001600160a01b03821660009081526007602052604090206003015460ff16600481111561093057610930612194565b146109735760405162461bcd60e51b81526020600482015260136024820152724e6f7420612043544f2063616e64696461746560681b6044820152606401610552565b6005546001600160a01b038216600090815260076020526040902060040154146109af5760405162461bcd60e51b8152600401610552906124db565b336000908152600960209081526040808320600554845290915290205460ff16156109ec5760405162461bcd60e51b81526004016105529061250a565b33600081815260096020908152604080832060055484529091528120805460ff1916600117905590610a1d90611410565b6001600160a01b038316600090815260076020526040812060020180549293508392909190610a4d908490612557565b9091555061084a9050826116c8565b610a64611f9d565b6040805160a08101918290529060129060059082845b81546001600160a01b03168152600190910190602001808311610a7a575050505050905090565b6002546001600160a01b03163314610ab857600080fd5b6006805460ff19169055610ace600d6000611fbb565b610ada60126000611fbb565b610ae660176000611fbb565b610af2601c6000611fbb565b610afe60216000611fbb565b565b600d8160058110610b1057600080fd5b01546001600160a01b0316905081565b610b28611f9d565b6040805160a0810191829052601780546001600160a01b031682529091600590601860208501808311610a7a575050505050905090565b610b67611f9d565b6040805160a0810191829052600d80546001600160a01b031682529091600590600e60208501808311610a7a575050505050905090565b6002546001600160a01b03163314610bb557600080fd5b6005556006805460ff19166001179055565b60065460ff16610bd657600080fd5b60048054604051627eeac760e11b81526001600160a01b039091169162fdd58e91610c0691339160009101612247565b602060405180830381865afa158015610c23573d6000803e3d6000fd5b505050506040513d601f19601f82011682018060405250810190610c479190612260565b600114610c665760405162461bcd60e51b815260040161055290612279565b610c6e6113e6565b6001600160a01b03811660009081526007602052604081206003015460ff166004811115610c9e57610c9e612194565b14610ce15760405162461bcd60e51b81526020600482015260136024820152724e6f7420612043454f2063616e64696461746560681b6044820152606401610552565b6005546001600160a01b03821660009081526007602052604090206004015414610d1d5760405162461bcd60e51b8152600401610552906124db565b336000908152600860209081526040808320600554845290915290205460ff1615610d5a5760405162461bcd60e51b81526004016105529061250a565b33600081815260086020908152604080832060055484529091528120805460ff1916600117905590610d8b90611410565b6001600160a01b038316600090815260076020526040812060020180549293508392909190610dbb908490612557565b9091555061084a9050826118de565b610dd2611af4565b610afe6000611b21565b60128160058110610b1057600080fd5b60218160058110610b1057600080fd5b610e04611f9d565b6040805160a0810191829052601c80546001600160a01b031682529091600590601d60208501808311610a7a575050505050905090565b60065460ff16610e4a57600080fd5b60048054604051627eeac760e11b81526001600160a01b039091169162fdd58e91610e7a91339160009101612247565b602060405180830381865afa158015610e97573d6000803e3d6000fd5b505050506040513d601f19601f82011682018060405250810190610ebb9190612260565b600114610eda5760405162461bcd60e51b815260040161055290612279565b610ee26113e6565b60026001600160a01b03821660009081526007602052604090206003015460ff166004811115610f1457610f14612194565b14610f575760405162461bcd60e51b81526020600482015260136024820152724e6f7420612043464f2063616e64696461746560681b6044820152606401610552565b6005546001600160a01b03821660009081526007602052604090206004015414610f935760405162461bcd60e51b8152600401610552906124db565b336000908152600a60209081526040808320600554845290915290205460ff1615610fd05760405162461bcd60e51b81526004016105529061250a565b336000818152600a6020908152604080832060055484529091528120805460ff191660011790559061100190611410565b6001600160a01b038316600090815260076020526040812060020180549293508392909190611031908490612557565b9091555061084a905082611b71565b611048611f9d565b6040805160a0810191829052602180546001600160a01b031682529091600590602260208501808311610a7a575050505050905090565b60178160058110610b1057600080fd5b601c8160058110610b1057600080fd5b60065460ff166110ae57600080fd5b60048054604051627eeac760e11b81526001600160a01b039091169162fdd58e916110de91339160009101612247565b602060405180830381865afa1580156110fb573d6000803e3d6000fd5b505050506040513d601f19601f8201168201806040525081019061111f9190612260565b60011461113e5760405162461bcd60e51b815260040161055290612279565b6111466113e6565b60036001600160a01b03821660009081526007602052604090206003015460ff16600481111561117857611178612194565b146111bb5760405162461bcd60e51b81526020600482015260136024820152724e6f7420612043434f2063616e64696461746560681b6044820152606401610552565b6005546001600160a01b038216600090815260076020526040902060040154146111f75760405162461bcd60e51b8152600401610552906124db565b336000908152600b60209081526040808320600554845290915290205460ff16156112345760405162461bcd60e51b81526004016105529061250a565b336000818152600b6020908152604080832060055484529091528120805460ff191660011790559061126590611410565b6001600160a01b038316600090815260076020526040812060020180549293508392909190611295908490612557565b9091555061084a905082611d87565b6112ac611af4565b6001600160a01b0381166112d6576000604051631e4fbdf760e01b8152600401610552919061212d565b61085481611b21565b600760205260009081526040902080546001820180546001600160a01b03909216929161130b9061229e565b80601f01602080910402602001604051908101604052809291908181526020018280546113379061229e565b80156113845780601f1061135957610100808354040283529160200191611384565b820191906000526020600020905b81548152906001019060200180831161136757829003601f168201915b50505050600283015460038401546004909401549293909260ff909116915085565b6113ae611af4565b6002546001600160a01b0316156113c457600080fd5b600280546001600160a01b0319166001600160a01b0392909216919091179055565b60026001540361140957604051633ee5aeb560e01b815260040160405180910390fd5b6002600155565b600354604051638e1eebe560e01b81526000916001600160a01b031690638e1eebe59061144190859060040161212d565b602060405180830381865afa15801561145e573d6000803e3d6000fd5b505050506040513d601f19601f820116820180604052508101906114829190612260565b92915050565b6001600160a01b038116600090815260076020526040812060020154905b60058160ff16101561157657826001600160a01b031660218260ff16600581106114d2576114d261256a565b01546001600160a01b03160361156e57805b60048160ff1610156115585760216114fd826001612580565b60ff16600581106115105761151061256a565b01546001600160a01b0316602160ff8316600581106115315761153161256a565b0180546001600160a01b0319166001600160a01b03929092169190911790556001016114e4565b50602580546001600160a01b0319169055611576565b6001016114a6565b5060005b60058160ff1610156116c357600080602160ff84166005811061159f5761159f61256a565b01546001600160a01b0316146115ed576007600060218460ff16600581106115c9576115c961256a565b01546001600160a01b031681526020810191909152604001600020600201546115f0565b60005b9050808311156116ba5760045b8260ff168160ff16111561167d576021611618600183612599565b60ff166005811061162b5761162b61256a565b01546001600160a01b0316602160ff83166005811061164c5761164c61256a565b0180546001600160a01b0319166001600160a01b039290921691909117905580611675816125b2565b9150506115fd565b508360218360ff16600581106116955761169561256a565b0180546001600160a01b0319166001600160a01b039290921691909117905550505050565b5060010161157a565b505050565b6001600160a01b038116600090815260076020526040812060020154905b60058160ff1610156117b657826001600160a01b031660128260ff16600581106117125761171261256a565b01546001600160a01b0316036117ae57805b60048160ff16101561179857601261173d826001612580565b60ff16600581106117505761175061256a565b01546001600160a01b0316601260ff8316600581106117715761177161256a565b0180546001600160a01b0319166001600160a01b0392909216919091179055600101611724565b50601680546001600160a01b03191690556117b6565b6001016116e6565b5060005b60058160ff1610156116c357600080601260ff8416600581106117df576117df61256a565b01546001600160a01b03161461182d576007600060128460ff16600581106118095761180961256a565b01546001600160a01b03168152602081019190915260400160002060020154611830565b60005b9050808311156118d55760045b8260ff168160ff1611156118bd576012611858600183612599565b60ff166005811061186b5761186b61256a565b01546001600160a01b0316601260ff83166005811061188c5761188c61256a565b0180546001600160a01b0319166001600160a01b0392909216919091179055806118b5816125b2565b91505061183d565b508360128360ff16600581106116955761169561256a565b506001016117ba565b6001600160a01b038116600090815260076020526040812060020154905b60058160ff1610156119cc57826001600160a01b0316600d8260ff16600581106119285761192861256a565b01546001600160a01b0316036119c457805b60048160ff1610156119ae57600d611953826001612580565b60ff16600581106119665761196661256a565b01546001600160a01b0316600d60ff8316600581106119875761198761256a565b0180546001600160a01b0319166001600160a01b039290921691909117905560010161193a565b50601180546001600160a01b03191690556119cc565b6001016118fc565b5060005b60058160ff1610156116c357600080600d60ff8416600581106119f5576119f561256a565b01546001600160a01b031614611a435760076000600d8460ff1660058110611a1f57611a1f61256a565b01546001600160a01b03168152602081019190915260400160002060020154611a46565b60005b905080831115611aeb5760045b8260ff168160ff161115611ad357600d611a6e600183612599565b60ff1660058110611a8157611a8161256a565b01546001600160a01b0316600d60ff831660058110611aa257611aa261256a565b0180546001600160a01b0319166001600160a01b039290921691909117905580611acb816125b2565b915050611a53565b5083600d8360ff16600581106116955761169561256a565b506001016119d0565b6000546001600160a01b03163314610afe573360405163118cdaa760e01b8152600401610552919061212d565b600080546001600160a01b038381166001600160a01b0319831681178455604051919092169283917f8be0079c531659141344cd1fd0a4f28419497f9722a3daafe3b4186f6b6457e09190a35050565b6001600160a01b038116600090815260076020526040812060020154905b60058160ff161015611c5f57826001600160a01b031660178260ff1660058110611bbb57611bbb61256a565b01546001600160a01b031603611c5757805b60048160ff161015611c41576017611be6826001612580565b60ff1660058110611bf957611bf961256a565b01546001600160a01b0316601760ff831660058110611c1a57611c1a61256a565b0180546001600160a01b0319166001600160a01b0392909216919091179055600101611bcd565b50601b80546001600160a01b0319169055611c5f565b600101611b8f565b5060005b60058160ff1610156116c357600080601760ff841660058110611c8857611c8861256a565b01546001600160a01b031614611cd6576007600060178460ff1660058110611cb257611cb261256a565b01546001600160a01b03168152602081019190915260400160002060020154611cd9565b60005b905080831115611d7e5760045b8260ff168160ff161115611d66576017611d01600183612599565b60ff1660058110611d1457611d1461256a565b01546001600160a01b0316601760ff831660058110611d3557611d3561256a565b0180546001600160a01b0319166001600160a01b039290921691909117905580611d5e816125b2565b915050611ce6565b508360178360ff16600581106116955761169561256a565b50600101611c63565b6001600160a01b038116600090815260076020526040812060020154905b60058160ff161015611e7557826001600160a01b0316601c8260ff1660058110611dd157611dd161256a565b01546001600160a01b031603611e6d57805b60048160ff161015611e5757601c611dfc826001612580565b60ff1660058110611e0f57611e0f61256a565b01546001600160a01b0316601c60ff831660058110611e3057611e3061256a565b0180546001600160a01b0319166001600160a01b0392909216919091179055600101611de3565b50602080546001600160a01b0319169055611e75565b600101611da5565b5060005b60058160ff1610156116c357600080601c60ff841660058110611e9e57611e9e61256a565b01546001600160a01b031614611eec5760076000601c8460ff1660058110611ec857611ec861256a565b01546001600160a01b03168152602081019190915260400160002060020154611eef565b60005b905080831115611f945760045b8260ff168160ff161115611f7c57601c611f17600183612599565b60ff1660058110611f2a57611f2a61256a565b01546001600160a01b0316601c60ff831660058110611f4b57611f4b61256a565b0180546001600160a01b0319166001600160a01b039290921691909117905580611f74816125b2565b915050611efc565b5083601c8360ff16600581106116955761169561256a565b50600101611e79565b6040518060a001604052806005906020820280368337509192915050565b506000815560010160008155600101600081556001016000815560010160009055565b80356001600160a01b0381168114611ff557600080fd5b919050565b6000806040838503121561200d57600080fd5b61201683611fde565b946020939093013593505050565b634e487b7160e01b600052604160045260246000fd5b803560058110611ff557600080fd5b6000806040838503121561205c57600080fd5b823567ffffffffffffffff8082111561207457600080fd5b818501915085601f83011261208857600080fd5b81358181111561209a5761209a612024565b604051601f8201601f19908116603f011681019083821181831017156120c2576120c2612024565b816040528281528860208487010111156120db57600080fd5b8260208601602083013760006020848301015280965050505050506121026020840161203a565b90509250929050565b60006020828403121561211d57600080fd5b61212682611fde565b9392505050565b6001600160a01b0391909116815260200190565b60a08101818360005b60058110156121725781516001600160a01b031683526020928301929091019060010161214a565b50505092915050565b60006020828403121561218d57600080fd5b5035919050565b634e487b7160e01b600052602160045260246000fd5b600581106121c857634e487b7160e01b600052602160045260246000fd5b9052565b60018060a01b03861681526000602060a0602084015286518060a085015260005b818110156122095788810183015185820160c0015282016121ed565b50600060c0828601015260c0601f19601f8301168501019250505084604083015261223760608301856121aa565b8260808301529695505050505050565b6001600160a01b03929092168252602082015260400190565b60006020828403121561227257600080fd5b5051919050565b6020808252600b908201526a1b9bc81c185cdcdc1bdc9d60aa1b604082015260600190565b600181811c908216806122b257607f821691505b6020821081036122d257634e487b7160e01b600052602260045260246000fd5b50919050565b601f8211156116c3576000816000526020600020601f850160051c810160208610156123015750805b601f850160051c820191505b818110156123205782815560010161230d565b505050505050565b815167ffffffffffffffff81111561234257612342612024565b61235681612350845461229e565b846122d8565b602080601f83116001811461238b57600084156123735750858301515b600019600386901b1c1916600185901b178555612320565b600085815260208120601f198616915b828110156123ba5788860151825594840194600190910190840161239b565b50858210156123d85787850151600019600388901b60f8161c191681555b5050505050600190811b01905550565b838152600060206060602084015260018060a01b038554166060840152600180860160a060808601526000815461241e8161229e565b806101008901526101206001831660008114612441576001811461245b5761248a565b60ff1984168a83015282151560051b8a018201945061248a565b85600052602060002060005b848110156124825781548c8201850152908801908901612467565b8b0183019550505b50505050600288015460a0870152600388015460ff1693506124af60c08701856121aa565b600488015460e08701526001600160a01b038716604087015293506124d392505050565b949350505050565b6020808252601590820152742bb937b7339032b632b1ba34b7b71039b2b0b9b7b760591b604082015260600190565b6020808252601b908201527f416c726561647920766f74656420666f72207468697320726f6c650000000000604082015260600190565b634e487b7160e01b600052601160045260246000fd5b8082018082111561148257611482612541565b634e487b7160e01b600052603260045260246000fd5b60ff818116838216019081111561148257611482612541565b60ff828116828216039081111561148257611482612541565b600060ff8216806125c5576125c5612541565b600019019291505056fea2646970667358221220f4dbeae2720a43795e1b8e1e01fb9f22cf660a6b236bd808c2a6fdc28c4e757f64736f6c63430008180033",
  "linkReferences": {},
  "deployedLinkReferences": {}
}