{
  "_format": "hh-sol-artifact-1",
  "contractName": "GuildBankAccessManager",
  "sourceName": "contracts/GuildBankAccessManager.sol",
  "abi": [
    {
      "inputs": [
        {
          "internalType": "address",
          "name": "initialAdmin",
          "type": "address"
        }
      ],
      "stateMutability": "nonpayable",
      "type": "constructor"
    },
    {
      "inputs": [
        {
          "internalType": "bytes32",
          "name": "operationId",
          "type": "bytes32"
        }
      ],
      "name": "AccessManagerAlreadyScheduled",
      "type": "error"
    },
    {
      "inputs": [],
      "name": "AccessManagerBadConfirmation",
      "type": "error"
    },
    {
      "inputs": [
        {
          "internalType": "bytes32",
          "name": "operationId",
          "type": "bytes32"
        }
      ],
      "name": "AccessManagerExpired",
      "type": "error"
    },
    {
      "inputs": [
        {
          "internalType": "address",
          "name": "initialAdmin",
          "type": "address"
        }
      ],
      "name": "AccessManagerInvalidInitialAdmin",
      "type": "error"
    },
    {
      "inputs": [
        {
          "internalType": "uint64",
          "name": "roleId",
          "type": "uint64"
        }
      ],
      "name": "AccessManagerLockedRole",
      "type": "error"
    },
    {
      "inputs": [
        {
          "internalType": "bytes32",
          "name": "operationId",
          "type": "bytes32"
        }
      ],
      "name": "AccessManagerNotReady",
      "type": "error"
    },
    {
      "inputs": [
        {
          "internalType": "bytes32",
          "name": "operationId",
          "type": "bytes32"
        }
      ],
      "name": "AccessManagerNotScheduled",
      "type": "error"
    },
    {
      "inputs": [
        {
          "internalType": "address",
          "name": "msgsender",
          "type": "address"
        },
        {
          "internalType": "uint64",
          "name": "roleId",
          "type": "uint64"
        }
      ],
      "name": "AccessManagerUnauthorizedAccount",
      "type": "error"
    },
    {
      "inputs": [
        {
          "internalType": "address",
          "name": "caller",
          "type": "address"
        },
        {
          "internalType": "address",
          "name": "target",
          "type": "address"
        },
        {
          "internalType": "bytes4",
          "name": "selector",
          "type": "bytes4"
        }
      ],
      "name": "AccessManagerUnauthorizedCall",
      "type": "error"
    },
    {
      "inputs": [
        {
          "internalType": "address",
          "name": "msgsender",
          "type": "address"
        },
        {
          "internalType": "address",
          "name": "caller",
          "type": "address"
        },
        {
          "internalType": "address",
          "name": "target",
          "type": "address"
        },
        {
          "internalType": "bytes4",
          "name": "selector",
          "type": "bytes4"
        }
      ],
      "name": "AccessManagerUnauthorizedCancel",
      "type": "error"
    },
    {
      "inputs": [
        {
          "internalType": "address",
          "name": "target",
          "type": "address"
        }
      ],
      "name": "AccessManagerUnauthorizedConsume",
      "type": "error"
    },
    {
      "inputs": [
        {
          "internalType": "address",
          "name": "target",
          "type": "address"
        }
      ],
      "name": "AddressEmptyCode",
      "type": "error"
    },
    {
      "inputs": [],
      "name": "FailedCall",
      "type": "error"
    },
    {
      "inputs": [
        {
          "internalType": "uint256",
          "name": "balance",
          "type": "uint256"
        },
        {
          "internalType": "uint256",
          "name": "needed",
          "type": "uint256"
        }
      ],
      "name": "InsufficientBalance",
      "type": "error"
    },
    {
      "inputs": [
        {
          "internalType": "uint8",
          "name": "bits",
          "type": "uint8"
        },
        {
          "internalType": "uint256",
          "name": "value",
          "type": "uint256"
        }
      ],
      "name": "SafeCastOverflowedUintDowncast",
      "type": "error"
    },
    {
      "anonymous": false,
      "inputs": [
        {
          "indexed": true,
          "internalType": "bytes32",
          "name": "operationId",
          "type": "bytes32"
        },
        {
          "indexed": true,
          "internalType": "uint32",
          "name": "nonce",
          "type": "uint32"
        }
      ],
      "name": "OperationCanceled",
      "type": "event"
    },
    {
      "anonymous": false,
      "inputs": [
        {
          "indexed": true,
          "internalType": "bytes32",
          "name": "operationId",
          "type": "bytes32"
        },
        {
          "indexed": true,
          "internalType": "uint32",
          "name": "nonce",
          "type": "uint32"
        }
      ],
      "name": "OperationExecuted",
      "type": "event"
    },
    {
      "anonymous": false,
      "inputs": [
        {
          "indexed": true,
          "internalType": "bytes32",
          "name": "operationId",
          "type": "bytes32"
        },
        {
          "indexed": true,
          "internalType": "uint32",
          "name": "nonce",
          "type": "uint32"
        },
        {
          "indexed": false,
          "internalType": "uint48",
          "name": "schedule",
          "type": "uint48"
        },
        {
          "indexed": false,
          "internalType": "address",
          "name": "caller",
          "type": "address"
        },
        {
          "indexed": false,
          "internalType": "address",
          "name": "target",
          "type": "address"
        },
        {
          "indexed": false,
          "internalType": "bytes",
          "name": "data",
          "type": "bytes"
        }
      ],
      "name": "OperationScheduled",
      "type": "event"
    },
    {
      "anonymous": false,
      "inputs": [
        {
          "indexed": true,
          "internalType": "uint64",
          "name": "roleId",
          "type": "uint64"
        },
        {
          "indexed": true,
          "internalType": "uint64",
          "name": "admin",
          "type": "uint64"
        }
      ],
      "name": "RoleAdminChanged",
      "type": "event"
    },
    {
      "anonymous": false,
      "inputs": [
        {
          "indexed": true,
          "internalType": "uint64",
          "name": "roleId",
          "type": "uint64"
        },
        {
          "indexed": false,
          "internalType": "uint32",
          "name": "delay",
          "type": "uint32"
        },
        {
          "indexed": false,
          "internalType": "uint48",
          "name": "since",
          "type": "uint48"
        }
      ],
      "name": "RoleGrantDelayChanged",
      "type": "event"
    },
    {
      "anonymous": false,
      "inputs": [
        {
          "indexed": true,
          "internalType": "uint64",
          "name": "roleId",
          "type": "uint64"
        },
        {
          "indexed": true,
          "internalType": "address",
          "name": "account",
          "type": "address"
        },
        {
          "indexed": false,
          "internalType": "uint32",
          "name": "delay",
          "type": "uint32"
        },
        {
          "indexed": false,
          "internalType": "uint48",
          "name": "since",
          "type": "uint48"
        },
        {
          "indexed": false,
          "internalType": "bool",
          "name": "newMember",
          "type": "bool"
        }
      ],
      "name": "RoleGranted",
      "type": "event"
    },
    {
      "anonymous": false,
      "inputs": [
        {
          "indexed": true,
          "internalType": "uint64",
          "name": "roleId",
          "type": "uint64"
        },
        {
          "indexed": true,
          "internalType": "uint64",
          "name": "guardian",
          "type": "uint64"
        }
      ],
      "name": "RoleGuardianChanged",
      "type": "event"
    },
    {
      "anonymous": false,
      "inputs": [
        {
          "indexed": true,
          "internalType": "uint64",
          "name": "roleId",
          "type": "uint64"
        },
        {
          "indexed": false,
          "internalType": "string",
          "name": "label",
          "type": "string"
        }
      ],
      "name": "RoleLabel",
      "type": "event"
    },
    {
      "anonymous": false,
      "inputs": [
        {
          "indexed": true,
          "internalType": "uint64",
          "name": "roleId",
          "type": "uint64"
        },
        {
          "indexed": true,
          "internalType": "address",
          "name": "account",
          "type": "address"
        }
      ],
      "name": "RoleRevoked",
      "type": "event"
    },
    {
      "anonymous": false,
      "inputs": [
        {
          "indexed": true,
          "internalType": "address",
          "name": "target",
          "type": "address"
        },
        {
          "indexed": false,
          "internalType": "uint32",
          "name": "delay",
          "type": "uint32"
        },
        {
          "indexed": false,
          "internalType": "uint48",
          "name": "since",
          "type": "uint48"
        }
      ],
      "name": "TargetAdminDelayUpdated",
      "type": "event"
    },
    {
      "anonymous": false,
      "inputs": [
        {
          "indexed": true,
          "internalType": "address",
          "name": "target",
          "type": "address"
        },
        {
          "indexed": false,
          "internalType": "bool",
          "name": "closed",
          "type": "bool"
        }
      ],
      "name": "TargetClosed",
      "type": "event"
    },
    {
      "anonymous": false,
      "inputs": [
        {
          "indexed": true,
          "internalType": "address",
          "name": "target",
          "type": "address"
        },
        {
          "indexed": false,
          "internalType": "bytes4",
          "name": "selector",
          "type": "bytes4"
        },
        {
          "indexed": true,
          "internalType": "uint64",
          "name": "roleId",
          "type": "uint64"
        }
      ],
      "name": "TargetFunctionRoleUpdated",
      "type": "event"
    },
    {
      "inputs": [],
      "name": "ADMIN_ROLE",
      "outputs": [
        {
          "internalType": "uint64",
          "name": "",
          "type": "uint64"
        }
      ],
      "stateMutability": "view",
      "type": "function"
    },
    {
      "inputs": [],
      "name": "PUBLIC_ROLE",
      "outputs": [
        {
          "internalType": "uint64",
          "name": "",
          "type": "uint64"
        }
      ],
      "stateMutability": "view",
      "type": "function"
    },
    {
      "inputs": [
        {
          "internalType": "address",
          "name": "caller",
          "type": "address"
        },
        {
          "internalType": "address",
          "name": "target",
          "type": "address"
        },
        {
          "internalType": "bytes4",
          "name": "selector",
          "type": "bytes4"
        }
      ],
      "name": "canCall",
      "outputs": [
        {
          "internalType": "bool",
          "name": "immediate",
          "type": "bool"
        },
        {
          "internalType": "uint32",
          "name": "delay",
          "type": "uint32"
        }
      ],
      "stateMutability": "view",
      "type": "function"
    },
    {
      "inputs": [
        {
          "internalType": "address",
          "name": "caller",
          "type": "address"
        },
        {
          "internalType": "address",
          "name": "target",
          "type": "address"
        },
        {
          "internalType": "bytes",
          "name": "data",
          "type": "bytes"
        }
      ],
      "name": "cancel",
      "outputs": [
        {
          "internalType": "uint32",
          "name": "",
          "type": "uint32"
        }
      ],
      "stateMutability": "nonpayable",
      "type": "function"
    },
    {
      "inputs": [
        {
          "internalType": "address",
          "name": "caller",
          "type": "address"
        },
        {
          "internalType": "bytes",
          "name": "data",
          "type": "bytes"
        }
      ],
      "name": "consumeScheduledOp",
      "outputs": [],
      "stateMutability": "nonpayable",
      "type": "function"
    },
    {
      "inputs": [
        {
          "internalType": "address",
          "name": "target",
          "type": "address"
        },
        {
          "internalType": "bytes",
          "name": "data",
          "type": "bytes"
        }
      ],
      "name": "execute",
      "outputs": [
        {
          "internalType": "uint32",
          "name": "",
          "type": "uint32"
        }
      ],
      "stateMutability": "payable",
      "type": "function"
    },
    {
      "inputs": [],
      "name": "expiration",
      "outputs": [
        {
          "internalType": "uint32",
          "name": "",
          "type": "uint32"
        }
      ],
      "stateMutability": "view",
      "type": "function"
    },
    {
      "inputs": [
        {
          "internalType": "uint64",
          "name": "roleId",
          "type": "uint64"
        },
        {
          "internalType": "address",
          "name": "account",
          "type": "address"
        }
      ],
      "name": "getAccess",
      "outputs": [
        {
          "internalType": "uint48",
          "name": "since",
          "type": "uint48"
        },
        {
          "internalType": "uint32",
          "name": "currentDelay",
          "type": "uint32"
        },
        {
          "internalType": "uint32",
          "name": "pendingDelay",
          "type": "uint32"
        },
        {
          "internalType": "uint48",
          "name": "effect",
          "type": "uint48"
        }
      ],
      "stateMutability": "view",
      "type": "function"
    },
    {
      "inputs": [
        {
          "internalType": "bytes32",
          "name": "id",
          "type": "bytes32"
        }
      ],
      "name": "getNonce",
      "outputs": [
        {
          "internalType": "uint32",
          "name": "",
          "type": "uint32"
        }
      ],
      "stateMutability": "view",
      "type": "function"
    },
    {
      "inputs": [
        {
          "internalType": "uint64",
          "name": "roleId",
          "type": "uint64"
        }
      ],
      "name": "getRoleAdmin",
      "outputs": [
        {
          "internalType": "uint64",
          "name": "",
          "type": "uint64"
        }
      ],
      "stateMutability": "view",
      "type": "function"
    },
    {
      "inputs": [
        {
          "internalType": "uint64",
          "name": "roleId",
          "type": "uint64"
        }
      ],
      "name": "getRoleGrantDelay",
      "outputs": [
        {
          "internalType": "uint32",
          "name": "",
          "type": "uint32"
        }
      ],
      "stateMutability": "view",
      "type": "function"
    },
    {
      "inputs": [
        {
          "internalType": "uint64",
          "name": "roleId",
          "type": "uint64"
        }
      ],
      "name": "getRoleGuardian",
      "outputs": [
        {
          "internalType": "uint64",
          "name": "",
          "type": "uint64"
        }
      ],
      "stateMutability": "view",
      "type": "function"
    },
    {
      "inputs": [
        {
          "internalType": "bytes32",
          "name": "id",
          "type": "bytes32"
        }
      ],
      "name": "getSchedule",
      "outputs": [
        {
          "internalType": "uint48",
          "name": "",
          "type": "uint48"
        }
      ],
      "stateMutability": "view",
      "type": "function"
    },
    {
      "inputs": [
        {
          "internalType": "address",
          "name": "target",
          "type": "address"
        }
      ],
      "name": "getTargetAdminDelay",
      "outputs": [
        {
          "internalType": "uint32",
          "name": "",
          "type": "uint32"
        }
      ],
      "stateMutability": "view",
      "type": "function"
    },
    {
      "inputs": [
        {
          "internalType": "address",
          "name": "target",
          "type": "address"
        },
        {
          "internalType": "bytes4",
          "name": "selector",
          "type": "bytes4"
        }
      ],
      "name": "getTargetFunctionRole",
      "outputs": [
        {
          "internalType": "uint64",
          "name": "",
          "type": "uint64"
        }
      ],
      "stateMutability": "view",
      "type": "function"
    },
    {
      "inputs": [
        {
          "internalType": "uint64",
          "name": "roleId",
          "type": "uint64"
        },
        {
          "internalType": "address",
          "name": "account",
          "type": "address"
        },
        {
          "internalType": "uint32",
          "name": "executionDelay",
          "type": "uint32"
        }
      ],
      "name": "grantRole",
      "outputs": [],
      "stateMutability": "nonpayable",
      "type": "function"
    },
    {
      "inputs": [
        {
          "internalType": "uint64",
          "name": "roleId",
          "type": "uint64"
        },
        {
          "internalType": "address",
          "name": "account",
          "type": "address"
        }
      ],
      "name": "hasRole",
      "outputs": [
        {
          "internalType": "bool",
          "name": "isMember",
          "type": "bool"
        },
        {
          "internalType": "uint32",
          "name": "executionDelay",
          "type": "uint32"
        }
      ],
      "stateMutability": "view",
      "type": "function"
    },
    {
      "inputs": [
        {
          "internalType": "address",
          "name": "caller",
          "type": "address"
        },
        {
          "internalType": "address",
          "name": "target",
          "type": "address"
        },
        {
          "internalType": "bytes",
          "name": "data",
          "type": "bytes"
        }
      ],
      "name": "hashOperation",
      "outputs": [
        {
          "internalType": "bytes32",
          "name": "",
          "type": "bytes32"
        }
      ],
      "stateMutability": "view",
      "type": "function"
    },
    {
      "inputs": [
        {
          "internalType": "address",
          "name": "target",
          "type": "address"
        }
      ],
      "name": "isTargetClosed",
      "outputs": [
        {
          "internalType": "bool",
          "name": "",
          "type": "bool"
        }
      ],
      "stateMutability": "view",
      "type": "function"
    },
    {
      "inputs": [
        {
          "internalType": "uint64",
          "name": "roleId",
          "type": "uint64"
        },
        {
          "internalType": "string",
          "name": "label",
          "type": "string"
        }
      ],
      "name": "labelRole",
      "outputs": [],
      "stateMutability": "nonpayable",
      "type": "function"
    },
    {
      "inputs": [],
      "name": "minSetback",
      "outputs": [
        {
          "internalType": "uint32",
          "name": "",
          "type": "uint32"
        }
      ],
      "stateMutability": "view",
      "type": "function"
    },
    {
      "inputs": [
        {
          "internalType": "bytes[]",
          "name": "data",
          "type": "bytes[]"
        }
      ],
      "name": "multicall",
      "outputs": [
        {
          "internalType": "bytes[]",
          "name": "results",
          "type": "bytes[]"
        }
      ],
      "stateMutability": "nonpayable",
      "type": "function"
    },
    {
      "inputs": [
        {
          "internalType": "uint64",
          "name": "roleId",
          "type": "uint64"
        },
        {
          "internalType": "address",
          "name": "callerConfirmation",
          "type": "address"
        }
      ],
      "name": "renounceRole",
      "outputs": [],
      "stateMutability": "nonpayable",
      "type": "function"
    },
    {
      "inputs": [
        {
          "internalType": "uint64",
          "name": "roleId",
          "type": "uint64"
        },
        {
          "internalType": "address",
          "name": "account",
          "type": "address"
        }
      ],
      "name": "revokeRole",
      "outputs": [],
      "stateMutability": "nonpayable",
      "type": "function"
    },
    {
      "inputs": [
        {
          "internalType": "address",
          "name": "target",
          "type": "address"
        },
        {
          "internalType": "bytes",
          "name": "data",
          "type": "bytes"
        },
        {
          "internalType": "uint48",
          "name": "when",
          "type": "uint48"
        }
      ],
      "name": "schedule",
      "outputs": [
        {
          "internalType": "bytes32",
          "name": "operationId",
          "type": "bytes32"
        },
        {
          "internalType": "uint32",
          "name": "nonce",
          "type": "uint32"
        }
      ],
      "stateMutability": "nonpayable",
      "type": "function"
    },
    {
      "inputs": [
        {
          "internalType": "uint64",
          "name": "roleId",
          "type": "uint64"
        },
        {
          "internalType": "uint32",
          "name": "newDelay",
          "type": "uint32"
        }
      ],
      "name": "setGrantDelay",
      "outputs": [],
      "stateMutability": "nonpayable",
      "type": "function"
    },
    {
      "inputs": [
        {
          "internalType": "uint64",
          "name": "roleId",
          "type": "uint64"
        },
        {
          "internalType": "uint64",
          "name": "admin",
          "type": "uint64"
        }
      ],
      "name": "setRoleAdmin",
      "outputs": [],
      "stateMutability": "nonpayable",
      "type": "function"
    },
    {
      "inputs": [
        {
          "internalType": "uint64",
          "name": "roleId",
          "type": "uint64"
        },
        {
          "internalType": "uint64",
          "name": "guardian",
          "type": "uint64"
        }
      ],
      "name": "setRoleGuardian",
      "outputs": [],
      "stateMutability": "nonpayable",
      "type": "function"
    },
    {
      "inputs": [
        {
          "internalType": "address",
          "name": "target",
          "type": "address"
        },
        {
          "internalType": "uint32",
          "name": "newDelay",
          "type": "uint32"
        }
      ],
      "name": "setTargetAdminDelay",
      "outputs": [],
      "stateMutability": "nonpayable",
      "type": "function"
    },
    {
      "inputs": [
        {
          "internalType": "address",
          "name": "target",
          "type": "address"
        },
        {
          "internalType": "bool",
          "name": "closed",
          "type": "bool"
        }
      ],
      "name": "setTargetClosed",
      "outputs": [],
      "stateMutability": "nonpayable",
      "type": "function"
    },
    {
      "inputs": [
        {
          "internalType": "address",
          "name": "target",
          "type": "address"
        },
        {
          "internalType": "bytes4[]",
          "name": "selectors",
          "type": "bytes4[]"
        },
        {
          "internalType": "uint64",
          "name": "roleId",
          "type": "uint64"
        }
      ],
      "name": "setTargetFunctionRole",
      "outputs": [],
      "stateMutability": "nonpayable",
      "type": "function"
    },
    {
      "inputs": [
        {
          "internalType": "address",
          "name": "target",
          "type": "address"
        },
        {
          "internalType": "address",
          "name": "newAuthority",
          "type": "address"
        }
      ],
      "name": "updateAuthority",
      "outputs": [],
      "stateMutability": "nonpayable",
      "type": "function"
    }
  ],
  "bytecode": "0x60806040523480156200001157600080fd5b5060405162002dd538038062002dd5833981016040819052620000349162000483565b806001600160a01b0381166200006557604051630409d6d160e11b8152600060048201526024015b60405180910390fd5b6200007460008281806200007d565b5050506200050d565b60006002600160401b03196001600160401b03861601620000bd5760405163061c6a4360e21b81526001600160401b03861660048201526024016200005c565b6001600160401b03851660009081526001602090815260408083206001600160a01b038816845290915281205465ffffffffffff1615908115620001bc5763ffffffff85166200010c620002d4565b620001189190620004c4565b905060405180604001604052808265ffffffffffff1681526020016200014a8663ffffffff16620002e660201b60201c565b6001600160701b039081169091526001600160401b03891660009081526001602090815260408083206001600160a01b038c16845282529091208351815494909201519092166601000000000000026001600160a01b031990931665ffffffffffff9091161791909117905562000266565b6001600160401b03871660009081526001602090815260408083206001600160a01b038a1684529091528120546200020b9166010000000000009091046001600160701b0316908690620002ef565b6001600160401b03891660009081526001602090815260408083206001600160a01b038c168452909152902080546001600160701b03909316660100000000000002600160301b600160a01b03199093169290921790915590505b6040805163ffffffff8616815265ffffffffffff831660208201528315158183015290516001600160a01b038816916001600160401b038a16917ff98448b987f1428e0e230e1f3c6e2ce15b5693eaf31827fbd0b1ec4b424ae7cf9181900360600190a35095945050505050565b6000620002e142620003a4565b905090565b63ffffffff1690565b60008080620003076001600160701b038716620003dd565b905060006200034a8563ffffffff168763ffffffff168463ffffffff1611620003325760006200033e565b6200033e8885620004ed565b63ffffffff16620003fe565b905063ffffffff81166200035d620002d4565b620003699190620004c4565b925063ffffffff8616602083901b67ffffffff0000000016604085901b6dffffffffffff000000000000000016171793505050935093915050565b600065ffffffffffff821115620003d9576040516306dfcc6560e41b815260306004820152602481018390526044016200005c565b5090565b600080620003f46001600160701b03841662000411565b5090949350505050565b60008282188284110282185b9392505050565b600080806200042a8462000424620002d4565b62000437565b9250925092509193909250565b6001600160501b03602083901c166001600160701b03831665ffffffffffff604085901c8116908416811115620004715782828262000476565b816000805b9250925092509250925092565b6000602082840312156200049657600080fd5b81516001600160a01b03811681146200040a57600080fd5b634e487b7160e01b600052601160045260246000fd5b65ffffffffffff818116838216019080821115620004e657620004e6620004ae565b5092915050565b63ffffffff828116828216039080821115620004e657620004e6620004ae565b6128b8806200051d6000396000f3fe6080604052600436106101a35760003560e01c80636d5115bd116100e2578063b700961311610085578063b70096131461058c578063b7d2b162146105c8578063cc1b6c81146105e8578063d1f856ee146105fe578063d22b59891461061e578063d6bb62c61461063e578063f801a6981461065e578063fe0776f51461069857600080fd5b80636d5115bd1461046c57806375b238fc1461048c578063853551b8146104a157806394c7d7ee146104c1578063a166aa89146104e1578063a64d95ce14610511578063abd9bd2a14610531578063ac9650d81461055f57600080fd5b806330cae1871161014a57806330cae1871461032d5780633adc277a1461034d5780633ca7c02a146103845780634136a33c1461039f5780634665096d146103d95780634c1da1e2146103ef578063529629521461040f578063530dd4561461042f57600080fd5b806308d6122d146101a85780630b0a93ba146101ca57806312be87271461022b578063167bd3951461026057806318ff183c146102805780631cff79cd146102a057806325c471a0146102b35780633078f114146102d3575b600080fd5b3480156101b457600080fd5b506101c86101c336600461210c565b6106b8565b005b3480156101d657600080fd5b5061020e6101e5366004612172565b6001600160401b0390811660009081526001602081905260409091200154600160401b90041690565b6040516001600160401b0390911681526020015b60405180910390f35b34801561023757600080fd5b5061024b610246366004612172565b61070b565b60405163ffffffff9091168152602001610222565b34801561026c57600080fd5b506101c861027b36600461218d565b610746565b34801561028c57600080fd5b506101c861029b3660046121cb565b61075c565b61024b6102ae36600461223a565b6107c6565b3480156102bf57600080fd5b506101c86102ce3660046122a2565b6108f6565b3480156102df57600080fd5b506102f36102ee3660046122e7565b610918565b604051610222949392919065ffffffffffff948516815263ffffffff93841660208201529190921660408201529116606082015260800190565b34801561033957600080fd5b506101c8610348366004612303565b61097d565b34801561035957600080fd5b5061036d610368366004612336565b61098f565b60405165ffffffffffff9091168152602001610222565b34801561039057600080fd5b5061020e6001600160401b0381565b3480156103ab57600080fd5b5061024b6103ba366004612336565b600090815260026020526040902054600160301b900463ffffffff1690565b3480156103e557600080fd5b5062093a8061024b565b3480156103fb57600080fd5b5061024b61040a36600461234f565b6109c2565b34801561041b57600080fd5b506101c861042a366004612303565b6109f0565b34801561043b57600080fd5b5061020e61044a366004612172565b6001600160401b03908116600090815260016020819052604090912001541690565b34801561047857600080fd5b5061020e610487366004612382565b610a02565b34801561049857600080fd5b5061020e600081565b3480156104ad57600080fd5b506101c86104bc3660046123b0565b610a3d565b3480156104cd57600080fd5b506101c86104dc36600461223a565b610ad4565b3480156104ed57600080fd5b506105016104fc36600461234f565b610b77565b6040519015158152602001610222565b34801561051d57600080fd5b506101c861052c3660046123ce565b610b9f565b34801561053d57600080fd5b5061055161054c3660046123f8565b610bb1565b604051908152602001610222565b34801561056b57600080fd5b5061057f61057a36600461245c565b610bea565b60405161022291906124c1565b34801561059857600080fd5b506105ac6105a736600461253b565b610cd1565b60408051921515835263ffffffff909116602083015201610222565b3480156105d457600080fd5b506101c86105e33660046122e7565b610d58565b3480156105f457600080fd5b506206978061024b565b34801561060a57600080fd5b506105ac6106193660046122e7565b610d6f565b34801561062a57600080fd5b506101c8610639366004612586565b610dec565b34801561064a57600080fd5b5061024b6106593660046123f8565b610dfe565b34801561066a57600080fd5b5061067e6106793660046125a4565b610f58565b6040805192835263ffffffff909116602083015201610222565b3480156106a457600080fd5b506101c86106b33660046122e7565b61109d565b6106c06110c6565b60005b82811015610704576106fc858585848181106106e1576106e1612616565b90506020020160208101906106f6919061262c565b84611141565b6001016106c3565b5050505050565b6001600160401b03811660009081526001602081905260408220015461074090600160801b90046001600160701b03166111c3565b92915050565b61074e6110c6565b61075882826111e2565b5050565b6107646110c6565b604051637a9e5e4b60e01b81526001600160a01b03831690637a9e5e4b90610790908490600401612649565b600060405180830381600087803b1580156107aa57600080fd5b505af11580156107be573d6000803e3d6000fd5b505050505050565b60003381806107d783888888611254565b91509150811580156107ed575063ffffffff8116155b156108405782876107fe88886112a7565b6040516381c6f24b60e01b81526001600160a01b0393841660048201529290911660248301526001600160e01b03191660448201526064015b60405180910390fd5b600061084e84898989610bb1565b9050600063ffffffff8316151580610875575061086a8261098f565b65ffffffffffff1615155b1561088657610883826112bf565b90505b60035461089c8a6108978b8b6112a7565b6113bf565b6003819055506108e48a8a8a8080601f016020809104026020016040519081016040528093929190818152602001838380828437600092019190915250349250611401915050565b506003559450505050505b9392505050565b6108fe6110c6565b610912838361090c8661070b565b846114a5565b50505050565b6001600160401b03821660009081526001602090815260408083206001600160a01b03851684529091528120805465ffffffffffff81169291829182919061096f90600160301b90046001600160701b03166116e9565b969991985096509350505050565b6109856110c6565b610758828261170c565b60008181526002602052604081205465ffffffffffff166109af816117b0565b6109b957806108ef565b60009392505050565b6001600160a01b038116600090815260208190526040812060010154610740906001600160701b03166111c3565b6109f86110c6565b61075882826117df565b6001600160a01b0382166000908152602081815260408083206001600160e01b0319851684529091529020546001600160401b031692915050565b610a456110c6565b6001600160401b0383161580610a6357506001600160401b03838116145b15610a8c5760405163061c6a4360e21b81526001600160401b0384166004820152602401610837565b826001600160401b03167f1256f5b5ecb89caec12db449738f2fbcd1ba5806cf38f35413f4e5c15bf6a4508383604051610ac7929190612686565b60405180910390a2505050565b60408051638fb3603760e01b80825291513392918391638fb36037916004808201926020929091908290030181865afa158015610b15573d6000803e3d6000fd5b505050506040513d601f19601f82011682018060405250810190610b3991906126a2565b6001600160e01b03191614610b635780604051630641fee960e31b81526004016108379190612649565b610704610b7285838686610bb1565b6112bf565b6001600160a01b0316600090815260208190526040902060010154600160701b900460ff1690565b610ba76110c6565b610758828261188c565b600084848484604051602001610bca94939291906126bf565b604051602081830303815290604052805190602001209050949350505050565b604080516000815260208101909152606090826001600160401b03811115610c1457610c1461272c565b604051908082528060200260200182016040528015610c4757816020015b6060815260200190600190039081610c325790505b50915060005b83811015610cc957610ca430868684818110610c6b57610c6b612616565b9050602002810190610c7d9190612742565b85604051602001610c9093929190612788565b604051602081830303815290604052611996565b838281518110610cb657610cb6612616565b6020908102919091010152600101610c4d565b505092915050565b600080610cdd84610b77565b15610ced57506000905080610d50565b306001600160a01b03861603610d1257610d078484611a0c565b600091509150610d50565b6000610d1e8585610a02565b9050600080610d2d8389610d6f565b9150915081610d3e57600080610d48565b63ffffffff811615815b945094505050505b935093915050565b610d606110c6565b610d6a8282611a23565b505050565b60008067fffffffffffffffe196001600160401b03851601610d975750600190506000610de5565b600080610da48686610918565b5050915091508165ffffffffffff16600014158015610dda5750610dc6611b10565b65ffffffffffff168265ffffffffffff1611155b93509150610de59050565b9250929050565b610df46110c6565b6107588282611b20565b60003381610e0c85856112a7565b90506000610e1c88888888610bb1565b60008181526002602052604081205491925065ffffffffffff9091169003610e5a5760405163060a299b60e41b815260048101829052602401610837565b826001600160a01b0316886001600160a01b031614610ef6576000610e80600085610d6f565b5090506000610e9b610e956101e58b87610a02565b86610d6f565b50905081158015610eaa575080155b15610ef357604051630ff89d4760e21b81526001600160a01b038087166004830152808c1660248301528a1660448201526001600160e01b031985166064820152608401610837565b50505b600081815260026020526040808220805465ffffffffffff1916908190559051600160301b90910463ffffffff1691829184917fbd9ac67a6e2f6463b80927326310338bcbb4bdb7936ce1365ea3e01067e7b9f791a398975050505050505050565b6000803381610f6982898989611254565b91505060008163ffffffff16610f7d611b10565b610f8791906127af565b905063ffffffff82161580610fbe575060008665ffffffffffff16118015610fbe57508065ffffffffffff168665ffffffffffff16105b15610fcf5782896107fe8a8a6112a7565b610fe98665ffffffffffff168265ffffffffffff16611bd6565b9550610ff7838a8a8a610bb1565b945061100285611be6565b60008581526002602052604090819020805465ffffffffffff891669ffffffffffffffffffff19821617600160301b9182900463ffffffff90811660010190811692830291909117909255915190955086907f82a2da5dee54ea8021c6545b4444620291e07ee83be6dd57edb175062715f3b490611089908a9088908f908f908f906127d5565b60405180910390a350505094509492505050565b6001600160a01b0381163314610d6057604051635f159e6360e01b815260040160405180910390fd5b336000806110d5838236611c33565b9150915081610d6a578063ffffffff166000036111315760006110f88136611cfd565b5060405163f07e038f60e01b81526001600160a01b03871660048201526001600160401b03821660248201529092506044019050610837565b610912610b728430600036610bb1565b6001600160a01b0383166000818152602081815260408083206001600160e01b0319871680855290835292819020805467ffffffffffffffff19166001600160401b038716908117909155905192835292917f9ea6790c7dadfd01c9f8b9762b3682607af2c7e79e05a9f9fdf5580dde949151910160405180910390a3505050565b6000806111d8836001600160701b03166116e9565b5090949350505050565b6001600160a01b038216600081815260208190526040908190206001018054841515600160701b0260ff60701b19909116179055517f90d4e7bb7e5d933792b3562e1741306f8be94837e1348dacef9b6f1df56eb1389061124890841515815260200190565b60405180910390a25050565b600080306001600160a01b0386160361127b57611272868585611c33565b9150915061129e565b600483106112975761129286866105a787876112a7565b611272565b5060009050805b94509492505050565b60006112b66004828486612702565b6108ef9161281b565b60008181526002602052604081205465ffffffffffff811690600160301b900463ffffffff168183036113085760405163060a299b60e41b815260048101859052602401610837565b611310611b10565b65ffffffffffff168265ffffffffffff16111561134357604051630c65b5bd60e11b815260048101859052602401610837565b61134c826117b0565b1561136d57604051631e2975b960e21b815260048101859052602401610837565b600084815260026020526040808220805465ffffffffffff191690555163ffffffff83169186917f76a2a46953689d4861a5d3f6ed883ad7e6af674a21f8e162707159fc9dde614d9190a39392505050565b604080516001600160a01b03939093166020808501919091526001600160e01b0319929092168382015280518084038201815260609093019052815191012090565b60608147101561142d5760405163cf47918160e01b815247600482015260248101839052604401610837565b600080856001600160a01b031684866040516114499190612849565b60006040518083038185875af1925050503d8060008114611486576040519150601f19603f3d011682016040523d82523d6000602084013e61148b565b606091505b509150915061149b868383611eef565b9695505050505050565b600067fffffffffffffffe196001600160401b038616016114e45760405163061c6a4360e21b81526001600160401b0386166004820152602401610837565b6001600160401b03851660009081526001602090815260408083206001600160a01b038816845290915281205465ffffffffffff16159081156115d6578463ffffffff16611530611b10565b61153a91906127af565b905060405180604001604052808265ffffffffffff1681526020016115688663ffffffff1663ffffffff1690565b6001600160701b039081169091526001600160401b03891660009081526001602090815260408083206001600160a01b038c1684528252909120835181549490920151909216600160301b026001600160a01b031990931665ffffffffffff9091161791909117905561167b565b6001600160401b03871660009081526001602090815260408083206001600160a01b038a16845290915281205461162091600160301b9091046001600160701b0316908690611f42565b6001600160401b03891660009081526001602090815260408083206001600160a01b038c168452909152902080546001600160701b03909316600160301b026601000000000000600160a01b03199093169290921790915590505b6040805163ffffffff8616815265ffffffffffff831660208201528315158183015290516001600160a01b038816916001600160401b038a16917ff98448b987f1428e0e230e1f3c6e2ce15b5693eaf31827fbd0b1ec4b424ae7cf9181900360600190a35095945050505050565b60008060006116ff846116fa611b10565b611fe7565b9250925092509193909250565b6001600160401b038216158061172a57506001600160401b03828116145b156117535760405163061c6a4360e21b81526001600160401b0383166004820152602401610837565b6001600160401b038281166000818152600160208190526040808320909101805467ffffffffffffffff19169486169485179055517f1fd6dd7631312dfac2205b52913f99de03b4d7e381d5d27d3dbfe0713e6e63409190a35050565b60006117ba611b10565b65ffffffffffff166117cf62093a80846127af565b65ffffffffffff16111592915050565b6001600160401b03821615806117fd57506001600160401b03828116145b156118265760405163061c6a4360e21b81526001600160401b0383166004820152602401610837565b6001600160401b038281166000818152600160208190526040808320909101805467ffffffffffffffff60401b1916600160401b958716958602179055517f7a8059630b897b5de4c08ade69f8b90c3ead1f8596d62d10b6c4d14a0afb4ae29190a35050565b67fffffffffffffffe196001600160401b038316016118c95760405163061c6a4360e21b81526001600160401b0383166004820152602401610837565b6001600160401b03821660009081526001602081905260408220015461190390600160801b90046001600160701b03168362069780611f42565b6001600160401b0385166000818152600160208190526040918290200180546001600160701b03909516600160801b02600160801b600160f01b03199095169490941790935591519092507ffeb69018ee8b8fd50ea86348f1267d07673379f72cffdeccec63853ee8ce8b4890610ac7908590859063ffffffff92909216825265ffffffffffff16602082015260400190565b6060600080846001600160a01b0316846040516119b39190612849565b600060405180830381855af49150503d80600081146119ee576040519150601f19603f3d011682016040523d82523d6000602084013e6119f3565b606091505b5091509150611a03858383611eef565b95945050505050565b6000611a1883836113bf565b600354149392505050565b600067fffffffffffffffe196001600160401b03841601611a625760405163061c6a4360e21b81526001600160401b0384166004820152602401610837565b6001600160401b03831660009081526001602090815260408083206001600160a01b038616845290915281205465ffffffffffff169003611aa557506000610740565b6001600160401b03831660008181526001602090815260408083206001600160a01b038716808552925280832080546001600160a01b0319169055519092917ff229baa593af28c41b1d16b748cd7688f0c83aaf92d4be41c44005defe84c16691a350600192915050565b6000611b1b42612034565b905090565b6001600160a01b038216600090815260208190526040812060010154611b53906001600160701b03168362069780611f42565b6001600160a01b0385166000818152602081815260409182902060010180546001600160701b0319166001600160701b039690961695909517909455805163ffffffff8716815265ffffffffffff841694810194909452919350917fa56b76017453f399ec2327ba00375dbfb1fd070ff854341ad6191e6a2e2de19c9101610ac7565b60008282188284110282186108ef565b60008181526002602052604090205465ffffffffffff168015801590611c125750611c10816117b0565b155b156107585760405163813e945960e01b815260048101839052602401610837565b6000806004831015611c4a57506000905080610d50565b306001600160a01b03861603611c6d57610d0730611c6886866112a7565b611a0c565b6000806000611c7c8787611cfd565b92509250925082158015611c945750611c9430610b77565b15611ca85760008094509450505050610d50565b600080611cb5848b610d6f565b9150915081611ccf57600080965096505050505050610d50565b611ce58363ffffffff168263ffffffff16611bd6565b63ffffffff8116159b909a5098505050505050505050565b600080806004841015611d1857506000915081905080611ee8565b6000611d2486866112a7565b90506001600160e01b031981166310a6aa3760e31b1480611d5557506001600160e01b031981166330cae18760e01b145b80611d7057506001600160e01b0319811663294b14a960e11b145b80611d8b57506001600160e01b03198116635326cae760e11b145b80611da657506001600160e01b0319811663d22b598960e01b145b15611dbc57600160008093509350935050611ee8565b6001600160e01b0319811663063fc60f60e21b1480611deb57506001600160e01b0319811663167bd39560e01b145b80611e0657506001600160e01b031981166308d6122d60e01b145b15611e48576000611e1b60246004888a612702565b810190611e28919061234f565b90506000611e35826109c2565b60019650600095509350611ee892505050565b6001600160e01b0319811663012e238d60e51b1480611e7757506001600160e01b03198116635be958b160e11b145b15611ed2576000611e8c60246004888a612702565b810190611e999190612172565b90506001611ec3826001600160401b03908116600090815260016020819052604090912001541690565b60009450945094505050611ee8565b6000611ede3083610a02565b6000935093509350505b9250925092565b606082611f0457611eff8261206b565b6108ef565b8151158015611f1b57506001600160a01b0384163b155b15611f3b5783604051639996b31560e01b81526004016108379190612649565b50806108ef565b6000806000611f59866001600160701b03166111c3565b90506000611f968563ffffffff168763ffffffff168463ffffffff1611611f81576000611f8b565b611f8b8885612865565b63ffffffff16611bd6565b90508063ffffffff16611fa7611b10565b611fb191906127af565b925063ffffffff8616602083901b67ffffffff0000000016604085901b65ffffffffffff60401b16171793505050935093915050565b69ffffffffffffffffffff602083901c166001600160701b03831665ffffffffffff604085901c811690841681111561202257828282612027565b816000805b9250925092509250925092565b600065ffffffffffff821115612067576040516306dfcc6560e41b81526030600482015260248101839052604401610837565b5090565b80511561207b5780518082602001fd5b60405163d6bda27560e01b815260040160405180910390fd5b50565b6001600160a01b038116811461209457600080fd5b60008083601f8401126120be57600080fd5b5081356001600160401b038111156120d557600080fd5b6020830191508360208260051b8501011115610de557600080fd5b80356001600160401b038116811461210757600080fd5b919050565b6000806000806060858703121561212257600080fd5b843561212d81612097565b935060208501356001600160401b0381111561214857600080fd5b612154878288016120ac565b90945092506121679050604086016120f0565b905092959194509250565b60006020828403121561218457600080fd5b6108ef826120f0565b600080604083850312156121a057600080fd5b82356121ab81612097565b9150602083013580151581146121c057600080fd5b809150509250929050565b600080604083850312156121de57600080fd5b82356121e981612097565b915060208301356121c081612097565b60008083601f84011261220b57600080fd5b5081356001600160401b0381111561222257600080fd5b602083019150836020828501011115610de557600080fd5b60008060006040848603121561224f57600080fd5b833561225a81612097565b925060208401356001600160401b0381111561227557600080fd5b612281868287016121f9565b9497909650939450505050565b803563ffffffff8116811461210757600080fd5b6000806000606084860312156122b757600080fd5b6122c0846120f0565b925060208401356122d081612097565b91506122de6040850161228e565b90509250925092565b600080604083850312156122fa57600080fd5b6121e9836120f0565b6000806040838503121561231657600080fd5b61231f836120f0565b915061232d602084016120f0565b90509250929050565b60006020828403121561234857600080fd5b5035919050565b60006020828403121561236157600080fd5b81356108ef81612097565b6001600160e01b03198116811461209457600080fd5b6000806040838503121561239557600080fd5b82356123a081612097565b915060208301356121c08161236c565b6000806000604084860312156123c557600080fd5b61225a846120f0565b600080604083850312156123e157600080fd5b6123ea836120f0565b915061232d6020840161228e565b6000806000806060858703121561240e57600080fd5b843561241981612097565b9350602085013561242981612097565b925060408501356001600160401b0381111561244457600080fd5b612450878288016121f9565b95989497509550505050565b6000806020838503121561246f57600080fd5b82356001600160401b0381111561248557600080fd5b612491858286016120ac565b90969095509350505050565b60005b838110156124b85781810151838201526020016124a0565b50506000910152565b6000602080830181845280855180835260408601915060408160051b870101925083870160005b8281101561252e57878503603f190184528151805180875261250f818989018a850161249d565b601f01601f1916959095018601945092850192908501906001016124e8565b5092979650505050505050565b60008060006060848603121561255057600080fd5b833561255b81612097565b9250602084013561256b81612097565b9150604084013561257b8161236c565b809150509250925092565b6000806040838503121561259957600080fd5b82356123ea81612097565b600080600080606085870312156125ba57600080fd5b84356125c581612097565b935060208501356001600160401b038111156125e057600080fd5b6125ec878288016121f9565b909450925050604085013565ffffffffffff8116811461260b57600080fd5b939692955090935050565b634e487b7160e01b600052603260045260246000fd5b60006020828403121561263e57600080fd5b81356108ef8161236c565b6001600160a01b0391909116815260200190565b81835281816020850137506000828201602090810191909152601f909101601f19169091010190565b60208152600061269a60208301848661265d565b949350505050565b6000602082840312156126b457600080fd5b81516108ef8161236c565b6001600160a01b0385811682528416602082015260606040820181905260009061149b908301848661265d565b634e487b7160e01b600052601160045260246000fd5b6000808585111561271257600080fd5b8386111561271f57600080fd5b5050820193919092039150565b634e487b7160e01b600052604160045260246000fd5b6000808335601e1984360301811261275957600080fd5b8301803591506001600160401b0382111561277357600080fd5b602001915036819003821315610de557600080fd5b8284823760008382016000815283516127a581836020880161249d565b0195945050505050565b65ffffffffffff8181168382160190808211156127ce576127ce6126ec565b5092915050565b65ffffffffffff861681526001600160a01b03858116602083015284166040820152608060608201819052600090612810908301848661265d565b979650505050505050565b6001600160e01b03198135818116916004851015610cc95760049490940360031b84901b1690921692915050565b6000825161285b81846020870161249d565b9190910192915050565b63ffffffff8281168282160390808211156127ce576127ce6126ec56fea2646970667358221220f0053efaa4ae5712dc528e9fbf4954fa79f5da52789135d2fef444138c2cb81d64736f6c63430008180033",
  "linkReferences": {},
  "deployedLinkReferences": {}
}