{
  "_format": "hh-sol-artifact-1",
  "contractName": "GuildBankBoD",
  "sourceName": "contracts/GuildBankBoD.sol",
  "abi": [
    {
      "inputs": [
        {
          "internalType": "address",
          "name": "initialOwner",
          "type": "address"
        },
        {
          "internalType": "address",
          "name": "_GuildBankChair",
          "type": "address"
        },
        {
          "internalType": "address",
          "name": "_LocalGovernorElection",
          "type": "address"
        },
        {
          "internalType": "address",
          "name": "_DAOcoinContract",
          "type": "address"
        },
        {
          "internalType": "address",
          "name": "_GuildBankPassportContractAddress",
          "type": "address"
        }
      ],
      "stateMutability": "nonpayable",
      "type": "constructor"
    },
    {
      "inputs": [
        {
          "internalType": "address",
          "name": "owner",
          "type": "address"
        }
      ],
      "name": "OwnableInvalidOwner",
      "type": "error"
    },
    {
      "inputs": [
        {
          "internalType": "address",
          "name": "account",
          "type": "address"
        }
      ],
      "name": "OwnableUnauthorizedAccount",
      "type": "error"
    },
    {
      "anonymous": false,
      "inputs": [
        {
          "indexed": true,
          "internalType": "address",
          "name": "sender",
          "type": "address"
        }
      ],
      "name": "LocalBoDChairForfeited",
      "type": "event"
    },
    {
      "anonymous": false,
      "inputs": [
        {
          "indexed": false,
          "internalType": "address",
          "name": "_NewElected",
          "type": "address"
        },
        {
          "indexed": false,
          "internalType": "string",
          "name": "role",
          "type": "string"
        },
        {
          "indexed": false,
          "internalType": "uint256",
          "name": "season",
          "type": "uint256"
        }
      ],
      "name": "NewCSuitChair",
      "type": "event"
    },
    {
      "anonymous": false,
      "inputs": [
        {
          "indexed": true,
          "internalType": "address",
          "name": "previousOwner",
          "type": "address"
        },
        {
          "indexed": true,
          "internalType": "address",
          "name": "newOwner",
          "type": "address"
        }
      ],
      "name": "OwnershipTransferred",
      "type": "event"
    },
    {
      "anonymous": false,
      "inputs": [
        {
          "indexed": true,
          "internalType": "address",
          "name": "newPlayer",
          "type": "address"
        },
        {
          "indexed": true,
          "internalType": "address",
          "name": "oldPlayer",
          "type": "address"
        }
      ],
      "name": "WelcomeGuildBankChairDirector",
      "type": "event"
    },
    {
      "anonymous": false,
      "inputs": [
        {
          "indexed": true,
          "internalType": "address",
          "name": "challenger",
          "type": "address"
        },
        {
          "indexed": true,
          "internalType": "address",
          "name": "holder",
          "type": "address"
        },
        {
          "indexed": false,
          "internalType": "uint256",
          "name": "challengerVotingPower",
          "type": "uint256"
        },
        {
          "indexed": false,
          "internalType": "uint256",
          "name": "holderVotingPower",
          "type": "uint256"
        }
      ],
      "name": "WelcomeNewSenator",
      "type": "event"
    },
    {
      "inputs": [
        {
          "internalType": "uint256",
          "name": "",
          "type": "uint256"
        }
      ],
      "name": "BoDChairs",
      "outputs": [
        {
          "internalType": "address",
          "name": "",
          "type": "address"
        }
      ],
      "stateMutability": "view",
      "type": "function"
    },
    {
      "inputs": [],
      "name": "DAOcoinContract",
      "outputs": [
        {
          "internalType": "contract IDAOcoinAddress",
          "name": "",
          "type": "address"
        }
      ],
      "stateMutability": "view",
      "type": "function"
    },
    {
      "inputs": [
        {
          "internalType": "bool",
          "name": "_Forfeit",
          "type": "bool"
        }
      ],
      "name": "ForfeitChair",
      "outputs": [],
      "stateMutability": "nonpayable",
      "type": "function"
    },
    {
      "inputs": [],
      "name": "GlobalGuildBankBoDTreasury",
      "outputs": [
        {
          "internalType": "address",
          "name": "",
          "type": "address"
        }
      ],
      "stateMutability": "view",
      "type": "function"
    },
    {
      "inputs": [],
      "name": "GuildBankChair",
      "outputs": [
        {
          "internalType": "address",
          "name": "",
          "type": "address"
        }
      ],
      "stateMutability": "view",
      "type": "function"
    },
    {
      "inputs": [],
      "name": "GuildBankPassport",
      "outputs": [
        {
          "internalType": "address",
          "name": "",
          "type": "address"
        }
      ],
      "stateMutability": "view",
      "type": "function"
    },
    {
      "inputs": [],
      "name": "LocalGovernorElection",
      "outputs": [
        {
          "internalType": "address",
          "name": "",
          "type": "address"
        }
      ],
      "stateMutability": "view",
      "type": "function"
    },
    {
      "inputs": [],
      "name": "ccoChair",
      "outputs": [
        {
          "internalType": "address",
          "name": "",
          "type": "address"
        }
      ],
      "stateMutability": "view",
      "type": "function"
    },
    {
      "inputs": [],
      "name": "ceoChair",
      "outputs": [
        {
          "internalType": "address",
          "name": "",
          "type": "address"
        }
      ],
      "stateMutability": "view",
      "type": "function"
    },
    {
      "inputs": [],
      "name": "cfoChair",
      "outputs": [
        {
          "internalType": "address",
          "name": "",
          "type": "address"
        }
      ],
      "stateMutability": "view",
      "type": "function"
    },
    {
      "inputs": [
        {
          "internalType": "uint8",
          "name": "index",
          "type": "uint8"
        }
      ],
      "name": "challengeSenatorChair",
      "outputs": [],
      "stateMutability": "nonpayable",
      "type": "function"
    },
    {
      "inputs": [],
      "name": "cooChair",
      "outputs": [
        {
          "internalType": "address",
          "name": "",
          "type": "address"
        }
      ],
      "stateMutability": "view",
      "type": "function"
    },
    {
      "inputs": [],
      "name": "ctoChair",
      "outputs": [
        {
          "internalType": "address",
          "name": "",
          "type": "address"
        }
      ],
      "stateMutability": "view",
      "type": "function"
    },
    {
      "inputs": [],
      "name": "innited",
      "outputs": [
        {
          "internalType": "bool",
          "name": "",
          "type": "bool"
        }
      ],
      "stateMutability": "view",
      "type": "function"
    },
    {
      "inputs": [
        {
          "internalType": "address",
          "name": "",
          "type": "address"
        }
      ],
      "name": "isBoD",
      "outputs": [
        {
          "internalType": "bool",
          "name": "",
          "type": "bool"
        }
      ],
      "stateMutability": "view",
      "type": "function"
    },
    {
      "inputs": [
        {
          "internalType": "address",
          "name": "_NewElected",
          "type": "address"
        },
        {
          "internalType": "uint256",
          "name": "_role",
          "type": "uint256"
        },
        {
          "internalType": "uint256",
          "name": "_season",
          "type": "uint256"
        }
      ],
      "name": "newlyElectCSuit",
      "outputs": [],
      "stateMutability": "nonpayable",
      "type": "function"
    },
    {
      "inputs": [],
      "name": "owner",
      "outputs": [
        {
          "internalType": "address",
          "name": "",
          "type": "address"
        }
      ],
      "stateMutability": "view",
      "type": "function"
    },
    {
      "inputs": [],
      "name": "renounceOwnership",
      "outputs": [],
      "stateMutability": "nonpayable",
      "type": "function"
    },
    {
      "inputs": [
        {
          "internalType": "address",
          "name": "_newPlayer",
          "type": "address"
        }
      ],
      "name": "replaceGuildBankChair",
      "outputs": [],
      "stateMutability": "nonpayable",
      "type": "function"
    },
    {
      "inputs": [],
      "name": "returnBoD",
      "outputs": [
        {
          "internalType": "address[16]",
          "name": "",
          "type": "address[16]"
        }
      ],
      "stateMutability": "view",
      "type": "function"
    },
    {
      "inputs": [
        {
          "internalType": "address",
          "name": "_contract",
          "type": "address"
        }
      ],
      "name": "setGlobalGuildBankBoDTreasury",
      "outputs": [],
      "stateMutability": "nonpayable",
      "type": "function"
    },
    {
      "inputs": [
        {
          "internalType": "address",
          "name": "_user",
          "type": "address"
        }
      ],
      "name": "showBoDPower",
      "outputs": [
        {
          "internalType": "uint256",
          "name": "",
          "type": "uint256"
        }
      ],
      "stateMutability": "view",
      "type": "function"
    },
    {
      "inputs": [
        {
          "internalType": "address",
          "name": "newOwner",
          "type": "address"
        }
      ],
      "name": "transferOwnership",
      "outputs": [],
      "stateMutability": "nonpayable",
      "type": "function"
    }
  ],
  "bytecode": "0x60806040523480156200001157600080fd5b50604051620015863803806200158683398101604081905262000034916200027e565b846001600160a01b0381166200006457604051631e4fbdf760e01b81526000600482015260240160405180910390fd5b6200006f81620000db565b50600680546001600160a01b0319166001600160a01b038616179055620000956200012b565b601980546001600160a01b039485166001600160a01b031991821617909155601a805493851693821693909317909255601b805491909316911617905550620002ee9050565b600080546001600160a01b038381166001600160a01b0319831681178455604051919092169283917f8be0079c531659141344cd1fd0a4f28419497f9722a3daafe3b4186f6b6457e09190a35050565b601b54600160a01b900460ff16156200014357600080fd5b60018054336001600160a01b03199182168117835560028054831682179055600380548316821790556004805483168217905560058054831682179055600654600880546001600160a01b0390921691841691909117905560098054831682179055600a8054831682179055600b8054831682179055600c8054831682179055600d8054831682179055600e8054831682179055600f8054831682179055601080548316821790556011805483168217905560128054831682179055601380548316821790556014805483168217905560158054831682179055601680548316821790556017805490921681179091556000908152600760205260409020805460ff19169091179055601b805460ff60a01b1916600160a01b179055565b80516001600160a01b03811681146200027957600080fd5b919050565b600080600080600060a086880312156200029757600080fd5b620002a28662000261565b9450620002b26020870162000261565b9350620002c26040870162000261565b9250620002d26060870162000261565b9150620002e26080870162000261565b90509295509295909350565b61128880620002fe6000396000f3fe608060405234801561001057600080fd5b506004361061014d5760003560e01c806363b3bd81116100c35780638da5cb5b1161007c5780638da5cb5b146102bf578063905f14c4146102d0578063b0d377b4146102e3578063cafd0541146102f6578063d2a1c52614610309578063f2fde38b1461032c57600080fd5b806363b3bd8114610256578063715018a6146102695780637308b5f51461027157806377525e51146102845780637a505c0f14610297578063879c78b5146102ac57600080fd5b806339e1cbaf1161011557806339e1cbaf146101d65780633e5c23f5146101e957806343c3cb23146101fc57806343d7c3601461020f5780634ddd2888146102225780636375f7e21461023557600080fd5b8063012d8f3c14610152578063025cd8fb1461017b5780631403076614610190578063317f9938146101b057806334472c2f146101c3575b600080fd5b601b5461016690600160a01b900460ff1681565b60405190151581526020015b60405180910390f35b61018e61018936600461107e565b61033f565b005b6018546101a3906001600160a01b031681565b60405161017291906110a8565b6004546101a3906001600160a01b031681565b6002546101a3906001600160a01b031681565b6019546101a3906001600160a01b031681565b601a546101a3906001600160a01b031681565b6005546101a3906001600160a01b031681565b6001546101a3906001600160a01b031681565b61018e6102303660046110d8565b610715565b61024861024336600461110b565b610b22565b604051908152602001610172565b61018e61026436600461110b565b610b7a565b61018e610c70565b601b546101a3906001600160a01b031681565b6006546101a3906001600160a01b031681565b61029f610c84565b6040516101729190611126565b6101a36102ba366004611161565b610cca565b6000546001600160a01b03166101a3565b61018e6102de36600461117a565b610cea565b61018e6102f136600461110b565b610f64565b6003546101a3906001600160a01b031681565b61016661031736600461110b565b60076020526000908152604090205460ff1681565b61018e61033a36600461110b565b610fa4565b601b54604051627eeac760e11b8152336004820152600060248201526001600160a01b039091169062fdd58e90604401602060405180830381865afa15801561038c573d6000803e3d6000fd5b505050506040513d601f19601f820116820180604052508101906103b0919061119c565b6001146104045760405162461bcd60e51b815260206004820181905260248201527f596f7520646f6e74206f776e2061204775696c6442616e6b50617373706f727460448201526064015b60405180910390fd5b3360009081526007602052604090205460ff161561042157600080fd5b60008160ff161180156104385750600a8160ff1611155b6104745760405162461bcd60e51b815260206004820152600d60248201526c092dcecc2d8d2c840d2dcc8caf609b1b60448201526064016103fb565b601a546000906001600160a01b0316633a46b1a83361049662015180426111cb565b6040516001600160e01b031960e085901b1681526001600160a01b0390921660048301526024820152604401602060405180830381865afa1580156104df573d6000803e3d6000fd5b505050506040513d601f19601f82011682018060405250810190610503919061119c565b9050600080600860ff85166010811061051e5761051e6111e4565b01546001600160a01b0316146105c757601a546001600160a01b0316638e1eebe5600860ff861660108110610555576105556111e4565b01546040516001600160e01b031960e084901b168152610581916001600160a01b0316906004016110a8565b602060405180830381865afa15801561059e573d6000803e3d6000fd5b505050506040513d601f19601f820116820180604052508101906105c2919061119c565b6105ca565b60005b905080821161061b5760405162461bcd60e51b815260206004820152601b60248201527f596f75206c6f737420746865204475656c206672656e2e2067672e000000000060448201526064016103fb565b60088360ff1660108110610631576106316111e4565b015460408051848152602081018490526001600160a01b039092169133917f42356230015f5820e870ed1b4d98f60f441866fc3cab7e54be55f35be3a9f339910160405180910390a360006007600060088660ff1660108110610696576106966111e4565b01546001600160a01b031681526020810191909152604001600020805460ff191691151591909117905533600860ff8516601081106106d7576106d76111e4565b0180546001600160a01b0319166001600160a01b03929092169190911790555050336000908152600760205260409020805460ff1916600117905550565b6019546001600160a01b031633146107865760405162461bcd60e51b815260206004820152602e60248201527f4f6e6c7920476f7665726e6f7220456c656374696f6e732063616e2063616c6c60448201526d103a3434b990333ab731ba34b7b760911b60648201526084016103fb565b8160010361083d57600180546001600160a01b03908116600090815260076020526040808220805460ff1990811690915592871680835291208054909216831790915581546001600160a01b031916179055826008600b0180546001600160a01b0319166001600160a01b039283161790556040805191851682526060602083018190526003908301526243454f60e81b608083015281018290526000805160206112338339815191529060a00160405180910390a15b816002036108f557600280546001600160a01b03908116600090815260076020526040808220805460ff199081169091559287168083529120805490921660011790915581546001600160a01b031916179055826008600c0180546001600160a01b0319166001600160a01b039283161790556040805191851682526060602083018190526003908301526243544f60e81b608083015281018290526000805160206112338339815191529060a00160405180910390a15b816003036109ad57600380546001600160a01b03908116600090815260076020526040808220805460ff199081169091559287168083529120805490921660011790915581546001600160a01b031916179055826008600d0180546001600160a01b0319166001600160a01b039283161790556040805191851682526060602083018190526003908301526243464f60e81b608083015281018290526000805160206112338339815191529060a00160405180910390a15b81600403610a6557600480546001600160a01b03908116600090815260076020526040808220805460ff199081169091559287168083529120805490921660011790915581546001600160a01b031916179055826008600e0180546001600160a01b0319166001600160a01b039283161790556040805191851682526060602083018190526003908301526243434f60e81b608083015281018290526000805160206112338339815191529060a00160405180910390a15b81600503610b1d57600580546001600160a01b03908116600090815260076020526040808220805460ff199081169091559287168083529120805490921660011790915581546001600160a01b031916179055826008600f0180546001600160a01b0319166001600160a01b0392831617905560408051918516825260606020830181905260039083015262434f4f60e81b608083015281018290526000805160206112338339815191529060a00160405180910390a15b505050565b600080805b6010811015610b7357836001600160a01b031660088260108110610b4d57610b4d6111e4565b01546001600160a01b031603610b6b5781610b67816111fa565b9250505b600101610b27565b5092915050565b6018546001600160a01b03163314610be55760405162461bcd60e51b815260206004820152602860248201527f4f6e6c79204775696c6442616e6b426f442063616e2063616c6c207468697320604482015267333ab731ba34b7b760c11b60648201526084016103fb565b600680546001600160a01b03908116600081815260076020526040808220805460ff19908116909155938616808352818320805490951660011790945584546001600160a01b03199081168517909555600880549095168417909455925190928392917f7fac83c0836e4a9d335dcbb13ce98eba94d294fdc79f1b214c8c870285f1c4fc9190a35050565b610c78610fe2565b610c82600061100f565b565b610c8c61105f565b604080516102008101918290529060089060109082845b81546001600160a01b03168152600190910190602001808311610ca3575050505050905090565b60088160108110610cda57600080fd5b01546001600160a01b0316905081565b3360009081526007602052604090205460ff16610d3d5760405162461bcd60e51b8152602060048201526011602482015270165bdd48185c99481b9bdd081848109bd1607a1b60448201526064016103fb565b600181151514610d855760405162461bcd60e51b8152602060048201526013602482015272165bdd481a185d9b9d08199bdc99995a5d1959606a1b60448201526064016103fb565b336000818152600760205260409020805460ff191690556006546001600160a01b03169003610dcb57600680546001600160a01b03199081169091556008805490911690555b6001546001600160a01b03163303610dfa57600180546001600160a01b03199081169091556013805490911690555b6002546001600160a01b03163303610e2957600280546001600160a01b03199081169091556014805490911690555b6003546001600160a01b03163303610e5857600380546001600160a01b03199081169091556015805490911690555b6004546001600160a01b03163303610e8757600480546001600160a01b03199081169091556016805490911690555b6005546001600160a01b03163303610eb657600580546001600160a01b03199081169091556017805490911690555b60015b600a8160ff1611610f355733600860ff831660108110610edb57610edb6111e4565b01546001600160a01b031603610f2357600060088260ff1660108110610f0357610f036111e4565b0180546001600160a01b0319166001600160a01b03929092169190911790555b80610f2d81611213565b915050610eb9565b5060405133907f9a7dab312358883894687e823212a20d0d0345bce37accc6639dccbdef51435a90600090a250565b610f6c610fe2565b6018546001600160a01b031615610f8257600080fd5b601880546001600160a01b0319166001600160a01b0392909216919091179055565b610fac610fe2565b6001600160a01b038116610fd6576000604051631e4fbdf760e01b81526004016103fb91906110a8565b610fdf8161100f565b50565b6000546001600160a01b03163314610c82573360405163118cdaa760e01b81526004016103fb91906110a8565b600080546001600160a01b038381166001600160a01b0319831681178455604051919092169283917f8be0079c531659141344cd1fd0a4f28419497f9722a3daafe3b4186f6b6457e09190a35050565b6040518061020001604052806010906020820280368337509192915050565b60006020828403121561109057600080fd5b813560ff811681146110a157600080fd5b9392505050565b6001600160a01b0391909116815260200190565b80356001600160a01b03811681146110d357600080fd5b919050565b6000806000606084860312156110ed57600080fd5b6110f6846110bc565b95602085013595506040909401359392505050565b60006020828403121561111d57600080fd5b6110a1826110bc565b6102008101818360005b60108110156111585781516001600160a01b0316835260209283019290910190600101611130565b50505092915050565b60006020828403121561117357600080fd5b5035919050565b60006020828403121561118c57600080fd5b813580151581146110a157600080fd5b6000602082840312156111ae57600080fd5b5051919050565b634e487b7160e01b600052601160045260246000fd5b818103818111156111de576111de6111b5565b92915050565b634e487b7160e01b600052603260045260246000fd5b60006001820161120c5761120c6111b5565b5060010190565b600060ff821660ff8103611229576112296111b5565b6001019291505056fef4b7a01f191856e40e398f42e54122225e9f06dc299190e9a9e0546d92b5303ba26469706673582212206f57cd5a136da2dc8fda8384a5e2d9ef4dfc791d6ca130d1d0e53432518d0e4c64736f6c63430008180033",
  "linkReferences": {},
  "deployedLinkReferences": {}
}