{
  "_format": "hh-sol-artifact-1",
  "contractName": "GuildBankGovernor",
  "sourceName": "contracts/GuildBankGovernor.sol",
  "abi": [
    {
      "inputs": [
        {
          "internalType": "contract IVotes",
          "name": "_token",
          "type": "address"
        },
        {
          "internalType": "contract TimelockController",
          "name": "_timelock",
          "type": "address"
        },
        {
          "internalType": "string",
          "name": "_name",
          "type": "string"
        }
      ],
      "stateMutability": "nonpayable",
      "type": "constructor"
    },
    {
      "inputs": [],
      "name": "CheckpointUnorderedInsertion",
      "type": "error"
    },
    {
      "inputs": [],
      "name": "FailedCall",
      "type": "error"
    },
    {
      "inputs": [
        {
          "internalType": "address",
          "name": "voter",
          "type": "address"
        }
      ],
      "name": "GovernorAlreadyCastVote",
      "type": "error"
    },
    {
      "inputs": [
        {
          "internalType": "uint256",
          "name": "proposalId",
          "type": "uint256"
        }
      ],
      "name": "GovernorAlreadyQueuedProposal",
      "type": "error"
    },
    {
      "inputs": [],
      "name": "GovernorDisabledDeposit",
      "type": "error"
    },
    {
      "inputs": [
        {
          "internalType": "address",
          "name": "proposer",
          "type": "address"
        },
        {
          "internalType": "uint256",
          "name": "votes",
          "type": "uint256"
        },
        {
          "internalType": "uint256",
          "name": "threshold",
          "type": "uint256"
        }
      ],
      "name": "GovernorInsufficientProposerVotes",
      "type": "error"
    },
    {
      "inputs": [
        {
          "internalType": "uint256",
          "name": "targets",
          "type": "uint256"
        },
        {
          "internalType": "uint256",
          "name": "calldatas",
          "type": "uint256"
        },
        {
          "internalType": "uint256",
          "name": "values",
          "type": "uint256"
        }
      ],
      "name": "GovernorInvalidProposalLength",
      "type": "error"
    },
    {
      "inputs": [
        {
          "internalType": "uint256",
          "name": "quorumNumerator",
          "type": "uint256"
        },
        {
          "internalType": "uint256",
          "name": "quorumDenominator",
          "type": "uint256"
        }
      ],
      "name": "GovernorInvalidQuorumFraction",
      "type": "error"
    },
    {
      "inputs": [
        {
          "internalType": "address",
          "name": "voter",
          "type": "address"
        }
      ],
      "name": "GovernorInvalidSignature",
      "type": "error"
    },
    {
      "inputs": [],
      "name": "GovernorInvalidVoteParams",
      "type": "error"
    },
    {
      "inputs": [],
      "name": "GovernorInvalidVoteType",
      "type": "error"
    },
    {
      "inputs": [
        {
          "internalType": "uint256",
          "name": "votingPeriod",
          "type": "uint256"
        }
      ],
      "name": "GovernorInvalidVotingPeriod",
      "type": "error"
    },
    {
      "inputs": [
        {
          "internalType": "uint256",
          "name": "proposalId",
          "type": "uint256"
        }
      ],
      "name": "GovernorNonexistentProposal",
      "type": "error"
    },
    {
      "inputs": [
        {
          "internalType": "uint256",
          "name": "proposalId",
          "type": "uint256"
        }
      ],
      "name": "GovernorNotQueuedProposal",
      "type": "error"
    },
    {
      "inputs": [
        {
          "internalType": "address",
          "name": "account",
          "type": "address"
        }
      ],
      "name": "GovernorOnlyExecutor",
      "type": "error"
    },
    {
      "inputs": [],
      "name": "GovernorQueueNotImplemented",
      "type": "error"
    },
    {
      "inputs": [
        {
          "internalType": "address",
          "name": "proposer",
          "type": "address"
        }
      ],
      "name": "GovernorRestrictedProposer",
      "type": "error"
    },
    {
      "inputs": [
        {
          "internalType": "uint256",
          "name": "proposalId",
          "type": "uint256"
        },
        {
          "internalType": "address",
          "name": "account",
          "type": "address"
        }
      ],
      "name": "GovernorUnableToCancel",
      "type": "error"
    },
    {
      "inputs": [
        {
          "internalType": "uint256",
          "name": "proposalId",
          "type": "uint256"
        },
        {
          "internalType": "enum IGovernor.ProposalState",
          "name": "current",
          "type": "uint8"
        },
        {
          "internalType": "bytes32",
          "name": "expectedStates",
          "type": "bytes32"
        }
      ],
      "name": "GovernorUnexpectedProposalState",
      "type": "error"
    },
    {
      "inputs": [
        {
          "internalType": "address",
          "name": "account",
          "type": "address"
        },
        {
          "internalType": "uint256",
          "name": "currentNonce",
          "type": "uint256"
        }
      ],
      "name": "InvalidAccountNonce",
      "type": "error"
    },
    {
      "inputs": [],
      "name": "InvalidShortString",
      "type": "error"
    },
    {
      "inputs": [
        {
          "internalType": "uint8",
          "name": "bits",
          "type": "uint8"
        },
        {
          "internalType": "uint256",
          "name": "value",
          "type": "uint256"
        }
      ],
      "name": "SafeCastOverflowedUintDowncast",
      "type": "error"
    },
    {
      "inputs": [
        {
          "internalType": "string",
          "name": "str",
          "type": "string"
        }
      ],
      "name": "StringTooLong",
      "type": "error"
    },
    {
      "anonymous": false,
      "inputs": [],
      "name": "EIP712DomainChanged",
      "type": "event"
    },
    {
      "anonymous": false,
      "inputs": [
        {
          "indexed": false,
          "internalType": "uint256",
          "name": "proposalId",
          "type": "uint256"
        }
      ],
      "name": "ProposalCanceled",
      "type": "event"
    },
    {
      "anonymous": false,
      "inputs": [
        {
          "indexed": false,
          "internalType": "uint256",
          "name": "proposalId",
          "type": "uint256"
        },
        {
          "indexed": false,
          "internalType": "address",
          "name": "proposer",
          "type": "address"
        },
        {
          "indexed": false,
          "internalType": "address[]",
          "name": "targets",
          "type": "address[]"
        },
        {
          "indexed": false,
          "internalType": "uint256[]",
          "name": "values",
          "type": "uint256[]"
        },
        {
          "indexed": false,
          "internalType": "string[]",
          "name": "signatures",
          "type": "string[]"
        },
        {
          "indexed": false,
          "internalType": "bytes[]",
          "name": "calldatas",
          "type": "bytes[]"
        },
        {
          "indexed": false,
          "internalType": "uint256",
          "name": "voteStart",
          "type": "uint256"
        },
        {
          "indexed": false,
          "internalType": "uint256",
          "name": "voteEnd",
          "type": "uint256"
        },
        {
          "indexed": false,
          "internalType": "string",
          "name": "description",
          "type": "string"
        }
      ],
      "name": "ProposalCreated",
      "type": "event"
    },
    {
      "anonymous": false,
      "inputs": [
        {
          "indexed": false,
          "internalType": "uint256",
          "name": "proposalId",
          "type": "uint256"
        }
      ],
      "name": "ProposalExecuted",
      "type": "event"
    },
    {
      "anonymous": false,
      "inputs": [
        {
          "indexed": false,
          "internalType": "uint256",
          "name": "proposalId",
          "type": "uint256"
        },
        {
          "indexed": false,
          "internalType": "uint256",
          "name": "etaSeconds",
          "type": "uint256"
        }
      ],
      "name": "ProposalQueued",
      "type": "event"
    },
    {
      "anonymous": false,
      "inputs": [
        {
          "indexed": false,
          "internalType": "uint256",
          "name": "oldProposalThreshold",
          "type": "uint256"
        },
        {
          "indexed": false,
          "internalType": "uint256",
          "name": "newProposalThreshold",
          "type": "uint256"
        }
      ],
      "name": "ProposalThresholdSet",
      "type": "event"
    },
    {
      "anonymous": false,
      "inputs": [
        {
          "indexed": false,
          "internalType": "uint256",
          "name": "oldQuorumNumerator",
          "type": "uint256"
        },
        {
          "indexed": false,
          "internalType": "uint256",
          "name": "newQuorumNumerator",
          "type": "uint256"
        }
      ],
      "name": "QuorumNumeratorUpdated",
      "type": "event"
    },
    {
      "anonymous": false,
      "inputs": [
        {
          "indexed": false,
          "internalType": "address",
          "name": "oldTimelock",
          "type": "address"
        },
        {
          "indexed": false,
          "internalType": "address",
          "name": "newTimelock",
          "type": "address"
        }
      ],
      "name": "TimelockChange",
      "type": "event"
    },
    {
      "anonymous": false,
      "inputs": [
        {
          "indexed": true,
          "internalType": "address",
          "name": "voter",
          "type": "address"
        },
        {
          "indexed": false,
          "internalType": "uint256",
          "name": "proposalId",
          "type": "uint256"
        },
        {
          "indexed": false,
          "internalType": "uint8",
          "name": "support",
          "type": "uint8"
        },
        {
          "indexed": false,
          "internalType": "uint256",
          "name": "weight",
          "type": "uint256"
        },
        {
          "indexed": false,
          "internalType": "string",
          "name": "reason",
          "type": "string"
        }
      ],
      "name": "VoteCast",
      "type": "event"
    },
    {
      "anonymous": false,
      "inputs": [
        {
          "indexed": true,
          "internalType": "address",
          "name": "voter",
          "type": "address"
        },
        {
          "indexed": false,
          "internalType": "uint256",
          "name": "proposalId",
          "type": "uint256"
        },
        {
          "indexed": false,
          "internalType": "uint8",
          "name": "support",
          "type": "uint8"
        },
        {
          "indexed": false,
          "internalType": "uint256",
          "name": "weight",
          "type": "uint256"
        },
        {
          "indexed": false,
          "internalType": "string",
          "name": "reason",
          "type": "string"
        },
        {
          "indexed": false,
          "internalType": "bytes",
          "name": "params",
          "type": "bytes"
        }
      ],
      "name": "VoteCastWithParams",
      "type": "event"
    },
    {
      "anonymous": false,
      "inputs": [
        {
          "indexed": false,
          "internalType": "uint256",
          "name": "oldVotingDelay",
          "type": "uint256"
        },
        {
          "indexed": false,
          "internalType": "uint256",
          "name": "newVotingDelay",
          "type": "uint256"
        }
      ],
      "name": "VotingDelaySet",
      "type": "event"
    },
    {
      "anonymous": false,
      "inputs": [
        {
          "indexed": false,
          "internalType": "uint256",
          "name": "oldVotingPeriod",
          "type": "uint256"
        },
        {
          "indexed": false,
          "internalType": "uint256",
          "name": "newVotingPeriod",
          "type": "uint256"
        }
      ],
      "name": "VotingPeriodSet",
      "type": "event"
    },
    {
      "inputs": [],
      "name": "BALLOT_TYPEHASH",
      "outputs": [
        {
          "internalType": "bytes32",
          "name": "",
          "type": "bytes32"
        }
      ],
      "stateMutability": "view",
      "type": "function"
    },
    {
      "inputs": [],
      "name": "CLOCK_MODE",
      "outputs": [
        {
          "internalType": "string",
          "name": "",
          "type": "string"
        }
      ],
      "stateMutability": "view",
      "type": "function"
    },
    {
      "inputs": [],
      "name": "COUNTING_MODE",
      "outputs": [
        {
          "internalType": "string",
          "name": "",
          "type": "string"
        }
      ],
      "stateMutability": "pure",
      "type": "function"
    },
    {
      "inputs": [],
      "name": "EXTENDED_BALLOT_TYPEHASH",
      "outputs": [
        {
          "internalType": "bytes32",
          "name": "",
          "type": "bytes32"
        }
      ],
      "stateMutability": "view",
      "type": "function"
    },
    {
      "inputs": [
        {
          "internalType": "address[]",
          "name": "targets",
          "type": "address[]"
        },
        {
          "internalType": "uint256[]",
          "name": "values",
          "type": "uint256[]"
        },
        {
          "internalType": "bytes[]",
          "name": "calldatas",
          "type": "bytes[]"
        },
        {
          "internalType": "bytes32",
          "name": "descriptionHash",
          "type": "bytes32"
        }
      ],
      "name": "cancel",
      "outputs": [
        {
          "internalType": "uint256",
          "name": "",
          "type": "uint256"
        }
      ],
      "stateMutability": "nonpayable",
      "type": "function"
    },
    {
      "inputs": [
        {
          "internalType": "uint256",
          "name": "proposalId",
          "type": "uint256"
        },
        {
          "internalType": "uint8",
          "name": "support",
          "type": "uint8"
        }
      ],
      "name": "castVote",
      "outputs": [
        {
          "internalType": "uint256",
          "name": "",
          "type": "uint256"
        }
      ],
      "stateMutability": "nonpayable",
      "type": "function"
    },
    {
      "inputs": [
        {
          "internalType": "uint256",
          "name": "proposalId",
          "type": "uint256"
        },
        {
          "internalType": "uint8",
          "name": "support",
          "type": "uint8"
        },
        {
          "internalType": "address",
          "name": "voter",
          "type": "address"
        },
        {
          "internalType": "bytes",
          "name": "signature",
          "type": "bytes"
        }
      ],
      "name": "castVoteBySig",
      "outputs": [
        {
          "internalType": "uint256",
          "name": "",
          "type": "uint256"
        }
      ],
      "stateMutability": "nonpayable",
      "type": "function"
    },
    {
      "inputs": [
        {
          "internalType": "uint256",
          "name": "proposalId",
          "type": "uint256"
        },
        {
          "internalType": "uint8",
          "name": "support",
          "type": "uint8"
        },
        {
          "internalType": "string",
          "name": "reason",
          "type": "string"
        }
      ],
      "name": "castVoteWithReason",
      "outputs": [
        {
          "internalType": "uint256",
          "name": "",
          "type": "uint256"
        }
      ],
      "stateMutability": "nonpayable",
      "type": "function"
    },
    {
      "inputs": [
        {
          "internalType": "uint256",
          "name": "proposalId",
          "type": "uint256"
        },
        {
          "internalType": "uint8",
          "name": "support",
          "type": "uint8"
        },
        {
          "internalType": "string",
          "name": "reason",
          "type": "string"
        },
        {
          "internalType": "bytes",
          "name": "params",
          "type": "bytes"
        }
      ],
      "name": "castVoteWithReasonAndParams",
      "outputs": [
        {
          "internalType": "uint256",
          "name": "",
          "type": "uint256"
        }
      ],
      "stateMutability": "nonpayable",
      "type": "function"
    },
    {
      "inputs": [
        {
          "internalType": "uint256",
          "name": "proposalId",
          "type": "uint256"
        },
        {
          "internalType": "uint8",
          "name": "support",
          "type": "uint8"
        },
        {
          "internalType": "address",
          "name": "voter",
          "type": "address"
        },
        {
          "internalType": "string",
          "name": "reason",
          "type": "string"
        },
        {
          "internalType": "bytes",
          "name": "params",
          "type": "bytes"
        },
        {
          "internalType": "bytes",
          "name": "signature",
          "type": "bytes"
        }
      ],
      "name": "castVoteWithReasonAndParamsBySig",
      "outputs": [
        {
          "internalType": "uint256",
          "name": "",
          "type": "uint256"
        }
      ],
      "stateMutability": "nonpayable",
      "type": "function"
    },
    {
      "inputs": [],
      "name": "clock",
      "outputs": [
        {
          "internalType": "uint48",
          "name": "",
          "type": "uint48"
        }
      ],
      "stateMutability": "view",
      "type": "function"
    },
    {
      "inputs": [],
      "name": "eip712Domain",
      "outputs": [
        {
          "internalType": "bytes1",
          "name": "fields",
          "type": "bytes1"
        },
        {
          "internalType": "string",
          "name": "name",
          "type": "string"
        },
        {
          "internalType": "string",
          "name": "version",
          "type": "string"
        },
        {
          "internalType": "uint256",
          "name": "chainId",
          "type": "uint256"
        },
        {
          "internalType": "address",
          "name": "verifyingContract",
          "type": "address"
        },
        {
          "internalType": "bytes32",
          "name": "salt",
          "type": "bytes32"
        },
        {
          "internalType": "uint256[]",
          "name": "extensions",
          "type": "uint256[]"
        }
      ],
      "stateMutability": "view",
      "type": "function"
    },
    {
      "inputs": [
        {
          "internalType": "address[]",
          "name": "targets",
          "type": "address[]"
        },
        {
          "internalType": "uint256[]",
          "name": "values",
          "type": "uint256[]"
        },
        {
          "internalType": "bytes[]",
          "name": "calldatas",
          "type": "bytes[]"
        },
        {
          "internalType": "bytes32",
          "name": "descriptionHash",
          "type": "bytes32"
        }
      ],
      "name": "execute",
      "outputs": [
        {
          "internalType": "uint256",
          "name": "",
          "type": "uint256"
        }
      ],
      "stateMutability": "payable",
      "type": "function"
    },
    {
      "inputs": [
        {
          "internalType": "address[]",
          "name": "targets",
          "type": "address[]"
        },
        {
          "internalType": "uint256[]",
          "name": "values",
          "type": "uint256[]"
        },
        {
          "internalType": "bytes[]",
          "name": "calldatas",
          "type": "bytes[]"
        },
        {
          "internalType": "bytes32",
          "name": "descriptionHash",
          "type": "bytes32"
        }
      ],
      "name": "getProposalId",
      "outputs": [
        {
          "internalType": "uint256",
          "name": "",
          "type": "uint256"
        }
      ],
      "stateMutability": "view",
      "type": "function"
    },
    {
      "inputs": [
        {
          "internalType": "address",
          "name": "account",
          "type": "address"
        },
        {
          "internalType": "uint256",
          "name": "timepoint",
          "type": "uint256"
        }
      ],
      "name": "getVotes",
      "outputs": [
        {
          "internalType": "uint256",
          "name": "",
          "type": "uint256"
        }
      ],
      "stateMutability": "view",
      "type": "function"
    },
    {
      "inputs": [
        {
          "internalType": "address",
          "name": "account",
          "type": "address"
        },
        {
          "internalType": "uint256",
          "name": "timepoint",
          "type": "uint256"
        },
        {
          "internalType": "bytes",
          "name": "params",
          "type": "bytes"
        }
      ],
      "name": "getVotesWithParams",
      "outputs": [
        {
          "internalType": "uint256",
          "name": "",
          "type": "uint256"
        }
      ],
      "stateMutability": "view",
      "type": "function"
    },
    {
      "inputs": [
        {
          "internalType": "uint256",
          "name": "proposalId",
          "type": "uint256"
        },
        {
          "internalType": "address",
          "name": "account",
          "type": "address"
        }
      ],
      "name": "hasVoted",
      "outputs": [
        {
          "internalType": "bool",
          "name": "",
          "type": "bool"
        }
      ],
      "stateMutability": "view",
      "type": "function"
    },
    {
      "inputs": [
        {
          "internalType": "address[]",
          "name": "targets",
          "type": "address[]"
        },
        {
          "internalType": "uint256[]",
          "name": "values",
          "type": "uint256[]"
        },
        {
          "internalType": "bytes[]",
          "name": "calldatas",
          "type": "bytes[]"
        },
        {
          "internalType": "bytes32",
          "name": "descriptionHash",
          "type": "bytes32"
        }
      ],
      "name": "hashProposal",
      "outputs": [
        {
          "internalType": "uint256",
          "name": "",
          "type": "uint256"
        }
      ],
      "stateMutability": "pure",
      "type": "function"
    },
    {
      "inputs": [],
      "name": "name",
      "outputs": [
        {
          "internalType": "string",
          "name": "",
          "type": "string"
        }
      ],
      "stateMutability": "view",
      "type": "function"
    },
    {
      "inputs": [
        {
          "internalType": "address",
          "name": "owner",
          "type": "address"
        }
      ],
      "name": "nonces",
      "outputs": [
        {
          "internalType": "uint256",
          "name": "",
          "type": "uint256"
        }
      ],
      "stateMutability": "view",
      "type": "function"
    },
    {
      "inputs": [
        {
          "internalType": "address",
          "name": "",
          "type": "address"
        },
        {
          "internalType": "address",
          "name": "",
          "type": "address"
        },
        {
          "internalType": "uint256[]",
          "name": "",
          "type": "uint256[]"
        },
        {
          "internalType": "uint256[]",
          "name": "",
          "type": "uint256[]"
        },
        {
          "internalType": "bytes",
          "name": "",
          "type": "bytes"
        }
      ],
      "name": "onERC1155BatchReceived",
      "outputs": [
        {
          "internalType": "bytes4",
          "name": "",
          "type": "bytes4"
        }
      ],
      "stateMutability": "nonpayable",
      "type": "function"
    },
    {
      "inputs": [
        {
          "internalType": "address",
          "name": "",
          "type": "address"
        },
        {
          "internalType": "address",
          "name": "",
          "type": "address"
        },
        {
          "internalType": "uint256",
          "name": "",
          "type": "uint256"
        },
        {
          "internalType": "uint256",
          "name": "",
          "type": "uint256"
        },
        {
          "internalType": "bytes",
          "name": "",
          "type": "bytes"
        }
      ],
      "name": "onERC1155Received",
      "outputs": [
        {
          "internalType": "bytes4",
          "name": "",
          "type": "bytes4"
        }
      ],
      "stateMutability": "nonpayable",
      "type": "function"
    },
    {
      "inputs": [
        {
          "internalType": "address",
          "name": "",
          "type": "address"
        },
        {
          "internalType": "address",
          "name": "",
          "type": "address"
        },
        {
          "internalType": "uint256",
          "name": "",
          "type": "uint256"
        },
        {
          "internalType": "bytes",
          "name": "",
          "type": "bytes"
        }
      ],
      "name": "onERC721Received",
      "outputs": [
        {
          "internalType": "bytes4",
          "name": "",
          "type": "bytes4"
        }
      ],
      "stateMutability": "nonpayable",
      "type": "function"
    },
    {
      "inputs": [
        {
          "internalType": "uint256",
          "name": "proposalId",
          "type": "uint256"
        }
      ],
      "name": "proposalDeadline",
      "outputs": [
        {
          "internalType": "uint256",
          "name": "",
          "type": "uint256"
        }
      ],
      "stateMutability": "view",
      "type": "function"
    },
    {
      "inputs": [
        {
          "internalType": "uint256",
          "name": "proposalId",
          "type": "uint256"
        }
      ],
      "name": "proposalEta",
      "outputs": [
        {
          "internalType": "uint256",
          "name": "",
          "type": "uint256"
        }
      ],
      "stateMutability": "view",
      "type": "function"
    },
    {
      "inputs": [
        {
          "internalType": "uint256",
          "name": "proposalId",
          "type": "uint256"
        }
      ],
      "name": "proposalNeedsQueuing",
      "outputs": [
        {
          "internalType": "bool",
          "name": "",
          "type": "bool"
        }
      ],
      "stateMutability": "view",
      "type": "function"
    },
    {
      "inputs": [
        {
          "internalType": "uint256",
          "name": "proposalId",
          "type": "uint256"
        }
      ],
      "name": "proposalProposer",
      "outputs": [
        {
          "internalType": "address",
          "name": "",
          "type": "address"
        }
      ],
      "stateMutability": "view",
      "type": "function"
    },
    {
      "inputs": [
        {
          "internalType": "uint256",
          "name": "proposalId",
          "type": "uint256"
        }
      ],
      "name": "proposalSnapshot",
      "outputs": [
        {
          "internalType": "uint256",
          "name": "",
          "type": "uint256"
        }
      ],
      "stateMutability": "view",
      "type": "function"
    },
    {
      "inputs": [],
      "name": "proposalThreshold",
      "outputs": [
        {
          "internalType": "uint256",
          "name": "",
          "type": "uint256"
        }
      ],
      "stateMutability": "view",
      "type": "function"
    },
    {
      "inputs": [
        {
          "internalType": "uint256",
          "name": "proposalId",
          "type": "uint256"
        }
      ],
      "name": "proposalVotes",
      "outputs": [
        {
          "internalType": "uint256",
          "name": "againstVotes",
          "type": "uint256"
        },
        {
          "internalType": "uint256",
          "name": "forVotes",
          "type": "uint256"
        },
        {
          "internalType": "uint256",
          "name": "abstainVotes",
          "type": "uint256"
        }
      ],
      "stateMutability": "view",
      "type": "function"
    },
    {
      "inputs": [
        {
          "internalType": "address[]",
          "name": "targets",
          "type": "address[]"
        },
        {
          "internalType": "uint256[]",
          "name": "values",
          "type": "uint256[]"
        },
        {
          "internalType": "bytes[]",
          "name": "calldatas",
          "type": "bytes[]"
        },
        {
          "internalType": "string",
          "name": "description",
          "type": "string"
        }
      ],
      "name": "propose",
      "outputs": [
        {
          "internalType": "uint256",
          "name": "",
          "type": "uint256"
        }
      ],
      "stateMutability": "nonpayable",
      "type": "function"
    },
    {
      "inputs": [
        {
          "internalType": "address[]",
          "name": "targets",
          "type": "address[]"
        },
        {
          "internalType": "uint256[]",
          "name": "values",
          "type": "uint256[]"
        },
        {
          "internalType": "bytes[]",
          "name": "calldatas",
          "type": "bytes[]"
        },
        {
          "internalType": "bytes32",
          "name": "descriptionHash",
          "type": "bytes32"
        }
      ],
      "name": "queue",
      "outputs": [
        {
          "internalType": "uint256",
          "name": "",
          "type": "uint256"
        }
      ],
      "stateMutability": "nonpayable",
      "type": "function"
    },
    {
      "inputs": [
        {
          "internalType": "uint256",
          "name": "blockNumber",
          "type": "uint256"
        }
      ],
      "name": "quorum",
      "outputs": [
        {
          "internalType": "uint256",
          "name": "",
          "type": "uint256"
        }
      ],
      "stateMutability": "view",
      "type": "function"
    },
    {
      "inputs": [],
      "name": "quorumDenominator",
      "outputs": [
        {
          "internalType": "uint256",
          "name": "",
          "type": "uint256"
        }
      ],
      "stateMutability": "view",
      "type": "function"
    },
    {
      "inputs": [
        {
          "internalType": "uint256",
          "name": "timepoint",
          "type": "uint256"
        }
      ],
      "name": "quorumNumerator",
      "outputs": [
        {
          "internalType": "uint256",
          "name": "",
          "type": "uint256"
        }
      ],
      "stateMutability": "view",
      "type": "function"
    },
    {
      "inputs": [],
      "name": "quorumNumerator",
      "outputs": [
        {
          "internalType": "uint256",
          "name": "",
          "type": "uint256"
        }
      ],
      "stateMutability": "view",
      "type": "function"
    },
    {
      "inputs": [
        {
          "internalType": "address",
          "name": "target",
          "type": "address"
        },
        {
          "internalType": "uint256",
          "name": "value",
          "type": "uint256"
        },
        {
          "internalType": "bytes",
          "name": "data",
          "type": "bytes"
        }
      ],
      "name": "relay",
      "outputs": [],
      "stateMutability": "payable",
      "type": "function"
    },
    {
      "inputs": [
        {
          "internalType": "uint256",
          "name": "newProposalThreshold",
          "type": "uint256"
        }
      ],
      "name": "setProposalThreshold",
      "outputs": [],
      "stateMutability": "nonpayable",
      "type": "function"
    },
    {
      "inputs": [
        {
          "internalType": "uint48",
          "name": "newVotingDelay",
          "type": "uint48"
        }
      ],
      "name": "setVotingDelay",
      "outputs": [],
      "stateMutability": "nonpayable",
      "type": "function"
    },
    {
      "inputs": [
        {
          "internalType": "uint32",
          "name": "newVotingPeriod",
          "type": "uint32"
        }
      ],
      "name": "setVotingPeriod",
      "outputs": [],
      "stateMutability": "nonpayable",
      "type": "function"
    },
    {
      "inputs": [
        {
          "internalType": "uint256",
          "name": "proposalId",
          "type": "uint256"
        }
      ],
      "name": "state",
      "outputs": [
        {
          "internalType": "enum IGovernor.ProposalState",
          "name": "",
          "type": "uint8"
        }
      ],
      "stateMutability": "view",
      "type": "function"
    },
    {
      "inputs": [
        {
          "internalType": "bytes4",
          "name": "interfaceId",
          "type": "bytes4"
        }
      ],
      "name": "supportsInterface",
      "outputs": [
        {
          "internalType": "bool",
          "name": "",
          "type": "bool"
        }
      ],
      "stateMutability": "view",
      "type": "function"
    },
    {
      "inputs": [],
      "name": "timelock",
      "outputs": [
        {
          "internalType": "address",
          "name": "",
          "type": "address"
        }
      ],
      "stateMutability": "view",
      "type": "function"
    },
    {
      "inputs": [],
      "name": "token",
      "outputs": [
        {
          "internalType": "contract IERC5805",
          "name": "",
          "type": "address"
        }
      ],
      "stateMutability": "view",
      "type": "function"
    },
    {
      "inputs": [
        {
          "internalType": "uint256",
          "name": "newQuorumNumerator",
          "type": "uint256"
        }
      ],
      "name": "updateQuorumNumerator",
      "outputs": [],
      "stateMutability": "nonpayable",
      "type": "function"
    },
    {
      "inputs": [
        {
          "internalType": "contract TimelockController",
          "name": "newTimelock",
          "type": "address"
        }
      ],
      "name": "updateTimelock",
      "outputs": [],
      "stateMutability": "nonpayable",
      "type": "function"
    },
    {
      "inputs": [],
      "name": "version",
      "outputs": [
        {
          "internalType": "string",
          "name": "",
          "type": "string"
        }
      ],
      "stateMutability": "view",
      "type": "function"
    },
    {
      "inputs": [],
      "name": "votingDelay",
      "outputs": [
        {
          "internalType": "uint256",
          "name": "",
          "type": "uint256"
        }
      ],
      "stateMutability": "view",
      "type": "function"
    },
    {
      "inputs": [],
      "name": "votingPeriod",
      "outputs": [
        {
          "internalType": "uint256",
          "name": "",
          "type": "uint256"
        }
      ],
      "stateMutability": "view",
      "type": "function"
    },
    {
      "stateMutability": "payable",
      "type": "receive"
    }
  ],
  "bytecode": "0x6101806040523480156200001257600080fd5b5060405162004f6a38038062004f6a833981016040819052620000359162000794565b816028846202a3006212750060008680620000646040805180820190915260018152603160f81b602082015290565b620000718260006200017c565b61012052620000828160016200017c565b61014052815160208084019190912060e052815190820120610100524660a0526200011060e05161010051604080517f8b73c3c69bb8fe3d512ecc4cf759cc79239f7b179b0ffacaa9a75d522b39400f60208201529081019290925260608201524660808201523060a082015260009060c00160405160208183030381529060405280519060200120905090565b60805250503060c05260036200012782826200090a565b5062000135905083620001b5565b62000140826200021b565b6200014b81620002c2565b5050506001600160a01b031661016052620001668162000303565b506200017281620003a3565b5050505062000a7c565b60006020835110156200019c5762000194836200040c565b9050620001af565b81620001a984826200090a565b5060ff90505b92915050565b6008546040805165ffffffffffff928316815291831660208301527fc565b045403dc03c2eea82b81a0465edad9e2e7fc4d97e11421c209da93d7a93910160405180910390a16008805465ffffffffffff191665ffffffffffff92909216919091179055565b8063ffffffff166000036200024b5760405163f1cfbf0560e01b8152600060048201526024015b60405180910390fd5b6008546040805163ffffffff66010000000000009093048316815291831660208301527f7e3f7f0708a84de9203036abaa450dccc85ad5ff52f78c170f3edb55cf5e8828910160405180910390a16008805463ffffffff90921666010000000000000263ffffffff60301b19909216919091179055565b60075460408051918252602082018390527fccb45da8d5717e6c4544694297c4ba5cf151d455c9bb0ed4fc7a38411bc05461910160405180910390a1600755565b606480821115620003325760405163243e544560e01b8152600481018390526024810182905260440162000242565b60006200033e6200044f565b9050620003636200034e6200046b565b6200035985620004ed565b600a919062000527565b505060408051828152602081018590527f0553476bf02ef2726e8ce5ced78d63e26e602e4a2257b1f559418e24b4633997910160405180910390a1505050565b600b54604080516001600160a01b03928316815291831660208301527f08f74ea46ef7894f65eabfb5e6e695de773a000b47c529ab559178069b226401910160405180910390a1600b80546001600160a01b0319166001600160a01b0392909216919091179055565b600080829050601f815111156200043a578260405163305a27a960e01b8152600401620002429190620009d6565b8051620004478262000a0b565b179392505050565b60006200045d600a62000544565b6001600160d01b0316905090565b6000620004786101605190565b6001600160a01b03166391ddadf46040518163ffffffff1660e01b8152600401602060405180830381865afa925050508015620004d4575060408051601f3d908101601f19168201909252620004d19181019062000a30565b60015b620004e857620004e362000594565b905090565b919050565b60006001600160d01b0382111562000523576040516306dfcc6560e41b815260d060048201526024810183905260440162000242565b5090565b60008062000537858585620005a1565b915091505b935093915050565b805460009080156200058a5762000570836200056260018462000a5a565b600091825260209091200190565b54660100000000000090046001600160d01b03166200058d565b60005b9392505050565b6000620004e3436200070a565b825460009081908015620006ab576000620005c3876200056260018562000a5a565b805490915065ffffffffffff80821691660100000000000090046001600160d01b03169088168211156200060a57604051632520601d60e01b815260040160405180910390fd5b8765ffffffffffff168265ffffffffffff16036200064857825465ffffffffffff1666010000000000006001600160d01b038916021783556200069c565b6040805180820190915265ffffffffffff808a1682526001600160d01b03808a1660208085019182528d54600181018f5560008f815291909120945191519092166601000000000000029216919091179101555b94508593506200053c92505050565b50506040805180820190915265ffffffffffff80851682526001600160d01b0380851660208085019182528854600181018a5560008a81529182209551925190931666010000000000000291909316179201919091559050816200053c565b600065ffffffffffff82111562000523576040516306dfcc6560e41b8152603060048201526024810183905260440162000242565b6001600160a01b03811681146200075557600080fd5b50565b634e487b7160e01b600052604160045260246000fd5b60005b838110156200078b57818101518382015260200162000771565b50506000910152565b600080600060608486031215620007aa57600080fd5b8351620007b7816200073f565b6020850151909350620007ca816200073f565b60408501519092506001600160401b0380821115620007e857600080fd5b818601915086601f830112620007fd57600080fd5b81518181111562000812576200081262000758565b604051601f8201601f19908116603f011681019083821181831017156200083d576200083d62000758565b816040528281528960208487010111156200085757600080fd5b6200086a8360208301602088016200076e565b80955050505050509250925092565b600181811c908216806200088e57607f821691505b602082108103620008af57634e487b7160e01b600052602260045260246000fd5b50919050565b601f82111562000905576000816000526020600020601f850160051c81016020861015620008e05750805b601f850160051c820191505b818110156200090157828155600101620008ec565b5050505b505050565b81516001600160401b0381111562000926576200092662000758565b6200093e8162000937845462000879565b84620008b5565b602080601f8311600181146200097657600084156200095d5750858301515b600019600386901b1c1916600185901b17855562000901565b600085815260208120601f198616915b82811015620009a75788860151825594840194600190910190840162000986565b5085821015620009c65787850151600019600388901b60f8161c191681555b5050505050600190811b01905550565b6020815260008251806020840152620009f78160408501602087016200076e565b601f01601f19169190910160400192915050565b80516020808301519190811015620008af5760001960209190910360031b1b16919050565b60006020828403121562000a4357600080fd5b815165ffffffffffff811681146200058d57600080fd5b81810381811115620001af57634e487b7160e01b600052601160045260246000fd5b60805160a05160c05160e0516101005161012051610140516101605161448862000ae2600039600061157601526000611e7b01526000611e4e01526000612714015260006126ec01526000612647015260006126710152600061269b01526144886000f3fe6080604052600436106102a25760003560e01c80637ecebe0011610165578063bc197c81116100cc578063deaaa7cc11610085578063deaaa7cc14610901578063e540d01d14610935578063eb9019d414610955578063ece40cc114610975578063f23a6e6114610995578063f8ce560a146109b5578063fc0c546a146109d557600080fd5b8063bc197c811461082a578063c01f9e371461084a578063c28bc2fa1461086a578063c59057e41461087d578063d33219b41461089d578063dd4e2ba5146108bb57600080fd5b8063a7713a701161011e578063a7713a7014610768578063a890c9101461077d578063a8f8a6681461079d578063a9a95294146107bd578063ab58fb8e146107dd578063b58131b01461081557600080fd5b80637ecebe001461068a57806384b0196e146106c05780638ff262e3146106e857806391ddadf41461070857806397c3d334146107345780639a802a6d1461074857600080fd5b806343859632116102095780635b8d0e0d116101c25780635b8d0e0d146105ca5780635f398a14146105ea57806360c4247f1461060a578063790518871461062a5780637b3c71d31461064a5780637d5e81e21461066a57600080fd5b806343859632146104c6578063452115d6146105105780634bf5d7e914610530578063544ffc9c1461054557806354fd4d501461058057806356781388146105aa57600080fd5b8063160cbed71161025b578063160cbed7146103fd5780632656227d1461041d5780632d63f693146104305780632fe3e261146104505780633932abb1146104845780633e4f49e61461049957600080fd5b806301ffc9a7146102de57806302a251a31461031357806306f3f9e61461033f57806306fdde031461035f578063143489d014610381578063150b7a02146103c457600080fd5b366102d957306102b06109ea565b6001600160a01b0316146102d757604051637485328f60e11b815260040160405180910390fd5b005b600080fd5b3480156102ea57600080fd5b506102fe6102f93660046133bc565b610a03565b60405190151581526020015b60405180910390f35b34801561031f57600080fd5b50600854600160301b900463ffffffff165b60405190815260200161030a565b34801561034b57600080fd5b506102d761035a3660046133e6565b610a70565b34801561036b57600080fd5b50610374610a84565b60405161030a919061344f565b34801561038d57600080fd5b506103b761039c3660046133e6565b6000908152600460205260409020546001600160a01b031690565b60405161030a9190613462565b3480156103d057600080fd5b506103e46103df366004613556565b610b16565b6040516001600160e01b0319909116815260200161030a565b34801561040957600080fd5b50610331610418366004613735565b610b59565b61033161042b366004613735565b610c28565b34801561043c57600080fd5b5061033161044b3660046133e6565b610d94565b34801561045c57600080fd5b506103317f3e83946653575f9a39005e1545185629e92736b7528ab20ca3816f315424a81181565b34801561049057600080fd5b50610331610db5565b3480156104a557600080fd5b506104b96104b43660046133e6565b610dc8565b60405161030a91906137fc565b3480156104d257600080fd5b506102fe6104e136600461380a565b60008281526009602090815260408083206001600160a01b038516845260030190915290205460ff1692915050565b34801561051c57600080fd5b5061033161052b366004613735565b610dd3565b34801561053c57600080fd5b50610374610e3a565b34801561055157600080fd5b506105656105603660046133e6565b610ee3565b6040805193845260208401929092529082015260600161030a565b34801561058c57600080fd5b506040805180820190915260018152603160f81b6020820152610374565b3480156105b657600080fd5b506103316105c536600461384b565b610f09565b3480156105d657600080fd5b506103316105e53660046138bf565b610f32565b3480156105f657600080fd5b50610331610605366004613979565b61106a565b34801561061657600080fd5b506103316106253660046133e6565b6110b4565b34801561063657600080fd5b506102d7610645366004613a10565b6110c1565b34801561065657600080fd5b50610331610665366004613a2d565b6110d2565b34801561067657600080fd5b50610331610685366004613a86565b611124565b34801561069657600080fd5b506103316106a5366004613b3a565b6001600160a01b031660009081526002602052604090205490565b3480156106cc57600080fd5b506106d56111d4565b60405161030a9796959493929190613b93565b3480156106f457600080fd5b50610331610703366004613c03565b61121a565b34801561071457600080fd5b5061071d6112c5565b60405165ffffffffffff909116815260200161030a565b34801561074057600080fd5b506064610331565b34801561075457600080fd5b50610331610763366004613c54565b611334565b34801561077457600080fd5b5061033161134b565b34801561078957600080fd5b506102d7610798366004613b3a565b611365565b3480156107a957600080fd5b506103316107b8366004613735565b611376565b3480156107c957600080fd5b506102fe6107d83660046133e6565b61138d565b3480156107e957600080fd5b506103316107f83660046133e6565b60009081526004602052604090206001015465ffffffffffff1690565b34801561082157600080fd5b50610331611396565b34801561083657600080fd5b506103e4610845366004613cac565b6113a1565b34801561085657600080fd5b506103316108653660046133e6565b6113e5565b6102d7610878366004613d3f565b611428565b34801561088957600080fd5b50610331610898366004613735565b6114a8565b3480156108a957600080fd5b50600b546001600160a01b03166103b7565b3480156108c757600080fd5b506040805180820190915260208082527f737570706f72743d627261766f2671756f72756d3d666f722c6162737461696e90820152610374565b34801561090d57600080fd5b506103317ff2aad550cf55f045cb27e9c559f9889fdfb6e6cdaa032301d6ea397784ae51d781565b34801561094157600080fd5b506102d7610950366004613d82565b6114e2565b34801561096157600080fd5b50610331610970366004613da8565b6114f3565b34801561098157600080fd5b506102d76109903660046133e6565b611514565b3480156109a157600080fd5b506103e46109b0366004613dd4565b611525565b3480156109c157600080fd5b506103316109d03660046133e6565b611569565b3480156109e157600080fd5b506103b7611574565b60006109fe600b546001600160a01b031690565b905090565b60006001600160e01b031982166366defe7760e11b1480610a3457506001600160e01b031982166332a2ad4360e11b145b80610a4f57506001600160e01b03198216630271189760e51b145b80610a6a57506301ffc9a760e01b6001600160e01b03198316145b92915050565b610a78611598565b610a8181611612565b50565b606060038054610a9390613e3c565b80601f0160208091040260200160405190810160405280929190818152602001828054610abf90613e3c565b8015610b0c5780601f10610ae157610100808354040283529160200191610b0c565b820191906000526020600020905b815481529060010190602001808311610aef57829003601f168201915b5050505050905090565b600030610b216109ea565b6001600160a01b031614610b4857604051637485328f60e11b815260040160405180910390fd5b50630a85bd0160e11b949350505050565b600080610b6886868686611376565b9050610b7d81610b7860046116a8565b6116cb565b506000610b8d828888888861170a565b905065ffffffffffff811615610c0557600082815260046020908152604091829020600101805465ffffffffffff191665ffffffffffff85169081179091558251858152918201527f9a2e42fd6722813d69113e7d0079d3d940171428df7373df9c7f7617cfda2892910160405180910390a1610c1e565b604051634844252360e11b815260040160405180910390fd5b5095945050505050565b600080610c3786868686611376565b9050610c5781610c4760056116a8565b610c5160046116a8565b176116cb565b506000818152600460205260409020805460ff60f01b1916600160f01b17905530610c806109ea565b6001600160a01b031614610d0a5760005b8651811015610d0857306001600160a01b0316878281518110610cb657610cb6613e76565b60200260200101516001600160a01b031603610d0057610d00858281518110610ce157610ce1613e76565b602002602001015180519060200120600561171990919063ffffffff16565b600101610c91565b505b610d17818787878761177b565b30610d206109ea565b6001600160a01b031614158015610d4c57506005546001600160801b03808216600160801b9092041614155b15610d575760006005555b6040518181527f712ae1383f79ac853f8d882153778e0260ef8f03b504e2866e0593e04d2b291f906020015b60405180910390a195945050505050565b600090815260046020526040902054600160a01b900465ffffffffffff1690565b60006109fe60085465ffffffffffff1690565b6000610a6a8261178f565b600080610de286868686611376565b905033610def82826118ce565b610e2357604051638fe5d8a960e01b8152600481018390526001600160a01b03821660248201526044015b60405180910390fd5b610e2f87878787611915565b979650505050505050565b6060610e44611574565b6001600160a01b0316634bf5d7e96040518163ffffffff1660e01b8152600401600060405180830381865afa925050508015610ea257506040513d6000823e601f3d908101601f19168201604052610e9f9190810190613e8c565b60015b610ede575060408051808201909152601d81527f6d6f64653d626c6f636b6e756d6265722666726f6d3d64656661756c74000000602082015290565b919050565b6000818152600960205260409020805460018201546002909201549091905b9193909250565b600080339050610f2a84828560405180602001604052806000815250611923565b949350505050565b600080610ff787610ff17f3e83946653575f9a39005e1545185629e92736b7528ab20ca3816f315424a8118c8c8c610f698e611946565b8d8d604051610f79929190613ef9565b60405180910390208c80519060200120604051602001610fd69796959493929190968752602087019590955260ff9390931660408601526001600160a01b03919091166060850152608084015260a083015260c082015260e00190565b60405160208183030381529060405280519060200120611969565b85611996565b90508061101957866040516394ab6c0760e01b8152600401610e1a9190613462565b61105d89888a89898080601f0160208091040260200160405190810160405280939291908181526020018383808284376000920191909152508b9250611a0a915050565b9998505050505050505050565b600080339050610e2f87828888888080601f0160208091040260200160405190810160405280939291908181526020018383808284376000920191909152508a9250611a0a915050565b6000610a6a600a83611aec565b6110c9611598565b610a8181611b3b565b60008033905061111a86828787878080601f01602080910402602001604051908101604052809392919081815260200183838082843760009201919091525061192392505050565b9695505050505050565b6000336111318184611ba1565b611150578060405163d9b3955760e01b8152600401610e1a9190613462565b600061115a611396565b905080156111c75760006111898360016111726112c5565b61117c9190613f1f565b65ffffffffffff166114f3565b9050818110156111c557604051636121770b60e11b81526001600160a01b03841660048201526024810182905260448101839052606401610e1a565b505b610e2f8787878786611c27565b6000606080600080600060606111e8611e47565b6111f0611e74565b60408051600080825260208201909252600f60f81b9b939a50919850469750309650945092509050565b60008061128884610ff17ff2aad550cf55f045cb27e9c559f9889fdfb6e6cdaa032301d6ea397784ae51d78989896112518b611946565b60408051602081019690965285019390935260ff90911660608401526001600160a01b0316608083015260a082015260c001610fd6565b9050806112aa57836040516394ab6c0760e01b8152600401610e1a9190613462565b61111a86858760405180602001604052806000815250611923565b60006112cf611574565b6001600160a01b03166391ddadf46040518163ffffffff1660e01b8152600401602060405180830381865afa925050508015611328575060408051601f3d908101601f1916820190925261132591810190613f45565b60015b610ede576109fe611ea1565b6000611341848484611eac565b90505b9392505050565b6000611357600a611f29565b6001600160d01b0316905090565b61136d611598565b610a8181611f70565b6000611384858585856114a8565b95945050505050565b60006001610a6a565b60006109fe60075490565b6000306113ac6109ea565b6001600160a01b0316146113d357604051637485328f60e11b815260040160405180910390fd5b5063bc197c8160e01b95945050505050565b60008181526004602052604081205461141a90600160d01b810463ffffffff1690600160a01b900465ffffffffffff16613f62565b65ffffffffffff1692915050565b611430611598565b600080856001600160a01b031685858560405161144e929190613ef9565b60006040518083038185875af1925050503d806000811461148b576040519150601f19603f3d011682016040523d82523d6000602084013e611490565b606091505b509150915061149f8282611fd9565b50505050505050565b6000848484846040516020016114c19493929190614015565b60408051601f19818403018152919052805160209091012095945050505050565b6114ea611598565b610a8181611ff5565b6000611344838361150f60408051602081019091526000815290565b611eac565b61151c611598565b610a8181612093565b6000306115306109ea565b6001600160a01b03161461155757604051637485328f60e11b815260040160405180910390fd5b5063f23a6e6160e01b95945050505050565b6000610a6a826120d4565b7f000000000000000000000000000000000000000000000000000000000000000090565b336115a16109ea565b6001600160a01b0316146115ca57336040516347096e4760e01b8152600401610e1a9190613462565b306115d36109ea565b6001600160a01b03161461161057600080366040516115f3929190613ef9565b604051809103902090505b80611609600561215f565b036115fe57505b565b60648082111561163f5760405163243e544560e01b81526004810183905260248101829052604401610e1a565b600061164961134b565b90506116686116566112c5565b61165f856121c5565b600a91906121fd565b505060408051828152602081018590527f0553476bf02ef2726e8ce5ced78d63e26e602e4a2257b1f559418e24b4633997910160405180910390a1505050565b60008160078111156116bc576116bc6137c4565b600160ff919091161b92915050565b6000806116d784610dc8565b90506000836116e5836116a8565b1603611344578381846040516331b75e4d60e01b8152600401610e1a93929190614060565b600061111a8686868686612218565b81546001600160801b03600160801b8204811691811660018301909116036117455761174560416123be565b6001600160801b03808216600090815260018086016020526040909120939093558354919092018216600160801b029116179055565b61178885858585856123d0565b5050505050565b60008061179b83612461565b905060058160078111156117b1576117b16137c4565b146117bc5792915050565b6000838152600c60205260409081902054600b549151632c258a9f60e11b81526004810182905290916001600160a01b03169063584b153e90602401602060405180830381865afa158015611815573d6000803e3d6000fd5b505050506040513d601f19601f820116820180604052508101906118399190614082565b15611848575060059392505050565b600b54604051632ab0f52960e01b8152600481018390526001600160a01b0390911690632ab0f52990602401602060405180830381865afa158015611891573d6000803e3d6000fd5b505050506040513d601f19601f820116820180604052508101906118b59190614082565b156118c4575060079392505050565b5060029392505050565b6000806118da84610dc8565b60078111156118eb576118eb6137c4565b148015611344575050600091825260046020526040909120546001600160a01b0391821691161490565b60006113848585858561259b565b60006113848585858561194160408051602081019091526000815290565b611a0a565b6001600160a01b0316600090815260026020526040902080546001810190915590565b6000610a6a61197661263a565b8360405161190160f01b8152600281019290925260228201526042902090565b6000836001600160a01b03163b6000036119f8576000806119b78585612765565b50909250905060008160038111156119d1576119d16137c4565b1480156119ef5750856001600160a01b0316826001600160a01b0316145b92505050611344565b611a038484846127b2565b9050611344565b6000611a1a86610b7860016116a8565b506000611a3086611a2a89610d94565b85611eac565b90506000611a41888888858861288d565b90508351600003611a9857866001600160a01b03167fb8e138887d0aa13bab447e82de9d5c1777041ecd21ca36ba824ff1e6c07ddda489888489604051611a8b94939291906140a4565b60405180910390a2610e2f565b866001600160a01b03167fe2babfbac5889a709b63bb7f598b324e08bc5a4fb9ec647fb3cbc9ec07eb87128988848989604051611ad99594939291906140cc565b60405180910390a2979650505050505050565b6000806000611afa85612987565b9250925050838265ffffffffffff161115611b2757611b22611b1b856129e3565b8690612a16565b611b29565b805b6001600160d01b031695945050505050565b6008546040805165ffffffffffff928316815291831660208301527fc565b045403dc03c2eea82b81a0465edad9e2e7fc4d97e11421c209da93d7a93910160405180910390a16008805465ffffffffffff191665ffffffffffff92909216919091179055565b80516000906034811015611bb9576001915050610a6a565b60131981840101516001600160b01b03198116692370726f706f7365723d60b01b14611bea57600192505050610a6a565b600080611bfb86602a860386612abd565b91509150811580610e2f5750866001600160a01b0316816001600160a01b031614979650505050505050565b6000611c3c8686868680519060200120611376565b905084518651141580611c5157508351865114155b80611c5b57508551155b15611c9057855184518651604051630447b05d60e41b8152600481019390935260248301919091526044820152606401610e1a565b600081815260046020526040902054600160a01b900465ffffffffffff1615611cdb5780611cbd82610dc8565b6040516331b75e4d60e01b8152610e1a929190600090600401614060565b6000611ce5610db5565b611ced6112c5565b65ffffffffffff16611cff9190614106565b90506000611d1a60085463ffffffff600160301b9091041690565b600084815260046020526040902080546001600160a01b0319166001600160a01b038716178155909150611d4d836129e3565b815465ffffffffffff91909116600160a01b0265ffffffffffff60a01b19909116178155611d7a82612b6c565b815463ffffffff91909116600160d01b0263ffffffff60d01b1990911617815588517f7d84a6263ae0d98d3329bd7b46bb4e8d6f98cd35a7adb45c274c8b7fd5ebd5e090859087908c908c906001600160401b03811115611ddd57611ddd61348b565b604051908082528060200260200182016040528015611e1057816020015b6060815260200190600190039081611dfb5790505b508c89611e1d8a82614106565b8e604051611e3399989796959493929190614119565b60405180910390a150505095945050505050565b60606109fe7f00000000000000000000000000000000000000000000000000000000000000006000612b9d565b60606109fe7f00000000000000000000000000000000000000000000000000000000000000006001612b9d565b60006109fe436129e3565b6000611eb6611574565b604051630748d63560e31b81526001600160a01b038681166004830152602482018690529190911690633a46b1a890604401602060405180830381865afa158015611f05573d6000803e3d6000fd5b505050506040513d601f19601f8201168201806040525081019061134191906141f0565b80546000908015611f6757611f5183611f43600184614209565b600091825260209091200190565b54600160301b90046001600160d01b0316611344565b60009392505050565b600b54604080516001600160a01b03928316815291831660208301527f08f74ea46ef7894f65eabfb5e6e695de773a000b47c529ab559178069b226401910160405180910390a1600b80546001600160a01b0319166001600160a01b0392909216919091179055565b606082611fee57611fe982612c48565b610a6a565b5080610a6a565b8063ffffffff1660000361201f5760405163f1cfbf0560e01b815260006004820152602401610e1a565b6008546040805163ffffffff600160301b9093048316815291831660208301527f7e3f7f0708a84de9203036abaa450dccc85ad5ff52f78c170f3edb55cf5e8828910160405180910390a16008805463ffffffff909216600160301b0269ffffffff00000000000019909216919091179055565b60075460408051918252602082018390527fccb45da8d5717e6c4544694297c4ba5cf151d455c9bb0ed4fc7a38411bc05461910160405180910390a1600755565b6000610a6a6120e1611574565b6001600160a01b0316638e539e8c846040518263ffffffff1660e01b815260040161210e91815260200190565b602060405180830381865afa15801561212b573d6000803e3d6000fd5b505050506040513d601f19601f8201168201806040525081019061214f91906141f0565b612158846110b4565b6064612c71565b80546000906001600160801b0380821691600160801b90041681036121885761218860316123be565b6001600160801b038181166000908152600185810160205260408220805492905585546001600160801b0319169301909116919091179092555090565b60006001600160d01b038211156121f9576040516306dfcc6560e41b815260d0600482015260248101839052604401610e1a565b5090565b60008061220b858585612d26565b915091505b935093915050565b600080600b60009054906101000a90046001600160a01b03166001600160a01b031663f27a0c926040518163ffffffff1660e01b8152600401602060405180830381865afa15801561226e573d6000803e3d6000fd5b505050506040513d601f19601f8201168201806040525081019061229291906141f0565b905060003060601b6001600160601b0319168418600b5460405163b1c5f42760e01b81529192506001600160a01b03169063b1c5f427906122e0908a908a908a90600090889060040161421c565b602060405180830381865afa1580156122fd573d6000803e3d6000fd5b505050506040513d601f19601f8201168201806040525081019061232191906141f0565b6000898152600c602052604080822092909255600b5491516308f2a0bb60e41b81526001600160a01b0390921691638f2a0bb09161236c918b918b918b919088908a9060040161426a565b600060405180830381600087803b15801561238657600080fd5b505af115801561239a573d6000803e3d6000fd5b505050506123b282426123ad9190614106565b6129e3565b98975050505050505050565b634e487b71600052806020526024601cfd5b600b546001600160a01b031663e38335e53486868660003060601b6001600160601b03191688186040518763ffffffff1660e01b815260040161241795949392919061421c565b6000604051808303818588803b15801561243057600080fd5b505af1158015612444573d6000803e3d6000fd5b50505060009687525050600c602052505060408320929092555050565b6000818152600460205260408120805460ff600160f01b8204811691600160f81b900416811561249657506007949350505050565b80156124a757506002949350505050565b60006124b286610d94565b9050806000036124d857604051636ad0607560e01b815260048101879052602401610e1a565b60006124e26112c5565b65ffffffffffff169050808210612500575060009695505050505050565b600061250b886113e5565b905081811061252257506001979650505050505050565b61252b88612e7a565b158061254b57506000888152600960205260409020805460019091015411155b1561255e57506003979650505050505050565b60008881526004602052604090206001015465ffffffffffff1660000361258d57506004979650505050505050565b506005979650505050505050565b6000806125aa86868686612eb1565b6000818152600c60205260409020549091508015610c1e57600b5460405163c4d252f560e01b8152600481018390526001600160a01b039091169063c4d252f590602401600060405180830381600087803b15801561260857600080fd5b505af115801561261c573d6000803e3d6000fd5b5050506000838152600c602052604081205550509050949350505050565b6000306001600160a01b037f00000000000000000000000000000000000000000000000000000000000000001614801561269357507f000000000000000000000000000000000000000000000000000000000000000046145b156126bd57507f000000000000000000000000000000000000000000000000000000000000000090565b6109fe604080517f8b73c3c69bb8fe3d512ecc4cf759cc79239f7b179b0ffacaa9a75d522b39400f60208201527f0000000000000000000000000000000000000000000000000000000000000000918101919091527f000000000000000000000000000000000000000000000000000000000000000060608201524660808201523060a082015260009060c00160405160208183030381529060405280519060200120905090565b6000806000835160410361279f5760208401516040850151606086015160001a61279188828585612f62565b9550955095505050506127ab565b50508151600091506002905b9250925092565b6000806000856001600160a01b031685856040516024016127d49291906142c2565b60408051601f198184030181529181526020820180516001600160e01b0316630b135d3f60e11b1790525161280991906142db565b600060405180830381855afa9150503d8060008114612844576040519150601f19603f3d011682016040523d82523d6000602084013e612849565b606091505b509150915081801561285d57506020815110155b801561111a57508051630b135d3f60e11b9061288290830160209081019084016141f0565b149695505050505050565b60008581526009602090815260408083206001600160a01b03881684526003810190925282205460ff16156128d757856040516371c6af4960e01b8152600401610e1a9190613462565b6001600160a01b03861660009081526003820160205260409020805460ff1916600117905560ff851661292357838160000160008282546129189190614106565b9091555061297c9050565b60001960ff86160161294357838160010160008282546129189190614106565b60011960ff86160161296357838160020160008282546129189190614106565b6040516303599be160e11b815260040160405180910390fd5b509195945050505050565b8054600090819081908082036129a857600080600093509350935050610f02565b60006129b986611f43600185614209565b546001955065ffffffffffff81169450600160301b90046001600160d01b03169250610f02915050565b600065ffffffffffff8211156121f9576040516306dfcc6560e41b81526030600482015260248101839052604401610e1a565b815460009081816005811115612a75576000612a3184613027565b612a3b9085614209565b60008881526020902090915081015465ffffffffffff9081169087161015612a6557809150612a73565b612a70816001614106565b92505b505b6000612a838787858561317b565b90508015612ab057612a9a87611f43600184614209565b54600160301b90046001600160d01b0316610e2f565b5060009695505050505050565b6000808451831180612ace57508284115b15612ade57506000905080612210565b6000612aeb856001614106565b84118015612b13575061060f60f31b612b078787016020015190565b6001600160f01b031916145b90506000612b2482151560026142f7565b612b2f906028614106565b905080612b3c8787614209565b03612b5e57600080612b4f8989896131dd565b90965094506122109350505050565b600080935093505050612210565b600063ffffffff8211156121f9576040516306dfcc6560e41b81526020600482015260248101839052604401610e1a565b606060ff8314612bb757612bb0836132a3565b9050610a6a565b818054612bc390613e3c565b80601f0160208091040260200160405190810160405280929190818152602001828054612bef90613e3c565b8015612c3c5780601f10612c1157610100808354040283529160200191612c3c565b820191906000526020600020905b815481529060010190602001808311612c1f57829003601f168201915b50505050509050610a6a565b805115612c585780518082602001fd5b60405163d6bda27560e01b815260040160405180910390fd5b6000806000612c8086866132e2565b9150915081600003612ca557838181612c9b57612c9b61430e565b0492505050611344565b818411612cbc57612cbc60038515026011186123be565b6000848688096000868103871696879004966002600389028118808a02820302808a02820302808a02820302808a02820302808a02820302808a02909103029181900381900460010185841190960395909502919093039390930492909217029150509392505050565b825460009081908015612e1f576000612d4487611f43600185614209565b805490915065ffffffffffff80821691600160301b90046001600160d01b0316908816821115612d8757604051632520601d60e01b815260040160405180910390fd5b8765ffffffffffff168265ffffffffffff1603612dc057825465ffffffffffff16600160301b6001600160d01b03891602178355612e11565b6040805180820190915265ffffffffffff808a1682526001600160d01b03808a1660208085019182528d54600181018f5560008f81529190912094519151909216600160301b029216919091179101555b945085935061221092505050565b50506040805180820190915265ffffffffffff80851682526001600160d01b0380851660208085019182528854600181018a5560008a815291822095519251909316600160301b029190931617920191909155905081612210565b600081815260096020526040812060028101546001820154612e9c9190614106565b612ea86109d085610d94565b11159392505050565b600080612ec086868686611376565b9050612f0e81612ed060076116a8565b612eda60066116a8565b612ee460026116a8565b6001612ef1600782614324565b612efc906002614421565b612f069190614209565b1818186116cb565b506000818152600460205260409081902080546001600160f81b0316600160f81b179055517f789cf55be980739dad1d0699b93b58e806b51c9d96619bfa8fe0a28abaa7b30c90610d839083815260200190565b600080806fa2a8918ca85bafe22016d0b997e4df60600160ff1b03841115612f93575060009150600390508261301d565b604080516000808252602082018084528a905260ff891692820192909252606081018790526080810186905260019060a0016020604051602081039080840390855afa158015612fe7573d6000803e3d6000fd5b5050604051601f1901519150506001600160a01b0381166130135750600092506001915082905061301d565b9250600091508190505b9450945094915050565b600060018211613035575090565b816001600160801b821061304e5760809190911c9060401b5b600160401b82106130645760409190911c9060201b5b640100000000821061307b5760209190911c9060101b5b6201000082106130905760109190911c9060081b5b61010082106130a45760089190911c9060041b5b601082106130b75760049190911c9060021b5b600482106130c35760011b5b600302600190811c908185816130db576130db61430e565b048201901c905060018185816130f3576130f361430e565b048201901c9050600181858161310b5761310b61430e565b048201901c905060018185816131235761312361430e565b048201901c9050600181858161313b5761313b61430e565b048201901c905060018185816131535761315361430e565b048201901c905061317281858161316c5761316c61430e565b04821190565b90039392505050565b60005b818310156131d55760006131928484613300565b60008781526020902090915065ffffffffffff86169082015465ffffffffffff1611156131c1578092506131cf565b6131cc816001614106565b93505b5061317e565b509392505050565b60008084816131ed866001614106565b85118015613215575061060f60f31b6132098388016020015190565b6001600160f01b031916145b9050600061322682151560026142f7565b9050600080613235838a614106565b90505b878110156132925760006132576132528784016020015190565b61331b565b9050600f8160ff1611156132775760008097509750505050505050612210565b6132826010846142f7565b60ff909116019150600101613238565b506001999098509650505050505050565b606060006132b083613394565b604080516020808252818301909252919250600091906020820181803683375050509182525060208101929092525090565b60008060001983850993909202808410938190039390930393915050565b600061330f6002848418614430565b61134490848416614106565b600060f882901c602f811180156133355750603a8160ff16105b1561334357602f1901610a6a565b60608160ff16118015613359575060678160ff16105b156133675760561901610a6a565b60408160ff1611801561337d575060478160ff16105b1561338b5760361901610a6a565b5060ff92915050565b600060ff8216601f811115610a6a57604051632cd44ac360e21b815260040160405180910390fd5b6000602082840312156133ce57600080fd5b81356001600160e01b03198116811461134457600080fd5b6000602082840312156133f857600080fd5b5035919050565b60005b8381101561341a578181015183820152602001613402565b50506000910152565b6000815180845261343b8160208601602086016133ff565b601f01601f19169290920160200192915050565b6020815260006113446020830184613423565b6001600160a01b0391909116815260200190565b6001600160a01b0381168114610a8157600080fd5b634e487b7160e01b600052604160045260246000fd5b604051601f8201601f191681016001600160401b03811182821017156134c9576134c961348b565b604052919050565b60006001600160401b038211156134ea576134ea61348b565b50601f01601f191660200190565b600061350b613506846134d1565b6134a1565b905082815283838301111561351f57600080fd5b828260208301376000602084830101529392505050565b600082601f83011261354757600080fd5b611344838335602085016134f8565b6000806000806080858703121561356c57600080fd5b843561357781613476565b9350602085013561358781613476565b92506040850135915060608501356001600160401b038111156135a957600080fd5b6135b587828801613536565b91505092959194509250565b60006001600160401b038211156135da576135da61348b565b5060051b60200190565b600082601f8301126135f557600080fd5b81356020613605613506836135c1565b8083825260208201915060208460051b87010193508684111561362757600080fd5b602086015b8481101561364c57803561363f81613476565b835291830191830161362c565b509695505050505050565b600082601f83011261366857600080fd5b81356020613678613506836135c1565b8083825260208201915060208460051b87010193508684111561369a57600080fd5b602086015b8481101561364c578035835291830191830161369f565b600082601f8301126136c757600080fd5b813560206136d7613506836135c1565b82815260059290921b840181019181810190868411156136f657600080fd5b8286015b8481101561364c5780356001600160401b038111156137195760008081fd5b6137278986838b0101613536565b8452509183019183016136fa565b6000806000806080858703121561374b57600080fd5b84356001600160401b038082111561376257600080fd5b61376e888389016135e4565b9550602087013591508082111561378457600080fd5b61379088838901613657565b945060408701359150808211156137a657600080fd5b506137b3878288016136b6565b949793965093946060013593505050565b634e487b7160e01b600052602160045260246000fd5b600881106137f857634e487b7160e01b600052602160045260246000fd5b9052565b60208101610a6a82846137da565b6000806040838503121561381d57600080fd5b82359150602083013561382f81613476565b809150509250929050565b803560ff81168114610ede57600080fd5b6000806040838503121561385e57600080fd5b8235915061386e6020840161383a565b90509250929050565b60008083601f84011261388957600080fd5b5081356001600160401b038111156138a057600080fd5b6020830191508360208285010111156138b857600080fd5b9250929050565b600080600080600080600060c0888a0312156138da57600080fd5b873596506138ea6020890161383a565b955060408801356138fa81613476565b945060608801356001600160401b038082111561391657600080fd5b6139228b838c01613877565b909650945060808a013591508082111561393b57600080fd5b6139478b838c01613536565b935060a08a013591508082111561395d57600080fd5b5061396a8a828b01613536565b91505092959891949750929550565b60008060008060006080868803121561399157600080fd5b853594506139a16020870161383a565b935060408601356001600160401b03808211156139bd57600080fd5b6139c989838a01613877565b909550935060608801359150808211156139e257600080fd5b506139ef88828901613536565b9150509295509295909350565b65ffffffffffff81168114610a8157600080fd5b600060208284031215613a2257600080fd5b8135611344816139fc565b60008060008060608587031215613a4357600080fd5b84359350613a536020860161383a565b925060408501356001600160401b03811115613a6e57600080fd5b613a7a87828801613877565b95989497509550505050565b60008060008060808587031215613a9c57600080fd5b84356001600160401b0380821115613ab357600080fd5b613abf888389016135e4565b95506020870135915080821115613ad557600080fd5b613ae188838901613657565b94506040870135915080821115613af757600080fd5b613b03888389016136b6565b93506060870135915080821115613b1957600080fd5b508501601f81018713613b2b57600080fd5b6135b5878235602084016134f8565b600060208284031215613b4c57600080fd5b813561134481613476565b60008151808452602080850194506020840160005b83811015613b8857815187529582019590820190600101613b6c565b509495945050505050565b60ff60f81b8816815260e060208201526000613bb260e0830189613423565b8281036040840152613bc48189613423565b606084018890526001600160a01b038716608085015260a0840186905283810360c08501529050613bf58185613b57565b9a9950505050505050505050565b60008060008060808587031215613c1957600080fd5b84359350613c296020860161383a565b92506040850135613c3981613476565b915060608501356001600160401b038111156135a957600080fd5b600080600060608486031215613c6957600080fd5b8335613c7481613476565b92506020840135915060408401356001600160401b03811115613c9657600080fd5b613ca286828701613536565b9150509250925092565b600080600080600060a08688031215613cc457600080fd5b8535613ccf81613476565b94506020860135613cdf81613476565b935060408601356001600160401b0380821115613cfb57600080fd5b613d0789838a01613657565b94506060880135915080821115613d1d57600080fd5b613d2989838a01613657565b935060808801359150808211156139e257600080fd5b60008060008060608587031215613d5557600080fd5b8435613d6081613476565b93506020850135925060408501356001600160401b03811115613a6e57600080fd5b600060208284031215613d9457600080fd5b813563ffffffff8116811461134457600080fd5b60008060408385031215613dbb57600080fd5b8235613dc681613476565b946020939093013593505050565b600080600080600060a08688031215613dec57600080fd5b8535613df781613476565b94506020860135613e0781613476565b9350604086013592506060860135915060808601356001600160401b03811115613e3057600080fd5b6139ef88828901613536565b600181811c90821680613e5057607f821691505b602082108103613e7057634e487b7160e01b600052602260045260246000fd5b50919050565b634e487b7160e01b600052603260045260246000fd5b600060208284031215613e9e57600080fd5b81516001600160401b03811115613eb457600080fd5b8201601f81018413613ec557600080fd5b8051613ed3613506826134d1565b818152856020838501011115613ee857600080fd5b6113848260208301602086016133ff565b8183823760009101908152919050565b634e487b7160e01b600052601160045260246000fd5b65ffffffffffff828116828216039080821115613f3e57613f3e613f09565b5092915050565b600060208284031215613f5757600080fd5b8151611344816139fc565b65ffffffffffff818116838216019080821115613f3e57613f3e613f09565b60008151808452602080850194506020840160005b83811015613b885781516001600160a01b031687529582019590820190600101613f96565b60008282518085526020808601955060208260051b8401016020860160005b8481101561400857601f19868403018952613ff6838351613423565b98840198925090830190600101613fda565b5090979650505050505050565b6080815260006140286080830187613f81565b828103602084015261403a8187613b57565b9050828103604084015261404e8186613fbb565b91505082606083015295945050505050565b8381526060810161407460208301856137da565b826040830152949350505050565b60006020828403121561409457600080fd5b8151801515811461134457600080fd5b84815260ff8416602082015282604082015260806060820152600061111a6080830184613423565b85815260ff8516602082015283604082015260a0606082015260006140f460a0830185613423565b82810360808401526123b28185613423565b80820180821115610a6a57610a6a613f09565b60006101208b8352602060018060a01b038c16818501528160408501526141428285018c613f81565b91508382036060850152614156828b613b57565b915083820360808501528189518084528284019150828160051b850101838c0160005b838110156141a757601f19878403018552614195838351613423565b94860194925090850190600101614179565b505086810360a08801526141bb818c613fbb565b9450505050508560c08401528460e08401528281036101008401526141e08185613423565b9c9b505050505050505050505050565b60006020828403121561420257600080fd5b5051919050565b81810381811115610a6a57610a6a613f09565b60a08152600061422f60a0830188613f81565b82810360208401526142418188613b57565b905082810360408401526142558187613fbb565b60608401959095525050608001529392505050565b60c08152600061427d60c0830189613f81565b828103602084015261428f8189613b57565b905082810360408401526142a38188613fbb565b60608401969096525050608081019290925260a0909101529392505050565b8281526040602082015260006113416040830184613423565b600082516142ed8184602087016133ff565b9190910192915050565b8082028115828204841417610a6a57610a6a613f09565b634e487b7160e01b600052601260045260246000fd5b60ff8181168382160190811115610a6a57610a6a613f09565b600181815b8085111561437857816000190482111561435e5761435e613f09565b8085161561436b57918102915b93841c9390800290614342565b509250929050565b60008261438f57506001610a6a565b8161439c57506000610a6a565b81600181146143b257600281146143bc576143d8565b6001915050610a6a565b60ff8411156143cd576143cd613f09565b50506001821b610a6a565b5060208310610133831016604e8410600b84101617156143fb575081810a610a6a565b614405838361433d565b806000190482111561441957614419613f09565b029392505050565b600061134460ff841683614380565b60008261444d57634e487b7160e01b600052601260045260246000fd5b50049056fea2646970667358221220a3eeb1e430b9b7b9fe793f36e430ca2fed69be154f7d275651d49ed675e53b2c64736f6c63430008180033",
  "linkReferences": {},
  "deployedLinkReferences": {}
}