{
  "_format": "hh-sol-artifact-1",
  "contractName": "GuildBankPassport",
  "sourceName": "contracts/GuildBankPassport.sol",
  "abi": [
    {
      "inputs": [
        {
          "internalType": "address",
          "name": "initialAuthority",
          "type": "address"
        }
      ],
      "stateMutability": "nonpayable",
      "type": "constructor"
    },
    {
      "inputs": [
        {
          "internalType": "address",
          "name": "sender",
          "type": "address"
        },
        {
          "internalType": "uint256",
          "name": "balance",
          "type": "uint256"
        },
        {
          "internalType": "uint256",
          "name": "needed",
          "type": "uint256"
        },
        {
          "internalType": "uint256",
          "name": "tokenId",
          "type": "uint256"
        }
      ],
      "name": "ERC1155InsufficientBalance",
      "type": "error"
    },
    {
      "inputs": [
        {
          "internalType": "address",
          "name": "approver",
          "type": "address"
        }
      ],
      "name": "ERC1155InvalidApprover",
      "type": "error"
    },
    {
      "inputs": [
        {
          "internalType": "uint256",
          "name": "idsLength",
          "type": "uint256"
        },
        {
          "internalType": "uint256",
          "name": "valuesLength",
          "type": "uint256"
        }
      ],
      "name": "ERC1155InvalidArrayLength",
      "type": "error"
    },
    {
      "inputs": [
        {
          "internalType": "address",
          "name": "operator",
          "type": "address"
        }
      ],
      "name": "ERC1155InvalidOperator",
      "type": "error"
    },
    {
      "inputs": [
        {
          "internalType": "address",
          "name": "receiver",
          "type": "address"
        }
      ],
      "name": "ERC1155InvalidReceiver",
      "type": "error"
    },
    {
      "inputs": [
        {
          "internalType": "address",
          "name": "sender",
          "type": "address"
        }
      ],
      "name": "ERC1155InvalidSender",
      "type": "error"
    },
    {
      "inputs": [
        {
          "internalType": "address",
          "name": "operator",
          "type": "address"
        },
        {
          "internalType": "address",
          "name": "owner",
          "type": "address"
        }
      ],
      "name": "ERC1155MissingApprovalForAll",
      "type": "error"
    },
    {
      "inputs": [],
      "name": "EnforcedPause",
      "type": "error"
    },
    {
      "inputs": [],
      "name": "ExpectedPause",
      "type": "error"
    },
    {
      "inputs": [
        {
          "internalType": "address",
          "name": "owner",
          "type": "address"
        }
      ],
      "name": "OwnableInvalidOwner",
      "type": "error"
    },
    {
      "inputs": [
        {
          "internalType": "address",
          "name": "account",
          "type": "address"
        }
      ],
      "name": "OwnableUnauthorizedAccount",
      "type": "error"
    },
    {
      "anonymous": false,
      "inputs": [
        {
          "indexed": true,
          "internalType": "address",
          "name": "account",
          "type": "address"
        },
        {
          "indexed": true,
          "internalType": "address",
          "name": "operator",
          "type": "address"
        },
        {
          "indexed": false,
          "internalType": "bool",
          "name": "approved",
          "type": "bool"
        }
      ],
      "name": "ApprovalForAll",
      "type": "event"
    },
    {
      "anonymous": false,
      "inputs": [
        {
          "indexed": true,
          "internalType": "address",
          "name": "previousOwner",
          "type": "address"
        },
        {
          "indexed": true,
          "internalType": "address",
          "name": "newOwner",
          "type": "address"
        }
      ],
      "name": "OwnershipTransferred",
      "type": "event"
    },
    {
      "anonymous": false,
      "inputs": [
        {
          "indexed": false,
          "internalType": "address",
          "name": "account",
          "type": "address"
        }
      ],
      "name": "Paused",
      "type": "event"
    },
    {
      "anonymous": false,
      "inputs": [
        {
          "indexed": false,
          "internalType": "address",
          "name": "Wallet",
          "type": "address"
        },
        {
          "indexed": false,
          "internalType": "uint256",
          "name": "Time",
          "type": "uint256"
        }
      ],
      "name": "ServerWalletMod",
      "type": "event"
    },
    {
      "anonymous": false,
      "inputs": [
        {
          "indexed": false,
          "internalType": "uint256",
          "name": "timeCreated",
          "type": "uint256"
        },
        {
          "indexed": false,
          "internalType": "address",
          "name": "player1",
          "type": "address"
        }
      ],
      "name": "SocialPassportOnline",
      "type": "event"
    },
    {
      "anonymous": false,
      "inputs": [
        {
          "indexed": true,
          "internalType": "address",
          "name": "operator",
          "type": "address"
        },
        {
          "indexed": true,
          "internalType": "address",
          "name": "from",
          "type": "address"
        },
        {
          "indexed": true,
          "internalType": "address",
          "name": "to",
          "type": "address"
        },
        {
          "indexed": false,
          "internalType": "uint256[]",
          "name": "ids",
          "type": "uint256[]"
        },
        {
          "indexed": false,
          "internalType": "uint256[]",
          "name": "values",
          "type": "uint256[]"
        }
      ],
      "name": "TransferBatch",
      "type": "event"
    },
    {
      "anonymous": false,
      "inputs": [
        {
          "indexed": true,
          "internalType": "address",
          "name": "operator",
          "type": "address"
        },
        {
          "indexed": true,
          "internalType": "address",
          "name": "from",
          "type": "address"
        },
        {
          "indexed": true,
          "internalType": "address",
          "name": "to",
          "type": "address"
        },
        {
          "indexed": false,
          "internalType": "uint256",
          "name": "id",
          "type": "uint256"
        },
        {
          "indexed": false,
          "internalType": "uint256",
          "name": "value",
          "type": "uint256"
        }
      ],
      "name": "TransferSingle",
      "type": "event"
    },
    {
      "anonymous": false,
      "inputs": [
        {
          "indexed": false,
          "internalType": "string",
          "name": "value",
          "type": "string"
        },
        {
          "indexed": true,
          "internalType": "uint256",
          "name": "id",
          "type": "uint256"
        }
      ],
      "name": "URI",
      "type": "event"
    },
    {
      "anonymous": false,
      "inputs": [
        {
          "indexed": false,
          "internalType": "address",
          "name": "account",
          "type": "address"
        }
      ],
      "name": "Unpaused",
      "type": "event"
    },
    {
      "inputs": [
        {
          "internalType": "uint256",
          "name": "",
          "type": "uint256"
        }
      ],
      "name": "IdtoLinkMapping",
      "outputs": [
        {
          "internalType": "string",
          "name": "",
          "type": "string"
        }
      ],
      "stateMutability": "view",
      "type": "function"
    },
    {
      "inputs": [
        {
          "internalType": "address",
          "name": "",
          "type": "address"
        }
      ],
      "name": "Passport",
      "outputs": [
        {
          "internalType": "string",
          "name": "ipfsProfilePic",
          "type": "string"
        },
        {
          "internalType": "address",
          "name": "ownerAddress",
          "type": "address"
        },
        {
          "internalType": "string",
          "name": "ipfsUserName",
          "type": "string"
        },
        {
          "internalType": "string",
          "name": "handle",
          "type": "string"
        },
        {
          "internalType": "string",
          "name": "statusMsg",
          "type": "string"
        },
        {
          "internalType": "uint256",
          "name": "accountCreated",
          "type": "uint256"
        },
        {
          "internalType": "bool",
          "name": "isMinor",
          "type": "bool"
        },
        {
          "internalType": "string",
          "name": "userPassword",
          "type": "string"
        },
        {
          "internalType": "uint256",
          "name": "passportID",
          "type": "uint256"
        }
      ],
      "stateMutability": "view",
      "type": "function"
    },
    {
      "inputs": [],
      "name": "ServerWallet",
      "outputs": [
        {
          "internalType": "address",
          "name": "",
          "type": "address"
        }
      ],
      "stateMutability": "view",
      "type": "function"
    },
    {
      "inputs": [
        {
          "internalType": "address",
          "name": "",
          "type": "address"
        }
      ],
      "name": "SocialPassport",
      "outputs": [
        {
          "internalType": "string",
          "name": "ipfsEmail",
          "type": "string"
        },
        {
          "internalType": "string",
          "name": "ipfsChat",
          "type": "string"
        },
        {
          "internalType": "string",
          "name": "ipfsForum",
          "type": "string"
        },
        {
          "internalType": "string",
          "name": "ipfsTwitter",
          "type": "string"
        },
        {
          "internalType": "string",
          "name": "ipfsStream",
          "type": "string"
        },
        {
          "internalType": "string",
          "name": "ipfsLinkTree",
          "type": "string"
        },
        {
          "internalType": "string",
          "name": "socials",
          "type": "string"
        },
        {
          "internalType": "string",
          "name": "verified",
          "type": "string"
        },
        {
          "internalType": "string",
          "name": "doxxed",
          "type": "string"
        }
      ],
      "stateMutability": "view",
      "type": "function"
    },
    {
      "inputs": [
        {
          "internalType": "address",
          "name": "",
          "type": "address"
        },
        {
          "internalType": "uint256",
          "name": "",
          "type": "uint256"
        }
      ],
      "name": "ToSAccepted",
      "outputs": [
        {
          "internalType": "bool",
          "name": "",
          "type": "bool"
        }
      ],
      "stateMutability": "view",
      "type": "function"
    },
    {
      "inputs": [],
      "name": "acceptToS",
      "outputs": [],
      "stateMutability": "nonpayable",
      "type": "function"
    },
    {
      "inputs": [
        {
          "internalType": "string",
          "name": "_data",
          "type": "string"
        }
      ],
      "name": "addChat",
      "outputs": [],
      "stateMutability": "nonpayable",
      "type": "function"
    },
    {
      "inputs": [
        {
          "internalType": "string",
          "name": "_data",
          "type": "string"
        },
        {
          "internalType": "address",
          "name": "_User",
          "type": "address"
        }
      ],
      "name": "addDoxxed",
      "outputs": [],
      "stateMutability": "nonpayable",
      "type": "function"
    },
    {
      "inputs": [
        {
          "internalType": "string",
          "name": "_data",
          "type": "string"
        }
      ],
      "name": "addEmail",
      "outputs": [],
      "stateMutability": "nonpayable",
      "type": "function"
    },
    {
      "inputs": [
        {
          "internalType": "string",
          "name": "_data",
          "type": "string"
        }
      ],
      "name": "addForum",
      "outputs": [],
      "stateMutability": "nonpayable",
      "type": "function"
    },
    {
      "inputs": [
        {
          "internalType": "string",
          "name": "_data",
          "type": "string"
        }
      ],
      "name": "addLinkTree",
      "outputs": [],
      "stateMutability": "nonpayable",
      "type": "function"
    },
    {
      "inputs": [
        {
          "internalType": "address",
          "name": "_Wallet",
          "type": "address"
        }
      ],
      "name": "addServerWallet",
      "outputs": [],
      "stateMutability": "nonpayable",
      "type": "function"
    },
    {
      "inputs": [
        {
          "internalType": "string",
          "name": "_data",
          "type": "string"
        },
        {
          "internalType": "address",
          "name": "_User",
          "type": "address"
        }
      ],
      "name": "addSocials",
      "outputs": [],
      "stateMutability": "nonpayable",
      "type": "function"
    },
    {
      "inputs": [
        {
          "internalType": "string",
          "name": "_data",
          "type": "string"
        }
      ],
      "name": "addStream",
      "outputs": [],
      "stateMutability": "nonpayable",
      "type": "function"
    },
    {
      "inputs": [
        {
          "internalType": "string",
          "name": "_data",
          "type": "string"
        }
      ],
      "name": "addTwitter",
      "outputs": [],
      "stateMutability": "nonpayable",
      "type": "function"
    },
    {
      "inputs": [
        {
          "internalType": "string",
          "name": "_data",
          "type": "string"
        },
        {
          "internalType": "address",
          "name": "_User",
          "type": "address"
        }
      ],
      "name": "addVerified",
      "outputs": [],
      "stateMutability": "nonpayable",
      "type": "function"
    },
    {
      "inputs": [
        {
          "internalType": "address",
          "name": "account",
          "type": "address"
        },
        {
          "internalType": "uint256",
          "name": "id",
          "type": "uint256"
        }
      ],
      "name": "balanceOf",
      "outputs": [
        {
          "internalType": "uint256",
          "name": "",
          "type": "uint256"
        }
      ],
      "stateMutability": "view",
      "type": "function"
    },
    {
      "inputs": [
        {
          "internalType": "address[]",
          "name": "accounts",
          "type": "address[]"
        },
        {
          "internalType": "uint256[]",
          "name": "ids",
          "type": "uint256[]"
        }
      ],
      "name": "balanceOfBatch",
      "outputs": [
        {
          "internalType": "uint256[]",
          "name": "",
          "type": "uint256[]"
        }
      ],
      "stateMutability": "view",
      "type": "function"
    },
    {
      "inputs": [
        {
          "internalType": "address",
          "name": "account",
          "type": "address"
        },
        {
          "internalType": "uint256[]",
          "name": "ids",
          "type": "uint256[]"
        },
        {
          "internalType": "uint256[]",
          "name": "values",
          "type": "uint256[]"
        }
      ],
      "name": "burn",
      "outputs": [],
      "stateMutability": "nonpayable",
      "type": "function"
    },
    {
      "inputs": [
        {
          "internalType": "address",
          "name": "account",
          "type": "address"
        },
        {
          "internalType": "uint256",
          "name": "id",
          "type": "uint256"
        },
        {
          "internalType": "uint256",
          "name": "value",
          "type": "uint256"
        }
      ],
      "name": "burn",
      "outputs": [],
      "stateMutability": "nonpayable",
      "type": "function"
    },
    {
      "inputs": [
        {
          "internalType": "address",
          "name": "account",
          "type": "address"
        },
        {
          "internalType": "uint256[]",
          "name": "ids",
          "type": "uint256[]"
        },
        {
          "internalType": "uint256[]",
          "name": "values",
          "type": "uint256[]"
        }
      ],
      "name": "burnBatch",
      "outputs": [],
      "stateMutability": "nonpayable",
      "type": "function"
    },
    {
      "inputs": [
        {
          "internalType": "string",
          "name": "_handle",
          "type": "string"
        }
      ],
      "name": "changeHandle",
      "outputs": [],
      "stateMutability": "nonpayable",
      "type": "function"
    },
    {
      "inputs": [
        {
          "internalType": "string",
          "name": "_msg",
          "type": "string"
        }
      ],
      "name": "changeMSG",
      "outputs": [],
      "stateMutability": "nonpayable",
      "type": "function"
    },
    {
      "inputs": [
        {
          "internalType": "string",
          "name": "_profilePic",
          "type": "string"
        }
      ],
      "name": "changePFP",
      "outputs": [],
      "stateMutability": "nonpayable",
      "type": "function"
    },
    {
      "inputs": [
        {
          "internalType": "string",
          "name": "_password",
          "type": "string"
        }
      ],
      "name": "changePassword",
      "outputs": [],
      "stateMutability": "nonpayable",
      "type": "function"
    },
    {
      "inputs": [
        {
          "internalType": "string",
          "name": "_userName",
          "type": "string"
        }
      ],
      "name": "changeUserName",
      "outputs": [],
      "stateMutability": "nonpayable",
      "type": "function"
    },
    {
      "inputs": [
        {
          "internalType": "string",
          "name": "_profilePic",
          "type": "string"
        },
        {
          "internalType": "string",
          "name": "_userName",
          "type": "string"
        },
        {
          "internalType": "string",
          "name": "_handle",
          "type": "string"
        },
        {
          "internalType": "string",
          "name": "_statusMSG",
          "type": "string"
        },
        {
          "internalType": "bool",
          "name": "_TOS",
          "type": "bool"
        },
        {
          "internalType": "bool",
          "name": "_minor",
          "type": "bool"
        },
        {
          "internalType": "string",
          "name": "_password",
          "type": "string"
        }
      ],
      "name": "createPassport",
      "outputs": [],
      "stateMutability": "nonpayable",
      "type": "function"
    },
    {
      "inputs": [],
      "name": "createSocialPassport",
      "outputs": [],
      "stateMutability": "nonpayable",
      "type": "function"
    },
    {
      "inputs": [],
      "name": "deletePassport",
      "outputs": [],
      "stateMutability": "nonpayable",
      "type": "function"
    },
    {
      "inputs": [],
      "name": "deleteSocialPassport",
      "outputs": [],
      "stateMutability": "nonpayable",
      "type": "function"
    },
    {
      "inputs": [
        {
          "internalType": "uint256",
          "name": "id",
          "type": "uint256"
        }
      ],
      "name": "exists",
      "outputs": [
        {
          "internalType": "bool",
          "name": "",
          "type": "bool"
        }
      ],
      "stateMutability": "view",
      "type": "function"
    },
    {
      "inputs": [
        {
          "internalType": "address",
          "name": "",
          "type": "address"
        }
      ],
      "name": "hasPassport",
      "outputs": [
        {
          "internalType": "bool",
          "name": "",
          "type": "bool"
        }
      ],
      "stateMutability": "view",
      "type": "function"
    },
    {
      "inputs": [
        {
          "internalType": "address",
          "name": "",
          "type": "address"
        }
      ],
      "name": "hasSocialPassport",
      "outputs": [
        {
          "internalType": "bool",
          "name": "",
          "type": "bool"
        }
      ],
      "stateMutability": "view",
      "type": "function"
    },
    {
      "inputs": [
        {
          "internalType": "address",
          "name": "account",
          "type": "address"
        },
        {
          "internalType": "address",
          "name": "operator",
          "type": "address"
        }
      ],
      "name": "isApprovedForAll",
      "outputs": [
        {
          "internalType": "bool",
          "name": "",
          "type": "bool"
        }
      ],
      "stateMutability": "view",
      "type": "function"
    },
    {
      "inputs": [],
      "name": "owner",
      "outputs": [
        {
          "internalType": "address",
          "name": "",
          "type": "address"
        }
      ],
      "stateMutability": "view",
      "type": "function"
    },
    {
      "inputs": [],
      "name": "passportCounter",
      "outputs": [
        {
          "internalType": "uint256",
          "name": "",
          "type": "uint256"
        }
      ],
      "stateMutability": "view",
      "type": "function"
    },
    {
      "inputs": [],
      "name": "pause",
      "outputs": [],
      "stateMutability": "nonpayable",
      "type": "function"
    },
    {
      "inputs": [],
      "name": "paused",
      "outputs": [
        {
          "internalType": "bool",
          "name": "",
          "type": "bool"
        }
      ],
      "stateMutability": "view",
      "type": "function"
    },
    {
      "inputs": [],
      "name": "rejectToS",
      "outputs": [],
      "stateMutability": "nonpayable",
      "type": "function"
    },
    {
      "inputs": [],
      "name": "renounceOwnership",
      "outputs": [],
      "stateMutability": "nonpayable",
      "type": "function"
    },
    {
      "inputs": [],
      "name": "returnToS",
      "outputs": [
        {
          "internalType": "string",
          "name": "",
          "type": "string"
        }
      ],
      "stateMutability": "view",
      "type": "function"
    },
    {
      "inputs": [
        {
          "internalType": "address",
          "name": "from",
          "type": "address"
        },
        {
          "internalType": "address",
          "name": "to",
          "type": "address"
        },
        {
          "internalType": "uint256[]",
          "name": "ids",
          "type": "uint256[]"
        },
        {
          "internalType": "uint256[]",
          "name": "values",
          "type": "uint256[]"
        },
        {
          "internalType": "bytes",
          "name": "data",
          "type": "bytes"
        }
      ],
      "name": "safeBatchTransferFrom",
      "outputs": [],
      "stateMutability": "nonpayable",
      "type": "function"
    },
    {
      "inputs": [
        {
          "internalType": "address",
          "name": "from",
          "type": "address"
        },
        {
          "internalType": "address",
          "name": "to",
          "type": "address"
        },
        {
          "internalType": "uint256",
          "name": "id",
          "type": "uint256"
        },
        {
          "internalType": "uint256",
          "name": "value",
          "type": "uint256"
        },
        {
          "internalType": "bytes",
          "name": "data",
          "type": "bytes"
        }
      ],
      "name": "safeTransferFrom",
      "outputs": [],
      "stateMutability": "nonpayable",
      "type": "function"
    },
    {
      "inputs": [
        {
          "internalType": "address",
          "name": "_user",
          "type": "address"
        },
        {
          "internalType": "string",
          "name": "_profilePic",
          "type": "string"
        },
        {
          "internalType": "string",
          "name": "_userName",
          "type": "string"
        },
        {
          "internalType": "string",
          "name": "_handle",
          "type": "string"
        },
        {
          "internalType": "string",
          "name": "_statusMSG",
          "type": "string"
        },
        {
          "internalType": "bool",
          "name": "_TOS",
          "type": "bool"
        },
        {
          "internalType": "bool",
          "name": "_minor",
          "type": "bool"
        },
        {
          "internalType": "string",
          "name": "_password",
          "type": "string"
        }
      ],
      "name": "serverCreatePassport",
      "outputs": [],
      "stateMutability": "nonpayable",
      "type": "function"
    },
    {
      "inputs": [
        {
          "internalType": "address",
          "name": "",
          "type": "address"
        },
        {
          "internalType": "bool",
          "name": "",
          "type": "bool"
        }
      ],
      "name": "setApprovalForAll",
      "outputs": [],
      "stateMutability": "pure",
      "type": "function"
    },
    {
      "inputs": [
        {
          "internalType": "string",
          "name": "newuri",
          "type": "string"
        }
      ],
      "name": "setURI",
      "outputs": [],
      "stateMutability": "nonpayable",
      "type": "function"
    },
    {
      "inputs": [
        {
          "internalType": "bytes4",
          "name": "interfaceId",
          "type": "bytes4"
        }
      ],
      "name": "supportsInterface",
      "outputs": [
        {
          "internalType": "bool",
          "name": "",
          "type": "bool"
        }
      ],
      "stateMutability": "view",
      "type": "function"
    },
    {
      "inputs": [],
      "name": "totalSupply",
      "outputs": [
        {
          "internalType": "uint256",
          "name": "",
          "type": "uint256"
        }
      ],
      "stateMutability": "view",
      "type": "function"
    },
    {
      "inputs": [
        {
          "internalType": "uint256",
          "name": "id",
          "type": "uint256"
        }
      ],
      "name": "totalSupply",
      "outputs": [
        {
          "internalType": "uint256",
          "name": "",
          "type": "uint256"
        }
      ],
      "stateMutability": "view",
      "type": "function"
    },
    {
      "inputs": [
        {
          "internalType": "address",
          "name": "newOwner",
          "type": "address"
        }
      ],
      "name": "transferOwnership",
      "outputs": [],
      "stateMutability": "nonpayable",
      "type": "function"
    },
    {
      "inputs": [],
      "name": "unpause",
      "outputs": [],
      "stateMutability": "nonpayable",
      "type": "function"
    },
    {
      "inputs": [
        {
          "internalType": "string",
          "name": "_ToSLink",
          "type": "string"
        }
      ],
      "name": "upDateToS",
      "outputs": [],
      "stateMutability": "nonpayable",
      "type": "function"
    },
    {
      "inputs": [
        {
          "internalType": "uint256",
          "name": "",
          "type": "uint256"
        }
      ],
      "name": "uri",
      "outputs": [
        {
          "internalType": "string",
          "name": "",
          "type": "string"
        }
      ],
      "stateMutability": "view",
      "type": "function"
    },
    {
      "inputs": [
        {
          "internalType": "address",
          "name": "_user",
          "type": "address"
        }
      ],
      "name": "viewUserPassword",
      "outputs": [
        {
          "internalType": "string",
          "name": "",
          "type": "string"
        }
      ],
      "stateMutability": "view",
      "type": "function"
    }
  ],
  "bytecode": "0x60806040523480156200001157600080fd5b50604051620036fb380380620036fb833981016040819052620000349162000110565b60408051808201909152601181527011dd5a5b1910985b9ad4185cdcdc1bdc9d607a1b602082015281906200006981620000ac565b506001600160a01b0381166200009957604051631e4fbdf760e01b81526000600482015260240160405180910390fd5b620000a481620000be565b5050620002b5565b6002620000ba8282620001e9565b5050565b600380546001600160a01b038381166001600160a01b0319831681179093556040519116919082907f8be0079c531659141344cd1fd0a4f28419497f9722a3daafe3b4186f6b6457e090600090a35050565b6000602082840312156200012357600080fd5b81516001600160a01b03811681146200013b57600080fd5b9392505050565b634e487b7160e01b600052604160045260246000fd5b600181811c908216806200016d57607f821691505b6020821081036200018e57634e487b7160e01b600052602260045260246000fd5b50919050565b601f821115620001e4576000816000526020600020601f850160051c81016020861015620001bf5750805b601f850160051c820191505b81811015620001e057828155600101620001cb565b5050505b505050565b81516001600160401b0381111562000205576200020562000142565b6200021d8162000216845462000158565b8462000194565b602080601f8311600181146200025557600084156200023c5750858301515b600019600386901b1c1916600185901b178555620001e0565b600085815260208120601f198616915b82811015620002865788860151825594840194600190910190840162000265565b5085821015620002a55787850151600019600388901b60f8161c191681555b5050505050600190811b01905550565b61343680620002c56000396000f3fe608060405234801561001057600080fd5b50600436106102e15760003560e01c80636b20c45411610188578063a53f41be116100e4578063ecbe3ec511610092578063ecbe3ec5146106b6578063eeef4e3f146106c9578063f242432a146106dc578063f2fde38b146106ef578063f372798c14610702578063f4a834691461070a578063f5298aca1461071d57600080fd5b8063a53f41be1461062f578063a5e737bd14610642578063b7241d7b14610655578063bd85b03914610668578063cc48c3e314610688578063d4fa45a91461069b578063e985e9c5146106a357600080fd5b806389aae99a1161014157806389aae99a146105825780638a7b5961146105955780638da5cb5b146105bd578063910248d5146105ce5780639824c3bd146105f6578063a1eeb89d14610609578063a22cb4651461061c57600080fd5b80636b20c45414610516578063710055d714610529578063715018a6146105575780637dfdf5491461055f578063820d95d4146105725780638456cb591461057a57600080fd5b80632b0145ed116102425780634dc30e87116101f05780634dc30e87146104705780634e1273f4146104935780634f558e79146104b35780634ff9cc51146104d5578063549cb7e0146104e85780635c975abb146104fb57806366c1d2e41461050357600080fd5b80632b0145ed146103f35780632eb2c2d61461041357806332d836b514610426578063337330081461042f578063395bb7c6146104425780633db0f8ab146104555780633f4ba83a1461046857600080fd5b806318160ddd1161029f57806318160ddd1461037f5780631e0cd720146103875780631ed5afaa1461038f57806321fa921f146103b25780632842b1d5146103c5578063285f6513146103cd57806329c1567d146103e057600080fd5b8062fdd58e146102e657806301622ec81461030c57806301ffc9a71461032157806302fe5305146103445780630e89341c146103575780630e9dca7914610377575b600080fd5b6102f96102f4366004612812565b610730565b6040519081526020015b60405180910390f35b61031f61031a36600461283c565b610758565b005b61033461032f366004612874565b6107b9565b6040519015158152602001610303565b61031f610352366004612946565b610809565b61036a610365366004612982565b61081d565b60405161030391906129e1565b61031f6108b1565b6005546102f9565b61031f61097e565b61033461039d36600461283c565b600f6020526000908152604090205460ff1681565b61031f6103c0366004612a04565b6109c3565b61031f610b3b565b61031f6103db366004612946565b610c1e565b61036a6103ee366004612982565b610c53565b600654610406906001600160a01b031681565b6040516103039190612af6565b61031f610421366004612b9c565b610ced565b6102f960075481565b61031f61043d366004612c45565b610d4e565b61031f610450366004612946565b610d8f565b61031f610463366004612c92565b610dc7565b61031f610de9565b61033461047e36600461283c565b60096020526000908152604090205460ff1681565b6104a66104a1366004612d05565b610df9565b6040516103039190612e00565b6103346104c1366004612982565b600090815260046020526040902054151590565b61031f6104e3366004612946565b610ec5565b61031f6104f6366004612c45565b610efd565b610334610f39565b61031f610511366004612946565b610f49565b61031f610524366004612c92565b610f81565b610334610537366004612812565b600a60209081526000928352604080842090915290825290205460ff1681565b61031f610fcf565b61031f61056d366004612c45565b610fe1565b61031f61101d565b61031f6110d7565b61031f610590366004612946565b6110e7565b6105a86105a336600461283c565b61111c565b60405161030399989796959493929190612e13565b6003546001600160a01b0316610406565b6105e16105dc36600461283c565b61162a565b60405161030399989796959493929190612ed8565b61031f610604366004612946565b61192f565b61031f610617366004612946565b611967565b61031f61062a366004612f71565b61199f565b61036a61063d36600461283c565b6119e7565b61031f610650366004612946565b611a11565b61031f610663366004612f9b565b611a49565b6102f9610676366004612982565b60009081526004602052604090205490565b61031f610696366004612946565b611c22565b61036a611c5a565b6103346106b136600461309e565b611cec565b61031f6106c4366004612946565b611d1a565b61031f6106d7366004612946565b611d52565b61031f6106ea3660046130c8565b611d8a565b61031f6106fd36600461283c565b611dda565b61031f611e15565b61031f610718366004612946565b611e52565b61031f61072b36600461312c565b611e98565b6000818152602081815260408083206001600160a01b03861684529091529020545b92915050565b610760611ece565b600680546001600160a01b0319166001600160a01b038316908117909155604080519182524260208301527f2be315f27fbc5723845682e04cff91bf4c944de41691d164a76c531fad3c5179910160405180910390a150565b60006001600160e01b03198216636cdb3d1360e11b14806107ea57506001600160e01b031982166303a24d0760e21b145b8061075257506301ffc9a760e01b6001600160e01b0319831614610752565b610811611ece565b61081a81611efb565b50565b60606002805461082c9061315f565b80601f01602080910402602001604051908101604052809291908181526020018280546108589061315f565b80156108a55780601f1061087a576101008083540402835291602001916108a5565b820191906000526020600020905b81548152906001019060200180831161088857829003601f168201915b50505050509050919050565b336000908152600f602052604090205460ff166108cd57600080fd5b336000818152600f60205260409020805460ff191690556108f090600180611e98565b336000908152600e602052604081209061090a82826127a8565b6109186001830160006127a8565b6109266002830160006127a8565b6109346003830160006127a8565b6109426004830160006127a8565b6109506005830160006127a8565b61095e6006830160006127a8565b61096c6007830160006127a8565b61097a6008830160006127a8565b5050565b3360009081526009602052604090205460ff1661099a57600080fd5b336000908152600a60209081526040808320600b5484529091529020805460ff19166001179055565b3360009081526009602052604090205460ff16156109e057600080fd5b826109ea57600080fd5b336000908152600860205260409020610a0388826131e1565b503360008181526008602052604090206001810180546001600160a01b031916909217909155600201610a3687826131e1565b50336000908152600860205260409020600301610a5386826131e1565b50336000908152600860205260409020600401610a7085826131e1565b5033600090815260086020526040902042600582015560068101805460ff1916841515179055600701610aa382826131e1565b50336000908152600960209081526040808320805460ff191660011790556007805460089384905291842090920181905591610ade836132b6565b9091555050336000818152600a60209081526040808320600b5484528252808320805460ff1916600190811790915581518083019092526002825261060f60f31b92820192909252610b3293929190611f07565b50505050505050565b3360009081526009602052604090205460ff16610b5757600080fd5b336000818152600960205260408120805460ff19169055610b7a91906001611e98565b33600090815260086020526040812090610b9482826127a8565b6001820180546001600160a01b0319169055610bb46002830160006127a8565b610bc26003830160006127a8565b610bd06004830160006127a8565b60006005830181905560068301805460ff19169055610bf39060078401906127a8565b506000600891909101819055338152600f602052604090205460ff1615610c1c57610c1c6108b1565b565b3360009081526009602052604090205460ff16610c3a57600080fd5b33600090815260086020526040902061097a82826131e1565b600d6020526000908152604090208054610c6c9061315f565b80601f0160208091040260200160405190810160405280929190818152602001828054610c989061315f565b8015610ce55780601f10610cba57610100808354040283529160200191610ce5565b820191906000526020600020905b815481529060010190602001808311610cc857829003601f168201915b505050505081565b336001600160a01b0386168114801590610d0e5750610d0c8682611cec565b155b15610d3957808660405163711bec9160e11b8152600401610d309291906132cf565b60405180910390fd5b610d468686868686611f19565b505050505050565b6006546001600160a01b03163314610d6557600080fd5b6001600160a01b0381166000908152600e60205260409020600601610d8a83826131e1565b505050565b336000908152600f602052604090205460ff16610dab57600080fd5b336000908152600e6020526040902060030161097a82826131e1565b336001600160a01b03841614610ddc57600080fd5b610d8a8360008484611f80565b610df1611ece565b610c1c61206c565b60608151835114610e2a5781518351604051635b05999160e01b815260048101929092526024820152604401610d30565b600083516001600160401b03811115610e4557610e45612891565b604051908082528060200260200182016040528015610e6e578160200160208202803683370190505b50905060005b8451811015610ebd57602080820286010151610e9890602080840287010151610730565b828281518110610eaa57610eaa6132e9565b6020908102919091010152600101610e74565b509392505050565b3360009081526009602052604090205460ff16610ee157600080fd5b33600090815260086020526040902060070161097a82826131e1565b6006546001600160a01b03163314610f1457600080fd5b6001600160a01b0381166000908152600e60205260409020600801610d8a83826131e1565b600354600160a01b900460ff1690565b3360009081526009602052604090205460ff16610f6557600080fd5b33600090815260086020526040902060040161097a82826131e1565b6001600160a01b0383163314801590610fa15750610f9f8333611cec565b155b15610fc457335b8360405163711bec9160e11b8152600401610d309291906132cf565b610d8a8383836120b1565b610fd7611ece565b610c1c60006120f7565b6006546001600160a01b03163314610ff857600080fd5b6001600160a01b0381166000908152600e60205260409020600701610d8a83826131e1565b3360009081526009602052604090205460ff1661103957600080fd5b336000908152600f602052604090205460ff161561105657600080fd5b336000818152600f6020908152604091829020805460ff1916600190811790915582518084019093526002835261060f60f31b9183019190915261109c92918190611f07565b604080514281523360208201527fdaaa948348b2928466f2da7a3ee01f46e9d340f1694082d0c96d0edd6de4fc8891015b60405180910390a1565b6110df611ece565b610c1c612149565b336000908152600f602052604090205460ff1661110357600080fd5b336000908152600e6020526040902061097a82826131e1565b600e602052600090815260409020805481906111379061315f565b80601f01602080910402602001604051908101604052809291908181526020018280546111639061315f565b80156111b05780601f10611185576101008083540402835291602001916111b0565b820191906000526020600020905b81548152906001019060200180831161119357829003601f168201915b5050505050908060010180546111c59061315f565b80601f01602080910402602001604051908101604052809291908181526020018280546111f19061315f565b801561123e5780601f106112135761010080835404028352916020019161123e565b820191906000526020600020905b81548152906001019060200180831161122157829003601f168201915b5050505050908060020180546112539061315f565b80601f016020809104026020016040519081016040528092919081815260200182805461127f9061315f565b80156112cc5780601f106112a1576101008083540402835291602001916112cc565b820191906000526020600020905b8154815290600101906020018083116112af57829003601f168201915b5050505050908060030180546112e19061315f565b80601f016020809104026020016040519081016040528092919081815260200182805461130d9061315f565b801561135a5780601f1061132f5761010080835404028352916020019161135a565b820191906000526020600020905b81548152906001019060200180831161133d57829003601f168201915b50505050509080600401805461136f9061315f565b80601f016020809104026020016040519081016040528092919081815260200182805461139b9061315f565b80156113e85780601f106113bd576101008083540402835291602001916113e8565b820191906000526020600020905b8154815290600101906020018083116113cb57829003601f168201915b5050505050908060050180546113fd9061315f565b80601f01602080910402602001604051908101604052809291908181526020018280546114299061315f565b80156114765780601f1061144b57610100808354040283529160200191611476565b820191906000526020600020905b81548152906001019060200180831161145957829003601f168201915b50505050509080600601805461148b9061315f565b80601f01602080910402602001604051908101604052809291908181526020018280546114b79061315f565b80156115045780601f106114d957610100808354040283529160200191611504565b820191906000526020600020905b8154815290600101906020018083116114e757829003601f168201915b5050505050908060070180546115199061315f565b80601f01602080910402602001604051908101604052809291908181526020018280546115459061315f565b80156115925780601f1061156757610100808354040283529160200191611592565b820191906000526020600020905b81548152906001019060200180831161157557829003601f168201915b5050505050908060080180546115a79061315f565b80601f01602080910402602001604051908101604052809291908181526020018280546115d39061315f565b80156116205780601f106115f557610100808354040283529160200191611620565b820191906000526020600020905b81548152906001019060200180831161160357829003601f168201915b5050505050905089565b6008602052600090815260409020805481906116459061315f565b80601f01602080910402602001604051908101604052809291908181526020018280546116719061315f565b80156116be5780601f10611693576101008083540402835291602001916116be565b820191906000526020600020905b8154815290600101906020018083116116a157829003601f168201915b505050600184015460028501805494956001600160a01b039092169491935091506116e89061315f565b80601f01602080910402602001604051908101604052809291908181526020018280546117149061315f565b80156117615780601f1061173657610100808354040283529160200191611761565b820191906000526020600020905b81548152906001019060200180831161174457829003601f168201915b5050505050908060030180546117769061315f565b80601f01602080910402602001604051908101604052809291908181526020018280546117a29061315f565b80156117ef5780601f106117c4576101008083540402835291602001916117ef565b820191906000526020600020905b8154815290600101906020018083116117d257829003601f168201915b5050505050908060040180546118049061315f565b80601f01602080910402602001604051908101604052809291908181526020018280546118309061315f565b801561187d5780601f106118525761010080835404028352916020019161187d565b820191906000526020600020905b81548152906001019060200180831161186057829003601f168201915b50505050600583015460068401546007850180549495929460ff9092169350906118a69061315f565b80601f01602080910402602001604051908101604052809291908181526020018280546118d29061315f565b801561191f5780601f106118f45761010080835404028352916020019161191f565b820191906000526020600020905b81548152906001019060200180831161190257829003601f168201915b5050505050908060080154905089565b3360009081526009602052604090205460ff1661194b57600080fd5b33600090815260086020526040902060030161097a82826131e1565b336000908152600f602052604090205460ff1661198357600080fd5b336000908152600e6020526040902060020161097a82826131e1565b60405162461bcd60e51b815260206004820181905260248201527f536f756c626f756e643a20617070726f76616c73206e6f7420616c6c6f7765646044820152606401610d30565b6001600160a01b038116600090815260086020526040902060070180546060919061082c9061315f565b3360009081526009602052604090205460ff16611a2d57600080fd5b33600090815260086020526040902060020161097a82826131e1565b6006546001600160a01b03163314611a6057600080fd5b6001600160a01b03881660009081526009602052604090205460ff1615611a8657600080fd5b82611a9057600080fd5b6001600160a01b0388166000908152600860205260409020611ab288826131e1565b506001600160a01b03881660008181526008602052604090206001810180546001600160a01b031916909217909155600201611aee87826131e1565b506001600160a01b0388166000908152600860205260409020600301611b1486826131e1565b506001600160a01b0388166000908152600860205260409020600401611b3a85826131e1565b506001600160a01b038816600090815260086020526040902042600582015560068101805460ff1916841515179055600701611b7682826131e1565b506001600160a01b0388166000908152600960209081526040808320805460ff191660011790556007805460089384905291842090920181905591611bba836132b6565b90915550506001600160a01b0388166000908152600a60209081526040808320600b5484528252808320805460ff1916600190811790915581518083019092526002825261060f60f31b92820192909252611c18928b929091611f07565b5050505050505050565b336000908152600f602052604090205460ff16611c3e57600080fd5b336000908152600e6020526040902060010161097a82826131e1565b6060600c8054611c699061315f565b80601f0160208091040260200160405190810160405280929190818152602001828054611c959061315f565b8015611ce25780601f10611cb757610100808354040283529160200191611ce2565b820191906000526020600020905b815481529060010190602001808311611cc557829003601f168201915b5050505050905090565b6001600160a01b03918216600090815260016020908152604080832093909416825291909152205460ff1690565b336000908152600f602052604090205460ff16611d3657600080fd5b336000908152600e6020526040902060040161097a82826131e1565b336000908152600f602052604090205460ff16611d6e57600080fd5b336000908152600e6020526040902060050161097a82826131e1565b336001600160a01b0386168114801590611dab5750611da98682611cec565b155b15611dcd57808660405163711bec9160e11b8152600401610d309291906132cf565b610d46868686868661218c565b611de2611ece565b6001600160a01b038116611e0c576000604051631e4fbdf760e01b8152600401610d309190612af6565b61081a816120f7565b336000818152600a60209081526040808320600b5484528252808320805460ff1916905592825260099052205460ff1615610c1c57610c1c610b3b565b611e5a611ece565b600b8054906000611e6a836132b6565b90915550600c9050611e7c82826131e1565b50600b546000908152600d6020526040902061097a82826131e1565b6001600160a01b0383163314801590611eb85750611eb68333611cec565b155b15611ec35733610fa8565b610d8a8383836121fd565b6003546001600160a01b03163314610c1c573360405163118cdaa760e01b8152600401610d309190612af6565b600261097a82826131e1565b611f1384848484612254565b50505050565b6001600160a01b038416611f43576000604051632bfa23e760e11b8152600401610d309190612af6565b6001600160a01b038516611f6c576000604051626a0d4560e21b8152600401610d309190612af6565b611f798585858585612299565b5050505050565b611f8c848484846122ec565b6001600160a01b03841661200c576000805b8351811015611ff25760208181028481018201519086018201516000908152600490925260408220805491928392611fd79084906132ff565b90915550611fe7905081846132ff565b925050600101611f9e565b50806005600082825461200591906132ff565b9091555050505b6001600160a01b038316611f13576000805b835181101561205b57602081810284810182015190860182015160009081526004909252604090912080548290039055919091019060010161201e565b506005805491909103905550505050565b612074612300565b6003805460ff60a01b191690557f5db9ee0a495bf2e6ff9c91a7834c1ba4fdd244a5e8aa4e537bd38aeae4b073aa335b6040516110cd9190612af6565b6001600160a01b0383166120da576000604051626a0d4560e21b8152600401610d309190612af6565b610d8a836000848460405180602001604052806000815250612299565b600380546001600160a01b038381166001600160a01b0319831681179093556040519116919082907f8be0079c531659141344cd1fd0a4f28419497f9722a3daafe3b4186f6b6457e090600090a35050565b612151612325565b6003805460ff60a01b1916600160a01b1790557f62e78cea01bee320cd4e420270b5ea74000d11b0c9f74754ebdbfc544b05a2586120a43390565b6001600160a01b0384166121b6576000604051632bfa23e760e11b8152600401610d309190612af6565b6001600160a01b0385166121df576000604051626a0d4560e21b8152600401610d309190612af6565b6000806121ec858561234b565b91509150610b328787848487612299565b6001600160a01b038316612226576000604051626a0d4560e21b8152600401610d309190612af6565b600080612233848461234b565b91509150611f79856000848460405180602001604052806000815250612299565b6001600160a01b03841661227e576000604051632bfa23e760e11b8152600401610d309190612af6565b60008061228b858561234b565b91509150610d466000878484875b6122a585858585612373565b6001600160a01b03841615611f7957825133906001036122de57602084810151908401516122d78389898585896123a2565b5050610d46565b610d468187878787876124b4565b6122f4612325565b611f1384848484612594565b612308610f39565b610c1c57604051638dfc202b60e01b815260040160405180910390fd5b61232d610f39565b15610c1c5760405163d93c066560e01b815260040160405180910390fd5b6040805160018082526020820194909452808201938452606081019290925260808201905291565b6001600160a01b03841615612396576001600160a01b0383161561239657600080fd5b611f1384848484611f80565b6001600160a01b0384163b15610d465760405163f23a6e6160e01b81526001600160a01b0385169063f23a6e61906123e69089908990889088908890600401613312565b6020604051808303816000875af1925050508015612421575060408051601f3d908101601f1916820190925261241e91810190613357565b60015b612481573d80801561244f576040519150601f19603f3d011682016040523d82523d6000602084013e612454565b606091505b5080516000036124795784604051632bfa23e760e11b8152600401610d309190612af6565b805181602001fd5b6001600160e01b0319811663f23a6e6160e01b14610b325784604051632bfa23e760e11b8152600401610d309190612af6565b6001600160a01b0384163b15610d465760405163bc197c8160e01b81526001600160a01b0385169063bc197c81906124f89089908990889088908890600401613374565b6020604051808303816000875af1925050508015612533575060408051601f3d908101601f1916820190925261253091810190613357565b60015b612561573d80801561244f576040519150601f19603f3d011682016040523d82523d6000602084013e612454565b6001600160e01b0319811663bc197c8160e01b14610b325784604051632bfa23e760e11b8152600401610d309190612af6565b80518251146125c35781518151604051635b05999160e01b815260048101929092526024820152604401610d30565b3360005b83518110156126c9576020818102858101820151908501909101516001600160a01b0388161561267a576000828152602081815260408083206001600160a01b038c16845290915290205481811015612653576040516303dee4c560e01b81526001600160a01b038a166004820152602481018290526044810183905260648101849052608401610d30565b6000838152602081815260408083206001600160a01b038d16845290915290209082900390555b6001600160a01b038716156126bf576000828152602081815260408083206001600160a01b038b168452909152812080548392906126b99084906132ff565b90915550505b50506001016125c7565b50825160010361274a5760208301516000906020840151909150856001600160a01b0316876001600160a01b0316846001600160a01b03167fc3d58168c5ae7397731d063d5bbf3d657854427343f4c083240f7aacaa2d0f62858560405161273b929190918252602082015260400190565b60405180910390a45050611f79565b836001600160a01b0316856001600160a01b0316826001600160a01b03167f4a39dc06d4c0dbc64b70af90fd698a233a518aa5d07e595d983b8c0526c8f7fb86866040516127999291906133d2565b60405180910390a45050505050565b5080546127b49061315f565b6000825580601f106127c4575050565b601f01602090049060005260206000209081019061081a91905b808211156127f257600081556001016127de565b5090565b80356001600160a01b038116811461280d57600080fd5b919050565b6000806040838503121561282557600080fd5b61282e836127f6565b946020939093013593505050565b60006020828403121561284e57600080fd5b612857826127f6565b9392505050565b6001600160e01b03198116811461081a57600080fd5b60006020828403121561288657600080fd5b81356128578161285e565b634e487b7160e01b600052604160045260246000fd5b604051601f8201601f191681016001600160401b03811182821017156128cf576128cf612891565b604052919050565b600082601f8301126128e857600080fd5b81356001600160401b0381111561290157612901612891565b612914601f8201601f19166020016128a7565b81815284602083860101111561292957600080fd5b816020850160208301376000918101602001919091529392505050565b60006020828403121561295857600080fd5b81356001600160401b0381111561296e57600080fd5b61297a848285016128d7565b949350505050565b60006020828403121561299457600080fd5b5035919050565b6000815180845260005b818110156129c1576020818501810151868301820152016129a5565b506000602082860101526020601f19601f83011685010191505092915050565b602081526000612857602083018461299b565b8035801515811461280d57600080fd5b600080600080600080600060e0888a031215612a1f57600080fd5b87356001600160401b0380821115612a3657600080fd5b612a428b838c016128d7565b985060208a0135915080821115612a5857600080fd5b612a648b838c016128d7565b975060408a0135915080821115612a7a57600080fd5b612a868b838c016128d7565b965060608a0135915080821115612a9c57600080fd5b612aa88b838c016128d7565b9550612ab660808b016129f4565b9450612ac460a08b016129f4565b935060c08a0135915080821115612ada57600080fd5b50612ae78a828b016128d7565b91505092959891949750929550565b6001600160a01b0391909116815260200190565b60006001600160401b03821115612b2357612b23612891565b5060051b60200190565b600082601f830112612b3e57600080fd5b81356020612b53612b4e83612b0a565b6128a7565b8083825260208201915060208460051b870101935086841115612b7557600080fd5b602086015b84811015612b915780358352918301918301612b7a565b509695505050505050565b600080600080600060a08688031215612bb457600080fd5b612bbd866127f6565b9450612bcb602087016127f6565b935060408601356001600160401b0380821115612be757600080fd5b612bf389838a01612b2d565b94506060880135915080821115612c0957600080fd5b612c1589838a01612b2d565b93506080880135915080821115612c2b57600080fd5b50612c38888289016128d7565b9150509295509295909350565b60008060408385031215612c5857600080fd5b82356001600160401b03811115612c6e57600080fd5b612c7a858286016128d7565b925050612c89602084016127f6565b90509250929050565b600080600060608486031215612ca757600080fd5b612cb0846127f6565b925060208401356001600160401b0380821115612ccc57600080fd5b612cd887838801612b2d565b93506040860135915080821115612cee57600080fd5b50612cfb86828701612b2d565b9150509250925092565b60008060408385031215612d1857600080fd5b82356001600160401b0380821115612d2f57600080fd5b818501915085601f830112612d4357600080fd5b81356020612d53612b4e83612b0a565b82815260059290921b84018101918181019089841115612d7257600080fd5b948201945b83861015612d9757612d88866127f6565b82529482019490820190612d77565b96505086013592505080821115612dad57600080fd5b50612dba85828601612b2d565b9150509250929050565b60008151808452602080850194506020840160005b83811015612df557815187529582019590820190600101612dd9565b509495945050505050565b6020815260006128576020830184612dc4565b6000610120808352612e278184018d61299b565b90508281036020840152612e3b818c61299b565b90508281036040840152612e4f818b61299b565b90508281036060840152612e63818a61299b565b90508281036080840152612e77818961299b565b905082810360a0840152612e8b818861299b565b905082810360c0840152612e9f818761299b565b905082810360e0840152612eb3818661299b565b9050828103610100840152612ec8818561299b565b9c9b505050505050505050505050565b6000610120808352612eec8184018d61299b565b6001600160a01b038c16602085015283810360408501529050612f0f818b61299b565b90508281036060840152612f23818a61299b565b90508281036080840152612f37818961299b565b90508660a084015285151560c084015282810360e0840152612f59818661299b565b915050826101008301529a9950505050505050505050565b60008060408385031215612f8457600080fd5b612f8d836127f6565b9150612c89602084016129f4565b600080600080600080600080610100898b031215612fb857600080fd5b612fc1896127f6565b975060208901356001600160401b0380821115612fdd57600080fd5b612fe98c838d016128d7565b985060408b0135915080821115612fff57600080fd5b61300b8c838d016128d7565b975060608b013591508082111561302157600080fd5b61302d8c838d016128d7565b965060808b013591508082111561304357600080fd5b61304f8c838d016128d7565b955061305d60a08c016129f4565b945061306b60c08c016129f4565b935060e08b013591508082111561308157600080fd5b5061308e8b828c016128d7565b9150509295985092959890939650565b600080604083850312156130b157600080fd5b6130ba836127f6565b9150612c89602084016127f6565b600080600080600060a086880312156130e057600080fd5b6130e9866127f6565b94506130f7602087016127f6565b9350604086013592506060860135915060808601356001600160401b0381111561312057600080fd5b612c38888289016128d7565b60008060006060848603121561314157600080fd5b61314a846127f6565b95602085013595506040909401359392505050565b600181811c9082168061317357607f821691505b60208210810361319357634e487b7160e01b600052602260045260246000fd5b50919050565b601f821115610d8a576000816000526020600020601f850160051c810160208610156131c25750805b601f850160051c820191505b81811015610d46578281556001016131ce565b81516001600160401b038111156131fa576131fa612891565b61320e81613208845461315f565b84613199565b602080601f831160018114613243576000841561322b5750858301515b600019600386901b1c1916600185901b178555610d46565b600085815260208120601f198616915b8281101561327257888601518255948401946001909101908401613253565b50858210156132905787850151600019600388901b60f8161c191681555b5050505050600190811b01905550565b634e487b7160e01b600052601160045260246000fd5b6000600182016132c8576132c86132a0565b5060010190565b6001600160a01b0392831681529116602082015260400190565b634e487b7160e01b600052603260045260246000fd5b80820180821115610752576107526132a0565b6001600160a01b03868116825285166020820152604081018490526060810183905260a06080820181905260009061334c9083018461299b565b979650505050505050565b60006020828403121561336957600080fd5b81516128578161285e565b6001600160a01b0386811682528516602082015260a0604082018190526000906133a090830186612dc4565b82810360608401526133b28186612dc4565b905082810360808401526133c6818561299b565b98975050505050505050565b6040815260006133e56040830185612dc4565b82810360208401526133f78185612dc4565b9594505050505056fea2646970667358221220d9b6c106fb43b20a30d88d5bf4e5b4125da7996d8e542e6571d399ec528b19a364736f6c63430008180033",
  "linkReferences": {},
  "deployedLinkReferences": {}
}