{
  "_format": "hh-sol-artifact-1",
  "contractName": "GuildBankBoDTreasury",
  "sourceName": "contracts/GuildBankBoDTreasury.sol",
  "abi": [
    {
      "inputs": [
        {
          "internalType": "address",
          "name": "initialOwner",
          "type": "address"
        },
        {
          "internalType": "address",
          "name": "_LocalBoD",
          "type": "address"
        }
      ],
      "stateMutability": "nonpayable",
      "type": "constructor"
    },
    {
      "inputs": [
        {
          "internalType": "address",
          "name": "owner",
          "type": "address"
        }
      ],
      "name": "OwnableInvalidOwner",
      "type": "error"
    },
    {
      "inputs": [
        {
          "internalType": "address",
          "name": "account",
          "type": "address"
        }
      ],
      "name": "OwnableUnauthorizedAccount",
      "type": "error"
    },
    {
      "inputs": [],
      "name": "ReentrancyGuardReentrantCall",
      "type": "error"
    },
    {
      "anonymous": false,
      "inputs": [
        {
          "indexed": true,
          "internalType": "address",
          "name": "previousOwner",
          "type": "address"
        },
        {
          "indexed": true,
          "internalType": "address",
          "name": "newOwner",
          "type": "address"
        }
      ],
      "name": "OwnershipTransferred",
      "type": "event"
    },
    {
      "anonymous": false,
      "inputs": [
        {
          "indexed": true,
          "internalType": "uint256",
          "name": "ActionId",
          "type": "uint256"
        }
      ],
      "name": "eventActionApproved",
      "type": "event"
    },
    {
      "anonymous": false,
      "inputs": [
        {
          "indexed": false,
          "internalType": "address",
          "name": "person",
          "type": "address"
        },
        {
          "indexed": true,
          "internalType": "uint256",
          "name": "ActionId",
          "type": "uint256"
        }
      ],
      "name": "eventActionApprovedBy",
      "type": "event"
    },
    {
      "anonymous": false,
      "inputs": [
        {
          "indexed": true,
          "internalType": "uint256",
          "name": "ActionId",
          "type": "uint256"
        }
      ],
      "name": "eventActionDeleted",
      "type": "event"
    },
    {
      "anonymous": false,
      "inputs": [
        {
          "indexed": false,
          "internalType": "address",
          "name": "person",
          "type": "address"
        },
        {
          "indexed": true,
          "internalType": "uint256",
          "name": "ActionId",
          "type": "uint256"
        }
      ],
      "name": "eventActionDeniedBy",
      "type": "event"
    },
    {
      "anonymous": false,
      "inputs": [
        {
          "indexed": true,
          "internalType": "uint256",
          "name": "ActionId",
          "type": "uint256"
        },
        {
          "indexed": false,
          "internalType": "uint256",
          "name": "publishTimer",
          "type": "uint256"
        }
      ],
      "name": "eventActionExecuted",
      "type": "event"
    },
    {
      "anonymous": false,
      "inputs": [
        {
          "indexed": true,
          "internalType": "address",
          "name": "submitter",
          "type": "address"
        },
        {
          "indexed": false,
          "internalType": "string",
          "name": "ipfsLink",
          "type": "string"
        },
        {
          "indexed": false,
          "internalType": "uint256",
          "name": "publishTimer",
          "type": "uint256"
        },
        {
          "indexed": false,
          "internalType": "uint256",
          "name": "counterId",
          "type": "uint256"
        }
      ],
      "name": "eventActionSubmit",
      "type": "event"
    },
    {
      "anonymous": false,
      "inputs": [
        {
          "components": [
            {
              "internalType": "bool",
              "name": "tokenAccepted",
              "type": "bool"
            },
            {
              "internalType": "string",
              "name": "tokenName",
              "type": "string"
            },
            {
              "internalType": "address",
              "name": "tokenAddress",
              "type": "address"
            },
            {
              "internalType": "uint256",
              "name": "arrayId",
              "type": "uint256"
            },
            {
              "internalType": "uint256",
              "name": "amount",
              "type": "uint256"
            },
            {
              "internalType": "bool",
              "name": "isErc20",
              "type": "bool"
            },
            {
              "internalType": "uint256",
              "name": "tokenId",
              "type": "uint256"
            }
          ],
          "indexed": false,
          "internalType": "struct GuildBankBoDTreasury.tokenInVault",
          "name": "_Token",
          "type": "tuple"
        }
      ],
      "name": "tokenAddedToTreasury",
      "type": "event"
    },
    {
      "anonymous": false,
      "inputs": [
        {
          "components": [
            {
              "internalType": "bool",
              "name": "tokenAccepted",
              "type": "bool"
            },
            {
              "internalType": "string",
              "name": "tokenName",
              "type": "string"
            },
            {
              "internalType": "address",
              "name": "tokenAddress",
              "type": "address"
            },
            {
              "internalType": "uint256",
              "name": "arrayId",
              "type": "uint256"
            },
            {
              "internalType": "uint256",
              "name": "amount",
              "type": "uint256"
            },
            {
              "internalType": "bool",
              "name": "isErc20",
              "type": "bool"
            },
            {
              "internalType": "uint256",
              "name": "tokenId",
              "type": "uint256"
            }
          ],
          "indexed": false,
          "internalType": "struct GuildBankBoDTreasury.tokenInVault",
          "name": "_Token",
          "type": "tuple"
        }
      ],
      "name": "tokenRemovedFromTreasury",
      "type": "event"
    },
    {
      "inputs": [
        {
          "internalType": "uint256",
          "name": "",
          "type": "uint256"
        },
        {
          "internalType": "address",
          "name": "",
          "type": "address"
        }
      ],
      "name": "ActionsVoteLedger",
      "outputs": [
        {
          "internalType": "bool",
          "name": "",
          "type": "bool"
        }
      ],
      "stateMutability": "view",
      "type": "function"
    },
    {
      "inputs": [
        {
          "internalType": "uint256",
          "name": "",
          "type": "uint256"
        },
        {
          "internalType": "address",
          "name": "",
          "type": "address"
        }
      ],
      "name": "BoDPower",
      "outputs": [
        {
          "internalType": "uint256",
          "name": "",
          "type": "uint256"
        }
      ],
      "stateMutability": "view",
      "type": "function"
    },
    {
      "inputs": [],
      "name": "LocalBoD",
      "outputs": [
        {
          "internalType": "contract ILocalBoD",
          "name": "",
          "type": "address"
        }
      ],
      "stateMutability": "view",
      "type": "function"
    },
    {
      "inputs": [
        {
          "internalType": "string",
          "name": "",
          "type": "string"
        }
      ],
      "name": "PayedMap",
      "outputs": [
        {
          "internalType": "uint256",
          "name": "",
          "type": "uint256"
        }
      ],
      "stateMutability": "view",
      "type": "function"
    },
    {
      "inputs": [
        {
          "internalType": "string",
          "name": "",
          "type": "string"
        }
      ],
      "name": "QueueMap",
      "outputs": [
        {
          "internalType": "uint256",
          "name": "",
          "type": "uint256"
        }
      ],
      "stateMutability": "view",
      "type": "function"
    },
    {
      "inputs": [
        {
          "internalType": "uint256",
          "name": "",
          "type": "uint256"
        }
      ],
      "name": "TokensInVault",
      "outputs": [
        {
          "internalType": "string",
          "name": "",
          "type": "string"
        }
      ],
      "stateMutability": "view",
      "type": "function"
    },
    {
      "inputs": [
        {
          "internalType": "string",
          "name": "",
          "type": "string"
        }
      ],
      "name": "VaultMap",
      "outputs": [
        {
          "internalType": "bool",
          "name": "tokenAccepted",
          "type": "bool"
        },
        {
          "internalType": "string",
          "name": "tokenName",
          "type": "string"
        },
        {
          "internalType": "address",
          "name": "tokenAddress",
          "type": "address"
        },
        {
          "internalType": "uint256",
          "name": "arrayId",
          "type": "uint256"
        },
        {
          "internalType": "uint256",
          "name": "amount",
          "type": "uint256"
        },
        {
          "internalType": "bool",
          "name": "isErc20",
          "type": "bool"
        },
        {
          "internalType": "uint256",
          "name": "tokenId",
          "type": "uint256"
        }
      ],
      "stateMutability": "view",
      "type": "function"
    },
    {
      "inputs": [],
      "name": "actionsCounter",
      "outputs": [
        {
          "internalType": "uint256",
          "name": "",
          "type": "uint256"
        }
      ],
      "stateMutability": "view",
      "type": "function"
    },
    {
      "inputs": [
        {
          "internalType": "uint256",
          "name": "",
          "type": "uint256"
        }
      ],
      "name": "actionsMapping",
      "outputs": [
        {
          "internalType": "string",
          "name": "ipfsLink",
          "type": "string"
        },
        {
          "internalType": "address",
          "name": "submitter",
          "type": "address"
        },
        {
          "internalType": "address",
          "name": "target",
          "type": "address"
        },
        {
          "internalType": "bytes",
          "name": "data",
          "type": "bytes"
        },
        {
          "internalType": "bool",
          "name": "active",
          "type": "bool"
        },
        {
          "internalType": "uint256",
          "name": "approvalCount",
          "type": "uint256"
        },
        {
          "internalType": "uint256",
          "name": "deniedCount",
          "type": "uint256"
        },
        {
          "internalType": "uint256",
          "name": "autoDelete",
          "type": "uint256"
        },
        {
          "internalType": "uint256",
          "name": "actionId",
          "type": "uint256"
        },
        {
          "internalType": "uint256",
          "name": "arrayId",
          "type": "uint256"
        },
        {
          "internalType": "enum GuildBankBoDTreasury.actionStatus",
          "name": "Status",
          "type": "uint8"
        },
        {
          "internalType": "bool",
          "name": "isTx",
          "type": "bool"
        }
      ],
      "stateMutability": "view",
      "type": "function"
    },
    {
      "inputs": [
        {
          "internalType": "uint256",
          "name": "",
          "type": "uint256"
        }
      ],
      "name": "activeActionsQueue",
      "outputs": [
        {
          "internalType": "uint256",
          "name": "",
          "type": "uint256"
        }
      ],
      "stateMutability": "view",
      "type": "function"
    },
    {
      "inputs": [
        {
          "internalType": "string",
          "name": "_tokenName",
          "type": "string"
        },
        {
          "internalType": "address",
          "name": "_TokenAddress",
          "type": "address"
        },
        {
          "internalType": "bool",
          "name": "_isErc20",
          "type": "bool"
        },
        {
          "internalType": "uint256",
          "name": "_id",
          "type": "uint256"
        }
      ],
      "name": "addTokenTreasury",
      "outputs": [],
      "stateMutability": "nonpayable",
      "type": "function"
    },
    {
      "inputs": [
        {
          "internalType": "uint256",
          "name": "_ActionId",
          "type": "uint256"
        }
      ],
      "name": "approveAction",
      "outputs": [],
      "stateMutability": "nonpayable",
      "type": "function"
    },
    {
      "inputs": [
        {
          "internalType": "uint256",
          "name": "",
          "type": "uint256"
        }
      ],
      "name": "approvedActions",
      "outputs": [
        {
          "internalType": "bool",
          "name": "",
          "type": "bool"
        }
      ],
      "stateMutability": "view",
      "type": "function"
    },
    {
      "inputs": [
        {
          "internalType": "uint256",
          "name": "_ActionId",
          "type": "uint256"
        }
      ],
      "name": "denyAction",
      "outputs": [],
      "stateMutability": "nonpayable",
      "type": "function"
    },
    {
      "inputs": [
        {
          "internalType": "uint256",
          "name": "_ActionId",
          "type": "uint256"
        },
        {
          "internalType": "bytes",
          "name": "_data",
          "type": "bytes"
        }
      ],
      "name": "executeAction",
      "outputs": [],
      "stateMutability": "nonpayable",
      "type": "function"
    },
    {
      "inputs": [
        {
          "internalType": "uint256",
          "name": "_id",
          "type": "uint256"
        }
      ],
      "name": "getActionAmount",
      "outputs": [
        {
          "internalType": "uint256[]",
          "name": "",
          "type": "uint256[]"
        }
      ],
      "stateMutability": "view",
      "type": "function"
    },
    {
      "inputs": [
        {
          "internalType": "uint256",
          "name": "_id",
          "type": "uint256"
        }
      ],
      "name": "getActionTokenNames",
      "outputs": [
        {
          "internalType": "string[]",
          "name": "",
          "type": "string[]"
        }
      ],
      "stateMutability": "view",
      "type": "function"
    },
    {
      "inputs": [
        {
          "internalType": "address",
          "name": "",
          "type": "address"
        },
        {
          "internalType": "address",
          "name": "",
          "type": "address"
        },
        {
          "internalType": "uint256[]",
          "name": "",
          "type": "uint256[]"
        },
        {
          "internalType": "uint256[]",
          "name": "",
          "type": "uint256[]"
        },
        {
          "internalType": "bytes",
          "name": "",
          "type": "bytes"
        }
      ],
      "name": "onERC1155BatchReceived",
      "outputs": [
        {
          "internalType": "bytes4",
          "name": "",
          "type": "bytes4"
        }
      ],
      "stateMutability": "nonpayable",
      "type": "function"
    },
    {
      "inputs": [
        {
          "internalType": "address",
          "name": "",
          "type": "address"
        },
        {
          "internalType": "address",
          "name": "",
          "type": "address"
        },
        {
          "internalType": "uint256",
          "name": "",
          "type": "uint256"
        },
        {
          "internalType": "uint256",
          "name": "",
          "type": "uint256"
        },
        {
          "internalType": "bytes",
          "name": "",
          "type": "bytes"
        }
      ],
      "name": "onERC1155Received",
      "outputs": [
        {
          "internalType": "bytes4",
          "name": "",
          "type": "bytes4"
        }
      ],
      "stateMutability": "nonpayable",
      "type": "function"
    },
    {
      "inputs": [],
      "name": "owner",
      "outputs": [
        {
          "internalType": "address",
          "name": "",
          "type": "address"
        }
      ],
      "stateMutability": "view",
      "type": "function"
    },
    {
      "inputs": [
        {
          "internalType": "string",
          "name": "_tokenName",
          "type": "string"
        }
      ],
      "name": "removeTokenTreasury",
      "outputs": [],
      "stateMutability": "nonpayable",
      "type": "function"
    },
    {
      "inputs": [],
      "name": "renounceOwnership",
      "outputs": [],
      "stateMutability": "nonpayable",
      "type": "function"
    },
    {
      "inputs": [],
      "name": "showActionOnQueueArray",
      "outputs": [
        {
          "internalType": "uint256[]",
          "name": "",
          "type": "uint256[]"
        }
      ],
      "stateMutability": "view",
      "type": "function"
    },
    {
      "inputs": [
        {
          "internalType": "string",
          "name": "_name",
          "type": "string"
        }
      ],
      "name": "showTokenAddress",
      "outputs": [
        {
          "internalType": "address",
          "name": "",
          "type": "address"
        }
      ],
      "stateMutability": "view",
      "type": "function"
    },
    {
      "inputs": [
        {
          "internalType": "string",
          "name": "_name",
          "type": "string"
        }
      ],
      "name": "showTokenAmount",
      "outputs": [
        {
          "internalType": "uint256",
          "name": "",
          "type": "uint256"
        }
      ],
      "stateMutability": "view",
      "type": "function"
    },
    {
      "inputs": [
        {
          "internalType": "string",
          "name": "_name",
          "type": "string"
        }
      ],
      "name": "showTokenId",
      "outputs": [
        {
          "internalType": "uint256",
          "name": "",
          "type": "uint256"
        }
      ],
      "stateMutability": "view",
      "type": "function"
    },
    {
      "inputs": [
        {
          "internalType": "string",
          "name": "_name",
          "type": "string"
        }
      ],
      "name": "showTokenIsERC20",
      "outputs": [
        {
          "internalType": "bool",
          "name": "",
          "type": "bool"
        }
      ],
      "stateMutability": "view",
      "type": "function"
    },
    {
      "inputs": [],
      "name": "showTreasuryArray",
      "outputs": [
        {
          "internalType": "string[]",
          "name": "",
          "type": "string[]"
        }
      ],
      "stateMutability": "view",
      "type": "function"
    },
    {
      "inputs": [
        {
          "internalType": "address",
          "name": "_target",
          "type": "address"
        },
        {
          "internalType": "bytes",
          "name": "_data",
          "type": "bytes"
        },
        {
          "internalType": "string",
          "name": "_ipfsLink",
          "type": "string"
        },
        {
          "internalType": "bool",
          "name": "_Tx",
          "type": "bool"
        },
        {
          "internalType": "string[]",
          "name": "_tokenName",
          "type": "string[]"
        },
        {
          "internalType": "uint256[]",
          "name": "_tokenAmount",
          "type": "uint256[]"
        }
      ],
      "name": "submitAction",
      "outputs": [],
      "stateMutability": "nonpayable",
      "type": "function"
    },
    {
      "inputs": [
        {
          "internalType": "bytes4",
          "name": "interfaceId",
          "type": "bytes4"
        }
      ],
      "name": "supportsInterface",
      "outputs": [
        {
          "internalType": "bool",
          "name": "",
          "type": "bool"
        }
      ],
      "stateMutability": "view",
      "type": "function"
    },
    {
      "inputs": [
        {
          "internalType": "address",
          "name": "newOwner",
          "type": "address"
        }
      ],
      "name": "transferOwnership",
      "outputs": [],
      "stateMutability": "nonpayable",
      "type": "function"
    },
    {
      "inputs": [
        {
          "internalType": "string",
          "name": "_tokenName",
          "type": "string"
        }
      ],
      "name": "updateBalance",
      "outputs": [],
      "stateMutability": "nonpayable",
      "type": "function"
    }
  ],
  "bytecode": "0x60806040523480156200001157600080fd5b5060405162003a4a38038062003a4a833981016040819052620000349162000108565b816001600160a01b0381166200006457604051631e4fbdf760e01b81526000600482015260240160405180910390fd5b6200006f816200009b565b5060018055600280546001600160a01b0319166001600160a01b03929092169190911790555062000140565b600080546001600160a01b038381166001600160a01b0319831681178455604051919092169283917f8be0079c531659141344cd1fd0a4f28419497f9722a3daafe3b4186f6b6457e09190a35050565b80516001600160a01b03811681146200010357600080fd5b919050565b600080604083850312156200011c57600080fd5b6200012783620000eb565b91506200013760208401620000eb565b90509250929050565b6138fa80620001506000396000f3fe608060405234801561001057600080fd5b50600436106101b05760003560e01c8063711d790c116100ef5780639d45e4ba116100925780639d45e4ba14610423578063bc197c8114610449578063c8c2005014610481578063dc0842171461048a578063f23a6e61146104b8578063f2fde38b146104d7578063f3711f9b146104ea578063f40ad131146104fd57600080fd5b8063711d790c14610373578063715018a61461038657806374f497291461038e5780637c3cd858146103a15780638342bba1146103b45780638da5cb5b146103bc5780638f62fcf5146103cd578063939b669b146103f857600080fd5b80633f8a46ee116101575780633f8a46ee146102b457806344965f33146102c757806349c2e33d146102e75780634dcdfc46146102fa578063507680571461030d57806355150c1614610320578063584a72f114610333578063607169151461035e57600080fd5b806301ffc9a7146101b55780630628bf01146101dd57806315708ba8146102165780631a7333bd1461022957806320dff9cd1461023c5780632277b8ad1461025c5780632d97ad19146102715780633ef2c61b14610294575b600080fd5b6101c86101c3366004612b79565b610510565b60405190151581526020015b60405180910390f35b6102086101eb366004612c5f565b805160208183018101805160068252928201919093012091525481565b6040519081526020016101d4565b610208610224366004612c5f565b610547565b610208610237366004612c9b565b610572565b60025461024f906001600160a01b031681565b6040516101d49190612cb4565b61026f61026a366004612d06565b610593565b005b6101c861027f366004612c9b565b600a6020526000908152604090205460ff1681565b6102a76102a2366004612c9b565b6107ae565b6040516101d49190612dbf565b61026f6102c2366004612c9b565b61085a565b6102da6102d5366004612c9b565b610be9565b6040516101d49190612dd2565b61026f6102f5366004612c5f565b610c4e565b61026f610308366004612c9b565b610e6f565b6101c861031b366004612c5f565b61126f565b61026f61032e366004612e16565b61129d565b610346610341366004612c9b565b611602565b6040516101d49c9b9a99989796959493929190612ea7565b610366611789565b6040516101d49190612f55565b610366610381366004612c9b565b611862565b61026f611951565b61020861039c366004612c5f565b611965565b61024f6103af366004612c5f565b611990565b6102da6119c4565b6000546001600160a01b031661024f565b6102086103db366004612fb9565b600760209081526000928352604080842090915290825290205481565b610208610406366004612c5f565b805160208183018101805160058252928201919093012091525481565b610436610431366004612c5f565b611a1c565b6040516101d49796959493929190612fe9565b6104686104573660046130cb565b63bc197c8160e01b95945050505050565b6040516001600160e01b031990911681526020016101d4565b610208600b5481565b6101c8610498366004612fb9565b600c60209081526000928352604080842090915290825290205460ff1681565b6104686104c6366004613178565b63f23a6e6160e01b95945050505050565b61026f6104e53660046131e0565b611afd565b61026f6104f8366004612c5f565b611b3b565b61026f61050b36600461327c565b611da8565b60006001600160e01b03198216630271189760e51b148061054157506301ffc9a760e01b6001600160e01b03198316145b92915050565b60006004826040516105599190613348565b9081526020016040518091039020600601549050919050565b6008818154811061058257600080fd5b600091825260209091200154905081565b33301461059f57600080fd5b6004846040516105af9190613348565b9081526040519081900360200190205460ff16156105cc57600080fd5b60016004856040516105de9190613348565b908152604051908190036020018120805492151560ff1990931692909217909155849060049061060f908390613348565b9081526020016040518091039020600101908161062c9190613403565b508260048560405161063e9190613348565b908152602001604051809103902060020160006101000a8154816001600160a01b0302191690836001600160a01b03160217905550816004856040516106849190613348565b908152604051908190036020018120600501805492151560ff19909316929092179091556000906004906106b9908790613348565b90815260405190819003602001812060049081019290925560035491906106e1908790613348565b908152602001604051809103902060030181905550806004856040516107079190613348565b90815260405190819003602001902060060155600380546001810182556000919091527fc2575a0e9e593c00f959f8c92f12db2869c3395a3b0502d05e2516446f71f85b016107568582613403565b507f99b97d4a0eb6cfb2497a5a316c24c15d99c6d97c0544bc04cc99eb7472de1b2f6004856040516107889190613348565b9081526040519081900360200181206107a091613539565b60405180910390a150505050565b600381815481106107be57600080fd5b9060005260206000200160009150905080546107d990613364565b80601f016020809104026020016040519081016040528092919081815260200182805461080590613364565b80156108525780601f1061082757610100808354040283529160200191610852565b820191906000526020600020905b81548152906001019060200180831161083557829003601f168201915b505050505081565b600254604051636950e29360e11b81526001600160a01b039091169063d2a1c5269061088a903390600401612cb4565b602060405180830381865afa1580156108a7573d6000803e3d6000fd5b505050506040513d601f19601f820116820180604052508101906108cb91906135b2565b6108d457600080fd5b600081815260096020526040902060040154819060ff166108f457600080fd5b600082815260096020526040902060070154421115610a85576000828152600960205260409020600a0154610100900460ff1615610a7857610a7860096000848152602001908152602001600020600b01805480602002602001604051908101604052809291908181526020016000905b82821015610a1157838290600052602060002001805461098490613364565b80601f01602080910402602001604051908101604052809291908181526020018280546109b090613364565b80156109fd5780601f106109d2576101008083540402835291602001916109fd565b820191906000526020600020905b8154815290600101906020018083116109e057829003601f168201915b505050505081526020019060010190610965565b505050600085815260096020908152604091829020600c0180548351818402810184019094528084529293509190830182828015610a6e57602002820191906000526020600020905b815481526020019060010190808311610a5a575b5050505050612067565b610a818261214a565b5050565b6000828152600c6020908152604080832033845290915290205460ff1615610aac57600080fd5b60008281526007602090815260408083203380855290835281842054868552600c8452828520918552908352818420805460ff1916600117905585845260099092528220600501805491928392610b049084906135e5565b92505081905550827fa1ffa6ec870b7e618366d3be6f6cdfa973171cb5448298150bb33a9853d0a68a33604051610b3b9190612cb4565b60405180910390a260008381526009602052604090206005908101549003610b87576000838152600960205260408120600701805462093a809290610b819084906135e5565b90915550505b600083815260096020526040902060050154600c11610be457600083815260096020526040808220600a01805460ff191660011790555184917fa7531d34cfb2f4ea6a31e170ca8763ac234cd4e29879b3357f92b122e282041091a25b505050565b600081815260096020908152604091829020600c01805483518184028101840190945280845260609392830182828015610c4257602002820191906000526020600020905b815481526020019060010190808311610c2e575b50505050509050919050565b333014610c5a57600080fd5b600481604051610c6a9190613348565b9081526040519081900360200190205460ff16610c8657600080fd5b600481604051610c969190613348565b908152602001604051809103902060030154600460036001600380549050610cbe91906135f8565b81548110610cce57610cce61360b565b90600052602060002001604051610ce59190613694565b908152602001604051809103902060030181905550600460036001600380549050610d1091906135f8565b81548110610d2057610d2061360b565b90600052602060002001604051610d379190613694565b90815260200160405180910390206001016003600483604051610d5a9190613348565b90815260200160405180910390206003015481548110610d7c57610d7c61360b565b906000526020600020019081610d9291906136a0565b506003805480610da457610da4613774565b600190038181906000526020600020016000610dc09190612a74565b90556000600482604051610dd49190613348565b908152604051908190036020018120805492151560ff1990931692909217909155600090600490610e06908490613348565b9081526020016040518091039020600301819055507f277fde5c4af7925e965b59c27b57949e855e9aaf65a47d9d550203c4ac0da9e5600482604051610e4c9190613348565b908152604051908190036020018120610e6491613539565b60405180910390a150565b600254604051636950e29360e11b81526001600160a01b039091169063d2a1c52690610e9f903390600401612cb4565b602060405180830381865afa158015610ebc573d6000803e3d6000fd5b505050506040513d601f19601f82011682018060405250810190610ee091906135b2565b610ee957600080fd5b600081815260096020526040902060040154819060ff16610f0957600080fd5b600082815260096020526040902060070154421115611026576000828152600960205260409020600a0154610100900460ff1615610a7857610a7860096000848152602001908152602001600020600b01805480602002602001604051908101604052809291908181526020016000905b82821015610a11578382906000526020600020018054610f9990613364565b80601f0160208091040260200160405190810160405280929190818152602001828054610fc590613364565b80156110125780601f10610fe757610100808354040283529160200191611012565b820191906000526020600020905b815481529060010190602001808311610ff557829003601f168201915b505050505081526020019060010190610f7a565b6000828152600c6020908152604080832033845290915290205460ff161561104d57600080fd5b60008281526007602090815260408083203380855290835281842054868552600c8452828520918552908352818420805460ff19166001179055858452600990925282206006018054919283926110a59084906135e5565b92505081905550827f5e73646d5c7ee511a6521dcfadc0e2575dfcc99f9c6477747be053cf5d65dfee336040516110dc9190612cb4565b60405180910390a2600083815260096020526040902060060154600711610be4576000838152600960205260409020600a0154610100900460ff16156112665761126660096000858152602001908152602001600020600b01805480602002602001604051908101604052809291908181526020016000905b8282101561120157838290600052602060002001805461117490613364565b80601f01602080910402602001604051908101604052809291908181526020018280546111a090613364565b80156111ed5780601f106111c2576101008083540402835291602001916111ed565b820191906000526020600020905b8154815290600101906020018083116111d057829003601f168201915b505050505081526020019060010190611155565b505050600086815260096020908152604091829020600c0180548351818402810184019094528084529293509190830182828015610a6e5760200282019190600052602060002090815481526020019060010190808311610a5a575050505050612067565b610be48361214a565b60006004826040516112819190613348565b9081526040519081900360200190206005015460ff1692915050565b600254604051636950e29360e11b81526001600160a01b039091169063d2a1c526906112cd903390600401612cb4565b602060405180830381865afa1580156112ea573d6000803e3d6000fd5b505050506040513d601f19601f8201168201806040525081019061130e91906135b2565b61131757600080fd5b61131f6122c7565b600083815260096020526040902060040154839060ff1661133f57600080fd5b60016000858152600960205260409020600a015460ff16600381111561136757611367612e91565b1461137157600080fd5b6000848152600960205260409020600a0154610100900460ff16156114ec5761139b8484846122f1565b6114e760096000868152602001908152602001600020600b01805480602002602001604051908101604052809291908181526020016000905b828210156114805783829060005260206000200180546113f390613364565b80601f016020809104026020016040519081016040528092919081815260200182805461141f90613364565b801561146c5780601f106114415761010080835404028352916020019161146c565b820191906000526020600020905b81548152906001019060200180831161144f57829003601f168201915b5050505050815260200190600101906113d4565b505050600087815260096020908152604091829020600c01805483518184028101840190945280845292935091908301828280156114dd57602002820191906000526020600020905b8154815260200190600101908083116114c9575b50505050506125e7565b6115b5565b600084815260096020526040808220600281015491516001600160a01b039092169161151b9160030190613694565b6000604051808303816000865af19150503d8060008114611558576040519150601f19603f3d011682016040523d82523d6000602084013e61155d565b606091505b50509050806115b35760405162461bcd60e51b815260206004820152601a60248201527f457865637574696f6e206f6620616374696f6e206661696c656400000000000060448201526064015b60405180910390fd5b505b6115be846126c7565b837f18ee8fe11996b82f23b6378caf349ccacedcc06ddc74f9d7e2d1fe621b1b2ec1426040516115f091815260200190565b60405180910390a250610be460018055565b60096020526000908152604090208054819061161d90613364565b80601f016020809104026020016040519081016040528092919081815260200182805461164990613364565b80156116965780601f1061166b57610100808354040283529160200191611696565b820191906000526020600020905b81548152906001019060200180831161167957829003601f168201915b5050506001840154600285015460038601805495966001600160a01b03938416969290931694509192506116c990613364565b80601f01602080910402602001604051908101604052809291908181526020018280546116f590613364565b80156117425780601f1061171757610100808354040283529160200191611742565b820191906000526020600020905b81548152906001019060200180831161172557829003601f168201915b505050600484015460058501546006860154600787015460088801546009890154600a90990154979860ff958616989497509295509093909280821691610100909104168c565b60606003805480602002602001604051908101604052809291908181526020016000905b828210156118595783829060005260206000200180546117cc90613364565b80601f01602080910402602001604051908101604052809291908181526020018280546117f890613364565b80156118455780601f1061181a57610100808354040283529160200191611845565b820191906000526020600020905b81548152906001019060200180831161182857829003601f168201915b5050505050815260200190600101906117ad565b50505050905090565b606060096000838152602001908152602001600020600b01805480602002602001604051908101604052809291908181526020016000905b828210156119465783829060005260206000200180546118b990613364565b80601f01602080910402602001604051908101604052809291908181526020018280546118e590613364565b80156119325780601f1061190757610100808354040283529160200191611932565b820191906000526020600020905b81548152906001019060200180831161191557829003601f168201915b50505050508152602001906001019061189a565b505050509050919050565b611959612723565b6119636000612750565b565b60006004826040516119779190613348565b9081526020016040518091039020600401549050919050565b60006004826040516119a29190613348565b908152604051908190036020019020600201546001600160a01b031692915050565b60606008805480602002602001604051908101604052809291908181526020018280548015611a1257602002820191906000526020600020905b8154815260200190600101908083116119fe575b5050505050905090565b80516020818301810180516004825292820191909301209152805460018201805460ff9092169291611a4d90613364565b80601f0160208091040260200160405190810160405280929190818152602001828054611a7990613364565b8015611ac65780601f10611a9b57610100808354040283529160200191611ac6565b820191906000526020600020905b815481529060010190602001808311611aa957829003601f168201915b50505050600283015460038401546004850154600586015460069096015494956001600160a01b03909316949193509160ff169087565b611b05612723565b6001600160a01b038116611b2f576000604051631e4fbdf760e01b81526004016115aa9190612cb4565b611b3881612750565b50565b600481604051611b4b9190613348565b9081526040519081900360200190205460ff16611b6757600080fd5b6000600482604051611b799190613348565b9081526040519081900360200190206005015460ff1690508015611c7f576000600483604051611ba99190613348565b908152604051908190036020018120600201546001600160a01b03169150600590611bd5908590613348565b908152604051908190036020018120546370a0823160e01b8252906001600160a01b038316906370a0823190611c0f903090600401612cb4565b602060405180830381865afa158015611c2c573d6000803e3d6000fd5b505050506040513d601f19601f82011682018060405250810190611c50919061378a565b611c5a91906135f8565b600484604051611c6a9190613348565b90815260405190819003602001902060040155505b80610a81576000600483604051611c969190613348565b908152604051908190036020018120600201546001600160a01b03169150600590611cc2908590613348565b908152602001604051809103902054816001600160a01b031662fdd58e30600487604051611cf09190613348565b908152604051908190036020018120600601546001600160e01b031960e085901b168252611d3592916004016001600160a01b03929092168252602082015260400190565b602060405180830381865afa158015611d52573d6000803e3d6000fd5b505050506040513d601f19601f82011682018060405250810190611d76919061378a565b611d8091906135f8565b600484604051611d909190613348565b90815260405190819003602001902060040155505050565b600254604051636950e29360e11b81526001600160a01b039091169063d2a1c52690611dd8903390600401612cb4565b602060405180830381865afa158015611df5573d6000803e3d6000fd5b505050506040513d601f19601f82011682018060405250810190611e1991906135b2565b611e2257600080fd5b821515600103611e3f57611e3682826127a0565b611e3f57600080fd5b600b546000908152600960205260409020611e5a8582613403565b50600b80546000908152600960205260408082206001018054336001600160a01b0319918216179091558354835281832060020180549091166001600160a01b038b161790559154815220600301611eb28682613403565b50600b8054600090815260096020526040808220600401805460ff19166001179055825482528082206005018290559154815290812060060155611ef94262093a806135e5565b600b80546000908152600960208190526040808320600701949094558254808352848320600880820192909255905491015581548152828120600a908101805460ff19169055915481529190912001805461ff00191661010085151590810291909117909155600103611fc257600b805460009081526009602090815260409091208451611f8e939190910191850190612aae565b50600b5460009081526009602090815260409091208251611fb792600c90920191840190612b04565b50611fc282826128b0565b600b54600880546001810182556000919091527ff3f7a9fe364faab93b216da50a3214154f22a0a2b415b23a84c8169e8b636ee30181905561200390612993565b336001600160a01b03167f9438764f7529de58f578752802cfb4d650293dd633d85183a875e038b6a0ae728542600b54604051612042939291906137a3565b60405180910390a2600b805490600061205a836137c8565b9190505550505050505050565b60005b8251811015610be4578181815181106120855761208561360b565b602002602001015160048483815181106120a1576120a161360b565b60200260200101516040516120b69190613348565b908152602001604051809103902060040160008282546120d691906135e5565b925050819055508181815181106120ef576120ef61360b565b6020026020010151600584838151811061210b5761210b61360b565b60200260200101516040516121209190613348565b9081526020016040518091039020600082825461213d91906135f8565b909155505060010161206a565b6000818152600960209081526040808320600a808201805460ff199081166002179091556004909201805483169055909252909120805490911690556008546001036121bc5760088054806121a1576121a1613774565b60019003818190600052602060002001600090559055612299565b60008181526009602081905260408220810154600880549193916121e2906001906135f8565b815481106121f2576121f261360b565b6000918252602080832090910154835282019290925260400190206009015560088054612221906001906135f8565b815481106122315761223161360b565b906000526020600020015460086009600084815260200190815260200160002060090154815481106122655761226561360b565b600091825260209091200155600880548061228257612282613774565b600190038181906000526020600020016000905590555b60405181907f302f6ea18d9080042e30bdfe89751b59c20fb966c081c393a8dede3ea8ecac2690600090a250565b6002600154036122ea57604051633ee5aeb560e01b815260040160405180910390fd5b6002600155565b60005b6000848152600960205260409020600b01548110156125e1576000848152600960205260408120600b01805460049190849081106123345761233461360b565b9060005260206000200160405161234b9190613694565b9081526040519081900360200190206005015460ff1690508015612485576000858152600960205260408120600b01805460049190859081106123905761239061360b565b906000526020600020016040516123a79190613694565b908152604080516020928190038301902060029081015460008a815260099094529190922091820154600c90920180546001600160a01b039283169450849363a9059cbb93169190879081106123ff576123ff61360b565b6000918252602090912001546040516001600160e01b031960e085901b1681526001600160a01b03909216600483015260248201526044016020604051808303816000875af1158015612456573d6000803e3d6000fd5b505050506040513d601f19601f8201168201806040525081019061247a91906135b2565b61248357600080fd5b505b806125d8576000858152600960205260408120600b01805460049190859081106124b1576124b161360b565b906000526020600020016040516124c89190613694565b908152604080516020928190038301902060029081015460008a815260099094529190922091820154600b90920180546001600160a01b039283169450849363f242432a93309391169160049190899081106125265761252661360b565b9060005260206000200160405161253d9190613694565b908152602001604051809103902060060154600960008c8152602001908152602001600020600c0188815481106125765761257661360b565b90600052602060002001548a8a6040518763ffffffff1660e01b81526004016125a4969594939291906137e1565b600060405180830381600087803b1580156125be57600080fd5b505af11580156125d2573d6000803e3d6000fd5b50505050505b506001016122f4565b50505050565b60005b8251811015610be4578181815181106126055761260561360b565b602002602001015160068483815181106126215761262161360b565b60200260200101516040516126369190613348565b9081526020016040518091039020600082825461265391906135e5565b9250508190555081818151811061266c5761266c61360b565b602002602001015160058483815181106126885761268861360b565b602002602001015160405161269d9190613348565b908152602001604051809103902060008282546126ba91906135f8565b90915550506001016125ea565b6000818152600960209081526040808320600a808201805460ff1990811660031790915560049092018054831690559092529091208054909116600190811790915560085490036121bc5760088054806121a1576121a1613774565b6000546001600160a01b03163314611963573360405163118cdaa760e01b81526004016115aa9190612cb4565b600080546001600160a01b038381166001600160a01b0319831681178455604051919092169283917f8be0079c531659141344cd1fd0a4f28419497f9722a3daafe3b4186f6b6457e09190a35050565b600081518351146127b057600080fd5b60005b83518110156128a65760048482815181106127d0576127d061360b565b60200260200101516040516127e59190613348565b9081526040519081900360200190205460ff166128395760405162461bcd60e51b81526020600482015260126024820152711d1bdad95b881b9bdd081858d8d95c1d195960721b60448201526064016115aa565b82818151811061284b5761284b61360b565b602002602001015160048583815181106128675761286761360b565b602002602001015160405161287c9190613348565b908152602001604051809103902060040154101561289e576000915050610541565b6001016127b3565b5060019392505050565b60005b8251811015610be4578181815181106128ce576128ce61360b565b602002602001015160048483815181106128ea576128ea61360b565b60200260200101516040516128ff9190613348565b9081526020016040518091039020600401600082825461291f91906135f8565b925050819055508181815181106129385761293861360b565b602002602001015160058483815181106129545761295461360b565b60200260200101516040516129699190613348565b9081526020016040518091039020600082825461298691906135e5565b90915550506001016128b3565b60025460408051637a505c0f60e01b815290516000926001600160a01b031691637a505c0f916004808301926102009291908290030181865afa1580156129de573d6000803e3d6000fd5b505050506040513d601f19601f82011682018060405250810190612a02919061383d565b905060005b6010811015610be4576000838152600760205260408120600191848460108110612a3357612a3361360b565b60200201516001600160a01b03166001600160a01b031681526020019081526020016000206000828254612a6791906135e5565b9091555050600101612a07565b508054612a8090613364565b6000825580601f10612a90575050565b601f016020900490600052602060002090810190611b389190612b47565b828054828255906000526020600020908101928215612af4579160200282015b82811115612af45782518290612ae49082613403565b5091602001919060010190612ace565b50612b00929150612b5c565b5090565b828054828255906000526020600020908101928215612b3f579160200282015b82811115612b3f578251825591602001919060010190612b24565b50612b009291505b5b80821115612b005760008155600101612b48565b80821115612b00576000612b708282612a74565b50600101612b5c565b600060208284031215612b8b57600080fd5b81356001600160e01b031981168114612ba357600080fd5b9392505050565b634e487b7160e01b600052604160045260246000fd5b604051601f8201601f191681016001600160401b0381118282101715612be857612be8612baa565b604052919050565b600082601f830112612c0157600080fd5b81356001600160401b03811115612c1a57612c1a612baa565b612c2d601f8201601f1916602001612bc0565b818152846020838601011115612c4257600080fd5b816020850160208301376000918101602001919091529392505050565b600060208284031215612c7157600080fd5b81356001600160401b03811115612c8757600080fd5b612c9384828501612bf0565b949350505050565b600060208284031215612cad57600080fd5b5035919050565b6001600160a01b0391909116815260200190565b6001600160a01b0381168114611b3857600080fd5b8035612ce881612cc8565b919050565b8015158114611b3857600080fd5b8035612ce881612ced565b60008060008060808587031215612d1c57600080fd5b84356001600160401b03811115612d3257600080fd5b612d3e87828801612bf0565b9450506020850135612d4f81612cc8565b92506040850135612d5f81612ced565b9396929550929360600135925050565b60005b83811015612d8a578181015183820152602001612d72565b50506000910152565b60008151808452612dab816020860160208601612d6f565b601f01601f19169290920160200192915050565b602081526000612ba36020830184612d93565b6020808252825182820181905260009190848201906040850190845b81811015612e0a57835183529284019291840191600101612dee565b50909695505050505050565b600080600060408486031215612e2b57600080fd5b8335925060208401356001600160401b0380821115612e4957600080fd5b818601915086601f830112612e5d57600080fd5b813581811115612e6c57600080fd5b876020828501011115612e7e57600080fd5b6020830194508093505050509250925092565b634e487b7160e01b600052602160045260246000fd5b61018081526000612ebc61018083018f612d93565b6001600160a01b038e811660208501528d1660408401528281036060840152612ee5818d612d93565b91505089151560808301528860a08301528760c08301528660e0830152856101008301528461012083015260048410612f2e57634e487b7160e01b600052602160045260246000fd5b83610140830152612f4461016083018415159052565b9d9c50505050505050505050505050565b600060208083016020845280855180835260408601915060408160051b87010192506020870160005b82811015612fac57603f19888603018452612f9a858351612d93565b94509285019290850190600101612f7e565b5092979650505050505050565b60008060408385031215612fcc57600080fd5b823591506020830135612fde81612cc8565b809150509250929050565b871515815260e06020820152600061300460e0830189612d93565b6001600160a01b039790971660408301525060608101949094526080840192909252151560a083015260c09091015292915050565b60006001600160401b0382111561305257613052612baa565b5060051b60200190565b600082601f83011261306d57600080fd5b8135602061308261307d83613039565b612bc0565b8083825260208201915060208460051b8701019350868411156130a457600080fd5b602086015b848110156130c057803583529183019183016130a9565b509695505050505050565b600080600080600060a086880312156130e357600080fd5b85356130ee81612cc8565b945060208601356130fe81612cc8565b935060408601356001600160401b038082111561311a57600080fd5b61312689838a0161305c565b9450606088013591508082111561313c57600080fd5b61314889838a0161305c565b9350608088013591508082111561315e57600080fd5b5061316b88828901612bf0565b9150509295509295909350565b600080600080600060a0868803121561319057600080fd5b853561319b81612cc8565b945060208601356131ab81612cc8565b9350604086013592506060860135915060808601356001600160401b038111156131d457600080fd5b61316b88828901612bf0565b6000602082840312156131f257600080fd5b8135612ba381612cc8565b600082601f83011261320e57600080fd5b8135602061321e61307d83613039565b82815260059290921b8401810191818101908684111561323d57600080fd5b8286015b848110156130c05780356001600160401b038111156132605760008081fd5b61326e8986838b0101612bf0565b845250918301918301613241565b60008060008060008060c0878903121561329557600080fd5b61329e87612cdd565b955060208701356001600160401b03808211156132ba57600080fd5b6132c68a838b01612bf0565b965060408901359150808211156132dc57600080fd5b6132e88a838b01612bf0565b95506132f660608a01612cfb565b9450608089013591508082111561330c57600080fd5b6133188a838b016131fd565b935060a089013591508082111561332e57600080fd5b5061333b89828a0161305c565b9150509295509295509295565b6000825161335a818460208701612d6f565b9190910192915050565b600181811c9082168061337857607f821691505b60208210810361339857634e487b7160e01b600052602260045260246000fd5b50919050565b601f821115610be4576000816000526020600020601f850160051c810160208610156133c75750805b601f850160051c820191505b818110156133e6578281556001016133d3565b505050505050565b600019600383901b1c191660019190911b1790565b81516001600160401b0381111561341c5761341c612baa565b6134308161342a8454613364565b8461339e565b602080601f83116001811461345f576000841561344d5750858301515b61345785826133ee565b8655506133e6565b600085815260208120601f198616915b8281101561348e5788860151825594840194600190910190840161346f565b50858210156134ac5787850151600019600388901b60f8161c191681555b5050505050600190811b01905550565b600081546134c981613364565b8085526020600183811680156134e657600181146135005761352e565b60ff1985168884015283151560051b88018301955061352e565b866000528260002060005b858110156135265781548a820186015290830190840161350b565b890184019650505b505050505092915050565b6020815261354f6020820160ff84541615159052565b60e0604082015260006135696101008301600185016134bc565b60028401546001600160a01b0316606084015260038401546080840152600484015460a0840152600584015460ff16151560c084015260069093015460e0909201919091525090565b6000602082840312156135c457600080fd5b8151612ba381612ced565b634e487b7160e01b600052601160045260246000fd5b80820180821115610541576105416135cf565b81810381811115610541576105416135cf565b634e487b7160e01b600052603260045260246000fd5b6000815461362e81613364565b60018281168015613646576001811461365b5761368a565b60ff198416875282151583028701945061368a565b8560005260208060002060005b858110156136815781548a820152908401908201613668565b50505082870194505b5050505092915050565b6000612ba38284613621565b8181036136ab575050565b6136b58254613364565b6001600160401b038111156136cc576136cc612baa565b6136da8161342a8454613364565b6000601f82116001811461370857600083156136f65750848201545b61370084826133ee565b85555061376d565b600085815260209020601f19841690600086815260209020845b838110156137425782860154825560019586019590910190602001613722565b50858310156137605781850154600019600388901b60f8161c191681555b50505060018360011b0184555b5050505050565b634e487b7160e01b600052603160045260246000fd5b60006020828403121561379c57600080fd5b5051919050565b6060815260006137b66060830186612d93565b60208301949094525060400152919050565b6000600182016137da576137da6135cf565b5060010190565b6001600160a01b03878116825286166020820152604081018590526060810184905260a06080820181905281018290526000828460c0840137600060c0848401015260c0601f19601f8501168301019050979650505050505050565b600061020080838503121561385157600080fd5b83601f84011261386057600080fd5b6040518181018181106001600160401b038211171561388157613881612baa565b60405290830190808583111561389657600080fd5b845b838110156138b95780516138ab81612cc8565b825260209182019101613898565b50909594505050505056fea264697066735822122033b077989472ff506125d72d3eb2987a22d0888a2ba4c7304d3374e3215cd0ad64736f6c63430008180033",
  "linkReferences": {},
  "deployedLinkReferences": {}
}