{
  "_format": "hh-sol-artifact-1",
  "contractName": "GuildBankDAOcoin",
  "sourceName": "contracts/GuildBankDAOcoin.sol",
  "abi": [
    {
      "inputs": [
        {
          "internalType": "address",
          "name": "_me",
          "type": "address"
        },
        {
          "internalType": "uint256",
          "name": "cap_",
          "type": "uint256"
        },
        {
          "internalType": "uint256",
          "name": "_amountPerMint",
          "type": "uint256"
        },
        {
          "internalType": "string",
          "name": "_Name",
          "type": "string"
        },
        {
          "internalType": "string",
          "name": "_Symbol",
          "type": "string"
        }
      ],
      "stateMutability": "nonpayable",
      "type": "constructor"
    },
    {
      "inputs": [],
      "name": "CheckpointUnorderedInsertion",
      "type": "error"
    },
    {
      "inputs": [],
      "name": "ECDSAInvalidSignature",
      "type": "error"
    },
    {
      "inputs": [
        {
          "internalType": "uint256",
          "name": "length",
          "type": "uint256"
        }
      ],
      "name": "ECDSAInvalidSignatureLength",
      "type": "error"
    },
    {
      "inputs": [
        {
          "internalType": "bytes32",
          "name": "s",
          "type": "bytes32"
        }
      ],
      "name": "ECDSAInvalidSignatureS",
      "type": "error"
    },
    {
      "inputs": [
        {
          "internalType": "uint256",
          "name": "increasedSupply",
          "type": "uint256"
        },
        {
          "internalType": "uint256",
          "name": "cap",
          "type": "uint256"
        }
      ],
      "name": "ERC20ExceededCap",
      "type": "error"
    },
    {
      "inputs": [
        {
          "internalType": "uint256",
          "name": "increasedSupply",
          "type": "uint256"
        },
        {
          "internalType": "uint256",
          "name": "cap",
          "type": "uint256"
        }
      ],
      "name": "ERC20ExceededSafeSupply",
      "type": "error"
    },
    {
      "inputs": [
        {
          "internalType": "address",
          "name": "spender",
          "type": "address"
        },
        {
          "internalType": "uint256",
          "name": "allowance",
          "type": "uint256"
        },
        {
          "internalType": "uint256",
          "name": "needed",
          "type": "uint256"
        }
      ],
      "name": "ERC20InsufficientAllowance",
      "type": "error"
    },
    {
      "inputs": [
        {
          "internalType": "address",
          "name": "sender",
          "type": "address"
        },
        {
          "internalType": "uint256",
          "name": "balance",
          "type": "uint256"
        },
        {
          "internalType": "uint256",
          "name": "needed",
          "type": "uint256"
        }
      ],
      "name": "ERC20InsufficientBalance",
      "type": "error"
    },
    {
      "inputs": [
        {
          "internalType": "address",
          "name": "approver",
          "type": "address"
        }
      ],
      "name": "ERC20InvalidApprover",
      "type": "error"
    },
    {
      "inputs": [
        {
          "internalType": "uint256",
          "name": "cap",
          "type": "uint256"
        }
      ],
      "name": "ERC20InvalidCap",
      "type": "error"
    },
    {
      "inputs": [
        {
          "internalType": "address",
          "name": "receiver",
          "type": "address"
        }
      ],
      "name": "ERC20InvalidReceiver",
      "type": "error"
    },
    {
      "inputs": [
        {
          "internalType": "address",
          "name": "sender",
          "type": "address"
        }
      ],
      "name": "ERC20InvalidSender",
      "type": "error"
    },
    {
      "inputs": [
        {
          "internalType": "address",
          "name": "spender",
          "type": "address"
        }
      ],
      "name": "ERC20InvalidSpender",
      "type": "error"
    },
    {
      "inputs": [
        {
          "internalType": "uint256",
          "name": "deadline",
          "type": "uint256"
        }
      ],
      "name": "ERC2612ExpiredSignature",
      "type": "error"
    },
    {
      "inputs": [
        {
          "internalType": "address",
          "name": "signer",
          "type": "address"
        },
        {
          "internalType": "address",
          "name": "owner",
          "type": "address"
        }
      ],
      "name": "ERC2612InvalidSigner",
      "type": "error"
    },
    {
      "inputs": [
        {
          "internalType": "uint256",
          "name": "timepoint",
          "type": "uint256"
        },
        {
          "internalType": "uint48",
          "name": "clock",
          "type": "uint48"
        }
      ],
      "name": "ERC5805FutureLookup",
      "type": "error"
    },
    {
      "inputs": [],
      "name": "ERC6372InconsistentClock",
      "type": "error"
    },
    {
      "inputs": [
        {
          "internalType": "address",
          "name": "account",
          "type": "address"
        },
        {
          "internalType": "uint256",
          "name": "currentNonce",
          "type": "uint256"
        }
      ],
      "name": "InvalidAccountNonce",
      "type": "error"
    },
    {
      "inputs": [],
      "name": "InvalidShortString",
      "type": "error"
    },
    {
      "inputs": [
        {
          "internalType": "address",
          "name": "owner",
          "type": "address"
        }
      ],
      "name": "OwnableInvalidOwner",
      "type": "error"
    },
    {
      "inputs": [
        {
          "internalType": "address",
          "name": "account",
          "type": "address"
        }
      ],
      "name": "OwnableUnauthorizedAccount",
      "type": "error"
    },
    {
      "inputs": [
        {
          "internalType": "uint8",
          "name": "bits",
          "type": "uint8"
        },
        {
          "internalType": "uint256",
          "name": "value",
          "type": "uint256"
        }
      ],
      "name": "SafeCastOverflowedUintDowncast",
      "type": "error"
    },
    {
      "inputs": [
        {
          "internalType": "string",
          "name": "str",
          "type": "string"
        }
      ],
      "name": "StringTooLong",
      "type": "error"
    },
    {
      "inputs": [
        {
          "internalType": "uint256",
          "name": "expiry",
          "type": "uint256"
        }
      ],
      "name": "VotesExpiredSignature",
      "type": "error"
    },
    {
      "anonymous": false,
      "inputs": [
        {
          "indexed": true,
          "internalType": "address",
          "name": "owner",
          "type": "address"
        },
        {
          "indexed": true,
          "internalType": "address",
          "name": "spender",
          "type": "address"
        },
        {
          "indexed": false,
          "internalType": "uint256",
          "name": "value",
          "type": "uint256"
        }
      ],
      "name": "Approval",
      "type": "event"
    },
    {
      "anonymous": false,
      "inputs": [
        {
          "indexed": false,
          "internalType": "bool",
          "name": "_pause",
          "type": "bool"
        },
        {
          "indexed": false,
          "internalType": "uint256",
          "name": "time",
          "type": "uint256"
        }
      ],
      "name": "DAOCoinPaused",
      "type": "event"
    },
    {
      "anonymous": false,
      "inputs": [
        {
          "indexed": true,
          "internalType": "address",
          "name": "delegator",
          "type": "address"
        },
        {
          "indexed": true,
          "internalType": "address",
          "name": "fromDelegate",
          "type": "address"
        },
        {
          "indexed": true,
          "internalType": "address",
          "name": "toDelegate",
          "type": "address"
        }
      ],
      "name": "DelegateChanged",
      "type": "event"
    },
    {
      "anonymous": false,
      "inputs": [
        {
          "indexed": true,
          "internalType": "address",
          "name": "delegate",
          "type": "address"
        },
        {
          "indexed": false,
          "internalType": "uint256",
          "name": "previousVotes",
          "type": "uint256"
        },
        {
          "indexed": false,
          "internalType": "uint256",
          "name": "newVotes",
          "type": "uint256"
        }
      ],
      "name": "DelegateVotesChanged",
      "type": "event"
    },
    {
      "anonymous": false,
      "inputs": [],
      "name": "EIP712DomainChanged",
      "type": "event"
    },
    {
      "anonymous": false,
      "inputs": [
        {
          "indexed": true,
          "internalType": "address",
          "name": "minter",
          "type": "address"
        },
        {
          "indexed": false,
          "internalType": "uint256",
          "name": "_time",
          "type": "uint256"
        }
      ],
      "name": "MintingBy",
      "type": "event"
    },
    {
      "anonymous": false,
      "inputs": [
        {
          "indexed": true,
          "internalType": "address",
          "name": "previousOwner",
          "type": "address"
        },
        {
          "indexed": true,
          "internalType": "address",
          "name": "newOwner",
          "type": "address"
        }
      ],
      "name": "OwnershipTransferred",
      "type": "event"
    },
    {
      "anonymous": false,
      "inputs": [
        {
          "indexed": true,
          "internalType": "address",
          "name": "from",
          "type": "address"
        },
        {
          "indexed": true,
          "internalType": "address",
          "name": "to",
          "type": "address"
        },
        {
          "indexed": false,
          "internalType": "uint256",
          "name": "value",
          "type": "uint256"
        }
      ],
      "name": "Transfer",
      "type": "event"
    },
    {
      "anonymous": false,
      "inputs": [
        {
          "indexed": false,
          "internalType": "uint256",
          "name": "value",
          "type": "uint256"
        },
        {
          "indexed": false,
          "internalType": "uint256",
          "name": "_time",
          "type": "uint256"
        }
      ],
      "name": "halfLife",
      "type": "event"
    },
    {
      "anonymous": false,
      "inputs": [
        {
          "indexed": false,
          "internalType": "address",
          "name": "_user",
          "type": "address"
        },
        {
          "indexed": false,
          "internalType": "uint256",
          "name": "_time",
          "type": "uint256"
        }
      ],
      "name": "noMintPunishment",
      "type": "event"
    },
    {
      "inputs": [],
      "name": "CLOCK_MODE",
      "outputs": [
        {
          "internalType": "string",
          "name": "",
          "type": "string"
        }
      ],
      "stateMutability": "pure",
      "type": "function"
    },
    {
      "inputs": [],
      "name": "DAOTreasuryADDRESS",
      "outputs": [
        {
          "internalType": "address",
          "name": "",
          "type": "address"
        }
      ],
      "stateMutability": "view",
      "type": "function"
    },
    {
      "inputs": [],
      "name": "DAOVault",
      "outputs": [
        {
          "internalType": "address",
          "name": "",
          "type": "address"
        }
      ],
      "stateMutability": "view",
      "type": "function"
    },
    {
      "inputs": [],
      "name": "DOMAIN_SEPARATOR",
      "outputs": [
        {
          "internalType": "bytes32",
          "name": "",
          "type": "bytes32"
        }
      ],
      "stateMutability": "view",
      "type": "function"
    },
    {
      "inputs": [],
      "name": "LocalBoD",
      "outputs": [
        {
          "internalType": "contract ILocalBoD",
          "name": "",
          "type": "address"
        }
      ],
      "stateMutability": "view",
      "type": "function"
    },
    {
      "inputs": [],
      "name": "LocalBoDTreasury",
      "outputs": [
        {
          "internalType": "address",
          "name": "",
          "type": "address"
        }
      ],
      "stateMutability": "view",
      "type": "function"
    },
    {
      "inputs": [],
      "name": "LocalDAOElection",
      "outputs": [
        {
          "internalType": "contract ILocalDAOElection",
          "name": "",
          "type": "address"
        }
      ],
      "stateMutability": "view",
      "type": "function"
    },
    {
      "inputs": [],
      "name": "Mint",
      "outputs": [],
      "stateMutability": "nonpayable",
      "type": "function"
    },
    {
      "inputs": [],
      "name": "NoMintPunishment",
      "outputs": [],
      "stateMutability": "nonpayable",
      "type": "function"
    },
    {
      "inputs": [
        {
          "internalType": "address",
          "name": "owner",
          "type": "address"
        },
        {
          "internalType": "address",
          "name": "spender",
          "type": "address"
        }
      ],
      "name": "allowance",
      "outputs": [
        {
          "internalType": "uint256",
          "name": "",
          "type": "uint256"
        }
      ],
      "stateMutability": "view",
      "type": "function"
    },
    {
      "inputs": [],
      "name": "amountPerMint",
      "outputs": [
        {
          "internalType": "uint256",
          "name": "",
          "type": "uint256"
        }
      ],
      "stateMutability": "view",
      "type": "function"
    },
    {
      "inputs": [
        {
          "internalType": "address",
          "name": "spender",
          "type": "address"
        },
        {
          "internalType": "uint256",
          "name": "value",
          "type": "uint256"
        }
      ],
      "name": "approve",
      "outputs": [
        {
          "internalType": "bool",
          "name": "",
          "type": "bool"
        }
      ],
      "stateMutability": "nonpayable",
      "type": "function"
    },
    {
      "inputs": [
        {
          "internalType": "address",
          "name": "account",
          "type": "address"
        }
      ],
      "name": "balanceOf",
      "outputs": [
        {
          "internalType": "uint256",
          "name": "",
          "type": "uint256"
        }
      ],
      "stateMutability": "view",
      "type": "function"
    },
    {
      "inputs": [
        {
          "internalType": "uint256",
          "name": "value",
          "type": "uint256"
        }
      ],
      "name": "burn",
      "outputs": [],
      "stateMutability": "nonpayable",
      "type": "function"
    },
    {
      "inputs": [],
      "name": "burnCounter",
      "outputs": [
        {
          "internalType": "uint256",
          "name": "",
          "type": "uint256"
        }
      ],
      "stateMutability": "view",
      "type": "function"
    },
    {
      "inputs": [],
      "name": "cap",
      "outputs": [
        {
          "internalType": "uint256",
          "name": "",
          "type": "uint256"
        }
      ],
      "stateMutability": "view",
      "type": "function"
    },
    {
      "inputs": [
        {
          "internalType": "address",
          "name": "account",
          "type": "address"
        },
        {
          "internalType": "uint32",
          "name": "pos",
          "type": "uint32"
        }
      ],
      "name": "checkpoints",
      "outputs": [
        {
          "components": [
            {
              "internalType": "uint48",
              "name": "_key",
              "type": "uint48"
            },
            {
              "internalType": "uint208",
              "name": "_value",
              "type": "uint208"
            }
          ],
          "internalType": "struct Checkpoints.Checkpoint208",
          "name": "",
          "type": "tuple"
        }
      ],
      "stateMutability": "view",
      "type": "function"
    },
    {
      "inputs": [],
      "name": "clock",
      "outputs": [
        {
          "internalType": "uint48",
          "name": "",
          "type": "uint48"
        }
      ],
      "stateMutability": "view",
      "type": "function"
    },
    {
      "inputs": [],
      "name": "decimals",
      "outputs": [
        {
          "internalType": "uint8",
          "name": "",
          "type": "uint8"
        }
      ],
      "stateMutability": "pure",
      "type": "function"
    },
    {
      "inputs": [
        {
          "internalType": "address",
          "name": "_account",
          "type": "address"
        }
      ],
      "name": "delegate",
      "outputs": [],
      "stateMutability": "nonpayable",
      "type": "function"
    },
    {
      "inputs": [
        {
          "internalType": "address",
          "name": "delegatee",
          "type": "address"
        },
        {
          "internalType": "uint256",
          "name": "nonce",
          "type": "uint256"
        },
        {
          "internalType": "uint256",
          "name": "expiry",
          "type": "uint256"
        },
        {
          "internalType": "uint8",
          "name": "v",
          "type": "uint8"
        },
        {
          "internalType": "bytes32",
          "name": "r",
          "type": "bytes32"
        },
        {
          "internalType": "bytes32",
          "name": "s",
          "type": "bytes32"
        }
      ],
      "name": "delegateBySig",
      "outputs": [],
      "stateMutability": "nonpayable",
      "type": "function"
    },
    {
      "inputs": [
        {
          "internalType": "address",
          "name": "account",
          "type": "address"
        }
      ],
      "name": "delegates",
      "outputs": [
        {
          "internalType": "address",
          "name": "",
          "type": "address"
        }
      ],
      "stateMutability": "view",
      "type": "function"
    },
    {
      "inputs": [],
      "name": "eip712Domain",
      "outputs": [
        {
          "internalType": "bytes1",
          "name": "fields",
          "type": "bytes1"
        },
        {
          "internalType": "string",
          "name": "name",
          "type": "string"
        },
        {
          "internalType": "string",
          "name": "version",
          "type": "string"
        },
        {
          "internalType": "uint256",
          "name": "chainId",
          "type": "uint256"
        },
        {
          "internalType": "address",
          "name": "verifyingContract",
          "type": "address"
        },
        {
          "internalType": "bytes32",
          "name": "salt",
          "type": "bytes32"
        },
        {
          "internalType": "uint256[]",
          "name": "extensions",
          "type": "uint256[]"
        }
      ],
      "stateMutability": "view",
      "type": "function"
    },
    {
      "inputs": [
        {
          "internalType": "uint256",
          "name": "timepoint",
          "type": "uint256"
        }
      ],
      "name": "getPastTotalSupply",
      "outputs": [
        {
          "internalType": "uint256",
          "name": "",
          "type": "uint256"
        }
      ],
      "stateMutability": "view",
      "type": "function"
    },
    {
      "inputs": [
        {
          "internalType": "address",
          "name": "account",
          "type": "address"
        },
        {
          "internalType": "uint256",
          "name": "timepoint",
          "type": "uint256"
        }
      ],
      "name": "getPastVotes",
      "outputs": [
        {
          "internalType": "uint256",
          "name": "",
          "type": "uint256"
        }
      ],
      "stateMutability": "view",
      "type": "function"
    },
    {
      "inputs": [
        {
          "internalType": "address",
          "name": "account",
          "type": "address"
        }
      ],
      "name": "getVotes",
      "outputs": [
        {
          "internalType": "uint256",
          "name": "",
          "type": "uint256"
        }
      ],
      "stateMutability": "view",
      "type": "function"
    },
    {
      "inputs": [],
      "name": "halfLifeMint",
      "outputs": [],
      "stateMutability": "nonpayable",
      "type": "function"
    },
    {
      "inputs": [],
      "name": "isPaused",
      "outputs": [
        {
          "internalType": "bool",
          "name": "",
          "type": "bool"
        }
      ],
      "stateMutability": "view",
      "type": "function"
    },
    {
      "inputs": [],
      "name": "mintCounter",
      "outputs": [
        {
          "internalType": "uint256",
          "name": "",
          "type": "uint256"
        }
      ],
      "stateMutability": "view",
      "type": "function"
    },
    {
      "inputs": [],
      "name": "name",
      "outputs": [
        {
          "internalType": "string",
          "name": "",
          "type": "string"
        }
      ],
      "stateMutability": "view",
      "type": "function"
    },
    {
      "inputs": [],
      "name": "nextMintable",
      "outputs": [
        {
          "internalType": "uint256",
          "name": "",
          "type": "uint256"
        }
      ],
      "stateMutability": "view",
      "type": "function"
    },
    {
      "inputs": [
        {
          "internalType": "address",
          "name": "owner",
          "type": "address"
        }
      ],
      "name": "nonces",
      "outputs": [
        {
          "internalType": "uint256",
          "name": "",
          "type": "uint256"
        }
      ],
      "stateMutability": "view",
      "type": "function"
    },
    {
      "inputs": [
        {
          "internalType": "address",
          "name": "account",
          "type": "address"
        }
      ],
      "name": "numCheckpoints",
      "outputs": [
        {
          "internalType": "uint32",
          "name": "",
          "type": "uint32"
        }
      ],
      "stateMutability": "view",
      "type": "function"
    },
    {
      "inputs": [],
      "name": "owner",
      "outputs": [
        {
          "internalType": "address",
          "name": "",
          "type": "address"
        }
      ],
      "stateMutability": "view",
      "type": "function"
    },
    {
      "inputs": [
        {
          "internalType": "bool",
          "name": "_pause",
          "type": "bool"
        }
      ],
      "name": "pauseMinting",
      "outputs": [],
      "stateMutability": "nonpayable",
      "type": "function"
    },
    {
      "inputs": [
        {
          "internalType": "address",
          "name": "owner",
          "type": "address"
        },
        {
          "internalType": "address",
          "name": "spender",
          "type": "address"
        },
        {
          "internalType": "uint256",
          "name": "value",
          "type": "uint256"
        },
        {
          "internalType": "uint256",
          "name": "deadline",
          "type": "uint256"
        },
        {
          "internalType": "uint8",
          "name": "v",
          "type": "uint8"
        },
        {
          "internalType": "bytes32",
          "name": "r",
          "type": "bytes32"
        },
        {
          "internalType": "bytes32",
          "name": "s",
          "type": "bytes32"
        }
      ],
      "name": "permit",
      "outputs": [],
      "stateMutability": "nonpayable",
      "type": "function"
    },
    {
      "inputs": [],
      "name": "renounceOwnership",
      "outputs": [],
      "stateMutability": "nonpayable",
      "type": "function"
    },
    {
      "inputs": [],
      "name": "returnCap",
      "outputs": [
        {
          "internalType": "uint256",
          "name": "",
          "type": "uint256"
        }
      ],
      "stateMutability": "view",
      "type": "function"
    },
    {
      "inputs": [
        {
          "internalType": "address",
          "name": "_contract",
          "type": "address"
        }
      ],
      "name": "setDAOVault",
      "outputs": [],
      "stateMutability": "nonpayable",
      "type": "function"
    },
    {
      "inputs": [
        {
          "internalType": "address",
          "name": "_daoTreasuryAddress",
          "type": "address"
        }
      ],
      "name": "setDaoTreasuryContract",
      "outputs": [],
      "stateMutability": "nonpayable",
      "type": "function"
    },
    {
      "inputs": [
        {
          "internalType": "address",
          "name": "_contract",
          "type": "address"
        }
      ],
      "name": "setLocalBoD",
      "outputs": [],
      "stateMutability": "nonpayable",
      "type": "function"
    },
    {
      "inputs": [
        {
          "internalType": "address",
          "name": "_localBoD",
          "type": "address"
        }
      ],
      "name": "setLocalBoDTreasury",
      "outputs": [],
      "stateMutability": "nonpayable",
      "type": "function"
    },
    {
      "inputs": [
        {
          "internalType": "address",
          "name": "_LocalDAOElection",
          "type": "address"
        }
      ],
      "name": "setLocalElectionContract",
      "outputs": [],
      "stateMutability": "nonpayable",
      "type": "function"
    },
    {
      "inputs": [
        {
          "internalType": "address",
          "name": "account",
          "type": "address"
        }
      ],
      "name": "showVotingUnits",
      "outputs": [
        {
          "internalType": "uint256",
          "name": "",
          "type": "uint256"
        }
      ],
      "stateMutability": "view",
      "type": "function"
    },
    {
      "inputs": [],
      "name": "symbol",
      "outputs": [
        {
          "internalType": "string",
          "name": "",
          "type": "string"
        }
      ],
      "stateMutability": "view",
      "type": "function"
    },
    {
      "inputs": [],
      "name": "totalSupply",
      "outputs": [
        {
          "internalType": "uint256",
          "name": "",
          "type": "uint256"
        }
      ],
      "stateMutability": "view",
      "type": "function"
    },
    {
      "inputs": [
        {
          "internalType": "address",
          "name": "to",
          "type": "address"
        },
        {
          "internalType": "uint256",
          "name": "value",
          "type": "uint256"
        }
      ],
      "name": "transfer",
      "outputs": [
        {
          "internalType": "bool",
          "name": "",
          "type": "bool"
        }
      ],
      "stateMutability": "nonpayable",
      "type": "function"
    },
    {
      "inputs": [
        {
          "internalType": "address",
          "name": "from",
          "type": "address"
        },
        {
          "internalType": "address",
          "name": "to",
          "type": "address"
        },
        {
          "internalType": "uint256",
          "name": "value",
          "type": "uint256"
        }
      ],
      "name": "transferFrom",
      "outputs": [
        {
          "internalType": "bool",
          "name": "",
          "type": "bool"
        }
      ],
      "stateMutability": "nonpayable",
      "type": "function"
    },
    {
      "inputs": [
        {
          "internalType": "address",
          "name": "newOwner",
          "type": "address"
        }
      ],
      "name": "transferOwnership",
      "outputs": [],
      "stateMutability": "nonpayable",
      "type": "function"
    }
  ],
  "bytecode": "0x6101806040523480156200001257600080fd5b5060405162002fc038038062002fc0833981016040819052620000359162000347565b838280604051806040016040528060018152602001603160f81b815250888686816003908162000066919062000477565b50600462000075828262000477565b5050506001600160a01b038116620000a857604051631e4fbdf760e01b8152600060048201526024015b60405180910390fd5b620000b381620001ac565b50620000c1826006620001fe565b61012052620000d2816007620001fe565b61014052815160208084019190912060e052815190820120610100524660a0526200016060e05161010051604080517f8b73c3c69bb8fe3d512ecc4cf759cc79239f7b179b0ffacaa9a75d522b39400f60208201529081019290925260608201524660808201523060a082015260009060c00160405160208183030381529060405280519060200120905090565b60805250503060c052506000819003620001915760405163392e1e2760e01b8152600060048201526024016200009f565b61016052505060115550506013805460ff191690556200059d565b600580546001600160a01b038381166001600160a01b0319831681179093556040519116919082907f8be0079c531659141344cd1fd0a4f28419497f9722a3daafe3b4186f6b6457e090600090a35050565b60006020835110156200021e57620002168362000237565b905062000231565b816200022b848262000477565b5060ff90505b92915050565b600080829050601f8151111562000265578260405163305a27a960e01b81526004016200009f919062000543565b8051620002728262000578565b179392505050565b634e487b7160e01b600052604160045260246000fd5b60005b83811015620002ad57818101518382015260200162000293565b50506000910152565b600082601f830112620002c857600080fd5b81516001600160401b0380821115620002e557620002e56200027a565b604051601f8301601f19908116603f011681019082821181831017156200031057620003106200027a565b816040528381528660208588010111156200032a57600080fd5b6200033d84602083016020890162000290565b9695505050505050565b600080600080600060a086880312156200036057600080fd5b85516001600160a01b03811681146200037857600080fd5b60208701516040880151606089015192975090955093506001600160401b0380821115620003a557600080fd5b620003b389838a01620002b6565b93506080880151915080821115620003ca57600080fd5b50620003d988828901620002b6565b9150509295509295909350565b600181811c90821680620003fb57607f821691505b6020821081036200041c57634e487b7160e01b600052602260045260246000fd5b50919050565b601f82111562000472576000816000526020600020601f850160051c810160208610156200044d5750805b601f850160051c820191505b818110156200046e5782815560010162000459565b5050505b505050565b81516001600160401b038111156200049357620004936200027a565b620004ab81620004a48454620003e6565b8462000422565b602080601f831160018114620004e35760008415620004ca5750858301515b600019600386901b1c1916600185901b1785556200046e565b600085815260208120601f198616915b828110156200051457888601518255948401946001909101908401620004f3565b5085821015620005335787850151600019600388901b60f8161c191681555b5050505050600190811b01905550565b60208152600082518060208401526200056481604085016020870162000290565b601f01601f19169190910160400192915050565b805160208083015191908110156200041c5760001960209190910360031b1b16919050565b60805160a05160c05160e051610100516101205161014051610160516129bd6200060360003960006108df015260006115b601526000611589015260006113630152600061133b01526000611296015260006112c0015260006112ea01526129bd6000f3fe608060405234801561001057600080fd5b50600436106102ab5760003560e01c806370a0823111610172578063a9059cbb116100d9578063c9cdb6f111610092578063c9cdb6f1146105cd578063cfe73e4c146105e0578063d505accf146105e9578063d741f5f0146105fc578063dd62ed3e14610604578063f1127ed814610617578063f2fde38b1461065657600080fd5b8063a9059cbb14610581578063a9805d4a14610594578063b187bd261461059c578063b5154b1a146105a9578063bf7f3e37146105b1578063c3cda520146105ba57600080fd5b80638e539e8c1161012b5780638e539e8c1461051757806391ddadf41461052a57806395d89b41146105405780639ab24eb014610548578063a05b11bf1461055b578063a8564b901461056e57600080fd5b806370a0823114610494578063715018a6146104bd5780637ecebe00146104c557806384b0196e146104d85780638da5cb5b146104f35780638e1eebe51461050457600080fd5b80633644e5151161021657806355f3d55a116101cf57806355f3d55a1461040d578063587cde1e146104205780635c19a95c146104335780636e99f8fa146104465780636f7da925146104595780636fcfff451461046c57600080fd5b80633644e515146103a35780633a46b1a8146103ab57806342966c68146103be57806346aa52ce146103d15780634bf5d7e9146103da5780634c99007d1461040457600080fd5b806320dff9cd1161026857806320dff9cd1461034b57806323b872dd1461035e578063313ce5671461037157806334c7388414610380578063355274ea14610388578063359803cd1461039057600080fd5b806302145e2e146102b0578063025bd4d7146102d957806302b7d3d6146102ec57806306fdde0314610301578063095ea7b31461031657806318160ddd14610339575b600080fd5b600e546102c3906001600160a01b031681565b6040516102d091906124cb565b60405180910390f35b600c546102c3906001600160a01b031681565b6102ff6102fa3660046124fb565b610669565b005b6103096106a9565b6040516102d0919061255c565b61032961032436600461256f565b61073b565b60405190151581526020016102d0565b6002545b6040519081526020016102d0565b600f546102c3906001600160a01b031681565b61032961036c366004612599565b610755565b604051600881526020016102d0565b6102ff610779565b61033d6108dd565b6102ff61039e3660046125e3565b610901565b61033d61095b565b61033d6103b936600461256f565b61096a565b6102ff6103cc366004612600565b6109a6565b61033d60155481565b60408051808201909152600e81526d06d6f64653d74696d657374616d760941b6020820152610309565b61033d60125481565b6010546102c3906001600160a01b031681565b6102c361042e3660046124fb565b610a0e565b6102ff6104413660046124fb565b610a2c565b6102ff6104543660046124fb565b610c26565b6102ff6104673660046124fb565b610c66565b61047f61047a3660046124fb565b610ca6565b60405163ffffffff90911681526020016102d0565b61033d6104a23660046124fb565b6001600160a01b031660009081526020819052604090205490565b6102ff610cb1565b61033d6104d33660046124fb565b610cc5565b6104e0610cd0565b6040516102d09796959493929190612619565b6005546001600160a01b03166102c3565b61033d6105123660046124fb565b610d16565b61033d610525366004612600565b610d21565b60405165ffffffffffff421681526020016102d0565b610309610d46565b61033d6105563660046124fb565b610d55565b6102ff6105693660046124fb565b610d76565b6102ff61057c3660046124fb565b610db6565b61032961058f36600461256f565b610e05565b6102ff610e13565b6013546103299060ff1681565b6102ff610e9e565b61033d60145481565b6102ff6105c83660046126c3565b610eef565b600d546102c3906001600160a01b031681565b61033d60115481565b6102ff6105f736600461271b565b610fb1565b61033d6110cd565b61033d610612366004612785565b6110d7565b61062a6106253660046127b8565b611102565b60408051825165ffffffffffff1681526020928301516001600160d01b031692810192909252016102d0565b6102ff6106643660046124fb565b611127565b610671611162565b600c546001600160a01b03161561068757600080fd5b600c80546001600160a01b0319166001600160a01b0392909216919091179055565b6060600380546106b8906127f8565b80601f01602080910402602001604051908101604052809291908181526020018280546106e4906127f8565b80156107315780601f1061070657610100808354040283529160200191610731565b820191906000526020600020905b81548152906001019060200180831161071457829003601f168201915b5050505050905090565b60003361074981858561118f565b60019150505b92915050565b60003361076385828561119c565b61076e8585856111f0565b506001949350505050565b60135460ff161561078957600080fd5b600f54604051636950e29360e11b81526001600160a01b039091169063d2a1c526906107b99033906004016124cb565b602060405180830381865afa1580156107d6573d6000803e3d6000fd5b505050506040513d601f19601f820116820180604052508101906107fa9190612832565b61080357600080fd5b60145442101561081257600080fd5b600062015180610825426203f480612865565b61082f919061288e565b905060006203f48061084260078461288e565b61084d9060076128b0565b61085a90620151806128b0565b61086491906128c7565b90506108738162093a80612865565b601455600e5460115461088f916001600160a01b03169061124f565b60405142815233907f459d881708967a4289c5f4a4da1996d65998fd1e31e8b4c3645a461a40236fb39060200160405180910390a2601580549060006108d4836128da565b91905055505050565b7f000000000000000000000000000000000000000000000000000000000000000090565b610909611162565b6013805460ff19168215159081179091556040805160ff909216151582524260208301527f93eefdfff6d9a39e1ba4a720b20c9bc9e6a752e5c682f39034581e92ab7ca678910160405180910390a150565b6000610965611289565b905090565b6000610996610978836113b4565b6001600160a01b0385166000908152600a60205260409020906113f9565b6001600160d01b03169392505050565b6010546001600160a01b031633146109bd57600080fd5b60006103e86109cd8360026128b0565b6109d7919061288e565b905060006109e582846128c7565b905080601260008282546109f99190612865565b90915550610a09905033846114af565b505050565b6001600160a01b039081166000908152600960205260409020541690565b600f54604051636950e29360e11b81526001600160a01b039091169063d2a1c52690610a5c9033906004016124cb565b602060405180830381865afa158015610a79573d6000803e3d6000fd5b505050506040513d601f19601f82011682018060405250810190610a9d9190612832565b15610b1d57600f54604051636950e29360e11b81526001600160a01b039091169063d2a1c52690610ad29033906004016124cb565b602060405180830381865afa158015610aef573d6000803e3d6000fd5b505050506040513d601f19601f82011682018060405250810190610b139190612832565b15610b1d57600080fd5b600d60009054906101000a90046001600160a01b03166001600160a01b0316635db174df6040518163ffffffff1660e01b8152600401602060405180830381865afa158015610b70573d6000803e3d6000fd5b505050506040513d601f19601f82011682018060405250810190610b949190612832565b15610c1d57600d60009054906101000a90046001600160a01b03166001600160a01b0316635db174df6040518163ffffffff1660e01b8152600401602060405180830381865afa158015610bec573d6000803e3d6000fd5b505050506040513d601f19601f82011682018060405250810190610c109190612832565b15610c1a57600080fd5b50565b610c1a816114e5565b610c2e611162565b600e546001600160a01b031615610c4457600080fd5b600e80546001600160a01b0319166001600160a01b0392909216919091179055565b610c6e611162565b600f546001600160a01b031615610c8457600080fd5b600f80546001600160a01b0319166001600160a01b0392909216919091179055565b600061074f826114f0565b610cb9611162565b610cc36000611512565b565b600061074f82611564565b600060608060008060006060610ce4611582565b610cec6115af565b60408051600080825260208201909252600f60f81b9b939a50919850469750309650945092509050565b600061074f82610d55565b6000610d37610d2f836113b4565b600b906113f9565b6001600160d01b031692915050565b6060600480546106b8906127f8565b6001600160a01b0381166000908152600a60205260408120610d37906115dc565b610d7e611162565b600d546001600160a01b031615610d9457600080fd5b600d80546001600160a01b0319166001600160a01b0392909216919091179055565b6010546001600160a01b031615610dcc57600080fd5b600e546001600160a01b03163314610de357600080fd5b601080546001600160a01b0319166001600160a01b0392909216919091179055565b6000336107498185856111f0565b60135460ff1615610e2357600080fd5b601454421015610e3257600080fd5b610e3e3360115461124f565b610e4b4262093a80612865565b60145560158054906000610e5e836128da565b9091555050604080513381524260208201527fcd7ba51f37be497134452e09940b9b493217b68338b62705a92b9416970da34d91015b60405180910390a1565b610ea6611162565b6002601154610eb5919061288e565b6011819055604080519182524260208301527fb7e738c518bb03e03e4eddd1c2de8ba7be4f842273fd55f17bb694e96c0cb6a59101610e94565b83421115610f1857604051632341d78760e11b8152600481018590526024015b60405180910390fd5b604080517fe48329057bfd03d55e49b547132e39cffd9c1820ad7b9d4c5307691425d15adf60208201526001600160a01b038816918101919091526060810186905260808101859052600090610f9290610f8a9060a00160405160208183030381529060405280519060200120611615565b858585611642565b9050610f9e8187611670565b610fa881886116af565b50505050505050565b83421115610fd55760405163313c898160e11b815260048101859052602401610f0f565b60007f6e71edae12b1b97f4d1f60370fef10105fa2faae0126114a169c64845d6126c98888886110048c61172a565b6040805160208101969096526001600160a01b0394851690860152929091166060840152608083015260a082015260c0810186905260e001604051602081830303815290604052805190602001209050600061105f82611615565b9050600061106f82878787611642565b9050896001600160a01b0316816001600160a01b0316146110b6576040516325c0072360e11b81526001600160a01b0380831660048301528b166024820152604401610f0f565b6110c18a8a8a61118f565b50505050505050505050565b60006109656108dd565b6001600160a01b03918216600090815260016020908152604080832093909416825291909152205490565b6040805180820190915260008082526020820152611120838361174d565b9392505050565b61112f611162565b6001600160a01b038116611159576000604051631e4fbdf760e01b8152600401610f0f91906124cb565b610c1a81611512565b6005546001600160a01b03163314610cc3573360405163118cdaa760e01b8152600401610f0f91906124cb565b610a098383836001611783565b60006111a884846110d7565b90506000198110156111ea57818110156111db57828183604051637dc7a0d960e11b8152600401610f0f939291906128f3565b6111ea84848484036000611783565b50505050565b6001600160a01b03831661121a576000604051634b637e8f60e11b8152600401610f0f91906124cb565b6001600160a01b03821661124457600060405163ec442f0560e01b8152600401610f0f91906124cb565b610a09838383611858565b6001600160a01b03821661127957600060405163ec442f0560e01b8152600401610f0f91906124cb565b61128560008383611858565b5050565b6000306001600160a01b037f0000000000000000000000000000000000000000000000000000000000000000161480156112e257507f000000000000000000000000000000000000000000000000000000000000000046145b1561130c57507f000000000000000000000000000000000000000000000000000000000000000090565b610965604080517f8b73c3c69bb8fe3d512ecc4cf759cc79239f7b179b0ffacaa9a75d522b39400f60208201527f0000000000000000000000000000000000000000000000000000000000000000918101919091527f000000000000000000000000000000000000000000000000000000000000000060608201524660808201523060a082015260009060c00160405160208183030381529060405280519060200120905090565b60004265ffffffffffff811683106113f057604051637669fc0f60e11b81526004810184905265ffffffffffff82166024820152604401610f0f565b611120836119e7565b81546000908181600581111561145857600061141484611a1e565b61141e90856128c7565b60008881526020902090915081015465ffffffffffff908116908716101561144857809150611456565b611453816001612865565b92505b505b600061146687878585611b72565b905080156114a15761148b8761147d6001846128c7565b600091825260209091200190565b54600160301b90046001600160d01b03166114a4565b60005b979650505050505050565b6001600160a01b0382166114d9576000604051634b637e8f60e11b8152600401610f0f91906124cb565b61128582600083611858565b3361128581836116af565b6001600160a01b0381166000908152600a602052604081205461074f90611bd4565b600580546001600160a01b038381166001600160a01b0319831681179093556040519116919082907f8be0079c531659141344cd1fd0a4f28419497f9722a3daafe3b4186f6b6457e090600090a35050565b6001600160a01b03811660009081526008602052604081205461074f565b60606109657f00000000000000000000000000000000000000000000000000000000000000006006611c05565b60606109657f00000000000000000000000000000000000000000000000000000000000000006007611c05565b8054600090801561160c576115f68361147d6001846128c7565b54600160301b90046001600160d01b0316611120565b60009392505050565b600061074f611622611289565b8360405161190160f01b8152600281019290925260228201526042902090565b60008060008061165488888888611cb0565b9250925092506116648282611d75565b50909695505050505050565b600061167b8361172a565b9050808214610a09576040516301d4b62360e61b81526001600160a01b038416600482015260248101829052604401610f0f565b60006116ba83610a0e565b6001600160a01b0384811660008181526009602052604080822080546001600160a01b031916888616908117909155905194955093928516927f3134e8a2e6d97e929a7e54011ea5485d7d196dd5f0ba4d4ef95803e8e3fc257f9190a4610a09818361172586611e2e565b611e4c565b6001600160a01b0316600090815260086020526040902080546001810190915590565b60408051808201909152600080825260208201526001600160a01b0383166000908152600a602052604090206111209083611fb8565b6001600160a01b0384166117ad57600060405163e602df0560e01b8152600401610f0f91906124cb565b6001600160a01b0383166117d7576000604051634a1406b160e11b8152600401610f0f91906124cb565b6001600160a01b03808516600090815260016020908152604080832093871683529290522082905580156111ea57826001600160a01b0316846001600160a01b03167f8c5be1e5ebec7d5bd14f71427d1e84f3dd0314c0f7b2291e5b200ac8c7c3b9258460405161184a91815260200190565b60405180910390a350505050565b6000811161186557600080fd5b6001600160a01b03831661190c57600061187d6108dd565b9050600061188a60025490565b9050816118978483612865565b11156118c05760405163279e7e1560e21b81526004810182905260248101839052604401610f0f565b600060646118cf8560146128b0565b6118d9919061288e565b905060006118e782866128c7565b90506118f4878783612028565b600c54610fa89088906001600160a01b031684612028565b600d5460408051635db174df60e01b815290516000926001600160a01b031691635db174df9160048083019260209291908290030181865afa158015611956573d6000803e3d6000fd5b505050506040513d601f19601f8201168201806040525081019061197a9190612832565b9050801561199257801561198d57600080fd5b6111ea565b60006103e86119a28460026128b0565b6119ac919061288e565b905060006119ba82856128c7565b90506119c7868683612028565b600c546119df9087906001600160a01b031684612028565b505050505050565b600065ffffffffffff821115611a1a576040516306dfcc6560e41b81526030600482015260248101839052604401610f0f565b5090565b600060018211611a2c575090565b816001600160801b8210611a455760809190911c9060401b5b600160401b8210611a5b5760409190911c9060201b5b6401000000008210611a725760209190911c9060101b5b620100008210611a875760109190911c9060081b5b6101008210611a9b5760089190911c9060041b5b60108210611aae5760049190911c9060021b5b60048210611aba5760011b5b600302600190811c90818581611ad257611ad2612878565b048201901c90506001818581611aea57611aea612878565b048201901c90506001818581611b0257611b02612878565b048201901c90506001818581611b1a57611b1a612878565b048201901c90506001818581611b3257611b32612878565b048201901c90506001818581611b4a57611b4a612878565b048201901c9050611b69818581611b6357611b63612878565b04821190565b90039392505050565b60005b81831015611bcc576000611b89848461208c565b60008781526020902090915065ffffffffffff86169082015465ffffffffffff161115611bb857809250611bc6565b611bc3816001612865565b93505b50611b75565b509392505050565b600063ffffffff821115611a1a576040516306dfcc6560e41b81526020600482015260248101839052604401610f0f565b606060ff8314611c1f57611c18836120a7565b905061074f565b818054611c2b906127f8565b80601f0160208091040260200160405190810160405280929190818152602001828054611c57906127f8565b8015611ca45780601f10611c7957610100808354040283529160200191611ca4565b820191906000526020600020905b815481529060010190602001808311611c8757829003601f168201915b5050505050905061074f565b600080806fa2a8918ca85bafe22016d0b997e4df60600160ff1b03841115611ce15750600091506003905082611d6b565b604080516000808252602082018084528a905260ff891692820192909252606081018790526080810186905260019060a0016020604051602081039080840390855afa158015611d35573d6000803e3d6000fd5b5050604051601f1901519150506001600160a01b038116611d6157506000925060019150829050611d6b565b9250600091508190505b9450945094915050565b6000826003811115611d8957611d89612914565b03611d92575050565b6001826003811115611da657611da6612914565b03611dc45760405163f645eedf60e01b815260040160405180910390fd5b6002826003811115611dd857611dd8612914565b03611df95760405163fce698f760e01b815260048101829052602401610f0f565b6003826003811115611e0d57611e0d612914565b03611285576040516335e2f38360e21b815260048101829052602401610f0f565b6001600160a01b03811660009081526020819052604081205461074f565b816001600160a01b0316836001600160a01b031614158015611e6e5750600081115b15610a09576001600160a01b03831615611f16576001600160a01b0383166000908152600a602052604081208190611eb1906120e6611eac866120f2565b612126565b6001600160d01b031691506001600160d01b03169150846001600160a01b03167fdec2bacdd2f05b59de34da9b523dff8be42e5e38e818c82fdb0bae774387a7248383604051611f0b929190918252602082015260400190565b60405180910390a250505b6001600160a01b03821615610a09576001600160a01b0382166000908152600a602052604081208190611f4f90612158611eac866120f2565b6001600160d01b031691506001600160d01b03169150836001600160a01b03167fdec2bacdd2f05b59de34da9b523dff8be42e5e38e818c82fdb0bae774387a7248383604051611fa9929190918252602082015260400190565b60405180910390a25050505050565b6040805180820190915260008082526020820152826000018263ffffffff1681548110611fe757611fe761292a565b60009182526020918290206040805180820190915291015465ffffffffffff81168252600160301b90046001600160d01b0316918101919091529392505050565b612033838383612164565b6001600160a01b038316610a0957600061204b6108dd565b9050600061205860025490565b9050818111156120855760405163279e7e1560e21b81526004810182905260248101839052604401610f0f565b5050505050565b600061209b600284841861288e565b61112090848416612865565b606060006120b4836121cb565b604080516020808252818301909252919250600091906020820181803683375050509182525060208101929092525090565b60006111208284612940565b60006001600160d01b03821115611a1a576040516306dfcc6560e41b815260d0600482015260248101839052604401610f0f565b60008061214b42612143612139886115dc565b868863ffffffff16565b8791906121f3565b915091505b935093915050565b60006111208284612967565b61216f838383612201565b6001600160a01b0383166121c057600061218860025490565b90506001600160d01b03808211156121bd57604051630e58ae9360e11b81526004810183905260248101829052604401610f0f565b50505b610a09838383612318565b600060ff8216601f81111561074f57604051632cd44ac360e21b815260040160405180910390fd5b60008061214b858585612377565b6001600160a01b03831661222c5780600260008282546122219190612865565b9091555061228b9050565b6001600160a01b0383166000908152602081905260409020548181101561226c5783818360405163391434e360e21b8152600401610f0f939291906128f3565b6001600160a01b03841660009081526020819052604090209082900390555b6001600160a01b0382166122a7576002805482900390556122c6565b6001600160a01b03821660009081526020819052604090208054820190555b816001600160a01b0316836001600160a01b03167fddf252ad1be2c89b69c2b068fc378daa952ba7f163c4a11628f55a4df523b3ef8360405161230b91815260200190565b60405180910390a3505050565b6001600160a01b03831661233a57612337600b612158611eac846120f2565b50505b6001600160a01b03821661235c57612359600b6120e6611eac846120f2565b50505b610a0961236884610a0e565b61237184610a0e565b83611e4c565b8254600090819080156124705760006123958761147d6001856128c7565b805490915065ffffffffffff80821691600160301b90046001600160d01b03169088168211156123d857604051632520601d60e01b815260040160405180910390fd5b8765ffffffffffff168265ffffffffffff160361241157825465ffffffffffff16600160301b6001600160d01b03891602178355612462565b6040805180820190915265ffffffffffff808a1682526001600160d01b03808a1660208085019182528d54600181018f5560008f81529190912094519151909216600160301b029216919091179101555b945085935061215092505050565b50506040805180820190915265ffffffffffff80851682526001600160d01b0380851660208085019182528854600181018a5560008a815291822095519251909316600160301b029190931617920191909155905081612150565b6001600160a01b0391909116815260200190565b80356001600160a01b03811681146124f657600080fd5b919050565b60006020828403121561250d57600080fd5b611120826124df565b6000815180845260005b8181101561253c57602081850181015186830182015201612520565b506000602082860101526020601f19601f83011685010191505092915050565b6020815260006111206020830184612516565b6000806040838503121561258257600080fd5b61258b836124df565b946020939093013593505050565b6000806000606084860312156125ae57600080fd5b6125b7846124df565b92506125c5602085016124df565b9150604084013590509250925092565b8015158114610c1a57600080fd5b6000602082840312156125f557600080fd5b8135611120816125d5565b60006020828403121561261257600080fd5b5035919050565b60ff60f81b881681526000602060e0602084015261263a60e084018a612516565b838103604085015261264c818a612516565b606085018990526001600160a01b038816608086015260a0850187905284810360c08601528551808252602080880193509091019060005b818110156126a057835183529284019291840191600101612684565b50909c9b505050505050505050505050565b803560ff811681146124f657600080fd5b60008060008060008060c087890312156126dc57600080fd5b6126e5876124df565b95506020870135945060408701359350612701606088016126b2565b92506080870135915060a087013590509295509295509295565b600080600080600080600060e0888a03121561273657600080fd5b61273f886124df565b965061274d602089016124df565b95506040880135945060608801359350612769608089016126b2565b925060a0880135915060c0880135905092959891949750929550565b6000806040838503121561279857600080fd5b6127a1836124df565b91506127af602084016124df565b90509250929050565b600080604083850312156127cb57600080fd5b6127d4836124df565b9150602083013563ffffffff811681146127ed57600080fd5b809150509250929050565b600181811c9082168061280c57607f821691505b60208210810361282c57634e487b7160e01b600052602260045260246000fd5b50919050565b60006020828403121561284457600080fd5b8151611120816125d5565b634e487b7160e01b600052601160045260246000fd5b8082018082111561074f5761074f61284f565b634e487b7160e01b600052601260045260246000fd5b6000826128ab57634e487b7160e01b600052601260045260246000fd5b500490565b808202811582820484141761074f5761074f61284f565b8181038181111561074f5761074f61284f565b6000600182016128ec576128ec61284f565b5060010190565b6001600160a01b039390931683526020830191909152604082015260600190565b634e487b7160e01b600052602160045260246000fd5b634e487b7160e01b600052603260045260246000fd5b6001600160d01b038281168282160390808211156129605761296061284f565b5092915050565b6001600160d01b038181168382160190808211156129605761296061284f56fea26469706673582212200c36b710afbeaf6df4eb4dce53791b2db6d200db8b6c4fffef23a501cd79c97d64736f6c63430008180033",
  "linkReferences": {},
  "deployedLinkReferences": {}
}