{
  "_format": "hh-sol-artifact-1",
  "contractName": "GuildBankGovernorTreasury",
  "sourceName": "contracts/GuildBankGovernorTreasury.sol",
  "abi": [
    {
      "inputs": [
        {
          "internalType": "address",
          "name": "initialOwner",
          "type": "address"
        },
        {
          "internalType": "address",
          "name": "_LocalBoDTreasury",
          "type": "address"
        },
        {
          "internalType": "address",
          "name": "_GuildBankElection",
          "type": "address"
        },
        {
          "internalType": "address",
          "name": "_GlobalBoD",
          "type": "address"
        }
      ],
      "stateMutability": "nonpayable",
      "type": "constructor"
    },
    {
      "inputs": [
        {
          "internalType": "address",
          "name": "owner",
          "type": "address"
        }
      ],
      "name": "OwnableInvalidOwner",
      "type": "error"
    },
    {
      "inputs": [
        {
          "internalType": "address",
          "name": "account",
          "type": "address"
        }
      ],
      "name": "OwnableUnauthorizedAccount",
      "type": "error"
    },
    {
      "anonymous": false,
      "inputs": [
        {
          "indexed": true,
          "internalType": "address",
          "name": "previousOwner",
          "type": "address"
        },
        {
          "indexed": true,
          "internalType": "address",
          "name": "newOwner",
          "type": "address"
        }
      ],
      "name": "OwnershipTransferred",
      "type": "event"
    },
    {
      "anonymous": false,
      "inputs": [
        {
          "indexed": false,
          "internalType": "string",
          "name": "Token",
          "type": "string"
        },
        {
          "indexed": false,
          "internalType": "uint256",
          "name": "balanceSent",
          "type": "uint256"
        }
      ],
      "name": "SeasonTransfer",
      "type": "event"
    },
    {
      "anonymous": false,
      "inputs": [
        {
          "components": [
            {
              "internalType": "bool",
              "name": "tokenAccepted",
              "type": "bool"
            },
            {
              "internalType": "string",
              "name": "tokenName",
              "type": "string"
            },
            {
              "internalType": "address",
              "name": "tokenAddress",
              "type": "address"
            },
            {
              "internalType": "uint256",
              "name": "arrayId",
              "type": "uint256"
            },
            {
              "internalType": "uint256",
              "name": "amount",
              "type": "uint256"
            },
            {
              "internalType": "bool",
              "name": "isErc20",
              "type": "bool"
            },
            {
              "internalType": "uint256",
              "name": "tokenId",
              "type": "uint256"
            }
          ],
          "indexed": false,
          "internalType": "struct GuildBankGovernorTreasury.tokenInVault",
          "name": "_Token",
          "type": "tuple"
        }
      ],
      "name": "tokenAddedToTreasury",
      "type": "event"
    },
    {
      "anonymous": false,
      "inputs": [
        {
          "components": [
            {
              "internalType": "bool",
              "name": "tokenAccepted",
              "type": "bool"
            },
            {
              "internalType": "string",
              "name": "tokenName",
              "type": "string"
            },
            {
              "internalType": "address",
              "name": "tokenAddress",
              "type": "address"
            },
            {
              "internalType": "uint256",
              "name": "arrayId",
              "type": "uint256"
            },
            {
              "internalType": "uint256",
              "name": "amount",
              "type": "uint256"
            },
            {
              "internalType": "bool",
              "name": "isErc20",
              "type": "bool"
            },
            {
              "internalType": "uint256",
              "name": "tokenId",
              "type": "uint256"
            }
          ],
          "indexed": false,
          "internalType": "struct GuildBankGovernorTreasury.tokenInVault",
          "name": "_Token",
          "type": "tuple"
        }
      ],
      "name": "tokenRemovedFromTreasury",
      "type": "event"
    },
    {
      "anonymous": false,
      "inputs": [
        {
          "indexed": false,
          "internalType": "uint256",
          "name": "_time",
          "type": "uint256"
        }
      ],
      "name": "withdrawToBoDEvent",
      "type": "event"
    },
    {
      "inputs": [],
      "name": "GlobalBoDTreasury",
      "outputs": [
        {
          "internalType": "address",
          "name": "",
          "type": "address"
        }
      ],
      "stateMutability": "view",
      "type": "function"
    },
    {
      "inputs": [],
      "name": "GuildBankElection",
      "outputs": [
        {
          "internalType": "address",
          "name": "",
          "type": "address"
        }
      ],
      "stateMutability": "view",
      "type": "function"
    },
    {
      "inputs": [],
      "name": "LocalBoDTreasury",
      "outputs": [
        {
          "internalType": "address",
          "name": "",
          "type": "address"
        }
      ],
      "stateMutability": "view",
      "type": "function"
    },
    {
      "inputs": [
        {
          "internalType": "bytes",
          "name": "_data",
          "type": "bytes"
        }
      ],
      "name": "NewSeasonTransfer",
      "outputs": [],
      "stateMutability": "nonpayable",
      "type": "function"
    },
    {
      "inputs": [
        {
          "internalType": "uint256",
          "name": "",
          "type": "uint256"
        }
      ],
      "name": "TokensInVault",
      "outputs": [
        {
          "internalType": "string",
          "name": "",
          "type": "string"
        }
      ],
      "stateMutability": "view",
      "type": "function"
    },
    {
      "inputs": [
        {
          "internalType": "string",
          "name": "",
          "type": "string"
        }
      ],
      "name": "VaultMap",
      "outputs": [
        {
          "internalType": "bool",
          "name": "tokenAccepted",
          "type": "bool"
        },
        {
          "internalType": "string",
          "name": "tokenName",
          "type": "string"
        },
        {
          "internalType": "address",
          "name": "tokenAddress",
          "type": "address"
        },
        {
          "internalType": "uint256",
          "name": "arrayId",
          "type": "uint256"
        },
        {
          "internalType": "uint256",
          "name": "amount",
          "type": "uint256"
        },
        {
          "internalType": "bool",
          "name": "isErc20",
          "type": "bool"
        },
        {
          "internalType": "uint256",
          "name": "tokenId",
          "type": "uint256"
        }
      ],
      "stateMutability": "view",
      "type": "function"
    },
    {
      "inputs": [
        {
          "internalType": "string",
          "name": "_tokenName",
          "type": "string"
        },
        {
          "internalType": "address",
          "name": "_TokenAddress",
          "type": "address"
        },
        {
          "internalType": "bool",
          "name": "_isErc20",
          "type": "bool"
        },
        {
          "internalType": "uint256",
          "name": "_id",
          "type": "uint256"
        }
      ],
      "name": "addTokenTreasury",
      "outputs": [],
      "stateMutability": "nonpayable",
      "type": "function"
    },
    {
      "inputs": [
        {
          "internalType": "bytes",
          "name": "_data",
          "type": "bytes"
        }
      ],
      "name": "dumpResourcesToBoD",
      "outputs": [],
      "stateMutability": "nonpayable",
      "type": "function"
    },
    {
      "inputs": [
        {
          "internalType": "address",
          "name": "",
          "type": "address"
        },
        {
          "internalType": "address",
          "name": "",
          "type": "address"
        },
        {
          "internalType": "uint256[]",
          "name": "",
          "type": "uint256[]"
        },
        {
          "internalType": "uint256[]",
          "name": "",
          "type": "uint256[]"
        },
        {
          "internalType": "bytes",
          "name": "",
          "type": "bytes"
        }
      ],
      "name": "onERC1155BatchReceived",
      "outputs": [
        {
          "internalType": "bytes4",
          "name": "",
          "type": "bytes4"
        }
      ],
      "stateMutability": "nonpayable",
      "type": "function"
    },
    {
      "inputs": [
        {
          "internalType": "address",
          "name": "",
          "type": "address"
        },
        {
          "internalType": "address",
          "name": "",
          "type": "address"
        },
        {
          "internalType": "uint256",
          "name": "",
          "type": "uint256"
        },
        {
          "internalType": "uint256",
          "name": "",
          "type": "uint256"
        },
        {
          "internalType": "bytes",
          "name": "",
          "type": "bytes"
        }
      ],
      "name": "onERC1155Received",
      "outputs": [
        {
          "internalType": "bytes4",
          "name": "",
          "type": "bytes4"
        }
      ],
      "stateMutability": "nonpayable",
      "type": "function"
    },
    {
      "inputs": [],
      "name": "owner",
      "outputs": [
        {
          "internalType": "address",
          "name": "",
          "type": "address"
        }
      ],
      "stateMutability": "view",
      "type": "function"
    },
    {
      "inputs": [
        {
          "internalType": "string",
          "name": "_tokenName",
          "type": "string"
        }
      ],
      "name": "removeTokenTreasury",
      "outputs": [],
      "stateMutability": "nonpayable",
      "type": "function"
    },
    {
      "inputs": [],
      "name": "renounceOwnership",
      "outputs": [],
      "stateMutability": "nonpayable",
      "type": "function"
    },
    {
      "inputs": [
        {
          "internalType": "string",
          "name": "_name",
          "type": "string"
        }
      ],
      "name": "showTokenAddress",
      "outputs": [
        {
          "internalType": "address",
          "name": "",
          "type": "address"
        }
      ],
      "stateMutability": "view",
      "type": "function"
    },
    {
      "inputs": [
        {
          "internalType": "string",
          "name": "_name",
          "type": "string"
        }
      ],
      "name": "showTokenAmount",
      "outputs": [
        {
          "internalType": "uint256",
          "name": "",
          "type": "uint256"
        }
      ],
      "stateMutability": "view",
      "type": "function"
    },
    {
      "inputs": [
        {
          "internalType": "string",
          "name": "_name",
          "type": "string"
        }
      ],
      "name": "showTokenId",
      "outputs": [
        {
          "internalType": "uint256",
          "name": "",
          "type": "uint256"
        }
      ],
      "stateMutability": "view",
      "type": "function"
    },
    {
      "inputs": [
        {
          "internalType": "string",
          "name": "_name",
          "type": "string"
        }
      ],
      "name": "showTokenIsERC20",
      "outputs": [
        {
          "internalType": "bool",
          "name": "",
          "type": "bool"
        }
      ],
      "stateMutability": "view",
      "type": "function"
    },
    {
      "inputs": [],
      "name": "showTreasuryArray",
      "outputs": [
        {
          "internalType": "string[]",
          "name": "",
          "type": "string[]"
        }
      ],
      "stateMutability": "view",
      "type": "function"
    },
    {
      "inputs": [
        {
          "internalType": "bytes4",
          "name": "interfaceId",
          "type": "bytes4"
        }
      ],
      "name": "supportsInterface",
      "outputs": [
        {
          "internalType": "bool",
          "name": "",
          "type": "bool"
        }
      ],
      "stateMutability": "view",
      "type": "function"
    },
    {
      "inputs": [
        {
          "internalType": "address",
          "name": "newOwner",
          "type": "address"
        }
      ],
      "name": "transferOwnership",
      "outputs": [],
      "stateMutability": "nonpayable",
      "type": "function"
    },
    {
      "inputs": [
        {
          "internalType": "string",
          "name": "_tokenName",
          "type": "string"
        }
      ],
      "name": "updateBalance",
      "outputs": [],
      "stateMutability": "nonpayable",
      "type": "function"
    }
  ],
  "bytecode": "0x60806040523480156200001157600080fd5b506040516200229838038062002298833981016040819052620000349162000121565b836001600160a01b0381166200006457604051631e4fbdf760e01b81526000600482015260240160405180910390fd5b6200006f81620000b4565b50600180546001600160a01b039485166001600160a01b031991821617909155600280549385169382169390931790925560038054919093169116179055506200017e565b600080546001600160a01b038381166001600160a01b0319831681178455604051919092169283917f8be0079c531659141344cd1fd0a4f28419497f9722a3daafe3b4186f6b6457e09190a35050565b80516001600160a01b03811681146200011c57600080fd5b919050565b600080600080608085870312156200013857600080fd5b620001438562000104565b9350620001536020860162000104565b9250620001636040860162000104565b9150620001736060860162000104565b905092959194509250565b61210a806200018e6000396000f3fe608060405234801561001057600080fd5b50600436106101375760003560e01c80636f2ec97a116100b85780639d45e4ba1161007c5780639d45e4ba1461028d578063bc197c81146102b3578063d1f3cf22146102eb578063f23a6e61146102fe578063f2fde38b1461031d578063f3711f9b1461033057600080fd5b80636f2ec97a1461023b578063715018a61461024e57806374f49729146102565780637c3cd858146102695780638da5cb5b1461027c57600080fd5b80633623b4f1116100ff5780633623b4f1146101cd5780633ef2c61b146101e057806349c2e33d146102005780635076805714610213578063607169151461022657600080fd5b806301ffc9a71461013c57806302145e2e1461016457806315708ba8146101845780632277b8ad146101a557806326af3c02146101ba575b600080fd5b61014f61014a3660046116b6565b610343565b60405190151581526020015b60405180910390f35b600154610177906001600160a01b031681565b60405161015b91906116e7565b6101976101923660046117b0565b61037a565b60405190815260200161015b565b6101b86101b3366004611816565b6103a5565b005b600354610177906001600160a01b031681565b6101b86101db36600461187d565b6105ce565b6101f36101ee3660046118ee565b610a78565b60405161015b9190611957565b6101b861020e3660046117b0565b610b24565b61014f6102213660046117b0565b610d4c565b61022e610d7a565b60405161015b919061196a565b600254610177906001600160a01b031681565b6101b8610e53565b6101976102643660046117b0565b610e67565b6101776102773660046117b0565b610e92565b6000546001600160a01b0316610177565b6102a061029b3660046117b0565b610ec6565b60405161015b97969594939291906119ce565b6102d26102c1366004611a9d565b63bc197c8160e01b95945050505050565b6040516001600160e01b0319909116815260200161015b565b6101b86102f936600461187d565b610fa7565b6102d261030c366004611b46565b63f23a6e6160e01b95945050505050565b6101b861032b366004611baa565b6113ab565b6101b861033e3660046117b0565b6113f2565b60006001600160e01b03198216630271189760e51b148061037457506301ffc9a760e01b6001600160e01b03198316145b92915050565b600060058260405161038c9190611bc5565b9081526020016040518091039020600601549050919050565b6001546001600160a01b031633146103bc57600080fd5b6005846040516103cc9190611bc5565b9081526040519081900360200190205460ff16156103e957600080fd5b60016005856040516103fb9190611bc5565b908152604051908190036020018120805492151560ff1990931692909217909155849060059061042c908390611bc5565b908152602001604051809103902060010190816104499190611c80565b508260058560405161045b9190611bc5565b908152602001604051809103902060020160006101000a8154816001600160a01b0302191690836001600160a01b03160217905550816005856040516104a19190611bc5565b9081526040519081900360200181206005908101805493151560ff1990941693909317909255600091906104d6908790611bc5565b9081526020016040518091039020600401819055506004805490506005856040516105019190611bc5565b908152602001604051809103902060030181905550806005856040516105279190611bc5565b90815260405190819003602001902060060155600480546001810182556000919091527f8a35acfbc15ff81a39ae7d344fd709f28e8600b4aa8c65c6b64bfe7fe36bd19b016105768582611c80565b507f99b97d4a0eb6cfb2497a5a316c24c15d99c6d97c0544bc04cc99eb7472de1b2f6005856040516105a89190611bc5565b9081526040519081900360200181206105c091611db6565b60405180910390a150505050565b6002546001600160a01b031633146105e557600080fd5b60005b600454811015610a7357600060056004838154811061060957610609611e2f565b906000526020600020016040516106209190611e45565b9081526020016040518091039020600401549050600060648260046106459190611ed1565b61064f9190611ee8565b9050600061065e600283611ee8565b9050600060056004868154811061067757610677611e2f565b9060005260206000200160405161068e9190611e45565b9081526040519081900360200190206005015460ff16905080156107ed5760006005600487815481106106c3576106c3611e2f565b906000526020600020016040516106da9190611e45565b9081526040519081900360200181206002015460035463a9059cbb60e01b83526001600160a01b039182169350839263a9059cbb9261071f9216908790600401611f0a565b6020604051808303816000875af115801561073e573d6000803e3d6000fd5b505050506040513d601f19601f820116820180604052508101906107629190611f23565b61076b57600080fd5b60015460405163a9059cbb60e01b81526001600160a01b038381169263a9059cbb9261079f92909116908790600401611f0a565b6020604051808303816000875af11580156107be573d6000803e3d6000fd5b505050506040513d601f19601f820116820180604052508101906107e29190611f23565b6107eb57600080fd5b505b8061099c57600060056004878154811061080957610809611e2f565b906000526020600020016040516108209190611e45565b90815260405190819003602001902060020154600354600480546001600160a01b039384169450849363f242432a933093911691600591908c90811061086857610868611e2f565b9060005260206000200160405161087f9190611e45565b908152604051908190036020018120600601546001600160e01b031960e086901b1682526108b793929189908f908f90600401611f40565b600060405180830381600087803b1580156108d157600080fd5b505af11580156108e5573d6000803e3d6000fd5b5050600154600480546001600160a01b03808716955063f242432a9450309316916005918c90811061091957610919611e2f565b906000526020600020016040516109309190611e45565b908152604051908190036020018120600601546001600160e01b031960e086901b16825261096893929189908f908f90600401611f40565b600060405180830381600087803b15801561098257600080fd5b505af1158015610996573d6000803e3d6000fd5b50505050505b7fd160d6c26fd0ef7fd95dc83453f779a18e4386efd301f8b304ef8b81662f4e5f6005600487815481106109d2576109d2611e2f565b906000526020600020016040516109e99190611e45565b908152602001604051809103902060010184604051610a09929190611f9c565b60405180910390a182600560048781548110610a2757610a27611e2f565b90600052602060002001604051610a3e9190611e45565b90815260200160405180910390206004016000828254610a5e9190611fbe565b9091555050600190940193506105e892505050565b505050565b60048181548110610a8857600080fd5b906000526020600020016000915090508054610aa390611be1565b80601f0160208091040260200160405190810160405280929190818152602001828054610acf90611be1565b8015610b1c5780601f10610af157610100808354040283529160200191610b1c565b820191906000526020600020905b815481529060010190602001808311610aff57829003601f168201915b505050505081565b6001546001600160a01b03163314610b3b57600080fd5b600581604051610b4b9190611bc5565b9081526040519081900360200190205460ff16610b6757600080fd5b600581604051610b779190611bc5565b908152602001604051809103902060030154600560046001600480549050610b9f9190611fbe565b81548110610baf57610baf611e2f565b90600052602060002001604051610bc69190611e45565b908152604051908190036020019020600301556004805460059190610bed90600190611fbe565b81548110610bfd57610bfd611e2f565b90600052602060002001604051610c149190611e45565b90815260200160405180910390206001016004600583604051610c379190611bc5565b90815260200160405180910390206003015481548110610c5957610c59611e2f565b906000526020600020019081610c6f9190611fd1565b506004805480610c8157610c816120a5565b600190038181906000526020600020016000610c9d9190611668565b90556000600582604051610cb19190611bc5565b908152604051908190036020018120805492151560ff1990931692909217909155600090600590610ce3908490611bc5565b9081526020016040518091039020600301819055507f277fde5c4af7925e965b59c27b57949e855e9aaf65a47d9d550203c4ac0da9e5600582604051610d299190611bc5565b908152604051908190036020018120610d4191611db6565b60405180910390a150565b6000600582604051610d5e9190611bc5565b9081526040519081900360200190206005015460ff1692915050565b60606004805480602002602001604051908101604052809291908181526020016000905b82821015610e4a578382906000526020600020018054610dbd90611be1565b80601f0160208091040260200160405190810160405280929190818152602001828054610de990611be1565b8015610e365780601f10610e0b57610100808354040283529160200191610e36565b820191906000526020600020905b815481529060010190602001808311610e1957829003601f168201915b505050505081526020019060010190610d9e565b50505050905090565b610e5b6115eb565b610e656000611618565b565b6000600582604051610e799190611bc5565b9081526020016040518091039020600401549050919050565b6000600582604051610ea49190611bc5565b908152604051908190036020019020600201546001600160a01b031692915050565b80516020818301810180516005825292820191909301209152805460018201805460ff9092169291610ef790611be1565b80601f0160208091040260200160405190810160405280929190818152602001828054610f2390611be1565b8015610f705780601f10610f4557610100808354040283529160200191610f70565b820191906000526020600020905b815481529060010190602001808311610f5357829003601f168201915b50505050600283015460038401546004850154600586015460069096015494956001600160a01b03909316949193509160ff169087565b610faf6115eb565b60005b600454811015610a73576000600560048381548110610fd357610fd3611e2f565b90600052602060002001604051610fea9190611e45565b908152604051908190036020019020600401549050600061100c600283611ee8565b9050600060056004858154811061102557611025611e2f565b9060005260206000200160405161103c9190611e45565b9081526040519081900360200190206005015460ff169050801561119b57600060056004868154811061107157611071611e2f565b906000526020600020016040516110889190611e45565b9081526040519081900360200181206002015460035463a9059cbb60e01b83526001600160a01b039182169350839263a9059cbb926110cd9216908790600401611f0a565b6020604051808303816000875af11580156110ec573d6000803e3d6000fd5b505050506040513d601f19601f820116820180604052508101906111109190611f23565b61111957600080fd5b60015460405163a9059cbb60e01b81526001600160a01b038381169263a9059cbb9261114d92909116908790600401611f0a565b6020604051808303816000875af115801561116c573d6000803e3d6000fd5b505050506040513d601f19601f820116820180604052508101906111909190611f23565b61119957600080fd5b505b8061134a5760006005600486815481106111b7576111b7611e2f565b906000526020600020016040516111ce9190611e45565b90815260405190819003602001902060020154600354600480546001600160a01b039384169450849363f242432a933093911691600591908b90811061121657611216611e2f565b9060005260206000200160405161122d9190611e45565b908152604051908190036020018120600601546001600160e01b031960e086901b16825261126593929189908e908e90600401611f40565b600060405180830381600087803b15801561127f57600080fd5b505af1158015611293573d6000803e3d6000fd5b5050600154600480546001600160a01b03808716955063f242432a9450309316916005918b9081106112c7576112c7611e2f565b906000526020600020016040516112de9190611e45565b908152604051908190036020018120600601546001600160e01b031960e086901b16825261131693929189908e908e90600401611f40565b600060405180830381600087803b15801561133057600080fd5b505af1158015611344573d6000803e3d6000fd5b50505050505b8260056004868154811061136057611360611e2f565b906000526020600020016040516113779190611e45565b908152602001604051809103902060040160008282546113979190611fbe565b909155505060019093019250610fb2915050565b6113b36115eb565b6001600160a01b0381166113e6576000604051631e4fbdf760e01b81526004016113dd91906116e7565b60405180910390fd5b6113ef81611618565b50565b6005816040516114029190611bc5565b9081526040519081900360200190205460ff1661141e57600080fd5b60006005826040516114309190611bc5565b9081526040519081900360200190206005015460ff16905080156115045760006005836040516114609190611bc5565b908152604051908190036020018120600201546370a0823160e01b82526001600160a01b0316915081906370a082319061149e9030906004016116e7565b602060405180830381865afa1580156114bb573d6000803e3d6000fd5b505050506040513d601f19601f820116820180604052508101906114df91906120bb565b6005846040516114ef9190611bc5565b90815260405190819003602001902060040155505b806115e757600060058360405161151b9190611bc5565b908152604051908190036020018120600201546001600160a01b03169150819062fdd58e903090600590611550908890611bc5565b908152604051908190036020018120600601546001600160e01b031960e085901b1682526115819291600401611f0a565b602060405180830381865afa15801561159e573d6000803e3d6000fd5b505050506040513d601f19601f820116820180604052508101906115c291906120bb565b6005846040516115d29190611bc5565b90815260405190819003602001902060040155505b5050565b6000546001600160a01b03163314610e65573360405163118cdaa760e01b81526004016113dd91906116e7565b600080546001600160a01b038381166001600160a01b0319831681178455604051919092169283917f8be0079c531659141344cd1fd0a4f28419497f9722a3daafe3b4186f6b6457e09190a35050565b50805461167490611be1565b6000825580601f10611684575050565b601f0160209004906000526020600020908101906113ef91905b808211156116b2576000815560010161169e565b5090565b6000602082840312156116c857600080fd5b81356001600160e01b0319811681146116e057600080fd5b9392505050565b6001600160a01b0391909116815260200190565b634e487b7160e01b600052604160045260246000fd5b604051601f8201601f191681016001600160401b0381118282101715611739576117396116fb565b604052919050565b600082601f83011261175257600080fd5b81356001600160401b0381111561176b5761176b6116fb565b61177e601f8201601f1916602001611711565b81815284602083860101111561179357600080fd5b816020850160208301376000918101602001919091529392505050565b6000602082840312156117c257600080fd5b81356001600160401b038111156117d857600080fd5b6117e484828501611741565b949350505050565b80356001600160a01b038116811461180357600080fd5b919050565b80151581146113ef57600080fd5b6000806000806080858703121561182c57600080fd5b84356001600160401b0381111561184257600080fd5b61184e87828801611741565b94505061185d602086016117ec565b9250604085013561186d81611808565b9396929550929360600135925050565b6000806020838503121561189057600080fd5b82356001600160401b03808211156118a757600080fd5b818501915085601f8301126118bb57600080fd5b8135818111156118ca57600080fd5b8660208285010111156118dc57600080fd5b60209290920196919550909350505050565b60006020828403121561190057600080fd5b5035919050565b60005b8381101561192257818101518382015260200161190a565b50506000910152565b60008151808452611943816020860160208601611907565b601f01601f19169290920160200192915050565b6020815260006116e0602083018461192b565b600060208083016020845280855180835260408601915060408160051b87010192506020870160005b828110156119c157603f198886030184526119af85835161192b565b94509285019290850190600101611993565b5092979650505050505050565b871515815260e0602082015260006119e960e083018961192b565b6001600160a01b039790971660408301525060608101949094526080840192909252151560a083015260c09091015292915050565b600082601f830112611a2f57600080fd5b813560206001600160401b03821115611a4a57611a4a6116fb565b8160051b611a59828201611711565b9283528481018201928281019087851115611a7357600080fd5b83870192505b84831015611a9257823582529183019190830190611a79565b979650505050505050565b600080600080600060a08688031215611ab557600080fd5b611abe866117ec565b9450611acc602087016117ec565b935060408601356001600160401b0380821115611ae857600080fd5b611af489838a01611a1e565b94506060880135915080821115611b0a57600080fd5b611b1689838a01611a1e565b93506080880135915080821115611b2c57600080fd5b50611b3988828901611741565b9150509295509295909350565b600080600080600060a08688031215611b5e57600080fd5b611b67866117ec565b9450611b75602087016117ec565b9350604086013592506060860135915060808601356001600160401b03811115611b9e57600080fd5b611b3988828901611741565b600060208284031215611bbc57600080fd5b6116e0826117ec565b60008251611bd7818460208701611907565b9190910192915050565b600181811c90821680611bf557607f821691505b602082108103611c1557634e487b7160e01b600052602260045260246000fd5b50919050565b601f821115610a73576000816000526020600020601f850160051c81016020861015611c445750805b601f850160051c820191505b81811015611c6357828155600101611c50565b505050505050565b600019600383901b1c191660019190911b1790565b81516001600160401b03811115611c9957611c996116fb565b611cad81611ca78454611be1565b84611c1b565b602080601f831160018114611cdc5760008415611cca5750858301515b611cd48582611c6b565b865550611c63565b600085815260208120601f198616915b82811015611d0b57888601518255948401946001909101908401611cec565b5085821015611d295787850151600019600388901b60f8161c191681555b5050505050600190811b01905550565b60008154611d4681611be1565b808552602060018381168015611d635760018114611d7d57611dab565b60ff1985168884015283151560051b880183019550611dab565b866000528260002060005b85811015611da35781548a8201860152908301908401611d88565b890184019650505b505050505092915050565b60208152611dcc6020820160ff84541615159052565b60e060408201526000611de6610100830160018501611d39565b60028401546001600160a01b0316606084015260038401546080840152600484015460a0840152600584015460ff16151560c084015260069093015460e0909201919091525090565b634e487b7160e01b600052603260045260246000fd5b6000808354611e5381611be1565b60018281168015611e6b5760018114611e8057611eaf565b60ff1984168752821515830287019450611eaf565b8760005260208060002060005b85811015611ea65781548a820152908401908201611e8d565b50505082870194505b50929695505050505050565b634e487b7160e01b600052601160045260246000fd5b808202811582820484141761037457610374611ebb565b600082611f0557634e487b7160e01b600052601260045260246000fd5b500490565b6001600160a01b03929092168252602082015260400190565b600060208284031215611f3557600080fd5b81516116e081611808565b6001600160a01b03878116825286166020820152604081018590526060810184905260a06080820181905281018290526000828460c0840137600060c0848401015260c0601f19601f8501168301019050979650505050505050565b604081526000611faf6040830185611d39565b90508260208301529392505050565b8181038181111561037457610374611ebb565b818103611fdc575050565b611fe68254611be1565b6001600160401b03811115611ffd57611ffd6116fb565b61200b81611ca78454611be1565b6000601f82116001811461203957600083156120275750848201545b6120318482611c6b565b85555061209e565b600085815260209020601f19841690600086815260209020845b838110156120735782860154825560019586019590910190602001612053565b50858310156120915781850154600019600388901b60f8161c191681555b50505060018360011b0184555b5050505050565b634e487b7160e01b600052603160045260246000fd5b6000602082840312156120cd57600080fd5b505191905056fea264697066735822122011b92d0d4b9ab9959bd5aa5b7809894e550514d6a5d5ef54ae04617b7f9ac1a164736f6c63430008180033",
  "linkReferences": {},
  "deployedLinkReferences": {}
}